:100000000080022061010000E9010000A9B00000A9
:10001000ED010000EF010000F101000040C6FCDF2F
:1000200000000000000000000000000001020000CD
:10003000F50100000000000031020000A9450000A9
:10004000D1A00000D9A00000E1A00000E9A00000BC
:10005000F1A00000F9A0000001A1000009A100002A
:1000600011A1000019A10000452F000021A10000EE
:100070008D32000029A1000031A1000039A100004B
:1000800041A1000049A1000051A1000059A10000B8
:1000900061A1000069A100000132000071A100000F
:1000A00079A1000081A1000089A1000091A10000B8
:1000B00099A10000A1A10000A9A10000B1A1000028
:1000C000B9A10000C1A10000C9A10000D1A1000098
:1000D000D9A100007D2F0000310D0000E1A100003A
:1000E000E9A10000F1A10000F9A1000001A20000B7
:1000F00009A2000011A2000019A2000021A2000024
:1001000029A2000031A2000039A2000041A2000093
:1001100049A2000051A2000059A2000061A2000003
:1001200069A20000DCF9000000000020500100007E
:10013000DCF900000000000400000000DCF9000011
:1001400000001040000000000006002030370000D2
:10015000000000040000000000001040000000004B
:1001600010B572B613484FF03801016008F064FB17
:100170000D4B07E003F10C049A685968186800F009
:100180001BF82346094A9342F4D306E01C465968FB
:1001900054F8080B00F01FF82346054A9342F5D3A4
:1001A00062B60CF0D2F8FEE724010000480100001E
:1001B0006001000020020040002393420AD210B4E4
:1001C00050F8044B41F8044B04339342F8D35DF8E4
:1001D000044B70477047002303E0002240F8042BD3
:1001E00004338B42F9D37047FEE7FEE7FEE7FEE7F4
:1001F000FEE7FEE7FEE7FEE7FEE7FEE7FFFFFFFFA5
:10020000074B19680868B0E8F04F80F30988BFF31E
:100210006F8F4FF0000080F311887047AFF30080BC
:10022000E039002000BF00BFFFFFFFFFFFFFFFFF1F
:10023000EFF30980BFF36F8F154B1A681EF0100F94
:1002400008BF20ED108A20E9F04F10602DE9090069
:100250004FF0400080F31188BFF34F8FBFF36F8FD3
:1002600005F082F84FF0000080F3118809BC19688E
:100270000868B0E8F04F1EF0100F08BFB0EC108A0D
:1002800080F30988BFF36F8F704700BFAFF3008022
:10029000E039002000BF00BFB0B588B000AF034612
:1002A000FB710023FB830023BB8300233B830023DC
:1002B000FB8200237B831E23BB820A237B820023D5
:1002C0003B820023FB818723BB817D4BB3F8063142
:1002D0001AB27C4B1A807C4B00221A80784BB3F800
:1002E00006311BB29AB2784BB3F900309BB2D31AE5
:1002F0009BB21AB2754B1A80744BB3F900309AB2A4
:10030000734BB3F900309BB212FB03F39BB21AB2EA
:10031000704B1A80704BB3F9003018460CF025FB77
:1003200002460B4609F044FE02460B4614461D46A3
:10033000684BB3F9003018460CF017FB02460B4629
:100340002046294609F044FC02460B4614461D4649
:10035000624BB3F900301A46604BB3F9003003FB2F
:1003600002F25C4BB3F9003019465A4BB3F9003036
:1003700001FB03F3134418460CF0F7FA02460B4650
:100380002046294609F0A2FC02460B4643EC172BF7
:10039000B0EE470AF0EE670A00F0A6F9B0EE407A38
:1003A000F0EE607A4E4B83ED007B4D4BD3E90001BC
:1003B0004FF000024B4B09F00BFC02460B46104677
:1003C00019463DA3D3E9002309F080FC02460B4601
:1003D0004349C1E90023424BD3E900014FF0000239
:1003E000414B0CF021FB0346002B06D03C494FF05B
:1003F00000023D4BC1E9002310E0394BD3E9000175
:100400004FF00002394B0CF03AFB0346002B05D0AD
:1004100033494FF00002354BC1E90023304BD3E99B
:1004200000014FF00002324B09F0D2FB02460B46AE
:10043000104619464FF000022E4B09F047FC0246C9
:100440000B462749C1E90023254BD3E90023104679
:1004500019460CF047FA0346FB83B7F91E30632BAD
:1004600001DD6423FB83B7F91E3013F1630F02DA59
:100470004FF69C73FB83B7F91E30002B42DC1E4BFA
:100480001B681B689AB2B7F91E301B4909680868D7
:100490001A4909680968411A01FB03F3184981FBED
:1004A00003014911DB17CB1A9BB213449BB2BB83E8
:1004B00041E000BFAFF300801F85EB51B81E09403B
:1004C000E80E0020203D0020223D0020243D002099
:1004D0004A010020263D0020480100204C01002058
:1004E000E00700200080664000004EC000004E4043
:1004F00000002440000018400C01002010010020E2
:100500001F85EB516D4B1B681B689AB2B7F91E3003
:100510006B4909680868694909680968411A01FB5B
:1005200003F3684981FB03014911DB17CB1A9BB226
:1005300013449BB2BB83B7F91C306FF0DB0202FBA4
:1005400003F303F5860303F50E535F4AC2F88030C8
:10055000B7F91E3018460BF06FFF03467B837B8B89
:10056000C3F164039BB27B83B7F91A30B7F9142047
:1005700002FB03F3534A82FB03125211DB17D31A17
:100580007B83B7F91A300A2B01DC7B8A7B83B7F9AE
:100590000C304E4AB2F9002003FB02F24C4BB3F987
:1005A000003019464A4BB3F9003003FB01F1474BC9
:1005B000B3F900301846454BB3F9003000FB03F3A4
:1005C0000B4492FBF3F301339AB27B8B12FB03F3E0
:1005D0009BB23B83B7F90C303C4AB2F9002003FBD5
:1005E00002F23B4BB3F900301946394BB3F90030F6
:1005F00003FB01F1354BB3F900301846334BB3F927
:10060000003000FB03F30B4492FBF3F3C3F101034F
:100610009AB27B8B12FB03F39BB2FB822D4B1B68C0
:100620001B689AB2B7F918302B490968086829493C
:1006300009680968411A01FB03F3224981FB0301A0
:100640004911DB17CB1A9BB213449BB23B82234B5D
:100650001B681B689AB2B7F9163021490968086807
:100660001E4909680968411A01FB03F3154981FB1A
:1006700003014911DB17CB1A9BB213449BB2FB81D8
:10068000B7F910306FF0DB0202FB03F303F58603CA
:1006900003F50E53134A9367B7F90E306FF0DB0280
:1006A00002FB03F303F5860303F50E530D4AC2F86C
:1006B000803000BF2037BD46B0BD00BF0C01002018
:1006C000140100201F85EB5100900040243D0020C4
:1006D0004C0100201C0100202001002028010020E6
:1006E0002C010020008004402DE9F3478DED000B24
:1006F0000BF04EFE55EC104B7F4B10EE100A002213
:1007000029460CF066F9002800F0C38022462B46EB
:100710007949002009F0DAFA4FF0020A04460D4642
:100720005DA3D3E90023204629460CF052F928B3F3
:100730005BA3D3E900232046294609F049FA6F4B11
:10074000002209F05FFB6D4B002209F05BFB2246A3
:100750002B4609F02DFC54A3D3E9002306460F468F
:100760002046294609F024FC02460B46304639460D
:1007700009F0ACFA0AF1010A04460D4645EC104BAB
:100780000BF006FE4AA3D3E9002351EC100B0CF04A
:1007900020F900285DD022462B462046294609F044
:1007A00017FA45A3D3E9002306460F4609F010FACD
:1007B00043A3D3E9002309F025FB32463B4609F069
:1007C00007FA41A3D3E9002309F01CFB32463B465C
:1007D00009F0FEF93EA3D3E9002309F013FB3246EA
:1007E0003B4609F0F5F93CA3D3E90023804689464E
:1007F0003046394609F0DCFB32463B4609F0E8F961
:1008000037A3D3E9002309F0D3FB32463B4609F076
:10081000DFF935A3D3E9002309F0CAFB32463B4692
:1008200009F0D6F932A3D3E9002309F0C1FB02464F
:100830000B464046494609F049FA22462B4609F044
:10084000C7F902460B462046294609F0B1FB04468B
:100850000D46BAF1010F02DD05F100431D4628489F
:1008600000EBCA0ADAE900232046294609F0A0FB7A
:10087000002204460D460023DDE900010CF07EF85D
:1008800010B105F100431D4645EC104B02B0BDE828
:10089000F087824644E700BF56CD9E5E1426D13FC6
:1008A0005599B0D0F56CE73FAA4C58E87AB6FB3FB3
:1008B000BBBDD7D9DF7CDB3DBD87B1D97ACDEABFDF
:1008C000636A8D5C3FFD2040CBBCE2B97F81344040
:1008D000E21C0651A6602B4010C74AE1490C2E408D
:1008E000D7A30D320ACA4D40A56D0B04128A55409C
:1008F000A995C4BC7C8844400000F03F0000E03F64
:10090000B8CB000080B582B000AF7860796802484B
:1009100009F016F800BEFDE7D8CB000080B500AFA7
:1009200000F038F8174B5B69164A43F08063536157
:10093000154BD3F88831144A23F00F03C2F88831DD
:10094000114BD3F88831104A43F00403C2F88831C0
:100950000E4B03F50053DB680C4A43F0040302F529
:100960000052D3600A4B1B681B686FF0DB0202FB6E
:1009700003F303F5860303F50E53024AC2F88030F1
:1009800000BF80BD009000400010004000C0084043
:100990000000002080B582B002AF0949094806F086
:1009A00029F900230093084B074A0221054806F065
:1009B0005BF9044809F05CFC00BFBD4680BD00BF88
:1009C000ECCB0000009000408023430080B500AFD6
:1009D00000F042F81E4B1B6E1D4A23F00F031366F6
:1009E0001B4B1B6E1A4A43F003031366184B1B6E16
:1009F000174A43F020031366164B03F500531B6898
:100A0000144A23F4FF5323F01F0302F5005213602E
:100A10000F4B5B6E0E4A23F00F0353660C4B5B6E5D
:100A20000B4A43F003035366094B5B6E084A43F0DD
:100A300020035366074B03F500531B68054A23F454
:100A4000FF5323F01F0302F50052136000BF80BD67
:100A50000010004000C0084080B500AF0C490D48B0
:100A600006F0C8F801220C490A4806F0AFF9012344
:100A700001220021074806F059F901230122012132
:100A8000044806F053F9034809F00EFC00BF80BD8E
:100A9000F4CB0000008002400C00002080B582B042
:100AA00000AF7860144809F0F3FB0246134B1B6853
:100AB000D31A134A1360134B1B781946104B1B684B
:100AC000114A42F821300C4809F0E2FB03460B4A78
:100AD00013600C4B1B78642B06D80A4B1B78013330
:100AE000DAB2084B1A7002E0064B00221A7000BFFF
:100AF0000837BD4680BD00BF00800240E8070020E7
:100B0000EC070020283D0020F807002080B582B0C7
:100B100000AF7860144809F0BBFB0246134B1B681A
:100B2000D31A134A1360134B1B781946124B1B68D8
:100B3000124A42F821300C4809F0AAFB03460B4A3E
:100B400013600C4B1B78642B06D80A4B1B780133BF
:100B5000DAB2084B1A7002E0064B00221A7000BF8E
:100B60000837BD4680BD00BF00800240F00700206E
:100B7000F4070020293D0020EC0700208809002010
:100B800080B483B000AF0346FB7197F90730002BA8
:100B90000BDBFB7903F01F02074997F907305B096C
:100BA000012000FA02F241F8232000BF0C37BD46B5
:100BB0005DF8047B704700BF00E100E080B483B0C3
:100BC00000AF0346FB7197F90730002B12DBFB796E
:100BD00003F01F020A4997F907305B09012000FA68
:100BE00002F2203341F82320BFF34F8F00BFBFF341
:100BF0006F8F00BF00BF0C37BD465DF8047B7047A8
:100C000000E100E080B483B000AF03463960FB71BF
:100C100097F90730002B0ADB3B68DAB20C4997F9E9
:100C200007305201D2B20B4483F800230AE03B683C
:100C3000DAB20849FB7903F00F03043B5201D2B248
:100C40000B441A7600BF0C37BD465DF8047B704735
:100C500000E100E000ED00E0B0B500AF134809F09E
:100C6000CEFB134809F0ADFB1249134807F0B0FD65
:100C70000121114809F089FB104B1B68104AA2FBA7
:100C800003239B0900221C46154622462B460A4890
:100C90000BF0F1FA00212620FFF7B4FF262009F01F
:100CA00013FB054809F061FB00BFB0BD180B002025
:100CB0002C0B0020FCCB000000D00240440100209F
:100CC000D34D621080B582B000AF00237B60262038
:100CD00009F010FB0346002B09D1074809F0E4FB9B
:100CE000034603F003037B60262009F0EDFA7B68DE
:100CF00018460837BD4680BD180B002080B582B06D
:100D000000AF00237B60262009F0F4FA0346002B95
:100D100006D1064809F062FB7860262009F0D4FA73
:100D20007B6818460837BD4680BD00BF2C0B0020ED
:100D300098B500AF142203211E4809F0F1FA0346CA
:100D4000DCB2162203211B4809F0EAFA0346DBB2A3
:100D50001A462146184800F037F8184B1B78092B23
:100D600018D915220321134809F0DAFA034603F0D3
:100D700001041E2203210F4809F0D2FA03465B004A
:100D800003F00203234319460D4809F04DFB0B4BBA
:100D900000221A70094B1B780133DAB2074B1A7024
:100DA0000121084809F0D0FABFF34F8F00BF00BF00
:100DB00098BD00BF00C008402C0B00202A3D002039
:100DC000180B002000D0024080B483B000AF7860E0
:100DD0000B46FB701346BB707B681B78DBB29B0035
:100DE000DBB203F00F03DAB27B681A70FB78002BDA
:100DF00007D07B681B78DBB243F00203DAB27B6872
:100E00001A70BB78002B07D07B681B78DBB243F0ED
:100E10000103DAB27B681A707B681B78DBB21A4672
:100E2000144B99567B685B785BB2DAB2CBB2134451
:100E3000DBB25AB27B685A707B681B78DBB203F076
:100E40000A030A2B0FD17B685B785BB2002B0AD0B8
:100E50007B685B785AB27B685B681A447B685A602F
:100E60007B6800225A7000BF0C37BD465DF8047BDA
:100E7000704700BF00CC000080B582B000AF0346D1
:100E8000FB710B46BB7113467B713F4B1B68002BFC
:100E900004D03D4B1B68184609F035FB3B4B1B78D3
:100EA000012B02D0022B2FD060E0BB79002B04D0A5
:100EB000364B02221A7000F0ABFB334B1B68002B41
:100EC00051D0FB79002B04D02F4B1B68184609F03A
:100ED0001BFC97F90530002B06DA2B4B1B68012110
:100EE000184609F0E7FC09E097F90530002B05DD0D
:100EF000254B1B680121184609F079FC224B1B6821
:100F0000184609F04CFD2EE0BB79002B04D01F4B96
:100F100001221A7009F0B2FB1B4B1B68002B24D076
:100F2000FB79002B04D0184B1B68184609F0ECFB2A
:100F300097F90530002B06DA134B1B680121184680
:100F400009F0B8FC09E097F90530002B05DD0E4BE0
:100F50001B680121184609F04AFC0B4B1B68184618
:100F600009F01DFD01E000BF00E000BF064B1B685B
:100F7000002B04D0044B1B68184609F0D3FA00BFBD
:100F80000837BD4680BD00BF340B00202B3D00203C
:100F900080B58AB002AF78601423BB6104F02AF9EF
:100FA0000346BB600023FB6101F0C0FD3C4809F033
:100FB00006FD3C4809F003FD3B4809F000FD3B48B5
:100FC00009F0FDFC3A4809F0FAFC3A4809F0F7FC50
:100FD000394809F0F4FC394809F0F1FC384809F0C7
:100FE000EEFC384809F0EBFC374809F0E8FC3748DC
:100FF00009F06BFA364B012201925A6800921B6885
:1010000000220021314809F0CFFE304809F06CFA87
:10101000642003F0C3FF2D4809F057FA2D4B01223D
:1010200001925A6800921B6800220021274809F0AB
:10103000BBFE264809F058FA642003F0AFFF264BA8
:1010400001221A7000F0BCFE00F0B0FDFFF704FEB4
:10105000FFF738FE78617B69DBB203F00103FB74B4
:101060007B695B08DBB203F00103BB74FFF746FE4C
:10107000F860FB685AB2B97CFB7C1846FFF7FCFEAF
:10108000FB695A1CFA61192B03D80023FB6100F09D
:10109000C7FD07F10803B969184603F001FFD7E758
:1010A000F40000202C00002040000020540000200C
:1010B000680000207C00002090000020A400002098
:1010C000B8000020CC000020E0000020CC0B002065
:1010D00010D0000018D400002B3D002080B58AB04D
:1010E00004AF78600023FB757B685B7A03F0020332
:1010F000DBB2002B00F03E827B4809F036FA002379
:101100000293012301933F2300937F230D220021AB
:10111000754809F028FD754B012201925A6800922A
:101120001B6839220021704809F03EFE704B0122F5
:1011300001925A6800921B68132205216A4809F03F
:1011400033FE6B4B012201925A6800921B681322F6
:101150002321654809F028FE654B012201925A6857
:1011600000921B68132242215F4809F01DFE604B6C
:10117000012201925A6800921B68132260215A488A
:1011800009F012FE7B681B7A022B0BD1594B01220E
:1011900001925A6800921B6839222821524809F0AE
:1011A00003FE4DE07B681B7A002B0CD101230293D8
:1011B000012301932C2300931E23142206214A4865
:1011C00009F0D1FC31E07B681B7A012B0CD10123A3
:1011D0000293012301932C2300933C231422242106
:1011E000414809F0C0FC20E07B681B7A032B0CD13E
:1011F00001230293012301932C2300935B231422E8
:101200004321394809F0AFFC0FE07B681B7A042BBF
:101210000BD101230293012301932C230093792303
:1012200014226121304809F09EFC334B01220192C7
:101230005A6800921B68392228212B4809F0B4FD16
:101240007B685B683B613B695B691B68092B16D84F
:101250003B695B691A68294B83FB02139910D3170A
:10126000C91A0B469B000B445B00D11ACBB230333A
:10127000DBB23B7200237B720123FB758CE03B6980
:101280005B691B68632B3BD83B695B691B681B4A26
:1012900082FB03129210DB17D21A184B83FB021346
:1012A0009910D317C91A0B469B000B445B00D11A47
:1012B000CBB23033DBB23B723B695B691A680F4BD0
:1012C00083FB02139910D317C91A0B469B000B44DA
:1012D0005B00D11ACBB23033DBB27B720023BB721E
:1012E0000223FB7558E000BFCC0B002098DE000005
:1012F00074E00000ACE00000E4E0000067666666B1
:101300003B695B691B68B3F57A7F45D23B695B69D2
:101310001B689A4A82FB03125211DB17D21A984BB0
:1013200083FB02139910D317C91A0B469B000B4479
:101330005B00D11ACBB23033DBB23B723B695B69E5
:101340001B688F4A82FB03129210DB17D21A8C4B58
:1013500083FB02139910D317C91A0B469B000B4449
:101360005B00D11ACBB23033DBB27B723B695B6975
:101370001A68834B83FB02139910D317C91A0B46C3
:101380009B000B445B00D11ACBB23033DBB2BB7293
:101390000023FB720323FB757B681B7A002B14BFB1
:1013A00001230023DBB21A46764B01925A68009261
:1013B0001B6816220821744809F0F6FCFB7DC3F176
:1013C0000303DBB25B00DBB20D33DBB21E22194636
:1013D0006D4809F0B6F87B681B7A002B14BF012317
:1013E0000023DBB21A46694B07F108010192012282
:1013F00000920CCB644809F0B7FC7B685B6828332B
:101400003B613B695B691B6803F00103002B12D051
:101410007B681B7A012B14BF01230023DBB21A4621
:101420005B4B01925A6800921B681622262156488F
:1014300009F0BAFC11E07B681B7A012B14BF012371
:101440000023DBB21A46534B01925A6800921B6884
:10145000162226214C4809F0A7FC7B685B6878338C
:101460003B613B695B691B6803F00103002B12D0F1
:101470007B681B7A032B14BF01230023DBB21A46BF
:10148000454B01925A6800921B68162245213E483E
:1014900009F08AFC11E07B681B7A032B14BF01233F
:1014A0000023DBB21A463D4B01925A6800921B683A
:1014B00016224521344809F077FC7B685B68A0332D
:1014C0003B613B695B691968354BA3FB01235A08F3
:1014D00013465B001344CA1A1346FB73FB7B022BB3
:1014E0002CD0022B3DDC002B02D0012B13D038E096
:1014F0007B681B7A042B14BF01230023DBB21A463E
:10150000284B01925A6800921B68162263211E48DC
:1015100009F04AFC25E07B681B7A042B14BF0123E9
:101520000023DBB21A46204B01925A6800921B68D6
:1015300016226321144809F037FC12E07B681B7AFD
:10154000042B14BF01230023DBB21A46174B019270
:101550005A6800921B68162263210B4809F024FC8C
:1015600000BF094809F010F87A68537A6FF3410315
:10157000537200E000BF1837BD4680BD1F85EB5198
:101580006766666610DE0000CC0B002038DD0000C8
:1015900080DD0000E0DE000028DF0000C8DD000084
:1015A000ABAAAAAA70DF0000B8DF000000E00000CC
:1015B00080B483B000AF786039607B68134AA2FBC7
:1015C0000323D908114BA3FB0123DA0813469B0020
:1015D00013445B00CA1AD3B23033DAB23B681A70D4
:1015E00079680A4BA3FB0123DA0813469B001344D6
:1015F0005B00CA1AD2B23B6801333032D2B21A70E1
:1016000000BF0C37BD465DF8047B7047CDCCCCCC19
:1016100080B500AF0849094809F015F8064B0222C9
:101620001A720749054809F00EF8044B1B68184662
:1016300009F053F800BF80BDF4000020340B0020F7
:101640002C00002080B500AF0549064808F0FBFFDC
:10165000044B1B68184609F040F800BF80BD00BF6E
:1016600040000020340B002080B500AF054906483B
:1016700008F0E9FF044B1B68184609F02EF800BF7C
:1016800080BD00BF54000020340B002080B586B020
:1016900004AF0346FB71214808F099FF0023029331
:1016A000012301933F2300937F230D2200211B4838
:1016B00009F059FA12220821184808F074FF184B53
:1016C00001220192002200920CCB1649134809F026
:1016D0004BFB22220B21114808F065FF104B012221
:1016E0000192002200920CCB0F490C4809F03CFB00
:1016F00032221D21094808F056FF094B01220192B0
:10170000002200920CCB0949044809F02DFB034844
:1017100008F06CFF00BF0837BD4680BDCC0B002031
:101720001CE50000A8E70000BCE70000C8E70000D7
:1017300080B500AF0549064808F085FF044B1B68DB
:10174000184608F0CAFF00BF80BD00BF900000200F
:10175000340B002080B500AF0549064808F073FF40
:10176000044B1B68184608F0B8FF00BF80BD00BFDF
:10177000A4000020340B002080B500AF05490648C6
:1017800008F061FF044B1B68184608F0A6FF00BF75
:1017900080BD00BFB8000020340B002080B500AF32
:1017A0000549064808F04FFF044B1B68184608F02F
:1017B00094FF00BF80BD00BFCC000020340B002090
:1017C00080B500AF0549064808F03DFF044B1B6893
:1017D000184608F082FF00BF80BD00BFE000002077
:1017E000340B002080B500AF0549064808F02BFFF8
:1017F000044B1B68184608F070FF00BF80BD00BF97
:1018000068000020340B002080B500AF0549064871
:1018100008F019FF044B1B68184608F05EFF00BF74
:1018200080BD00BF7C000020340B002090B58FB03D
:1018300004AF0346FB71002387F827300023BB76F3
:10184000A14B07F108040FCB07C423800023BB750D
:101850009E4B1B68012B02D0022B12D021E09C4B27
:101860009B6F9C4AA2FB03235A0C07F108030D331C
:101870009949184607F0FAFF984B3B62984BFB6179
:101880000FE0984B9B6F934AA2FB03235A0C07F17E
:1018900008030D339049184607F0E8FF924BFB61AF
:1018A00000BF924808F093FE0023029301230193A6
:1018B0003F2300937F230D2200218C4809F053F928
:1018C000002387F8273047E097F82730FA69134458
:1018D0001B78DBB2864AA2FB03239B08DBB2C3F171
:1018E0004003BB76BA7E97F8271001237F4809F0A2
:1018F000DFF897F827303A6A134493F88030DBB268
:10190000012B0DD197F8273097F82710012202926A
:10191000012201921E2200920D22744809F023F93F
:1019200097F827303A6A134493F88030DBB2022BE1
:101930000DD197F8273097F8271001220292012243
:1019400001921E2200920D22684809F00CF997F8C6
:101950002730013387F8273097F92730002BB3DA87
:101960003B6A93F80031DBB2002B26D03B6A93F838
:101970000231D9B23B6A93F80231DBB20122029202
:10198000012201923F2200920D22584809F0EBF803
:101990003B6A93F80231DBB20133DBB232221946E3
:1019A000524808F000FE534B01220192002200929F
:1019B0000CCB51494D4809F0D7F93B6A93F80131F6
:1019C000DBB2002B26D03B6A93F80331D9B23B6AD5
:1019D00093F80331DBB201220292012201923F22ED
:1019E00000920D22414809F0BEF83B6A93F803319A
:1019F000DBB2073BDBB2322219463C4808F0D3FD8C
:101A00003C4B01220192002200920CCB3B4937480B
:101A100009F0AAF93B6A93F80131DBB2002B05D13A
:101A20003B6A93F80031DBB2002B32D03B6AB3F84B
:101A300004311BB2FB763B6AB3F804311BB2002BB6
:101A400001DA0023FB763B6AB3F804311BB27F2B2B
:101A500001DD7F23FB76FB7EF97E012202920122CB
:101A600001923F2200922B22204809F07CF8FB7E55
:101A7000073BDBB2322219461C4808F094FD1D4B8F
:101A800001220192002200920CCB1D49174809F057
:101A90006BF9164808F0AAFD1A4B5B6D002B0FD0AE
:101AA00012220021114808F07EFD124B07F10801B7
:101AB00001220192002200920CCB0C4809F054F94B
:101AC00000BF2C37BD4690BDDCE7000008010020B8
:101AD0000080004041288598D4E70000E80E0020EF
:101AE000E80B002000900440680D0020CC0B002083
:101AF000CDCCCCCC1CE5000018F500008CE8000033
:101B0000D8E70000FC10002080B586B000AF034687
:101B1000FB710023FB751E4B1B68012B02D0022BAF
:101B200005D009E01B4B3B611B4BFB6004E01B4BEA
:101B30003B611B4BFB6000BF0023FB7516E0FB7D88
:101B4000FA6813441B785BB2DAB2FB7D39690B4447
:101B50001B78DBB2D31ADBB2803BD9B2FB7DFA68CB
:101B600013444AB21A70FB7D0133FB7597F91730A5
:101B7000002BE4DA0B490C4808F065FD0A4B1B68A2
:101B8000184608F0AAFD00BF1837BD4680BD00BF4B
:101B900008010020E80B0020E80C0020680D002060
:101BA000680E002054000020340B002080B584B063
:101BB00004AF174808F00BFD0023029301230193A3
:101BC000382300937F230D220021114808F0CBFF1A
:101BD0000021104808F037FD0F4B012201925A688E
:101BE00000921B6812222721094809F0DDF80B4BEF
:101BF000012201925A6800921B6839220021044890
:101C000009F0D2F8024808F0F1FC00BFBD4680BDE3
:101C1000CC0B0020340B0020A0E70000D0E6000031
:101C200080B586B002AF03F0E5FA03465E4AA2FB38
:101C300003239B09FB60FB685C4AA2FB0323D90AD0
:101C40005B4BA3FB0123DA0813469B0013445B00A4
:101C5000CA1AD3B23033DBB23B71FB68554AA2FBE0
:101C600003235909534BA3FB01235A0913461B01B4
:101C70009B1A9B00CA1A3B1D013319461046FFF7F9
:101C800097FCF9684B4BA3FB01235A0913461B0130
:101C90009B1A9B00CA1A3B1D033319461046FFF7D7
:101CA00087FC454808F093FC00220821424808F0D0
:101CB0007AFC3979414B01220192012200920CCB2E
:101CC0003D4808F090FF00220E213B4808F06BFCD5
:101CD00079793A4B01220192012200920CCB3648CD
:101CE00008F081FF00221221334808F05CFCB9792A
:101CF000324B01220192012200920CCB2E4808F0B7
:101D000072FF002218212C4808F04DFCF9792B4B6A
:101D100001220192012200920CCB274808F063FFB8
:101D200000221C21244808F03EFC397A234B012272
:101D30000192012200920CCB1F4808F054FF0022B0
:101D400061211D4808F02FFC1C4B01220192012249
:101D500000920CCB2D21184808F045FF0022652188
:101D6000154808F020FC154B012201920122009237
:101D70000CCB2D21104808F036FF00226D210E48B3
:101D800008F011FC0D4B01220192012200920CCBB4
:101D90002D21094808F027FF074808F027FC00BF5D
:101DA0001037BD4680BD00BFD34D6210C5B3A291B0
:101DB000CDCCCCCC89888888CC0B0020D4E2000024
:101DC00080B584B004AF6D4808F001FC0023029395
:101DD000012301933F2300937F23002200216748C2
:101DE00008F0C1FE664B012201925A6800921B68FE
:101DF00000220021614808F0D7FF624B01220192C6
:101E00005A6800921B68002200215C4808F0CCFF51
:101E1000012301220C21594808F04AFE0123032224
:101E20000C21564808F044FE012301221621534894
:101E300008F03EFE012303221621504808F038FE28
:101E4000002208214D4808F0AEFB4F4B01220192C1
:101E5000012200920CCB3021484808F0C4FE002239
:101E60000E21464808F09FFB474B012201920122B8
:101E700000920CCB3021414808F0B5FE002212211F
:101E80003E4808F090FB404B012201920122009253
:101E90000CCB3021394808F0A6FE00221821374823
:101EA00008F081FB384B01220192012200920CCBF9
:101EB0003021324808F097FE00221C212F4808F0FC
:101EC00072FB314B01220192012200920CCB302196
:101ED0002A4808F088FE2D4B012201925A68009290
:101EE0001B6801227621254808F05EFF01230422A9
:101EF0006A21224808F0DCFD002271211F4808F009
:101F000052FB214B01220192002200920CCB562160
:101F10001A4808F068FE00226121184808F043FBC7
:101F2000194B01220192012200920CCB2D21134862
:101F300008F059FE00226521104808F034FB124BCE
:101F400001220192012200920CCB2D210B4808F0B6
:101F50004AFE00226D21094808F025FB0A4B0122A8
:101F60000192012200920CCB2D21044808F03BFE87
:101F7000024808F03BFB00BFBD4680BDCC0B0020F3
:101F800024E6000034E60000D4E2000048E6000049
:101F900080B500AF00F04EF8224B5B69214A43F058
:101FA00080735361204BD3F8A8311F4A23F00F03ED
:101FB000C2F8A8311C4BD3F8A8311B4A43F00303E5
:101FC000C2F8A831194B03F50053DB68174A43F4F4
:101FD000806302F50052D360124B154A9A67114B89
:101FE0005B69104A43F0806353610F4BDB6E0E4A0E
:101FF00023F00F03D3660C4BDB6E0B4A43F0030355
:10200000D3660A4B03F500531B68084A43F000638C
:1020100002F500521360034B054AC3F8802000BF4D
:1020200080BD00BF008004400010004000C0084098
:1020300020C83F0080B582B002AF0D490D4804F0C2
:10204000D9FD002300930C4B0B4A0021094804F0F2
:102050000BFE00230093084B074A0221054804F0B9
:1020600003FE044808F012FB00BFBD4680BD00BF60
:10207000ECE70000008004408023430080B58CB072
:1020800004AF78607B685B7A03F00203DBB2002B5D
:1020900000F036837B685B7A03F00103DBB2002B30
:1020A00010D07B685A687B681B7A19460B469B00E8
:1020B0000B44DB0013449B7C032B03D1786808F0AE
:1020C00057FC1EE37B681A7A7B681B789A4202D31E
:1020D0007B6800221A727B681B7AAF4AA2FB03233B
:1020E0009B08BB767B681A7AAB4BA3FB021399085B
:1020F0000B469B000B44D31A7B767B681B78A64A61
:10210000A2FB03239B08DBB2BA7E9A420BD17B6809
:102110001A78A14BA3FB021399080B469B000B44B2
:10212000D31ADBB200E005233B76786800F0B8FCF8
:1021300000230293012301933F2300937F230D2269
:102140000021786800F06AFC0023FB766DE2FB7EDC
:102150001A46920013445B00DBB21233D8B2FB7E06
:102160001A46920013445B00DBB21333DBB2F97EF4
:102170007A7E91420CBF01220022D2B20292012249
:1021800001920093002302460021786800F046FC8B
:10219000FB7E1A46920013445B00DBB21133D8B2C7
:1021A000FB7E1A46920013445B00DBB21433DBB2B1
:1021B000F97E7A7E91420CBF01220022D2B20292B5
:1021C000012201920093012302460121786800F068
:1021D00025FCFB7E1A46920013445B00DBB21033F1
:1021E000D8B2FB7E1A46920013445B00DBB2153373
:1021F000DBB2F97E7A7E91420CBF01220022D2B27C
:102200000292012201920093022302460221786881
:1022100000F004FCFB7E1A46920013445B00DBB224
:102220000F33D8B2FB7E1A46920013445B00DBB238
:102230001633DBB2F97E7A7E91420CBF0122002276
:10224000D2B202920122019200930323024603219B
:10225000786800F0E3FBFB7E1A46920013445B00B3
:10226000DBB20E33D8B2FB7E1A46920013445B00F9
:10227000DBB21733DBB2F97E7A7E91420CBF0122CA
:102280000022D2B202920122019200937A230246E6
:102290000421786800F0C2FBFA7E3B7E9A4280F00F
:1022A000C1817B685968BA7E13469B001A44FB7E45
:1022B00013441A4613469B001344DB000B443B6156
:1022C000FB7E1A46920013445B00DBB20F33D9B297
:1022D0003869FA7E7B7E9A4214BF01230023DBB269
:1022E000009303460A460521786800F0B7FB3B6976
:1022F0009B7C022B40F0EA807B685B7A03F0010351
:10230000DBB2002B19D0FB7E1A46920013445B000F
:10231000DBB20E33DAB2FB7E194689000B445B0058
:10232000DBB21733DBB2002102910121019100934E
:1023300078235421786800F071FB3B695B691B6866
:10234000FB61FB6942F20F72934205DD3E233B7253
:1023500042F20F73FB6114E0FB69104A934205DA05
:102360003C233B7242F20F73FB610AE0FB69002BD6
:1023700005DA2D233B72FB695B42FB6101E0202300
:102380003B723B7A3C2B0BD1FB6942F20F729342BA
:1023900006D12D237B7215E0CDCCCCCCF1D8FFFF3C
:1023A000FB69474A82FB03129211DB17D31AFB81A8
:1023B000FB89002B04D0FB89DBB23033DBB200E0B9
:1023C00020237B72FB693F4A82FB03125211DB1709
:1023D000D21A3D4B83FB02139910D317C91A0B462F
:1023E0009B000B445B00D11A0B46FB81FB89002B41
:1023F00004D0FB89DBB23033DBB205E0FB69632B31
:1024000001DC202300E03023BB72FB692E4A82FBF3
:1024100003129210DB17D21A2B4B83FB0213991075
:10242000D317C91A0B469B000B445B00D11A0B460D
:10243000FB81FB89002B04D0FB89DBB23033DBB29C
:1024400005E0FB69632B01DC202300E03023FB72F5
:10245000FA691D4B83FB02139910D317C91A0B4657
:102460009B000B445B00D11A0B46FB81FB89DBB25E
:102470003033DBB23B7300237B73FB7E1A46920042
:1024800013445B00DBB20F33D9B2FA7E7B7E9A42F3
:1024900006D17B685B7A03F00103DBB2002B01D02D
:1024A000012300E0002303F00103DBB207F108027F
:1024B000009313460A465521786800F0CFFAB1E040
:1024C000D34D62101F85EB51676666663B699B7C46
:1024D000012B40F0A780FA7E7B7E9A4219D1FB7EC9
:1024E0001A46920013445B00DBB20E33DAB2FB7E75
:1024F000194689000B445B00DBB21733DBB20021C5
:10250000029101210191009379237021786800F0F4
:1025100085FAFB7E1A46920013445B00DBB20F3350
:10252000DAB2FB7E194689000B445B00DBB216333E
:10253000DBB20121029100210191009378237121E6
:10254000786800F06BFA3B695B691B6803F0010374
:10255000002B67D0FB7E1A46920013445B00DBB26F
:102560001133DAB201237321786800F03DFAFB7E63
:102570001A46920013445B00DBB21233DAB2012335
:102580007421786800F030FAFB7E1A4692001344FA
:102590005B00DBB21333DAB201237521786800F0F7
:1025A00023FAFB7E1A46920013445B00DBB214331D
:1025B000DAB201237621786800F016FAFB7E1A461B
:1025C000920013445B00DBB21433DAB201237321AF
:1025D000786800F009FAFB7E1A46920013445B000B
:1025E000DBB21333DAB201237421786800F0FCF90E
:1025F000FB7E1A46920013445B00DBB21233DAB260
:1026000001237521786800F0EFF9FB7E1A469200ED
:1026100013445B00DBB21133DAB201237621786810
:1026200000F0E2F9FB7E0133FB76FB7E042B7FF6A4
:102630008EAD7B681B781A462D2393FBF2F3FB7556
:1026400001230293002301930E2300937F230E2284
:102650007D21786800F0E2F97B681B78FA7D12FB37
:1026600003F3DBB21233D9B27B681B78FA7D12FB1D
:1026700003F3DBB21233DBB2012202920022019299
:1026800000937F230A467D21786800F0C7F97B68B4
:102690001B78FA7D12FB03F3DBB21033DBB20022AE
:1026A00002920122019200937F2310227D217868FB
:1026B00000F0B4F97B681B7AFA7D12FB03F3DBB2FE
:1026C0001033D9B27B681B7A0133DBB2FA7D12FB7F
:1026D00003F3DBB21033DBB201220292012201923A
:1026E00000937F230A467D21786800F097F9786887
:1026F00000F0E4F97A68537A6FF34103537200E013
:1027000000BF2037BD4680BD80B582B000AF786085
:1027100039603B681D2B02D91048FEF7F3F87B683F
:1027200003F120023B68DBB25B09DBB29B00134480
:1027300019683B68DBB203F01F0301229A407B68F3
:1027400003F120003B68DBB25B09DBB29B00034472
:102750000A431A6000BF0837BD4680BDF4E7000099
:1027600080B586B002AFF860B9607A603B60FB6804
:10277000BA681A60FB687A681A65FB683A685A6535
:1027800003220021012008F059FD0246FB689A66E9
:10279000012008F0C6FD0246FB68DA66FB681B6D87
:1027A000184604F0E5FCFB685833184605F0F4FBC6
:1027B000FB68BA69DA65FB681868FB685833FA6920
:1027C000194609F01AFC4FF080430022C3F8B822E2
:1027D000FB681A6DFB685B6D19461046FFF794FFA6
:1027E000FB6803F14000FB68196DFB685B6D1A46DE
:1027F00004F0BCFEFB681868FB68191DFB684033D9
:102800000093FB68034A05F081FE00BF1037BD4608
:1028100080BD00BF1928000080B586B000AFF86009
:10282000B9607A603B603B687B617B697A685A6615
:102830007B699B6E07F110021146184608F024FED2
:102840003B69002B07D0064B4FF080521A60BFF354
:102850004F8FBFF36F8F00BF1837BD4680BD00BFDD
:1028600004ED00E080B582B000AF78601E23164A08
:102870000021786800F088F87B689A1D0123002108
:10288000786800F081F87B68DA1D01230021786800
:1028900000F07AF87B6803F10802012300217868D0
:1028A00000F072F80021786808F0E0F8786808F025
:1028B0000AFB0123054A0021786800F065F800BF93
:1028C0000837BD4680BD00BF64E8000082E8000014
:1028D00080B584B002AF7860084611461A460346B8
:1028E000FB700B46BB7013467B707B68FA781A70DE
:1028F0007B68BA785A707B687A789A70BB787A78F5
:1029000002FB03F3DB109AB27B689A807B68A022FB
:10291000DA717B68C0229A717B68A6221A727B6882
:1029200000229A727B680022DA727B683A69DA6068
:10293000012008F0F6FC02467B689A617B689B697F
:10294000002B00D1FEE77B689A697B681A617B687F
:1029500000221A757B681846FFF784FF0023019355
:10296000042300937B68BE220549064808F075FFE2
:102970000346012B00D0FEE700BF0837BD4680BDEF
:1029800084E8000031AF000080B584B000AFF8608B
:102990007A603B600B46FB72FB681A78104B1A7129
:1029A0000F4B00225A71FB7A002B01D1002300E06B
:1029B00040230B4A93600A4B0122DA60084A7B6885
:1029C0001361074A3B685361054B00221A600449B2
:1029D000044808F010F800BF1037BD4680BD00BFA6
:1029E000440B00205C0B002080B582B000AF786003
:1029F000084611461A460346FB700B46BB70134649
:102A00007B707B78BA78F978034808F051F800BFFA
:102A10000837BD4680BD00BFCC0B002080B586B016
:102A200004AF7860084611461A460346FB700B4611
:102A3000BB7013467B703B7E7878BA78F978029346
:102A40003B7D01933B7C00930346034808F08BF8E1
:102A500000BF0837BD4680BDCC0B002080B586B0D6
:102A600002AFF8607B600B46FB721346BB72BA7A0A
:102A7000FB7A1946084808F078FA3B7E074A01932A
:102A8000002300930CCA7968034808F06DF900BF71
:102A90001037BD4680BD00BFCC0B0020D0EA00003F
:102AA00080B582B000AF7860034808F072FA00BFCA
:102AB0000837BD4680BD00BFCC0B002080B582B07A
:102AC00000AF7860034808F073FA00BF0837BD46CE
:102AD00080BD00BFCC0B002080B483B000AF0346A4
:102AE0003960FB7197F90730002B0ADB3B68DAB2DB
:102AF0000C4997F907305201D2B20B4483F80023F6
:102B00000AE03B68DAB20849FB7903F00F03043BA3
:102B10005201D2B20B441A7600BF0C37BD465DF8A5
:102B2000047B704700E100E000ED00E080B582B07A
:102B300002AF02211020FFF7CFFF02210120FFF793
:102B4000CBFF0A4B01930A4B00930523094A0A491C
:102B50000A48FFF705FE0A4B0093802340223C21E0
:102B60000848FFF7B5FE00BFBD4680BD001BB7009B
:102B7000801A060000200840008008405C0B0020FE
:102B800050010020CC0B002080B483B000AF03467E
:102B9000FB7197F90730002B0BDBFB7903F01F0269
:102BA000074997F907305B09012000FA02F241F862
:102BB000232000BF0C37BD465DF8047B704700BF83
:102BC00000E100E080B483B000AF03463960FB71E0
:102BD00097F90730002B0ADB3B68DAB20C4997F90A
:102BE00007305201D2B20B4483F800230AE03B685D
:102BF000DAB20849FB7903F00F03043B5201D2B269
:102C00000B441A7600BF0C37BD465DF8047B704755
:102C100000E100E000ED00E080B500AF00F016F844
:102C200000F038F800F05AF800F092F800F0FEF8E2
:102C300000F0C0F900F014FA034B5B68024A23F07D
:102C40000403536000BF80BD0050084080B500AF52
:102C50000D490E4803F0CEFF0C4B00225A610B4B7E
:102C60005B690A4A43F0807343F003035361074AE8
:102C7000074B1B6893670A2008F0A9F9034808F07E
:102C8000CAF900BF80BD00BFD8EA00000080004044
:102C90003001002080B500AF0D490E4803F0AAFFB7
:102CA0000C4B00225A610B4B5B690A4A43F080735C
:102CB00043F003035361074A074B1B6893672520C2
:102CC00008F085F9034808F0A6F900BF80BD00BFF1
:102CD000D8EA0000009004403401002080B400AF26
:102CE0004FF080430022C3F8F0224FF080430422CB
:102CF000C3F8B4234FF08043D3F804324FF080423E
:102D000043F00403C2F804324FF08043D3F8443157
:102D10004FF0804243F00403C2F844310B4B1B6870
:102D20000A4A43F006031360084B1B68074A43F046
:102D300070031360054B1B68044A43F400331360AF
:102D400000BFBD465DF8047B704700BF00500840DF
:102D500080B500AF0C2008F03AF9314BD3F8EC31D4
:102D60002F4A23F00F03C2F8EC312D4BD3F8EC318E
:102D70002B4A43F00203C2F8EC312A4B03F500530F
:102D8000DB68284A43F0006302F50052D360244B0D
:102D9000D3F8F431224A23F00F03C2F8F431204B68
:102DA000D3F8F4311E4A43F00203C2F8F4311D4B4C
:102DB00003F50053DB681B4A43F0005302F5005251
:102DC000D360194B40F2F312C3F80022164B4FF0B8
:102DD000FF32C3F80023144B4FF48052C3F804238E
:102DE000114B0122C3F808250F4B0122C3F8182507
:102DF0000D4BF922C3F804220B4B4FF0FF32C3F8FE
:102E00000823094B41F20102C3F80C23064B0222AE
:102E1000C3F80C25044B0222C3F81C2500BF80BD5B
:102E20000010004000C008400050084080B400AFCF
:102E3000414BD3F8E831404A23F00F03C2F8E831A0
:102E40003D4BD3F8E8313C4A43F00203C2F8E83185
:102E50003A4B03F50053DB68384A43F0806302F5D0
:102E60000052D360344BD3F8F031334A23F00F03D0
:102E7000C2F8F031304BD3F8F0312F4A43F002035F
:102E8000C2F8F0312D4B03F50053DB682B4A43F0B9
:102E9000805302F50052D360294B40F2DF12C3F891
:102EA0000822274B0022C3F81023254B41F20202CF
:102EB000C3F81423224B0422C3F80025204BD3F877
:102EC000F0301F4A43F00403C2F8F0301C4B40F2CC
:102ED000DF12C3F814221A4B0022C3F82823184B20
:102EE00041F20502C3F82C23154B2022C3F810250C
:102EF000134BD3F8F030124A43F02003C2F8F030FD
:102F00000F4B1322C3F80C220D4B6FF07042C3F825
:102F100018230B4B41F20302C3F81C23084B082271
:102F2000C3F80425064B0822C3F8142500BFBD468C
:102F30005DF8047B704700BF0010004000C00840EF
:102F40000050084080B582B000AF7860094B6FF048
:102F50007042C3F81023074B5B68064A23F0040352
:102F600053600121044808F048F800BF0837BD4607
:102F700080BD00BF005008400080004080B582B096
:102F800000AF7860094B6FF07042C3F82823074BFD
:102F90005B68064A23F0040353600121044808F0EB
:102FA0002CF800BF0837BD4680BD00BF0050084068
:102FB0000090044080B400AF0D4B40F20312C3F800
:102FC00010220B4B6FF07042C3F82023084B41F2E4
:102FD0000402C3F82423064B1022C3F82025044B17
:102FE0000122C3F8242500BFBD465DF8047B70476D
:102FF0000050084080B582B000AF174B1B687B6063
:10300000154B1B68144A43F002031360124B012254
:10301000DA66114BDB6E03F00103002B16D00E4B6A
:103020001B680D4A43F0070313600B4B01221A671C
:103030000A49642003F022FD074B1B6F03F00103D4
:10304000012B05D0044A7B68136002E000BF00E05A
:1030500000BF0837BD4680BD00000A4000EF1C0DD0
:1030600080B500AF624B1B6C614A23F00F03136401
:103070005F4B1B6C5E4A23F4807313645D4B03F556
:1030800000531B685B4A23F4803302F5005213603F
:10309000574BDB6F564A23F00F03D367544BDB6F5C
:1030A000534A23F48073D367524B03F500531B68D4
:1030B000504A23F0004302F5005213604FF0804362
:1030C000D3F810364FF0804223F48063C2F81036F4
:1030D0004FF08043D3F810364FF0804223F4007352
:1030E000C2F810364FF08043D3F810364FF08042CC
:1030F00023F40023C2F810364FF08043D3F8103683
:103100004FF0804223F40003C2F810363A491420ED
:1031100003F0B4FC4FF08043D3F800324FF080420C
:1031200043F00063C2F800324FF08043D3F84031DF
:103130004FF0804243F00063C2F84031FFF75AFF7E
:103140002E4B1B682D4A43F0020313602B4B1B6868
:103150002A4A23F4C0631360284B1B68274A43F4B0
:1031600000731360254B1B68244A43F4005313601B
:10317000224B9B68214A23F0004393601F4B9B68BE
:103180001E4A43F0100393601C4B9B681B4A43F09C
:1031900020039360194B9B68184A43F44053936093
:1031A000164B9B68154A43F480239360134B9B682E
:1031B000124A43F400239360104B9B680F4A43F07C
:1031C000804393600D4B9B680C4A43F0004393602F
:1031D0000A4B5B6E094A43F0010353660021162037
:1031E000FFF7F0FC162007F0F2FE00BF80BD00BF25
:1031F0000010004000C0084000EF1C0D00000A4015
:1032000080B400AF1C4B1B78DBB25BB2002B10DB31
:103210001A4B1B6B190A184B1B78DBB21A46C9B242
:10322000174B9954144B1B78DBB20133DAB2124BB3
:103230001A70144B1B78DBB25BB2002B10DB0F4B08
:103240005B6B190A0F4B1B78DBB21A46C9B20E4BE7
:1032500099540C4B1B78DBB20133DAB2094B1A706C
:10326000064B4FF080529A66BFF34F8F00BF00BFEE
:10327000BD465DF8047B70474E01002000000A4007
:10328000680C00204F010020E80D002080B400AF42
:103290001B4BD3F8F43003F00403002B0CD0194B74
:1032A00000221A70164B0022C3F81023144B5B68DF
:1032B000134A23F004035360114BD3F8F43003F0A6
:1032C0002003002B0CD0104B00221A700C4B002254
:1032D000C3F828230A4B5B68094A23F004035360B0
:1032E000074BD3F8F430064A43F02403C2F8F43015
:1032F000BFF34F8F00BF00BFBD465DF8047B704732
:10330000005008404E0100204F01002080B586B0DB
:1033100000AF786000237B610023FB7418E0FB7C26
:10332000354AD35CDBB21A467B6913447B61FB7C74
:10333000324AD35CD9B2FB7C314AD35C5BB2DAB29D
:10334000FB7C0A44D1B22C4AD154FB7C0133FB7480
:1033500097F91330002BE2DA7B69C3F580421346FC
:103360009B0013445B001A46264B1B681344254AF6
:103370001360254A234B1B6893670023FB600023DF
:10338000FB7218E0FB7A214AD35CDBB21A46FB6879
:103390001344FB60FB7A1E4AD35CD9B2FB7A1D4A08
:1033A000D35C5BB2DAB2FB7A0A44D1B2174AD15489
:1033B000FB7A0133FB7297F90B30002BE2DAFB68E2
:1033C000C3F5804213469B0013445B001A46124B20
:1033D0001B681344104A1360104A0F4B1B68936715
:1033E00005490F4800F038F808490E4800F034F855
:1033F000012001F0D3FD8DE7E80B0020680C0020D0
:10340000E80C00203001002000800040680D002002
:10341000E80D0020680E00203401002000900440D8
:10342000E80E0020F20F002080B400AF074B1B789D
:10343000DBB21946064B1B78DBB2064ACB1AD364C3
:1034400000BFBD465DF8047B704700BF2D3D0020E6
:103450002C3D0020FC100020B0B588B000AF786093
:1034600039601E23FB750123BB751E237B75072363
:103470003B75854BDB6CFB740023BB740023FB772F
:1034800000237B7400233B740023FB730023BB7376
:1034900000237B7300233B730023FB7200233B77E5
:1034A0000023FB767B68002283F801217B680022E1
:1034B00083F800210123BB7638E0BB7E7A68134491
:1034C000002283F88020BB7E013B3A6813441B78BE
:1034D000DBB21946BB7E01333A6813441B78DBB27A
:1034E000CA1AFB7D9A4204DDBB7E7A680121D15461
:1034F00019E0BB7E01333A6813441B78DBB21946EE
:10350000BB7E013B3A6813441B78DBB2CA1AFB7DD1
:103510009A4204DDBB7E7A680221D15403E0BB7E6F
:103520007A680021D154BB7E0133BB76BB7E7E2BF3
:10353000C3D9564B1B78DBB2002B02D0012B05D030
:103540001BE00123BB777E237B7716E07B6893F833
:1035500003213B7DD31ABB777B6893F803213B7D26
:1035600013447B77BB7F002B01D10123BB777B7F8B
:103570007E2B01D97E237B7700BF01237B7651E030
:103580007B7E7A68D35C012B49D17B7EBB7302E0E2
:103590007B7E01337B767B7E7A68D35C012B02D104
:1035A0007B7E7E2BF4D97B7E013B7B737A7BBB7B5E
:1035B000D31A7B74BB7B3A6813441B78DAB27B7BEB
:1035C00039680B441B78DBB2D31A3B747A7CBB7D21
:1035D0009A4224D33A7C7B7D9A4220D37B7C5B0841
:1035E000DAB2BB7B1344FB73FB7B7A681344012282
:1035F00083F880203B7F01333B77FA7BBB7F9A4285
:103600000DD3FA7B7B7F9A4209D87B68FA7B83F8DB
:1036100003213B7CBB747B68012283F801217B7E04
:1036200001337B767B7E7E2BAAD9184B1B78DBB2CD
:10363000002B02D0012B05D01BE00123BB777E239A
:103640007B7716E07B6893F802213B7DD31ABB772A
:103650007B6893F802213B7D13447B77BB7F002B73
:1036600001D10123BB777B7F7E2B01D97E237B7722
:1036700000BF01233B765CE03B7E7A68D35C022B83
:1036800054D13B7E3B7306E0FC1000202E3D002011
:103690003B7E01333B763B7E7A68D35C022B02D1C2
:1036A0003B7E7E2BF4D93B7E013BFB72FA7A3B7B5F
:1036B000D31A7B74FB7A3A6813441B78DAB23B7BEB
:1036C00039680B441B78DBB2D31A3B747A7CBB7D20
:1036D0009A422BD33A7C7B7D9A4227D37B7C5B0832
:1036E000DAB23B7B1344FB73FB7B7A681344022200
:1036F00083F88020FB7E0133FB763A7CFB7F9A4285
:1037000014D9FA7BBB7F9A4210D3FA7B7B7F9A4213
:103710000CD8FB7F002B09D17B68FA7B83F8022150
:103720003B7CFB777B68012283F800213B7E0133E1
:103730003B763B7E7D2B9FD97B6893F80031002B35
:1037400004D17B6893F80131002B15D07B6893F886
:1037500003311A467B6893F80231D31A184608F0F1
:103760006BFE0346132B07DD7B6893F802217B6811
:1037700093F803319A4204D97B68002283F8082128
:103780004EE07B6893F80031002B13D17B6893F8EF
:103790000131012B0ED17B6893F803319AB2FB7C87
:1037A0005B08DBB29BB2D31A9BB21AB27B68A3F858
:1037B000042135E07B6893F80031012B13D17B683D
:1037C00093F80131002B0ED17B6893F802319AB245
:1037D000FB7C5B08DBB29BB213449BB21AB27B68E2
:1037E000A3F804211CE07B6893F80031012B17D16A
:1037F0007B6893F80131012B12D17B68012283F899
:1038000008217B6893F803311A467B6893F80231EC
:103810001344DA0F13445B101AB27B68A3F8042137
:103820007B68B3F904313F3B184609F09EF8044623
:103830000D46FB7C184609F098F802460B464FF0FF
:1038400000001F4906F042FA02460B462046294670
:1038500006F0BEF902460B461046194609F042F83A
:1038600003461AB27B68A3F806213B7F052B07D1DC
:10387000FB7E052B04D17B68032283F809211AE023
:103880003B7F042B07D1FB7E042B04D17B680222F3
:1038900083F809210FE03B7F032B07D1FB7E032B2D
:1038A00004D17B68012283F8092104E07B680022AF
:1038B00083F8092100BF00BF2037BD46B0BD00BF5F
:1038C00000407F4080B582B000AF78604FF4804206
:1038D0000321044807F0C2FB4FF4FA7001F05EFBCD
:1038E000F4E700BF00C0084080B500AF4FF480424D
:1038F0000321084807F09FFB08220321054807F031
:103900009AFB04220221034807F095FB00F004F81B
:1039100000BF80BD00C0084080B400AF144BD3F896
:10392000B031134A23F00F03C2F8B031104BD3F873
:10393000B0310F4A43F00503C2F8B0310D4B03F527
:103940000053DB680B4A43F4805302F50052D36006
:103950004FF080430422C3F888224FF08043DB22DB
:10396000C3F8842300BFBD465DF8047B704700BFE9
:103970000010004000C0084080B582B002AF4FF494
:10398000867002F079FC08F0DAFC08F0BBFC08F065
:103990009AFC05F037F8FFF7A7FF00F04FF8FFF7A4
:1039A0003BF9FDF713F8FCF7B9FFFEF7F1FA002336
:1039B0000193012300930023BE221949194807F0FF
:1039C0004CFF0346012B04D004220221164807F0C5
:1039D00058FB00230193012300930023BE221349C7
:1039E000134807F03AFF0346012B04D004220221BA
:1039F0000D4807F046FB00230193012300930023A9
:103A0000BE220C490C4807F028FF0346012B04D0C6
:103A100004220221044807F034FB01F0F3FAFEE728
:103A2000E0EA0000C538000000C00840F0EA0000ED
:103A3000910F0000FCEA00000D33000080B584B057
:103A400000AF012002F0B4FEF8603B1D184608F0FC
:103A500084F93B1DFA681946054804F035F88022C0
:103A60000449054808F078FC00BF1037BD4680BD0A
:103A70000040014000801040FC10002080B500AFE5
:103A800080220749074808F094FC0346002B04D025
:103A9000034A0021044808F082F900BF80BD00BF3E
:103AA000FC100020008010400040014080B485B030
:103AB00000AF0346FB71FB79022B0ED12B4B1B6829
:103AC0001B686FF0DB0202FB03F303F5860303F5CB
:103AD0000E53274AC2F8803043E0264B1B68002B68
:103AE00019DC224B1B681B689AB2204B1B681968B3
:103AF000214B1B681B68CB1A1E49096801FB03F3A5
:103B00001E4981FB03014911DB17CB1A9BB21344F9
:103B10009BB2FB8118E0154B1B681B689AB2184BCF
:103B20001B681968114B1B681B68CB1A114909687F
:103B300001FB03F3114981FB03014911DB17CB1A88
:103B40009BB213449BB2FB81B7F90E306FF0DB02DE
:103B500002FB03F303F5860303F50E53044AC2F890
:103B600080301437BD465DF8047B704700000020AC
:103B700000900040380B0020040000201F85EB510E
:103B80000800002080B483B000AF0346FB710A4BED
:103B90001B681B686FF0DB0202FB03F303F586036F
:103BA00003F50E53054AC2F8803000BF0C37BD46FE
:103BB0005DF8047B704700BF0000002000900040CB
:103BC00080B483B000AF0346FB71FB79022B0ED1AA
:103BD000104B1B681B686FF0DB0202FB03F303F55D
:103BE000860303F50E530C4AC2F880300DE00B4BF0
:103BF0001B681B686FF0DB0202FB03F303F586030F
:103C000003F50E53044AC2F880300C37BD465DF808
:103C1000047B70470000002000900040040000205A
:103C200080B483B000AF0346FB71FB79022B0ED149
:103C3000104B1B681B686FF0DB0202FB03F303F5FC
:103C4000860303F50E530C4AC2F880300DE00B4B8F
:103C50001B681B686FF0DB0202FB03F303F58603AE
:103C600003F50E53044AC2F880300C37BD465DF8A8
:103C7000047B7047000000200090004008000020F6
:103C800080B584B000AF0346FB71FB79022B0DD1E8
:103C90001E4B1B681B686FF0DB0202FB03F303F58E
:103CA000860303F50E531A4A93672CE0194B1B68E1
:103CB0001B689AB2184B1B681968164B1B681B6867
:103CC000CB1A1649096801FB03F3154981FB03016F
:103CD0004911DB17CB1A9BB213449BB2FB81B7F996
:103CE0000E306FF0DB0202FB03F303F5860303F5EE
:103CF0000E53074A9367B7F90E30054A926F19467B
:103D0000084805F01DFE1037BD4680BD1801002093
:103D1000008004401C010020200100203C0B0020FA
:103D20001F85EB5118EB000080B483B000AF034651
:103D3000FB71094B1B681B686FF0DB0202FB03F38E
:103D400003F5860303F50E53044A936700BF0C374F
:103D5000BD465DF8047B70471801002000800440D8
:103D600080B483B000AF0346FB71FB79022B0DD109
:103D70000F4B1B681B686FF0DB0202FB03F303F5BC
:103D8000860303F50E530B4A93670CE00A4B1B683E
:103D90001B686FF0DB0202FB03F303F5860303F5F8
:103DA0000E53044A93670C37BD465DF8047B704799
:103DB00018010020008004401C01002080B584B060
:103DC00000AF0346FB71FB79022B0ED1204B1B6821
:103DD0001B686FF0DB0202FB03F303F5860303F5B8
:103DE0000E531C4AC2F880302EE01B4B1B681B6828
:103DF0009AB21A4B1B681968174B1B681B68CB1AC1
:103E00001749096801FB03F3164981FB03014911B6
:103E1000DB17CB1A9BB213449BB2FB81B7F90E3070
:103E20006FF0DB0202FB03F303F5860303F50E5389
:103E3000084AC2F88030B7F90E30064AD2F880201E
:103E40001946094805F07CFD1037BD4680BD00BF0E
:103E50002401002000800440280100202C010020C3
:103E6000400B00201F85EB5140EB000080B500AFF8
:103E70001F4B1B6840F2DC529A611D4B1B6840F2DD
:103E8000CA32DA611A4B1B6840F652021A62184BAA
:103E90001B684FF480425A62154B1B684FF47A72CC
:103EA0009A62134B1B6840F24C42DA62104B1B685B
:103EB00040F26C721A630E4B1B6842F6BB325A63B7
:103EC0000B4B1B684FF47A729A63094B1B6840F2E4
:103ED0004C42DA63064B1B6840F26C721A64044B66
:103EE0001B6842F6BB325A64FDF722FC00BF80BD5E
:103EF0003801002080B58AB000AF78600023FB61F4
:103F000001F0CEF85B4B1B68002B01D100F020F9CB
:103F1000594B1A687B681340002B40F093807B68F4
:103F2000002B1DD008227B6813447B607B6803F064
:103F30000703002B14D07B6823F0070308337B6052
:103F40007B6803F00703002B0AD04FF0400383F394
:103F50001188BFF36F8FBFF34F8F7B6100BFFEE708
:103F60007B68002B6ED0454B1B687A689A4269D8F3
:103F7000434B3B62424B1B687B6204E07B6A3B62C3
:103F80007B6A1B687B627B6A5B687A689A4203D9AA
:103F90007B6A1B68002BF1D1364B1B687A6A9A4208
:103FA00050D03B6A1B6808221344FB617B6A1A6885
:103FB0003B6A1A607B6A5A687B68D21A08235B00E6
:103FC0009A421FD97A6A7B681344BB61BB6903F0CC
:103FD0000703002B0AD04FF0400383F31188BFF38F
:103FE0006F8FBFF34F8F3B6100BFFEE77B6A5A685C
:103FF0007B68D21ABB695A607B6A7A685A60B86972
:1040000000F008F91D4B1A687B6A5B68D31A1B4ADB
:1040100013601A4B1A681B4B1B689A4203D2174B4A
:104020001B68184A13607B6A5A68134B1B681A4353
:104030007B6A5A607B6A00221A60134B1B6801334B
:10404000114A136001F03AF8FB6903F00703002BF3
:104050000AD04FF0400383F31188BFF36F8FBFF393
:104060004F8FFB6000BFFEE7FB6918462837BD464F
:1040700080BD00BF84390020983900208839002095
:104080007C3900208C3900209039002080B586B022
:1040900000AF78607B687B617B68002B4DD0082384
:1040A0005B427A6913447B617B693B613B695A6877
:1040B000244B1B681340002B0AD14FF0400383F3BD
:1040C0001188BFF36F8FBFF34F8FFB6000BFFEE718
:1040D0003B691B68002B0AD04FF0400383F3118823
:1040E000BFF36F8FBFF34F8FBB6000BFFEE73B692D
:1040F0005A68144B1B681340002B1ED03B691B6889
:10410000002B1AD13B695A680E4B1B68DB431A40DF
:104110003B695A6000F0C4FF3B695A680A4B1B6850
:104120001344094A1360386900F074F8074B1B68A0
:104130000133064A136000F0C1FF00BF1837BD46C7
:1041400080BD00BF983900208839002094390020B4
:1041500080B485B000AF4FF42053BB60274BFB60A9
:10416000FB6803F00703002B0CD0FB680733FB60F0
:10417000FB6823F00703FB60BA68FB68D31A1F4A89
:104180001344BB60FB687B601D4A7B6813601C4B5B
:1041900000225A607B68BA681344FB600822FB68FF
:1041A0009B1AFB60FB6823F00703FB60FB68154A62
:1041B0001360144B1B6800225A60124B1B680022CC
:1041C0001A607B683B603B68FA68D21A3B685A60A9
:1041D0000C4B1A683B681A603B685B680A4A1360BC
:1041E0003B685B68094A1360094B4FF000421A6054
:1041F00000BF1437BD465DF8047B70477C1100207A
:104200007C390020843900208C3900208839002036
:104210009839002080B485B000AF7860284BFB60EF
:1042200002E0FB681B68FB60FB681B687A689A42C7
:10423000F7D8FB68BB60FB685B68BA6813447A68B0
:104240009A4208D1FB685A687B685B681A44FB682D
:104250005A60FB687B607B68BB607B685B68BA68A0
:104260001A44FB681B689A4218D1FB681A68154B00
:104270001B689A420DD07B685A68FB681B685B68B4
:104280001A447B685A60FB681B681A687B681A606E
:1042900008E00C4B1A687B681A6003E0FB681A6838
:1042A0007B681A60FA687B689A4202D0FB687A6879
:1042B0001A6000BF1437BD465DF8047B704700BF2D
:1042C0007C3900208439002080B485B000AFF860CC
:1042D000B9607A60FB68043BFB60FB684FF080725A
:1042E0001A60FB68043BFB60BB6823F00102FB68BB
:1042F0001A60FB68043BFB600C4AFB681A60FB68B1
:10430000143BFB607A68FB681A60FB68043BFB6047
:10431000FB686FF002021A60FB68203BFB60FB68E1
:1043200018461437BD465DF8047B704731430000E2
:1043300080B485B000AF00237B60124B1B68B3F1E3
:10434000FF3F0AD04FF0400383F31188BFF36F8F14
:10435000BFF34F8FFB6000BFFEE74FF0400383F3D6
:104360001188BFF36F8FBFF34F8FBB6000BF00BFDB
:104370007B68002BFCD000BF00BF1437BD465DF842
:10438000047B70473C01002008480068006880F307
:1043900008884FF0000080F3148862B661B6BFF35E
:1043A0004F8FBFF36F8F00DF00BF00BF08ED00E04D
:1043B00080B586B000AF464B1B68464A93420AD18F
:1043C0004FF0400383F31188BFF36F8FBFF34F8F1C
:1043D0003B6100BFFEE73E4B1B683F4A93420AD158
:1043E0004FF0400383F31188BFF36F8FBFF34F8FFC
:1043F000FB6000BFFEE7394B7B617B691B78DBB25A
:104400007B607B69FF221A707B691B78DBB2FB70D3
:10441000FB78DBB203F04003DAB2314B1A70314B58
:1044200007221A6009E02F4B1B68013B2D4A1360DD
:10443000FB78DBB25B00DBB2FB70FB78DBB203F036
:104440008003802BEFD0274B1B68C3F10703032B9E
:104450000AD04FF0400383F31188BFF36F8FBFF38F
:104460004F8FBB6000BFFEE71E4B1B681B021D4A3F
:1044700013601C4B1B6803F4E0631A4A13607B68EB
:10448000DAB27B691A70184B1B68174A43F4600351
:104490001360154B1B68144A43F06043136000F02F
:1044A000A5F8124B00221A6000F0C4F8104B1B68EC
:1044B0000F4A43F040431360FFF766FF00F054FFDC
:1044C000FFF736FF002318461837BD4680BD00BFF2
:1044D00000ED00E071C20F4170C20F4100E400E046
:1044E0002F3D00209C39002020ED00E03C01002001
:1044F00034EF00E080B483B000AF4FF0400383F3AB
:104500001188BFF36F8FBFF34F8F7B6000BF0F4BDE
:104510001B6801330D4A13600C4B1B68012B0FD134
:104520000B4B1B68DBB2002B0AD04FF0400383F328
:104530001188BFF36F8FBFF34F8F3B6000BFFEE763
:1045400000BF0C37BD465DF8047B70473C0100207E
:1045500004ED00E080B483B000AF124B1B68002B69
:104560000AD14FF0400383F31188BFF36F8FBFF37D
:104570004F8F7B6000BFFEE70A4B1B68013B094A77
:104580001360084B1B68002B05D100233B603B6880
:1045900083F3118800BF00BF0C37BD465DF8047B74
:1045A000704700BF3C01002080B582B000AF4FF0E3
:1045B000400383F31188BFF36F8FBFF34F8F7B608E
:1045C00000BF00F027FE0346002B03D0064B4FF040
:1045D00080521A6000233B603B6883F3118800BF60
:1045E00000BF0837BD4680BD04ED00E080B400AFD9
:1045F0000B4B00221A600B4B00221A600A4B1B68FF
:104600000A4AA2FB03239B09094A013B1360044B9E
:1046100007221A6000BFBD465DF8047B704700BFEB
:1046200010E000E018E000E044010020D34D6210EB
:1046300014E000E0DFF80C00016841F47001016053
:10464000704700BF88ED00E080B485B000AFEFF3A5
:104650000583FB60FB680F2B14D9174AFB681344D2
:104660001B78FB72154B1B78FA7A9A420AD24FF0EC
:10467000400383F31188BFF36F8FBFF34F8F7B60CD
:1046800000BFFEE70E4B1B6803F4E0620D4B1B6896
:104690009A420AD94FF0400383F31188BFF36F8F1A
:1046A000BFF34F8F3B6000BFFEE700BF1437BD462E
:1046B0005DF8047B704700BFF0E300E02F3D002071
:1046C0000CED00E09C39002080B584B000AF78602C
:1046D00039607B68FB60FB68002B0AD14FF0400318
:1046E00083F31188BFF36F8FBFF34F8FBB6000BFA1
:1046F000FEE7FFF7FFFEFB681A68FB68DB6BF968F3
:10470000096C01FB03F31A44FB689A60FB68002202
:104710009A63FB681A68FB685A60FB681A68FB6852
:10472000DB6B013BF968096C01FB03F31A44FB687E
:10473000DA60FB68FF2283F84420FB68FF2283F8DD
:1047400045203B68002B14D1FB681B69002B1AD055
:10475000FB681033184600F0B3FE0346002B12D05E
:104760000C4B4FF080521A60BFF34F8FBFF36F8F27
:1047700009E0FB681033184606F0ACFCFB682433F4
:10478000184606F0A7FCFFF7E5FE01231846103790
:10479000BD4680BD04ED00E080B58EB000AFF8608E
:1047A000B9607A603B6000237B63FB683B633B6BD3
:1047B000002B0AD14FF0400383F31188BFF36F8FB2
:1047C000BFF34F8FBB6200BFFEE7BB68002B03D176
:1047D0003B6B1B6C002B01D1012300E00023002B5D
:1047E0000AD14FF0400383F31188BFF36F8FBFF3FB
:1047F0004F8F7B6200BFFEE73B68022B03D13B6B10
:10480000DB6B012B01D1012300E00023002B0AD137
:104810004FF0400383F31188BFF36F8FBFF34F8FC7
:104820003B6200BFFEE700F0D7FF0346002B02D13A
:104830007B68002B01D1012300E00023002B0AD16B
:104840004FF0400383F31188BFF36F8FBFF34F8F97
:10485000FB6100BFFEE7FFF74DFE3B6B9A6B3B6BC6
:10486000DB6B9A4202D33B68022B29D13A68B968C4
:10487000386B06F0AEFEF8623B6B5B6A002B10D023
:104880003B6B2433184600F01BFE0346002B13D06D
:104890003F4B4FF080521A60BFF34F8FBFF36F8FC3
:1048A0000AE0FB6A002B07D0394B4FF080521A60A8
:1048B000BFF34F8FBFF36F8FFFF74CFE012363E011
:1048C0007B68002B03D1FFF745FE00235CE07B6B88
:1048D000002B06D107F11403184600F053FE012304
:1048E0007B63FFF737FE00F0DBFBFFF703FE3B6B5C
:1048F00093F844305BB2B3F1FF3F03D13B6B00222E
:1049000083F844203B6B93F845305BB2B3F1FF3F33
:1049100003D13B6B002283F84520FFF71BFE3A1DB5
:1049200007F114031146184600F042FE0346002B1F
:1049300024D1386B06F045FF0346002B18D03B6BA3
:1049400010337A681146184600F06AFD386B06F09D
:10495000D0FE00F0B3FB0346002B7FF47CAF0C4B82
:104960004FF080521A60BFF34F8FBFF36F8F72E723
:10497000386B06F0BEFE00F0A1FB6CE7386B06F06A
:10498000B8FE00F09BFB002318463837BD4680BDBB
:1049900004ED00E080B58CB000AFF860B9607A60DB
:1049A0000023FB62FB68BB62BB6A002B0AD14FF09D
:1049B000400383F31188BFF36F8FBFF34F8F3B62C8
:1049C00000BFFEE7BB68002B03D1BB6A1B6C002B4A
:1049D00001D1012300E00023002B0AD14FF0400356
:1049E00083F31188BFF36F8FBFF34F8FFB6100BF5D
:1049F000FEE700F0F1FE0346002B02D17B68002B9E
:104A000001D1012300E00023002B0AD14FF0400325
:104A100083F31188BFF36F8FBFF34F8FBB6100BF6C
:104A2000FEE7FFF767FDBB6A9B6B7B627B6A002B2F
:104A30001FD0B968B86A06F036FE7B6A5A1EBB6A98
:104A40009A63BB6A1B69002B0FD0BB6A10331846F0
:104A500000F036FD0346002B07D03D4B4FF080524F
:104A60001A60BFF34F8FBFF36F8FFFF773FD012302
:104A700069E07B68002B03D1FFF76CFD002362E047
:104A8000FB6A002B06D107F11003184600F07AFDEF
:104A90000123FB62FFF75EFD00F002FBFFF72AFD3A
:104AA000BB6A93F844305BB2B3F1FF3F03D1BB6AFA
:104AB000002283F84420BB6A93F845305BB2B3F11F
:104AC000FF3F03D1BB6A002283F84520FFF742FD78
:104AD0003A1D07F110031146184600F069FD034620
:104AE000002B23D1B86A06F056FE0346002B17D0E0
:104AF000BB6A24337A681146184600F091FCB86A04
:104B000006F0F7FD00F0DAFA0346002B89D1104BCE
:104B10004FF080521A60BFF34F8FBFF36F8F80E763
:104B2000B86A06F0E6FD00F0C9FA7AE7B86A06F05E
:104B3000E0FD00F0C3FAB86A06F02DFE0346002B34
:104B40003FF46FAF002318463037BD4680BD00BF2D
:104B500004ED00E080B58EB000AF786039600023CE
:104B60007B637B68FB620023BB6200233B63FB6AC1
:104B7000002B0AD14FF0400383F31188BFF36F8FEE
:104B8000BFF34F8FFB6100BFFEE7FB6A1B6C002B7E
:104B90000AD04FF0400383F31188BFF36F8FBFF348
:104BA0004F8FBB6100BFFEE700F016FE0346002BEF
:104BB00002D13B68002B01D1012300E00023002B30
:104BC0000AD14FF0400383F31188BFF36F8FBFF317
:104BD0004F8F7B6100BFFEE7FFF78CFCFB6A9B6B8E
:104BE0007B627B6A002B24D07B6A5A1EFB6A9A6325
:104BF000FB6A1B68002B04D100F096FF0246FB6A9B
:104C00009A60FB6A1B69002B0FD0FB6A10331846B1
:104C100000F056FC0346002B07D0544B4FF0805257
:104C20001A60BFF34F8FBFF36F8FFFF793FC012321
:104C300097E03B68002B11D13B6B002B0AD04FF063
:104C4000400383F31188BFF36F8FBFF34F8F3B6136
:104C500000BFFEE7FFF77EFC002382E07B6B002BAA
:104C600006D107F10803184600F08CFC01237B6392
:104C7000FFF770FC00F014FAFFF73CFCFB6A93F8B6
:104C800044305BB2B3F1FF3F03D1FB6A002283F8EB
:104C90004420FB6A93F845305BB2B3F1FF3F03D188
:104CA000FB6A002283F84520FFF754FC3A4607F1DF
:104CB00008031146184600F07BFC0346002B32D156
:104CC000F86A06F068FD0346002B26D0FB6A1B68D5
:104CD000002B09D1FFF70EFCFB6A9B68184600F019
:104CE00099FD3863FFF736FCFB6A24333A681146B6
:104CF000184600F095FBF86A06F0FBFC00F0DEF9C0
:104D00000346002B7FF468AF184B4FF080521A60B7
:104D1000BFF34F8FBFF36F8F5EE7F86A06F0E9FCD1
:104D200000F0CCF958E7F86A06F0E3FC00F0C6F9A9
:104D3000F86A06F030FD0346002B3FF44DAF3B6BA5
:104D4000002B0DD0FFF7D6FBF86A06F02AFC38627C
:104D5000FB6A9B68396A184600F058FEFFF7FAFBB9
:104D6000002318463837BD4680BD00BF04ED00E083
:104D700080B485B000AF786039600023FB6014E038
:104D80000F4AFB6852F83330002B0BD10C49FB68FB
:104D90003A6841F833200A4AFB68DB0013447A681A
:104DA0005A6006E0FB680133FB60FB68072BE7D91C
:104DB00000BF00BF1437BD465DF8047B704700BFDD
:104DC000A039002080B582B000AF7860FFF792FB79
:104DD0002C4B1B6801332B4A13602B4B1B68002B99
:104DE00009D1294A7B681360264B1B68012B10D11F
:104DF00000F064FC0DE0254B1B68002B09D1224B11
:104E00001B68DA6A7B68DB6A9A4202D81E4A7B68B2
:104E100013601F4B1B6801331D4A13601C4B1A683B
:104E20007B68DA647B68DB6A01229A40194B1B6855
:104E30001343184A13607B68DA6A13469B001344D5
:104E40009B00154A1A447B6804331946104606F045
:104E50006EF9FFF77FFB0D4B1B68002B0ED00A4B42
:104E60001B68DA6A7B68DB6A9A4207D20B4B4FF009
:104E700080521A60BFF34F8FBFF36F8F00BF0837A8
:104E8000BD4680BDB83A0020E0390020C43A002079
:104E9000D43A0020C03A0020E439002004ED00E0BC
:104EA00080B58AB000AF7860396000237B627B6890
:104EB000002B0AD14FF0400383F31188BFF36F8FAB
:104EC000BFF34F8F7B6100BFFEE73B68002B0AD129
:104ED0004FF0400383F31188BFF36F8FBFF34F8F01
:104EE0003B6100BFFEE72A4B1B68002B0AD04FF046
:104EF000400383F31188BFF36F8FBFF34F8FFB60C5
:104F000000BFFEE700F0CCF8224B1B683B627B68D9
:104F10001B683A681344FB617B681B683A6A9A42D3
:104F20000BD27B681B68FA699A4211D2FA693B6A14
:104F30009A420DD901237B620AE07B681B68FA69FB
:104F40009A4203D3FA693B6A9A4201D901237B62F0
:104F50007B68FA691A607B6A002B06D0FA693B6AA3
:104F6000D31A0021184600F0F3FD00F0A7F8B8614D
:104F7000BB69002B07D1084B4FF080521A60BFF37A
:104F80004F8FBFF36F8F00BF2837BD4680BD00BF76
:104F9000E03A0020BC3A002004ED00E080B584B087
:104FA00000AF78600023FB607B68002B17D0134BA9
:104FB0001B68002B0AD04FF0400383F31188BFF326
:104FC0006F8FBFF34F8FBB6000BFFEE700F068F844
:104FD0000021786800F0BCFD00F070F8F860FB6814
:104FE000002B07D1064B4FF080521A60BFF34F8F52
:104FF000BFF36F8F00BF1037BD4680BDE03A002081
:1050000004ED00E080B586B002AF1F4B0193002392
:10501000009300235A221D491D4806F01EFCF8602B
:10502000FB68012B02D100F0F9FDF860FB68012B51
:1050300016D14FF0400383F31188BFF36F8FBFF396
:105040004F8FBB6000BF134B4FF0FF321A60124B03
:1050500001221A60114B00221A60FFF7A9F90EE035
:10506000FB68B3F1FF3F0AD14FF0400383F311888F
:10507000BFF36F8FBFF34F8F7B6000BFFEE700BFB2
:105080001037BD4680BD00BFDC3A002090CB000049
:105090008D560000D83A0020C43A0020BC3A0020C7
:1050A00080B400AF044B1B680133034A136000BF98
:1050B000BD465DF8047B7047E03A002080B584B0BF
:1050C00000AF0023FB600023BB60414B1B68002B3B
:1050D0000AD14FF0400383F31188BFF36F8FBFF302
:1050E0004F8F3B6000BFFEE7FFF704FA384B1B68A9
:1050F000013B374A1360364B1B68002B61D1354B9F
:105100001B68002B5DD02EE0334BDB68DB68FB6057
:10511000FB681833184606F067F8FB680433184636
:1051200006F062F8FB68DB6A01229A402B4B1B6891
:1051300013432A4A1360FB68DA6A13469B00134440
:105140009B00274A1A44FB6804331946104605F0B1
:10515000EEFFFB68DA6A234B1B68DB6A9A4202D3D4
:10516000214B01221A601C4B1B68002BCCD1FB6821
:10517000002B01D000F010FB1C4B1B687B607B6890
:10518000002B10D000F046F80346002B02D0164B3F
:1051900001221A607B68013B7B607B68002BF1D1A8
:1051A000124B00221A60104B1B68002B09D0012300
:1051B000BB600F4B4FF080521A60BFF34F8FBFF3AD
:1051C0006F8FFFF7C7F9BB6818461037BD4680BD23
:1051D000E03A0020B83A0020783A0020C03A002097
:1051E000E4390020E0390020CC3A0020C83A002001
:1051F00004ED00E080B483B000AF054B1B687B601A
:105200007B6818460C37BD465DF8047B704700BFCD
:10521000BC3A002080B586B000AF00237B61474BCD
:105220001B68002B7FD1464B1B6801333B61444A0E
:105230003B6913603B69002B20D1424B1B681B6804
:10524000002B0AD04FF0400383F31188BFF36F8F18
:10525000BFF34F8F3B6000BFFEE73A4B1B68FB601C
:10526000394B1B68374A1360374AFB681360374B6A
:105270001B680133354A136000F08EFA344B1B680B
:105280003A699A4248D32F4B1B681B68002B04D104
:105290002F4B4FF0FF321A603EE02A4B1B68DB6851
:1052A000DB68BB60BB685B687B603A697B689A427D
:1052B00003D2274A7B6813602EE0BB68043318468C
:1052C00005F092FFBB689B6A002B04D0BB681833C3
:1052D000184605F089FFBB68DB6A01229A401D4B26
:1052E0001B6813431B4A1360BB68DA6A13469B00B2
:1052F00013449B00184A1A44BB68043319461046ED
:1053000005F015FFBB68DA6A144B1B68DB6A9A422A
:10531000B9D301237B61B6E7114B1B68002B07D083
:1053200001237B6104E00F4B1B6801330D4A1360BE
:105330007B6918461837BD4680BD00BFE03A0020A3
:10534000BC3A0020703A0020743A0020D03A002085
:10535000D83A0020C03A0020E4390020E03900208B
:10536000CC3A0020C83A002080B487B000AF274B69
:105370001B68002B03D0264B01221A603FE0244B10
:1053800000221A60234B1B68FB60FB68B3FA83F3AF
:10539000FB72FB7AC3F11F037B611F497A691346D5
:1053A0009B0013449B000B441B68002B0AD14FF059
:1053B000400383F31188BFF36F8FBFF34F8F7B6080
:1053C00000BFFEE77A6913469B0013449B00124A14
:1053D00013443B613B695B685A683B695A603B69AF
:1053E0005A683B6908339A4204D13B695B685A6842
:1053F0003B695A603B695B68DB68084A136000BF21
:105400001C37BD465DF8047B704700BFE03A0020C2
:10541000CC3A0020C03A0020E4390020E0390020D6
:1054200080B584B000AF786039607B68002B0AD10A
:105430004FF0400383F31188BFF36F8FBFF34F8F9B
:10544000FB6000BFFEE7074B1B68183319467868FE
:1054500005F091FE0121386800F07AFB00BF10379B
:10546000BD4680BDE039002080B586B000AFF86051
:10547000B9607A60FB68002B0AD14FF0400383F3D8
:105480001188BFF36F8FBFF34F8F7B6100BFFEE7C3
:105490000A4B1B6818331946F86805F048FE7B680C
:1054A000002B02D04FF0FF33BB607968B86800F082
:1054B0004FFB00BF1837BD4680BD00BFE03900205C
:1054C00080B586B000AF78607B68DB68DB683B61E5
:1054D0003B69002B0AD14FF0400383F31188BFF3DF
:1054E0006F8FBFF34F8FFB6000BFFEE73B69183340
:1054F000184605F079FE1D4B1B68002B1CD13B693B
:105500000433184605F070FE3B69DB6A01229A40BD
:10551000174B1B681343164A13603B69DA6A13463C
:105520009B0013449B00134A1A443B6904331946F9
:10553000104605F0FCFD05E03B69183319460E489E
:1055400005F0F5FD3B69DA6A0C4B1B68DB6A9A4291
:1055500005D901237B610A4B01221A6001E0002377
:105560007B617B6918461837BD4680BDE03A002054
:10557000C03A0020E4390020783A0020E0390020C9
:10558000CC3A002080B483B000AF7860064B1A6834
:105590007B681A60054B1A687B685A6000BF0C373D
:1055A000BD465DF8047B7047D03A0020BC3A00202D
:1055B00080B588B000AF786039607B68002B0AD175
:1055C0004FF0400383F31188BFF36F8FBFF34F8F0A
:1055D0003B6100BFFEE73B68002B0AD14FF0400360
:1055E00083F31188BFF36F8FBFF34F8FFB6000BF52
:1055F000FEE7FEF77FFF1D4B1B68BB617B685B68A6
:10560000BA69D31A7B613B681B68B3F1FF3F02D1D3
:105610000023FB6123E07B681A68154B1B689A42E4
:1056200007D07B685B68BA699A4202D30123FB61A9
:1056300015E03B681B687A699A420BD23B681A688E
:105640007B69D21A3B681A607868FFF79BFF0023DA
:10565000FB6104E03B6800221A600123FB61FEF756
:1056600079FFFB6918462037BD4680BDBC3A002053
:10567000D03A002080B400AF034B01221A6000BF73
:10568000BD465DF8047B7047CC3A002080B582B0FF
:1056900000AF786000F052F8064B1B68012BF9D977
:1056A000054B4FF080521A60BFF34F8FBFF36F8FDF
:1056B000F0E700BFE439002004ED00E080B582B0DF
:1056C00000AF00237B600CE07A6813469B00134414
:1056D0009B00124A1344184605F0FCFC7B6801331A
:1056E0007B607B68042BEFD90D4805F0F3FC0D4877
:1056F00005F0F0FC0C4805F0EDFC0C4805F0EAFC68
:105700000B4805F0E7FC0B4B054A1A600A4B054AAB
:105710001A6000BF0837BD4680BD00BFE4390020D5
:10572000483A00205C3A0020783A00208C3A002069
:10573000A43A0020703A0020743A002080B582B06C
:1057400000AF19E0FEF7D6FE104BDB68DB687B602C
:105750007B680433184605F047FD0D4B1B68013B81
:105760000B4A13600B4B1B68013B0A4A1360FEF7A0
:10577000F1FE786806F054F9064B1B68002BE1D166
:1057800000BF00BF0837BD4680BD00BF8C3A002077
:10579000B83A0020A03A002080B483B000AF0C4B90
:1057A0001B681B68002B04D10A4B4FF0FF321A60B4
:1057B00008E0074B1B68DB68DB687B607B685B6825
:1057C000044A136000BF0C37BD465DF8047B704788
:1057D000703A0020D83A002080B483B000AF0B4B61
:1057E0001B68002B02D101237B6008E0084B1B687B
:1057F000002B02D102237B6001E000237B607B68E9
:1058000018460C37BD465DF8047B7047C43A00204B
:10581000E03A002080B584B000AF78607B68BB6060
:105820000023FB607B68002B5ED0BB68DA6A314BDB
:105830001B68DB6A9A424ED2BB689B69002B06DB71
:105840002C4B1B68DB6AC3F10502BB689A61BB681D
:105850005969BB68DA6A13469B0013449B00264AC9
:10586000134499422FD1BB680433184605F0BCFCA1
:105870000346002B0AD1BB68DB6A012202FA03F35C
:10588000DA431E4B1B6813401C4A1360194B1B68FC
:10589000DA6ABB68DA62BB68DB6A01229A40174B9E
:1058A0001B681343154A1360BB68DA6A13469B00F2
:1058B00013449B00104A1A44BB680433194610462F
:1058C00005F035FC04E00B4B1B68DA6ABB68DA6252
:1058D0000123FB6008E0BB685A6D064B1B68DB6A5E
:1058E0009A4201D20123FB60FB6818461037BD467F
:1058F00080BD00BFE0390020E4390020C03A00201C
:1059000080B586B000AF78607B683B6100237B6127
:105910007B68002B6ED03A4B1B683A699A420AD0DA
:105920004FF0400383F31188BFF36F8FBFF34F8FA6
:10593000FB6000BFFEE73B699B6D002B0AD14FF077
:10594000400383F31188BFF36F8FBFF34F8FBB60AA
:1059500000BFFEE73B699B6D5A1E3B699A653B6938
:10596000DA6A3B695B6D9A4244D03B699B6D002BC0
:1059700040D13B690433184605F036FC0346002B42
:1059800015D13B69DA6A1F4913469B0013449B00FB
:105990000B441B68002B0AD13B69DB6A012202FA27
:1059A00003F3DA43184B1B681340174A13603B6933
:1059B0005A6D3B69DA623B69DB6AC3F105023B69F8
:1059C0009A613B69DB6A01229A400F4B1B681343C3
:1059D0000D4A13603B69DA6A13469B0013449B002F
:1059E000084A1A443B6904331946104605F09FFBE8
:1059F00001237B617B6918461837BD4680BD00BF17
:105A0000E0390020E4390020C03A002080B588B099
:105A100000AF786039607B68BB6101237B617B6884
:105A2000002B77D0BB699B6D002B0AD14FF0400350
:105A300083F31188BFF36F8FBFF34F8FFB6000BFFD
:105A4000FEE7BB695B6D3A689A4202D93B68FB612D
:105A500002E0BB695B6DFB61BB69DB6AFA699A4274
:105A600058D0BB699B6D7A699A4253D12B4B1B6806
:105A7000BA699A420AD14FF0400383F31188BFF309
:105A80006F8FBFF34F8FBB6000BFFEE7BB69DB6A60
:105A90003B61BB69FA69DA62BB699B69002B04DB75
:105AA000FB69C3F10502BB699A61BB6959693A692F
:105AB00013469B0013449B00194A1344994229D171
:105AC000BB690433184605F08FFB0346002B0AD14F
:105AD000BB69DB6A012202FA03F3DA43114B1B684C
