:100000000080022061010000E9010000CF9C000097
:10001000ED010000EF010000F10100001ADAFCDF41
:1000200000000000000000000000000001020000CD
:10003000F501000000000000310200006135000001
:100040006D8C0000758C00007D8C0000858C00009C
:100050008D8C0000958C00009D8C0000A58C00000C
:10006000AD8C0000B58C000061250000BD8C000047
:10007000C58C0000CD8C0000D58C0000DD8C00000C
:10008000E58C0000ED8C0000F58C0000FD8C00007C
:10009000058D00000D8D0000C9270000158D0000A2
:1000A0001D8D0000258D00002D8D0000358D000078
:1000B0003D8D0000458D00004D8D0000558D0000E8
:1000C0005D8D0000658D00006D8D0000758D000058
:1000D0007D8D0000858D0000790700008D8D00006A
:1000E000958D00009D8D0000A58D0000AD8D000058
:1000F000B58D0000BD8D0000C58D0000CD8D0000C8
:10010000D58D0000DD8D0000E58D0000ED8D000037
:10011000F58D0000FD8D0000058E00000D8E0000A5
:10012000158E0000ACE2000000000020200100005D
:10013000ACE200000000000400000000ACE200009F
:100140000000104000000000000600209032000077
:10015000000000040000000000001040000000004B
:1001600010B572B613484FF03801016007F0E2FB9A
:100170000D4B07E003F10C049A685968186800F009
:100180001BF82346094A9342F4D306E01C465968FB
:1001900054F8080B00F01FF82346054A9342F5D3A4
:1001A00062B60AF0EFFEFEE72401000048010000FD
:1001B0006001000020020040002393420AD210B4E4
:1001C00050F8044B41F8044B04339342F8D35DF8E4
:1001D000044B70477047002303E0002240F8042BD3
:1001E00004338B42F9D37047FEE7FEE7FEE7FEE7F4
:1001F000FEE7FEE7FEE7FEE7FEE7FEE7FFFFFFFFA5
:10020000074B19680868B0E8F04F80F30988BFF31E
:100210006F8F4FF0000080F311887047AFF30080BC
:100220004435002000BF00BFFFFFFFFFFFFFFFFFBF
:10023000EFF30980BFF36F8F154B1A681EF0100F94
:1002400008BF20ED108A20E9F04F10602DE9090069
:100250004FF0400080F31188BFF34F8FBFF36F8FD3
:1002600004F0F0F84FF0000080F3118809BC196821
:100270000868B0E8F04F1EF0100F08BFB0EC108A0D
:1002800080F30988BFF36F8F704700BFAFF3008022
:100290004435002000BF00BF80B582B000AF786059
:1002A0007968024808F094FB00BEFDE7D4B5000071
:1002B00080B582B002AF00F04FF8214B5B69204A55
:1002C00043F0806353611F4BD3F888311D4A23F0FC
:1002D0000F03C2F888311B4BD3F88831194A43F019
:1002E0000403C2F88831184B03F50053DB68164A43
:1002F00043F0040302F50052D360144B1B681B68E3
:100300006FF0DB0202FB03F303F5860303F50E53E4
:100310000B4AC2F88030002301930123009300238D
:10032000BE220B490B480AF0ABF80346012B04D060
:1003300004220221044808F081FD00BFBD4680BDB3
:10034000009000400010004000C008400000002065
:10035000F0B500009103000080B582B002AF0949FA
:10036000094805F0B5FC00230093084B074A022119
:10037000054805F0E7FC044808F050FD00BFBD4605
:1003800080BD00BFE8B5000000900040802343001E
:1003900080B582B000AF78601A4B1B681B686FF0A5
:1003A000DB0202FB03F303F5860303F50E53164A43
:1003B000C2F880304FF4FA7003F0CCFD134B1B6889
:1003C0001B686FF0DB0202FB03F303F5860303F502
:1003D0000E530D4AC2F880304FF4487003F0BAFD56
:1003E0000B4B1B681B686FF0DB0202FB03F303F58A
:1003F000860303F50E53044AC2F88030002003F050
:10040000DDFDC9E704000020009000400800002046
:100410000000002080B500AF00F042F81E4B1B6EBC
:100420001D4A23F00F0313661B4B1B6E1A4A43F041
:1004300003031366184B1B6E174A43F02003136621
:10044000164B03F500531B68144A23F4FF5323F0A3
:100450001F0302F5005213600F4B5B6E0E4A23F030
:100460000F0353660C4B5B6E0B4A43F0030353665A
:10047000094B5B6E084A43F020035366074B03F5B4
:1004800000531B68054A23F4FF5323F01F0302F5B2
:100490000052136000BF80BD0010004000C0084043
:1004A00080B500AF0C490D4805F012FC01220C4943
:1004B0000A4805F0F9FC012301220021074805F054
:1004C000A3FC012301220121044805F09DFC0348FF
:1004D00008F0D3FC00BF80BDFCB5000000800240E6
:1004E0000C00002080B582B000AF7860144808F09E
:1004F000B8FC0246134B1B68D31A134A1360134B04
:100500001B781946104B1B68114A42F821300C48E1
:1005100008F0A7FC03460B4A13600C4B1B78642BB6
:1005200006D80A4B1B780133DAB2084B1A7002E086
:10053000064B00221A7000BF0837BD4680BD00BFC1
:1005400000800240E0070020E407002088380020F7
:10055000F007002080B582B000AF7860144808F042
:1005600080FC0246134B1B68D31A134A1360134BCB
:100570001B781946124B1B68124A42F821300C486E
:1005800008F06FFC03460B4A13600C4B1B78642B7E
:1005900006D80A4B1B780133DAB2084B1A7002E016
:1005A000064B00221A7000BF0837BD4680BD00BF51
:1005B00000800240E8070020EC0700208938002076
:1005C000E40700208009002080B483B000AF034618
:1005D000FB7197F90730002B0BDBFB7903F01F024F
:1005E000074997F907305B09012000FA02F241F848
:1005F000232000BF0C37BD465DF8047B704700BF69
:1006000000E100E080B483B000AF0346FB7197F9CE
:100610000730002B12DBFB7903F01F020A4997F920
:1006200007305B09012000FA02F2203341F8232051
:10063000BFF34F8F00BFBFF36F8F00BF00BF0C37FA
:10064000BD465DF8047B704700E100E080B483B0F4
:1006500000AF03463960FB7197F90730002B0ADBC6
:100660003B68DAB20C4997F907305201D2B20B4419
:1006700083F800230AE03B68DAB20849FB7903F00B
:100680000F03043B5201D2B20B441A7600BF0C3761
:10069000BD465DF8047B704700E100E000ED00E03E
:1006A000B0B500AF134808F093FC134808F072FC93
:1006B0001249134807F0FAF80121114808F04EFCDE
:1006C000104B1B68104AA2FB03239B0900221C4607
:1006D000154622462B460A480AF0EAFB002126204E
:1006E000FFF7B4FF262008F0D8FB054808F026FCE9
:1006F00000BFB0BD100B0020240B002004B600008A
:1007000000D0024018010020D34D621080B582B0A5
:1007100000AF00237B60262008F0D5FB0346002BAA
:1007200009D1074808F0A9FC034603F003037B60E6
:10073000262008F0B2FB7B6818460837BD4680BD0E
:10074000100B002080B582B000AF00237B60262014
:1007500008F0B9FB0346002B06D1064808F027FC39
:100760007860262008F099FB7B6818460837BD465C
:1007700080BD00BF240B002098B500AF14220321D8
:100780001E4808F0B6FB0346DCB2162203211B48C4
:1007900008F0AFFB0346DBB21A462146184800F0CA
:1007A00037F8184B1B78092B18D915220321134849
:1007B00008F09FFB034603F001041E2203210F48AB
:1007C00008F097FB03465B0003F00203234319463E
:1007D0000D4808F012FC0B4B00221A70094B1B78D5
:1007E0000133DAB2074B1A700121084808F095FB73
:1007F000BFF34F8F00BF00BF98BD00BF00C00840CF
:10080000240B00208A380020100B002000D002406A
:1008100080B483B000AF78600B46FB701346BB70AA
:100820007B681B78DBB29B00DBB203F00F03DAB20C
:100830007B681A70FB78002B07D07B681B78DBB2D3
:1008400043F00203DAB27B681A70BB78002B07D042
:100850007B681B78DBB243F00103DAB27B681A7065
:100860007B681B78DBB21A46144B99567B685B7821
:100870005BB2DAB2CBB21344DBB25AB27B685A70C5
:100880007B681B78DBB203F00A030A2B0FD17B686D
:100890005B785BB2002B0AD07B685B785AB27B68CE
:1008A0005B681A447B685A607B6800225A7000BFFC
:1008B0000C37BD465DF8047B704700BF08B60000EA
:1008C00080B582B000AF0346FB710B46BB71134687
:1008D0007B713F4B1B68002B04D03D4B1B681846B7
:1008E00008F0FAFB3B4B1B78012B02D0022B2FD0D8
:1008F00060E0BB79002B04D0364B02221A7000F066
:10090000A7FB334B1B68002B51D0FB79002B04D085
:100910002F4B1B68184608F0F3FC97F90530002BA5
:1009200006DA2B4B1B680121184608F0B8FD09E0D8
:1009300097F90530002B05DD254B1B680121184672
:1009400008F04AFD224B1B68184608F01DFE2EE0F9
:10095000BB79002B04D01F4B01221A7008F077FCE2
:100960001B4B1B68002B24D0FB79002B04D0184BA9
:100970001B68184608F0C4FC97F90530002B06DA0E
:10098000134B1B680121184608F089FD09E097F90F
:100990000530002B05DD0E4B1B680121184608F0C1
:1009A0001BFD0B4B1B68184608F0EEFD01E000BF75
:1009B00000E000BF064B1B68002B04D0044B1B68F3
:1009C000184608F098FB00BF0837BD4680BD00BF41
:1009D0002C0B00208B38002080B58AB002AF7860E5
:1009E0001423BB6103F074FC0346BB600023FB616E
:1009F00001F032FC3B4808F0D7FD3B4808F0D4FD3D
:100A00003A4808F0D1FD3A4808F0CEFD394808F0E0
:100A1000CBFD394808F0C8FD384808F0C5FD384816
:100A200008F0C2FD374808F0BFFD374808F0BCFDAC
:100A3000364808F033FB364B012201925A68009287
:100A40001B6800220021314808F0A3FF2F4808F05E
:100A500034FB642003F07EFA2C4808F01FFB2D4B7A
:100A6000012201925A6800921B6800220021274847
:100A700008F08FFF254808F020FB642003F06AFA95
:100A8000254B01221A7000F0E9FC00F0DDFBFFF7B6
:100A900007FEFFF73BFE78617B69DBB203F00103E1
:100AA000FB747B695B08DBB203F00103BB74FFF7E7
:100AB00049FEF860FB685AB2B97CFB7C1846FFF728
:100AC000FFFEFB695A1CFA61192B03D80023FB6156
:100AD00000F0F4FB07F10803B969184603F0BCF90C
:100AE000D7E700BFE00000202C00002040000020DD
:100AF00054000020680000207C00002090000020AE
:100B0000A4000020B8000020CC000020C40B00206E
:100B100018BA000020BE00008B38002080B58AB0D3
:100B200004AF78600023FB757B685B7A03F00203F7
:100B3000DBB2002B00F03E827B4808F0FFFA002376
:100B40000293012301933F2300937F230D22002171
:100B5000754808F0FDFD754B012201925A6800921C
:100B60001B6839220021704808F013FF704B0122E6
:100B700001925A6800921B68132205216A4808F006
:100B800008FF6B4B012201925A6800921B681322E6
:100B90002321654808F0FDFE654B012201925A6849
:100BA00000921B68132242215F4808F0F2FE604B5E
:100BB000012201925A6800921B68132260215A4850
:100BC00008F0E7FE7B681B7A022B0BD1594B012200
:100BD00001925A6800921B6839222821524808F075
:100BE000D8FE4DE07B681B7A002B0CD101230293C9
:100BF000012301932C2300931E23142206214A482B
:100C000008F0A6FD31E07B681B7A012B0CD1012393
:100C10000293012301932C2300933C2314222421CB
:100C2000414808F095FD20E07B681B7A032B0CD12E
:100C300001230293012301932C2300935B231422AD
:100C40004321394808F084FD0FE07B681B7A042BB0
:100C50000BD101230293012301932C2300937923C9
:100C600014226121304808F073FD334B01220192B8
:100C70005A6800921B68392228212B4808F089FE07
:100C80007B685B683B613B695B691B68092B16D815
:100C90003B695B691A68294B83FB02139910D317D0
:100CA000C91A0B469B000B445B00D11ACBB2303300
:100CB000DBB23B7200237B720123FB758CE03B6946
:100CC0005B691B68632B3BD83B695B691B681B4AEC
:100CD00082FB03129210DB17D21A184B83FB02130C
:100CE0009910D317C91A0B469B000B445B00D11A0D
:100CF000CBB23033DBB23B723B695B691A680F4B96
:100D000083FB02139910D317C91A0B469B000B449F
:100D10005B00D11ACBB23033DBB27B720023BB72E3
:100D20000223FB7558E000BFC40B002088C70000F9
:100D300064C900009CC90000D4C9000067666666EB
:100D40003B695B691B68B3F57A7F45D23B695B6998
:100D50001B689A4A82FB03125211DB17D21A984B76
:100D600083FB02139910D317C91A0B469B000B443F
:100D70005B00D11ACBB23033DBB23B723B695B69AB
:100D80001B688F4A82FB03129210DB17D21A8C4B1E
:100D900083FB02139910D317C91A0B469B000B440F
:100DA0005B00D11ACBB23033DBB27B723B695B693B
:100DB0001A68834B83FB02139910D317C91A0B4689
:100DC0009B000B445B00D11ACBB23033DBB2BB7259
:100DD0000023FB720323FB757B681B7A002B14BF77
:100DE00001230023DBB21A46764B01925A68009227
:100DF0001B6816220821744808F0CBFDFB7DC3F167
:100E00000303DBB25B00DBB20D33DBB21E221946FB
:100E10006D4808F07FF97B681B7A002B14BF012313
:100E20000023DBB21A46694B07F108010192012247
:100E300000920CCB644808F08CFD7B685B6828331B
:100E40003B613B695B691B6803F00103002B12D017
:100E50007B681B7A012B14BF01230023DBB21A46E7
:100E60005B4B01925A6800921B6816222621564855
:100E700008F08FFD11E07B681B7A012B14BF012362
:100E80000023DBB21A46534B01925A6800921B684A
:100E9000162226214C4808F07CFD7B685B6878337D
:100EA0003B613B695B691B6803F00103002B12D0B7
:100EB0007B681B7A032B14BF01230023DBB21A4685
:100EC000454B01925A6800921B68162245213E4804
:100ED00008F05FFD11E07B681B7A032B14BF012330
:100EE0000023DBB21A463D4B01925A6800921B6800
:100EF00016224521344808F04CFD7B685B68A0331E
:100F00003B613B695B691968354BA3FB01235A08B8
:100F100013465B001344CA1A1346FB73FB7B022B78
:100F20002CD0022B3DDC002B02D0012B13D038E05B
:100F30007B681B7A042B14BF01230023DBB21A4603
:100F4000284B01925A6800921B68162263211E48A2
:100F500008F01FFD25E07B681B7A042B14BF0123DA
:100F60000023DBB21A46204B01925A6800921B689C
:100F700016226321144808F00CFD12E07B681B7AEE
:100F8000042B14BF01230023DBB21A46174B019236
:100F90005A6800921B68162263210B4808F0F9FC7E
:100FA00000BF094808F0D9F87A68537A6FF3410313
:100FB000537200E000BF1837BD4680BD1F85EB515E
:100FC0006766666600C70000C40B002028C60000E4
:100FD00070C60000D0C7000018C80000B8C60000E6
:100FE000ABAAAAAA60C80000A8C80000F0C8000008
:100FF00080B483B000AF786039607B68134AA2FB8D
:101000000323D908114BA3FB0123DA0813469B00E5
:1010100013445B00CA1AD3B23033DAB23B681A7099
:1010200079680A4BA3FB0123DA0813469B0013449B
:101030005B00CA1AD2B23B6801333032D2B21A70A6
:1010400000BF0C37BD465DF8047B7047CDCCCCCCDF
:1010500080B500AF0849094808F0DEF8064B0222C7
:101060001A720749054808F0D7F8044B1B68184660
:1010700008F02FF900BF80BDE00000202C0B0020FD
:101080002C00002080B500AF0549064808F0C4F8E0
:10109000044B1B68184608F01CF900BF80BD00BF58
:1010A000400000202C0B002080B500AF0549064809
:1010B00008F0B2F8044B1B68184608F00AF900BFA4
:1010C00080BD00BF540000202C0B002080B586B0EE
:1010D00004AF0346FB71214808F062F80023029335
:1010E000012301933F2300937F230D2200211B48FE
:1010F00008F02EFB12220821184808F03DF8184B82
:1011000001220192002200920CCB1649134808F0EC
:1011100020FC22220B21114808F02EF8104B01224E
:101120000192002200920CCB0F490C4808F011FCF0
:1011300032221D21094808F01FF8094B01220192B3
:10114000002200920CCB0949044808F002FC034835
:1011500008F035F800BF0837BD4680BDC40B00203D
:101160000CCE000098D00000ACD00000BCD0000035
:1011700080B500AF0549064808F04EF8044B1B68DF
:10118000184608F0A6F800BF80BD00BF7C00002014
:101190002C0B002080B500AF0549064808F03CF84C
:1011A000044B1B68184608F094F800BF80BD00BFD0
:1011B000900000202C0B002080B500AF05490648A8
:1011C00008F02AF8044B1B68184608F082F800BFA4
:1011D00080BD00BFA40000202C0B002080B500AF14
:1011E0000549064808F018F8044B1B68184608F033
:1011F00070F800BF80BD00BFB80000202C0B00209D
:1012000080B500AF0549064808F006F8044B1B6896
:10121000184608F05EF800BF80BD00BFCC0000207B
:101220002C0B002080B500AF0549064807F0F4FFFD
:10123000044B1B68184608F04CF800BF80BD00BF87
:10124000680000202C0B002080B584B004AF174844
:1012500007F0A6FF00230293012301933823009394
:101260007F230D220021114808F072FA0021104856
:1012700007F0D2FF0F4B012201925A6800921B68BF
:1012800012222721094808F084FB0B4B012201920E
:101290005A6800921B6839220021044808F079FB43
:1012A000024807F08CFF00BFBD4680BDC40B002084
:1012B0002C0B002090D00000C0CF000080B586B07D
:1012C00002AF03F005F803465E4AA2FB03239B0925
:1012D000FB60FB685C4AA2FB0323D90A5B4BA3FBC0
:1012E0000123DA0813469B0013445B00CA1AD3B2E9
:1012F0003033DBB23B71FB68554AA2FB032359092B
:10130000534BA3FB01235A0913461B019B1A9B0055
:10131000CA1A3B1D013319461046FFF769FEF968EA
:101320004B4BA3FB01235A0913461B019B1A9B003D
:10133000CA1A3B1D033319461046FFF759FE4548AC
:1013400007F02EFF00220821424807F015FF3979E7
:10135000414B01220192012200920CCB3D4808F042
:1013600037FA00220E213B4807F006FF79793A4B05
:1013700001220192012200920CCB364808F028FA93
:1013800000221221334807F0F7FEB979324B0122CF
:101390000192012200920CCB2E4808F019FA00228B
:1013A00018212C4807F0E8FEF9792B4B0122019215
:1013B000012200920CCB274808F00AFA00221C21D7
:1013C000244807F0D9FE397A234B012201920122E9
:1013D00000920CCB1F4808F0FBF9002261211D4848
:1013E00007F0CAFE1C4B01220192012200920CCB95
:1013F0002D21184808F0ECF900226521154807F066
:10140000BBFE154B01220192012200920CCB2D2133
:10141000104808F0DDF900226D210E4807F0ACFEFF
:101420000D4B01220192012200920CCB2D21094883
:1014300008F0CEF9074807F0C2FE00BF1037BD46DE
:1014400080BD00BFD34D6210C5B3A291CDCCCCCC32
:1014500089888888C40B0020C4CB000080B584B084
:1014600004AF6D4807F09CFE002302930123019313
:101470003F2300937F2300220021674808F068F98A
:10148000664B012201925A6800921B6800220021DB
:10149000614808F07EFA624B012201925A6800927C
:1014A0001B68002200215C4808F073FA0123012226
:1014B0000C21594808F0F1F8012303220C21564869
:1014C00008F0EBF8012301221621534808F0E5F853
:1014D000012303221621504808F0DFF800220821DA
:1014E0004D4807F049FE4F4B012201920122009224
:1014F0000CCB3021484808F06BF900220E214648F9
:1015000007F03AFE474B01220192012200920CCBD8
:101510003021414808F05CF9002212213E4807F0D2
:101520002BFE404B01220192012200920CCB302174
:10153000394808F04DF900221821374807F01CFE01
:10154000384B01220192012200920CCB302132480B
:1015500008F03EF900221C212F4807F00DFE314B08
:1015600001220192012200920CCB30212A4808F07E
:101570002FF92D4B012201925A6800921B6801221B
:101580007621254808F005FA012304226A21224821
:1015900008F083F8002271211F4807F0EDFD214B70
:1015A00001220192002200920CCB56211A4808F029
:1015B0000FF900226121184807F0DEFD194B0122C6
:1015C0000192012200920CCB2D21134808F000F962
:1015D00000226521104807F0CFFD124B0122019235
:1015E000012200920CCB2D210B4808F0F1F80022CB
:1015F0006D21094807F0C0FD0A4B0122019201222A
:1016000000920CCB2D21044808F0E2F8024807F0C4
:10161000D6FD00BFBD4680BDC40B002014CF000026
:1016200024CF0000C4CB000038CF000080B582B0CA
:1016300002AF00F065F82C4B5B692B4A43F08073D6
:1016400053612A4BD3F8A831284A23F00F03C2F87C
:10165000A831264BD3F8A831244A43F00303C2F83B
:10166000A831234B03F50053DB68214A43F4806320
:1016700002F50052D3601C4B1E4A9A671A4B5B69F5
:10168000194A43F080635361184BDB6E174A23F00D
:101690000F03D366154BDB6E144A43F00303D36686
:1016A000134B03F500531B68114A43F0006302F526
:1016B000005213600C4B0F4AC3F8802000230193A3
:1016C000012300930023BE220B490C4808F0D8FEEA
:1016D0000346012B04D004220221054807F0CFFD68
:1016E00000BFBD4680BD00BF008004400010004028
:1016F00000C0084020C83F00D0D0000049170000BB
:1017000080B582B002AF0D490D4804F0E1FA002324
:1017100000930C4B0B4A0021094804F013FB0023F3
:101720000093084B074A0221054804F00BFB0448CC
:1017300007F095FD00BFBD4680BD00BFC8D00000CA
:10174000008004408023430080B582B000AF786001
:10175000124B134A9A67114B114AC3F880204FF479
:10176000FA6002F0F7FB0D4B0E4A9A670B4B0D4ADD
:10177000C3F880204FF4FA6002F0ECFB074B084AF4
:101780009A67064B064AC3F8802040F6AC5002F038
:10179000E1FB002002F012FCDAE700BF0080044009
:1017A00020C83F00701A3E0080B58CB004AF78604E
:1017B0007B685B7A03F00203DBB2002B00F0368318
:1017C0007B685B7A03F00103DBB2002B10D07B68EF
:1017D0005A687B681B7A19460B469B000B44DB005A
:1017E00013449B7C032B03D1786807F0B6FE1EE3FD
:1017F0007B681A7A7B681B789A4202D37B68002246
:101800001A727B681B7AAF4AA2FB03239B08BB7644
:101810007B681A7AAB4BA3FB021399080B469B001B
:101820000B44D31A7B767B681B78A64AA2FB032362
:101830009B08DBB2BA7E9A420BD17B681A78A14B27
:10184000A3FB021399080B469B000B44D31ADBB28F
:1018500000E005233B76786800F0B8FC0023029393
:10186000012301933F2300937F230D2200217868F9
:1018700000F06AFC0023FB766DE2FB7E1A469200C4
:1018800013445B00DBB21233D8B2FB7E1A469200DF
:1018900013445B00DBB21333DBB2F97E7A7E9142F4
:1018A0000CBF01220022D2B20292012201920093C7
:1018B000002302460021786800F046FCFB7E1A46B1
:1018C000920013445B00DBB21133D8B2FB7E1A46A0
:1018D000920013445B00DBB21433DBB2F97E7A7EF4
:1018E00091420CBF01220022D2B202920122019247
:1018F0000093012302460121786800F025FCFB7E5D
:101900001A46920013445B00DBB21033D8B2FB7E60
:101910001A46920013445B00DBB21533DBB2F97E4A
:101920007A7E91420CBF01220022D2B202920122A1
:1019300001920093022302460221786800F004FC21
:10194000FB7E1A46920013445B00DBB20F33D8B221
:10195000FB7E1A46920013445B00DBB21633DBB207
:10196000F97E7A7E91420CBF01220022D2B202920D
:10197000012201920093032302460321786800F0BC
:10198000E3FBFB7E1A46920013445B00DBB20E338E
:10199000D8B2FB7E1A46920013445B00DBB21733C9
:1019A000DBB2F97E7A7E91420CBF01220022D2B2D4
:1019B00002920122019200937A2302460421786860
:1019C00000F0C2FBFA7E3B7E9A4280F0C1817B68C8
:1019D0005968BA7E13469B001A44FB7E13441A468C
:1019E00013469B001344DB000B443B61FB7E1A460D
:1019F000920013445B00DBB20F33D9B23869FA7E30
:101A00007B7E9A4214BF01230023DBB2009303467E
:101A10000A460521786800F0B7FB3B699B7C022BE6
:101A200040F0EA807B685B7A03F00103DBB2002BB5
:101A300019D0FB7E1A46920013445B00DBB20E33D2
:101A4000DAB2FB7E194689000B445B00DBB2173328
:101A5000DBB20021029101210191009378235421EE
:101A6000786800F071FB3B695B691B68FB61FB698F
:101A700042F20F72934205DD3E233B7242F20F7336
:101A8000FB6114E0FB69104A934205DA3C233B7288
:101A900042F20F73FB610AE0FB69002B05DA2D238C
:101AA0003B72FB695B42FB6101E020233B723B7AA6
:101AB0003C2B0BD1FB6942F20F72934206D12D23CE
:101AC0007B7215E0CDCCCCCCF1D8FFFFFB69474A47
:101AD00082FB03129211DB17D31AFB81FB89002BC7
:101AE00004D0FB89DBB23033DBB200E020237B7211
:101AF000FB693F4A82FB03125211DB17D21A3D4B9E
:101B000083FB02139910D317C91A0B469B000B4491
:101B10005B00D11A0B46FB81FB89002B04D0FB89AB
:101B2000DBB23033DBB205E0FB69632B01DC202341
:101B300000E03023BB72FB692E4A82FB0312921035
:101B4000DB17D21A2B4B83FB02139910D317C91A38
:101B50000B469B000B445B00D11A0B46FB81FB89B3
:101B6000002B04D0FB89DBB23033DBB205E0FB692C
:101B7000632B01DC202300E03023FB72FA691D4B4C
:101B800083FB02139910D317C91A0B469B000B4411
:101B90005B00D11A0B46FB81FB89DBB23033DBB231
:101BA0003B7300237B73FB7E1A46920013445B0059
:101BB000DBB20F33D9B2FA7E7B7E9A4206D17B68C4
:101BC0005B7A03F00103DBB2002B01D0012300E0BC
:101BD000002303F00103DBB207F108020093134670
:101BE0000A465521786800F0CFFAB1E0D34D621073
:101BF0001F85EB51676666663B699B7C012B40F055
:101C0000A780FA7E7B7E9A4219D1FB7E1A4692000B
:101C100013445B00DBB20E33DAB2FB7E1946890057
:101C20000B445B00DBB21733DBB2002102910121D0
:101C30000191009379237021786800F085FAFB7E8A
:101C40001A46920013445B00DBB20F33DAB2FB7E1C
:101C5000194689000B445B00DBB21633DBB201216D
:101C6000029100210191009378237121786800F09E
:101C70006BFA3B695B691B6803F00103002B67D0BB
:101C8000FB7E1A46920013445B00DBB21133DAB2DA
:101C900001237321786800F03DFAFB7E1A4692001A
:101CA00013445B00DBB21233DAB20123742178688B
:101CB00000F030FAFB7E1A46920013445B00DBB260
:101CC0001333DAB201237521786800F023FAFB7E22
:101CD0001A46920013445B00DBB21433DAB20123DC
:101CE0007621786800F016FAFB7E1A4692001344BB
:101CF0005B00DBB21433DAB201237321786800F0A1
:101D000009FAFB7E1A46920013445B00DBB21333E0
:101D1000DAB201237421786800F0FCF9FB7E1A46E0
:101D2000920013445B00DBB21233DAB20123752157
:101D3000786800F0EFF9FB7E1A46920013445B00CE
:101D4000DBB21133DAB201237621786800F0E2F9D0
:101D5000FB7E0133FB76FB7E042B7FF68EAD7B682A
:101D60001B781A462D2393FBF2F3FB750123029394
:101D7000002301930E2300937F230E227D21786898
:101D800000F0E2F97B681B78FA7D12FB03F3DBB20B
:101D90001233D9B27B681B78FA7D12FB03F3DBB2F6
:101DA0001233DBB2012202920022019200937F23C0
:101DB0000A467D21786800F0C7F97B681B78FA7DB8
:101DC00012FB03F3DBB21033DBB2002202920122DA
:101DD000019200937F2310227D21786800F0B4F9EE
:101DE0007B681B7AFA7D12FB03F3DBB21033D9B2A6
:101DF0007B681B7A0133DBB2FA7D12FB03F3DBB2A3
:101E00001033DBB2012202920122019200937F2360
:101E10000A467D21786800F097F9786800F0E4F9C7
:101E20007A68537A6FF34103537200E000BF2037A2
:101E3000BD4680BD80B582B000AF786039603B6838
:101E40001D2B02D91048FEF727FA7B6803F1200208
:101E50003B68DBB25B09DBB29B00134419683B684B
:101E6000DBB203F01F0301229A407B6803F12000DC
:101E70003B68DBB25B09DBB29B0003440A431A6098
:101E800000BF0837BD4680BDE0D0000080B586B0F9
:101E900002AFF860B9607A603B60FB68BA681A60AC
:101EA000FB687A681A65FB683A685A650322002164
:101EB000012007F0D6FF0246FB689A66012008F071
:101EC00043F80246FB68DA66FB681B6D184604F0AF
:101ED000BDF9FB685833184605F0CCF8FB68BA69C1
:101EE000DA65FB681868FB685833FA69194608F028
:101EF000A1FE4FF080430022C3F8B822FB681A6DA0
:101F0000FB685B6D19461046FFF794FFFB6803F111
:101F10004000FB68196DFB685B6D1A4604F094FB8A
:101F2000FB681868FB68191DFB6840330093FB6869
:101F3000034A05F059FB00BF1037BD4680BD00BF06
:101F4000451F000080B586B000AFF860B9607A60C8
:101F50003B603B687B617B697A685A667B699B6EF4
:101F600007F110021146184608F0A1F83B69002B52
:101F700007D0064B4FF080521A60BFF34F8FBFF36C
:101F80006F8F00BF1837BD4680BD00BF04ED00E075
:101F900080B582B000AF78601E23164A00217868B1
:101FA00000F088F87B689A1D01230021786800F012
:101FB00081F87B68DA1D01230021786800F07AF847
:101FC0007B6803F1080201230021786800F072F8B1
:101FD0000021786807F03FFB786807F069FD01236E
:101FE000054A0021786800F065F800BF0837BD4653
:101FF00080BD00BF50D100006ED1000080B584B01C
:1020000002AF7860084611461A460346FB700B463D
:10201000BB7013467B707B68FA781A707B68BA785D
:102020005A707B687A789A70BB787A7802FB03F3EF
:10203000DB109AB27B689A807B68A022DA717B6899
:10204000C0229A717B68A6221A727B6800229A725B
:102050007B680022DA727B683A69DA60012007F057
:1020600073FF02467B689A617B689B69002B00D1F5
:10207000FEE77B689A697B681A617B6800221A75A3
:102080007B681846FFF784FF002301930423009325
:102090007B68BE220549064808F0F2F90346012B89
:1020A00000D0FEE700BF0837BD4680BD70D10000FC
:1020B0001B9B000080B584B000AFF8607A603B6085
:1020C0000B46FB72FB681A78104B1A710F4B0022FB
:1020D0005A71FB7A002B01D1002300E040230B4A08
:1020E00093600A4B0122DA60084A7B681361074A51
:1020F0003B685361054B00221A600449044807F00D
:102100006FFA00BF1037BD4680BD00BF3C0B0020FA
:10211000540B002080B582B000AF786008461146AD
:102120001A460346FB700B46BB7013467B707B78E8
:10213000BA78F978034807F0B0FA00BF0837BD460F
:1021400080BD00BFC40B002080B586B004AF7860AE
:10215000084611461A460346FB700B46BB701346F1
:102160007B703B7E7878BA78F97802933B7D019357
:102170003B7C00930346034807F0EAFA00BF0837A8
:10218000BD4680BDC40B002080B586B002AFF860AC
:102190007B600B46FB721346BB72BA7AFB7A194618
:1021A000084807F0D7FC3B7E074A019300230093C1
:1021B0000CCA7968034807F0CCFB00BF1037BD4656
:1021C00080BD00BFC40B0020BCD3000080B582B02E
:1021D00000AF7860034807F0D1FC00BF0837BD4668
:1021E00080BD00BFC40B002080B582B000AF786016
:1021F000034807F0D2FC00BF0837BD4680BD00BFD2
:10220000C40B002080B483B000AF03463960FB717B
:1022100097F90730002B0ADB3B68DAB20C4997F9D3
:1022200007305201D2B20B4483F800230AE03B6826
:10223000DAB20849FB7903F00F03043B5201D2B232
:102240000B441A7600BF0C37BD465DF8047B70471F
:1022500000E100E000ED00E080B582B002AF0221B5
:102260001020FFF7CFFF02210120FFF7CBFF0A4B21
:1022700001930A4B00930523094A0A490A48FFF7CC
:1022800005FE0A4B0093802340223C210848FFF7BB
:10229000B5FE00BFBD4680BD001BB700801A06001A
:1022A0000020084000800840540B0020200100203E
:1022B000C40B002080B483B000AF0346FB7197F9D4
:1022C0000730002B0BDBFB7903F01F02074997F95E
:1022D00007305B09012000FA02F241F8232000BF19
:1022E0000C37BD465DF8047B704700BF00E100E09D
:1022F00080B483B000AF03463960FB7197F90730B3
:10230000002B0ADB3B68DAB20C4997F9073052011F
:10231000D2B20B4483F800230AE03B68DAB20849E2
:10232000FB7903F00F03043B5201D2B20B441A763F
:1023300000BF0C37BD465DF8047B704700E100E04C
:1023400000ED00E080B500AF00F014F800F038F8C0
:1023500000F070F800F0BAF800F02CF900F080F905
:10236000034B5B68024A23F00403536000BF80BD47
:102370000050084080B500AF0E490F4803F0A8FC9C
:102380000D4B00225A610C4B5B690B4A43F0807382
:1023900043F003035361084B084A9A6700210A205F
:1023A000FFF7A6FF0A2007F007FC034807F028FC08
:1023B00000BF80BDC4D3000000800040605B03000C
:1023C00080B400AF4FF080430022C3F8F0224FF0FA
:1023D00080430422C3F8B4234FF08043D3F804327F
:1023E0004FF0804243F00403C2F804324FF08043C0
:1023F000D3F844314FF0804243F00403C2F8443133
:102400000B4B1B680A4A43F006031360084B1B681A
:10241000074A43F070031360054B1B68044A43F4FA
:102420000033136000BFBD465DF8047B704700BFFA
:102430000050084080B400AF214BD3F8EC31204A63
:1024400023F00F03C2F8EC311D4BD3F8EC311C4ADA
:1024500043F00203C2F8EC311A4B03F50053DB687A
:10246000184A43F0006302F50052D360164B0B226A
:10247000C3F80022144B4FF0FF32C3F80023124B75
:102480004FF48052C3F804230F4B0122C3F80825F0
:102490000D4B0522C3F804220B4B4FF0FF32C3F85B
:1024A0000823094B41F20102C3F80C23064B022218
:1024B000C3F80C2500BFBD465DF8047B704700BF24
:1024C0000010004000C008400050084080B400AF39
:1024D000204BD3F8E8311F4A23F00F03C2F8E8314C
:1024E0001C4BD3F8E8311B4A43F00203C2F8E83131
:1024F000194B03F50053DB68174A43F0806302F57C
:102500000052D360154B0A22C3F80822134B002255
:10251000C3F81023114B41F20202C3F814230F4BEE
:102520000422C3F800250D4B0022C3F80C220B4BEC
:102530006FF07042C3F81823084B41F20302C3F84E
:102540001C23064B0822C3F8042500BFBD465DF8D6
:10255000047B70470010004000C008400050084055
:1025600080B582B000AF78600F4B00221A700F4B1D
:102570006FF07042C3F810230C4B5B680B4A23F0DA
:1025800004035360094B0022C3F81023074B5B6818
:10259000064A23F0040353600121054807F022FB9B
:1025A00000BF0837BD4680BD1C0100200050084018
:1025B0000080004080B400AF0D4B0822C3F8102209
:1025C0000B4B6FF07042C3F82023094B41F2040219
:1025D000C3F82423064B1022C3F82025044B012204
:1025E000C3F8242500BFBD465DF8047B704700BFDB
:1025F0000050084080B582B000AF174B1B687B606D
:10260000154B1B68144A43F002031360124B01225E
:10261000DA66114BDB6E03F00103002B16D00E4B74
:102620001B680D4A43F0070313600B4B01221A6726
:102630000A49642003F090FA074B1B6F03F0010373
:10264000012B05D0044A7B68136002E000BF00E064
:1026500000BF0837BD4680BD00000A4000EF1C0DDA
:1026600080B500AF544B1B6C534A23F00F03136427
:10267000514B1B6C504A23F4807313644F4B03F58A
:1026800000531B684D4A23F4803302F50052136057
:102690004FF08043D3F810364FF0804223F480632C
:1026A000C2F810364FF08043D3F810364FF0804216
:1026B00023F40073C2F810364FF08043D3F810367D
:1026C0004FF0804223F40023C2F810364FF08043CD
:1026D000D3F810364FF0804223F40003C2F81036CE
:1026E0003749142003F038FA4FF08043D3F8003212
:1026F0004FF0804243F00063C2F800324FF0804355
:10270000D3F840314FF0804243F00063C2F84031CB
:10271000FFF770FF2B4B1B682A4A43F0020313603C
:10272000284B1B68274A23F4C0631360254B1B68A2
:10273000244A43F400731360224B1B68214A43F47C
:10274000005313601F4B9B681E4A23F000439360A5
:102750001C4B9B681B4A43F010039360194B9B680A
:10276000184A43F440539360164B9B68154A43F450
:1027700080239360134B9B68124A43F400239360B9
:10278000104B9B680F4A43F0804393600D4B9B684E
:102790000C4A43F0004393600A4B5B6E094A43F0D6
:1027A0000103536600211620FFF7A2FD162007F053
:1027B00003FA00BF80BD00BF0010004000C0084009
:1027C00000EF1C0D00000A4080B400AF104B1B78D6
:1027D000DBB2802B10D80F4B1B69190A0C4B1B78EE
:1027E000DBB21A46C9B20C4B9954094B1B78DBB2C9
:1027F0000133DAB2064B1A70064B4FF080529A66DC
:10280000BFF34F8F00BF00BFBD465DF8047B70472C
:102810001C01002000000A40E00B002080B588B0B9
:1028200004AF0346FB710023FB730D23BB731C48ED
:1028300007F0F6F900230293012301933F2300934D
:102840007F230D220021164806F082FF1DE00023A1
:10285000FB7313E0BB7B1A469B00D31ABF33FA7B92
:1028600010498A5CD2B2934205DABA7BF97B012324
:102870000B4806F012FFFB7B0133FB7397F90F3017
:10288000002BE7DABB7B0133BB73BB7B3F2BDED96D
:10289000034807F0D4F900BF1037BD4680BD00BF24
:1028A000C40B0020E00B002080B582B000AF786040
:1028B0004FF480420321044807F0E3F94FF4FA7023
:1028C00001F048FBF4E700BF00C0084080B500AF4E
:1028D0004FF480420321084807F0C0F90822032181
:1028E000054807F0BBF904220221034807F0B6F9B6
:1028F00000F004F800BF80BD00C0084080B400AF05
:10290000144BD3F8B031134A23F00F03C2F8B0319F
:10291000104BD3F8B0310F4A43F00503C2F8B03181
:102920000D4B03F50053DB680B4A43F4805302F56B
:102930000052D3604FF080430422C3F888224FF046
:102940008043DB22C3F8842300BFBD465DF8047BCF
:10295000704700BF0010004000C0084080B582B042
:1029600002AF4FF4867002F0F5FC08F005FB08F0AA
:10297000E6FA08F0C5FA05F0C3F8FFF7A7FF00F084
:1029800039F8FFF7DFFCFDF745FDFDF791FCFEF799
:102990004DFE00230193012300930023BE22104922
:1029A000104807F06DFD0346012B04D004220221DC
:1029B0000D4807F079F900230193012300930023C8
:1029C000BE220A490A4807F05BFD0346012B04D0EA
:1029D00004220221044807F067F901F081FBFEE7B9
:1029E000CCD30000A928000000C00840DCD30000C0
:1029F000D909000080B584B000AF012002F046FF85
:102A0000F8603B1D184607F0C5FF3B1DFA681946E4
:102A1000054804F0C7F880220449054808F0B9FACF
:102A200000BF1037BD4680BD00400140008010400F
:102A3000600C002080B500AF80220749074808F0ED
:102A4000C4FA0346002B04D0034A0021044807F0CF
:102A5000C3FF00BF80BD00BF600C0020008010409D
:102A60000040014080B485B000AF0346FB71FB79A4
:102A7000022B0ED12B4B1B681B686FF0DB0202FB95
:102A800003F303F5860303F50E53274AC2F880309B
:102A900043E0264B1B68002B19DC224B1B681B688C
:102AA0009AB2204B1B681968214B1B681B68CB1A14
:102AB0001E49096801FB03F31E4981FB030149110B
:102AC000DB17CB1A9BB213449BB2FB8118E0154B6A
:102AD0001B681B689AB2184B1B681968114B1B685E
:102AE0001B68CB1A1149096801FB03F3114981FBEB
:102AF00003014911DB17CB1A9BB213449BB2FB8134
:102B0000B7F90E306FF0DB0202FB03F303F5860327
:102B100003F50E53044AC2F880301437BD465DF801
:102B2000047B70470000002000900040300B002024
:102B3000040000201F85EB510800002080B483B002
:102B400000AF0346FB710A4B1B681B686FF0DB028A
:102B500002FB03F303F5860303F50E53054AC2F89F
:102B6000803000BF0C37BD465DF8047B704700BF66
:102B7000000000200090004080B483B000AF034606
:102B8000FB71FB79022B0ED1104B1B681B686FF099
:102B9000DB0202FB03F303F5860303F50E530C4A35
:102BA000C2F880300DE00B4B1B681B686FF0DB0236
:102BB00002FB03F303F5860303F50E53044AC2F840
:102BC00080300C37BD465DF8047B70470000002064
:102BD000009000400400002080B483B000AF0346A2
:102BE000FB71FB79022B0ED1104B1B681B686FF039
:102BF000DB0202FB03F303F5860303F50E530C4AD5
:102C0000C2F880300DE00B4B1B681B686FF0DB02D5
:102C100002FB03F303F5860303F50E53044AC2F8DF
:102C200080300C37BD465DF8047B70470000002003
:102C3000009000400800002080B584B000AF03463B
:102C4000FB71FB79022B0DD11E4B1B681B686FF0CB
:102C5000DB0202FB03F303F5860303F50E531A4A66
:102C600093672CE0194B1B681B689AB2184B1B68C2
:102C70001968164B1B681B68CB1A1649096801FBBB
:102C800003F3154981FB03014911DB17CB1A9BB2F2
:102C900013449BB2FB81B7F90E306FF0DB0202FBED
:102CA00003F303F5860303F50E53074A9367B7F959
:102CB0000E30054A926F1946084805F089FE103714
:102CC000BD4680BDF400002000800440F8000020D4
:102CD000FC000020340B00201F85EB51E8D30000DE
:102CE00080B483B000AF0346FB71094B1B681B68BF
:102CF0006FF0DB0202FB03F303F5860303F50E53CB
:102D0000044A936700BF0C37BD465DF8047B7047EB
:102D1000F40000200080044080B483B000AF03467C
:102D2000FB71FB79022B0DD10F4B1B681B686FF0F9
:102D3000DB0202FB03F303F5860303F50E530B4A94
:102D400093670CE00A4B1B681B686FF0DB0202FB09
:102D500003F303F5860303F50E53044A93670C3718
:102D6000BD465DF8047B7047F400002000800440FD
:102D7000F800002080B584B000AF0346FB71FB79FA
:102D8000022B0ED1204B1B681B686FF0DB0202FB8D
:102D900003F303F5860303F50E531C4AC2F8803093
:102DA0002EE01B4B1B681B689AB21A4B1B681968F4
:102DB000174B1B681B68CB1A1749096801FB03F303
:102DC000164981FB03014911DB17CB1A9BB213444F
:102DD0009BB2FB81B7F90E306FF0DB0202FB03F30D
:102DE00003F5860303F50E53084AC2F88030B7F99D
:102DF0000E30064AD2F880201946094805F0E8FD51
:102E00001037BD4680BD00BF000100200080044097
:102E10000401002008010020380B00201F85EB5121
:102E200010D4000080B500AF1F4B1B6840F2DC528D
:102E30009A611D4B1B6840F25642DA611A4B1B68BF
:102E400040F652021A62184B1B684FF480425A62D5
:102E5000154B1B684FF47A729A62134B1B6840F251
:102E60004C42DA62104B1B6840F26C721A630E4BD4
:102E70001B6842F6BB325A630B4B1B684FF47A72E5
:102E80009A63094B1B6840F24C42DA63064B1B689D
:102E900040F26C721A64044B1B6842F6BB325A64EF
:102EA000FEF766F900BF80BD0C01002080B58AB036
:102EB00000AF78600023FB6101F060F95B4B1B6899
:102EC000002B01D100F020F9594B1A687B681340A0
:102ED000002B40F093807B68002B1DD008227B687C
:102EE00013447B607B6803F00703002B14D07B68DE
:102EF00023F0070308337B607B6803F00703002B94
:102F00000AD04FF0400383F31188BFF36F8FBFF3F4
:102F10004F8F7B6100BFFEE77B68002B6ED0454B77
:102F20001B687A689A4269D8434B3B62424B1B68E4
:102F30007B6204E07B6A3B627B6A1B687B627B6A24
:102F40005B687A689A4203D97B6A1B68002BF1D1CF
:102F5000364B1B687A6A9A4250D03B6A1B6808223B
:102F60001344FB617B6A1A683B6A1A607B6A5A6881
:102F70007B68D21A08235B009A421FD97A6A7B6861
:102F80001344BB61BB6903F00703002B0AD04FF069
:102F9000400383F31188BFF36F8FBFF34F8F3B6103
:102FA00000BFFEE77B6A5A687B68D21ABB695A6029
:102FB0007B6A7A685A60B86900F008F91D4B1A6894
:102FC0007B6A5B68D31A1B4A13601A4B1A681B4B47
:102FD0001B689A4203D2174B1B68184A13607B6A1E
:102FE0005A68134B1B681A437B6A5A607B6A00223B
:102FF0001A60134B1B680133114A136001F0CCF8BF
:10300000FB6903F00703002B0AD04FF0400383F362
:103010001188BFF36F8FBFF34F8FFB6000BFFEE7D8
:10302000FB6918462837BD4680BD00BFE834002044
:10303000FC340020EC340020E0340020F034002088
:10304000F434002080B586B000AF78607B687B6187
:103050007B68002B4DD008235B427A6913447B6167
:103060007B693B613B695A68244B1B681340002B0A
:103070000AD14FF0400383F31188BFF36F8FBFF382
:103080004F8FFB6000BFFEE73B691B68002B0AD037
:103090004FF0400383F31188BFF36F8FBFF34F8F5F
:1030A000BB6000BFFEE73B695A68144B1B681340C6
:1030B000002B1ED03B691B68002B1AD13B695A6854
:1030C0000E4B1B68DB431A403B695A6001F056F80F
:1030D0003B695A680A4B1B681344094A13603869F4
:1030E00000F074F8074B1B680133064A136001F0C7
:1030F00053F800BF1837BD4680BD00BFFC34002028
:10310000EC340020F834002080B485B000AF4FF4D8
:103110002053BB60274BFB60FB6803F00703002BC9
:103120000CD0FB680733FB60FB6823F00703FB60F0
:10313000BA68FB68D31A1F4A1344BB60FB687B6004
:103140001D4A7B6813601C4B00225A607B68BA687A
:103150001344FB600822FB689B1AFB60FB6823F0AA
:103160000703FB60FB68154A1360144B1B680022C1
:103170005A60124B1B6800221A607B683B603B68F8
:10318000FA68D21A3B685A600C4B1A683B681A609E
:103190003B685B680A4A13603B685B68094A1360D6
:1031A000094B4FF000421A6000BF1437BD465DF86E
:1031B000047B7047E00C0020E0340020E83400205D
:1031C000F0340020EC340020FC34002080B485B0C2
:1031D00000AF7860284BFB6002E0FB681B68FB6077
:1031E000FB681B687A689A42F7D8FB68BB60FB688B
:1031F0005B68BA6813447A689A4208D1FB685A68D7
:103200007B685B681A44FB685A60FB687B607B687C
:10321000BB607B685B68BA681A44FB681B689A42AB
:1032200018D1FB681A68154B1B689A420DD07B6851
:103230005A68FB681B685B681A447B685A60FB68C5
:103240001B681A687B681A6008E00C4B1A687B6878
:103250001A6003E0FB681A687B681A60FA687B688A
:103260009A4202D0FB687A681A6000BF1437BD46E4
:103270005DF8047B704700BFE0340020E834002094
:1032800080B485B000AFF860B9607A60FB68043B39
:10329000FB60FB684FF080721A60FB68043BFB60C8
:1032A000BB6823F00102FB681A60FB68043BFB600B
:1032B0000C4AFB681A60FB68143BFB607A68FB6889
:1032C0001A60FB68043BFB60FB686FF002021A6047
:1032D000FB68203BFB60FB6818461437BD465DF871
:1032E000047B7047E932000080B485B000AF002352
:1032F0007B60124B1B68B3F1FF3F0AD04FF04003D5
:1033000083F31188BFF36F8FBFF34F8FFB6000BF54
:10331000FEE74FF0400383F31188BFF36F8FBFF3D5
:103320004F8FBB6000BF00BF7B68002BFCD000BF8D
:1033300000BF1437BD465DF8047B704710010020C4
:1033400008480068006880F308884FF0000080F3A8
:10335000148862B661B6BFF34F8FBFF36F8F00DF83
:1033600000BF00BF08ED00E080B586B000AF464B5F
:103370001B68464A93420AD14FF0400383F31188F9
:10338000BFF36F8FBFF34F8F3B6100BFFEE73E4B34
:103390001B683F4A93420AD14FF0400383F31188E0
:1033A000BFF36F8FBFF34F8FFB6000BFFEE7394B5A
:1033B0007B617B691B78DBB27B607B69FF221A70C3
:1033C0007B691B78DBB2FB70FB78DBB203F0400358
:1033D000DAB2314B1A70314B07221A6009E02F4BD9
:1033E0001B68013B2D4A1360FB78DBB25B00DBB24C
:1033F000FB70FB78DBB203F08003802BEFD0274B10
:103400001B68C3F10703032B0AD04FF0400383F37B
:103410001188BFF36F8FBFF34F8FBB6000BFFEE714
:103420001E4B1B681B021D4A13601C4B1B6803F4D8
:10343000E0631A4A13607B68DAB27B691A70184B32
:103440001B68174A43F460031360154B1B68144A4A
:1034500043F06043136000F0A5F8124B00221A609D
:1034600000F0C4F8104B1B680F4A43F04043136050
:10347000FFF766FF00F0E6FFFFF736FF0023184670
:103480001837BD4680BD00BF00ED00E071C20F419E
:1034900070C20F4100E400E08C38002000350020AD
:1034A00020ED00E01001002034EF00E080B483B094
:1034B00000AF4FF0400383F31188BFF36F8FBFF36A
:1034C0004F8F7B6000BF0F4B1B6801330D4A1360A9
:1034D0000C4B1B68012B0FD10B4B1B68DBB2002B75
:1034E0000AD04FF0400383F31188BFF36F8FBFF30F
:1034F0004F8F3B6000BFFEE700BF0C37BD465DF855
:10350000047B70471001002004ED00E080B483B01C
:1035100000AF124B1B68002B0AD14FF0400383F31E
:103520001188BFF36F8FBFF34F8F7B6000BFFEE743
:103530000A4B1B68013B094A1360084B1B68002BB0
:1035400005D100233B603B6883F3118800BF00BFB7
:103550000C37BD465DF8047B704700BF10010020AA
:1035600080B582B000AF4FF0400383F31188BFF302
:103570006F8FBFF34F8F7B6000BF00F0B9FE034633
:10358000002B03D0064B4FF080521A6000233B60A3
:103590003B6883F3118800BF00BF0837BD4680BD7C
:1035A00004ED00E080B400AF0B4B00221A600B4B1F
:1035B00000221A600A4B1B680A4AA2FB03239B09DC
:1035C000094A013B1360044B07221A6000BFBD4645
:1035D0005DF8047B704700BF10E000E018E000E0F9
:1035E00018010020D34D621014E000E0DFF80C0059
:1035F000016841F470010160704700BF88ED00E090
:1036000080B485B000AFEFF30583FB60FB680F2B40
:1036100014D9174AFB6813441B78FB72154B1B78AF
:10362000FA7A9A420AD24FF0400383F31188BFF32B
:103630006F8FBFF34F8F7B6000BFFEE70E4B1B68A1
:1036400003F4E0620D4B1B689A420AD94FF0400325
:1036500083F31188BFF36F8FBFF34F8F3B6000BFC1
:10366000FEE700BF1437BD465DF8047B704700BF1E
:10367000F0E300E08C3800200CED00E00035002085
:1036800080B584B000AF786039607B68FB60FB6810
:10369000002B0AD14FF0400383F31188BFF36F8FE3
:1036A000BFF34F8FBB6000BFFEE7FFF7FFFEFB6875
:1036B0001A68FB68DB6BF968096C01FB03F31A44B9
:1036C000FB689A60FB6800229A63FB681A68FB68D3
:1036D0005A60FB681A68FB68DB6B013BF968096C90
:1036E00001FB03F31A44FB68DA60FB68FF2283F8EE
:1036F0004420FB68FF2283F845203B68002B14D14F
:10370000FB681B69002B1AD0FB681033184600F0C9
:1037100045FF0346002B12D00C4B4FF080521A602D
:10372000BFF34F8FBFF36F8F09E0FB68103318466C
:1037300006F0E3FAFB682433184606F0DEFAFFF7DA
:10374000E5FE012318461037BD4680BD04ED00E0BC
:1037500080B58EB000AFF860B9607A603B6000233E
:103760007B63FB683B633B6B002B0AD14FF040034C
:1037700083F31188BFF36F8FBFF34F8FBB6200BF1E
:10378000FEE7BB68002B03D13B6B1B6C002B01D108
:10379000012300E00023002B0AD14FF0400383F304
:1037A0001188BFF36F8FBFF34F8F7B6200BFFEE7BF
:1037B0003B68022B03D13B6BDB6B012B01D1012357
:1037C00000E00023002B0AD14FF0400383F311885F
:1037D000BFF36F8FBFF34F8F3B6200BFFEE701F077
:1037E00069F80346002B02D17B68002B01D101232D
:1037F00000E00023002B0AD14FF0400383F311882F
:10380000BFF36F8FBFF34F8FFB6100BFFEE7FFF782
:103810004DFE3B6B9A6B3B6BDB6B9A4202D33B6872
:10382000022B29D13A68B968386B06F0E5FCF862DA
:103830003B6B5B6A002B10D03B6B2433184600F0C7
:10384000ADFE0346002B13D03F4B4FF080521A6061
:10385000BFF34F8FBFF36F8F0AE0FB6A002B07D0D7
:10386000394B4FF080521A60BFF34F8FBFF36F8F09
:10387000FFF74CFE012363E07B68002B03D1FFF7C9
:1038800045FE00235CE07B6B002B06D107F114039F
:10389000184600F0E5FE01237B63FFF737FE00F0DA
:1038A0006DFCFFF703FE3B6B93F844305BB2B3F162
:1038B000FF3F03D13B6B002283F844203B6B93F81E
:1038C00045305BB2B3F1FF3F03D13B6B002283F87D
:1038D0004520FFF71BFE3A1D07F114031146184659
:1038E00000F0D4FE0346002B24D1386B06F07CFD9B
:1038F0000346002B18D03B6B10337A6811461846EC
:1039000000F0FCFD386B06F007FD00F045FC0346B7
:10391000002B7FF47CAF0C4B4FF080521A60BFF34A
:103920004F8FBFF36F8F72E7386B06F0F5FC00F036
:1039300033FC6CE7386B06F0EFFC00F02DFC002345
:1039400018463837BD4680BD04ED00E080B58CB028
:1039500000AFF860B9607A600023FB62FB68BB626D
:10396000BB6A002B0AD14FF0400383F31188BFF3E9
:103970006F8FBFF34F8F3B6200BFFEE7BB68002B2A
:1039800003D1BB6A1B6C002B01D1012300E0002393
:10399000002B0AD14FF0400383F31188BFF36F8FE0
:1039A000BFF34F8FFB6100BFFEE700F083FF0346CC
:1039B000002B02D17B68002B01D1012300E0002302
:1039C000002B0AD14FF0400383F31188BFF36F8FB0
:1039D000BFF34F8FBB6100BFFEE7FFF767FDBB6A18
:1039E0009B6B7B627B6A002B1FD0B968B86A06F0BC
:1039F0006DFC7B6A5A1EBB6A9A63BB6A1B69002B0B
:103A00000FD0BB6A1033184600F0C8FD0346002BE8
:103A100007D03D4B4FF080521A60BFF34F8FBFF37A
:103A20006F8FFFF773FD012369E07B68002B03D1E3
:103A3000FFF76CFD002362E0FB6A002B06D107F163
:103A40001003184600F00CFE0123FB62FFF75EFD39
:103A500000F094FBFFF72AFDBB6A93F844305BB299
:103A6000B3F1FF3F03D1BB6A002283F84420BB6A55
:103A700093F845305BB2B3F1FF3F03D1BB6A00223C
:103A800083F84520FFF742FD3A1D07F11003114668
:103A9000184600F0FBFD0346002B23D1B86A06F060
:103AA0008DFC0346002B17D0BB6A24337A6811467D
:103AB000184600F023FDB86A06F02EFC00F06CFBFF
:103AC0000346002B89D1104B4FF080521A60BFF390
:103AD0004F8FBFF36F8F80E7B86A06F01DFC00F0D0
:103AE0005BFB7AE7B86A06F017FC00F055FBB86A92
:103AF00006F064FC0346002B3FF46FAF002318462A
:103B00003037BD4680BD00BF04ED00E080B58EB00B
:103B100000AF7860396000237B637B68FB62002321
:103B2000BB6200233B63FB6A002B0AD14FF04003CA
:103B300083F31188BFF36F8FBFF34F8FFB6100BF1B
:103B4000FEE7FB6A1B6C002B0AD04FF0400383F3A7
:103B50001188BFF36F8FBFF34F8FBB6100BFFEE7CC
:103B600000F0A8FE0346002B02D13B68002B01D1D8
:103B7000012300E00023002B0AD14FF0400383F320
:103B80001188BFF36F8FBFF34F8F7B6100BFFEE7DC
:103B9000FFF78CFCFB6A9B6B7B627B6A002B24D05B
:103BA0007B6A5A1EFB6A9A63FB6A1B68002B04D16E
:103BB00001F028F80246FB6A9A60FB6A1B69002B39
:103BC0000FD0FB6A1033184600F0E8FC0346002BC8
:103BD00007D0544B4FF080521A60BFF34F8FBFF3A2
:103BE0006F8FFFF793FC012397E03B68002B11D107
:103BF0003B6B002B0AD04FF0400383F31188BFF3D7
:103C00006F8FBFF34F8F3B6100BFFEE7FFF77EFC76
:103C1000002382E07B6B002B06D107F108031846D6
:103C200000F01EFD01237B63FFF770FC00F0A6FA95
:103C3000FFF73CFCFB6A93F844305BB2B3F1FF3F03
:103C400003D1FB6A002283F84420FB6A93F84530D5
:103C50005BB2B3F1FF3F03D1FB6A002283F845203A
:103C6000FFF754FC3A4607F108031146184600F0E6
:103C70000DFD0346002B32D1F86A06F09FFB034688
:103C8000002B26D0FB6A1B68002B09D1FFF70EFC26
:103C9000FB6A9B68184600F02BFE3863FFF736FC82
:103CA000FB6A24333A681146184600F027FCF86A8C
:103CB00006F032FB00F070FA0346002B7FF468AF89
:103CC000184B4FF080521A60BFF34F8FBFF36F8FC6
:103CD0005EE7F86A06F020FB00F05EFA58E7F86A43
:103CE00006F01AFB00F058FAF86A06F067FB034684
:103CF000002B3FF44DAF3B6B002B0DD0FFF7D6FBF5
:103D0000F86A06F061FA3862FB6A9B68396A1846FD
:103D100000F0EAFEFFF7FAFB002318463837BD46ED
:103D200080BD00BF04ED00E080B485B000AF7860D6
:103D300039600023FB6014E00F4AFB6852F833300F
:103D4000002B0BD10C49FB683A6841F833200A4A32
:103D5000FB68DB0013447A685A6006E0FB680133B5
:103D6000FB60FB68072BE7D900BF00BF1437BD46D7
:103D70005DF8047B704700BF0435002080B582B039
:103D800000AF7860FFF792FB2C4B1B6801332B4A86
:103D900013602B4B1B68002B09D1294A7B681360E9
:103DA000264B1B68012B10D100F0F6FC0DE0254BD3
:103DB0001B68002B09D1224B1B68DA6A7B68DB6A1F
:103DC0009A4202D81E4A7B6813601F4B1B6801335E
:103DD0001D4A13601C4B1A687B68DA647B68DB6AD7
:103DE00001229A40194B1B681343184A13607B68E1
:103DF000DA6A13469B0013449B00154A1A447B68F9
:103E000004331946104605F0A5FFFFF77FFB0D4B65
:103E10001B68002B0ED00A4B1B68DA6A7B68DB6AD2
:103E20009A4207D20B4B4FF080521A60BFF34F8F6C
:103E3000BFF36F8F00BF0837BD4680BD1C36002022
:103E40004435002028360020383600202436002053
:103E50004835002004ED00E080B58AB000AF7860FE
:103E6000396000237B627B68002B0AD14FF040034E
:103E700083F31188BFF36F8FBFF34F8F7B6100BF58
:103E8000FEE73B68002B0AD14FF0400383F3118813
:103E9000BFF36F8FBFF34F8F3B6100BFFEE72A4B2D
:103EA0001B68002B0AD04FF0400383F31188BFF347
:103EB0006F8FBFF34F8FFB6000BFFEE700F05EF92E
:103EC000224B1B683B627B681B683A681344FB61AA
:103ED0007B681B683A6A9A420BD27B681B68FA6956
:103EE0009A4211D2FA693B6A9A420DD901237B6248
:103EF0000AE07B681B68FA699A4203D3FA693B6A55
:103F00009A4201D901237B627B68FA691A607B6A55
:103F1000002B06D0FA693B6AD31A0021184600F03C
:103F200085FE00F039F9B861BB69002B07D1084B59
:103F30004FF080521A60BFF34F8FBFF36F8F00BFF7
:103F40002837BD4680BD00BF443600202036002003
:103F500004ED00E080B584B000AF78600023FB6022
:103F60007B68002B17D0134B1B68002B0AD04FF037
:103F7000400383F31188BFF36F8FBFF34F8FBB6094
:103F800000BFFEE700F0FAF80021786800F04EFE6E
:103F900000F002F9F860FB68002B07D1064B4FF0E8
:103FA00080521A60BFF34F8FBFF36F8F00BF10377F
:103FB000BD4680BD4436002004ED00E080B584B0ED
:103FC00000AF7860FFF772FA7B68002B02D13C4BA0
:103FD0001B6800E07B68FB60FB680433184605F053
:103FE00016FF0346002B15D1FB68DA6A35491346E4
:103FF0009B0013449B000B441B68002B0AD1FB68F9
:10400000DB6A012202FA03F3DA432F4B1B681340E9
:104010002D4A1360FB689B6A002B04D0FB681833A1
:10402000184605F0F4FEFB6804331946274805F0EE
:1040300091FEFB6893F87430DBB2012B03D1FB686F
:10404000002283F87420FFF761FA214B1B68002BD4
:1040500005D0FFF72BFA00F00DFCFFF757FA184BCD
:104060001B68FA689A4227D1194B1B68002B17D09E
:10407000184B1B68002B0AD04FF0400383F31188C4
:10408000BFF36F8FBFF34F8FBB6000BFFEE7124BD4
:104090004FF080521A60BFF34F8FBFF36F8F0BE06A
:1040A0000A4B1A680D4B1B689A4203D1044B00223D
:1040B0001A6001E000F0C6F900BF1037BD4680BDB0
:1040C00044350020483500202436002008360020E2
:1040D000283600204436002004ED00E01C36002085
:1040E00080B586B002AF1F4B0193002300930023DD
:1040F0005A221D491D4806F0C3F9F860FB68012BE0
:1041000002D100F0F9FDF860FB68012B16D14FF0E9
:10411000400383F31188BFF36F8FBFF34F8FBB60F2
:1041200000BF134B4FF0FF321A60124B01221A608E
:10413000114B00221A60FFF717F90EE0FB68B3F18C
:10414000FF3F0AD14FF0400383F31188BFF36F8F15
:10415000BFF34F8F7B6000BFFEE700BF1037BD4647
:1041600080BD00BF40360020B0B5000069470000A8
:104170003C360020283600202036002080B400AFD6
:10418000044B1B680133034A136000BFBD465DF852
:10419000047B70474436002080B584B000AF002314
:1041A000FB600023BB60414B1B68002B0AD14FF022
:1041B000400383F31188BFF36F8FBFF34F8F3B60D2
:1041C00000BFFEE7FFF772F9384B1B68013B374A27
:1041D0001360364B1B68002B61D1354B1B68002BDD
:1041E0005DD02EE0334BDB68DB68FB60FB68183387
:1041F000184605F00CFEFB680433184605F007FE70
:10420000FB68DB6A01229A402B4B1B6813432A4A46
:104210001360FB68DA6A13469B0013449B00274A2D
:104220001A44FB6804331946104605F093FDFB68F9
:10423000DA6A234B1B68DB6A9A4202D3214B0122C4
:104240001A601C4B1B68002BCCD1FB68002B01D0E3
:1042500000F010FB1C4B1B687B607B68002B10D0B0
:1042600000F046F80346002B02D0164B01221A60DC
:104270007B68013B7B607B68002BF1D1124B0022F5
:104280001A60104B1B68002B09D00123BB600F4B39
:104290004FF080521A60BFF34F8FBFF36F8FFFF75D
:1042A00035F9BB6818461037BD4680BD443600203E
:1042B0001C360020DC350020243600204835002044
:1042C00044350020303600202C36002004ED00E07C
:1042D00080B483B000AF054B1B687B607B681846D9
:1042E0000C37BD465DF8047B704700BF20360020C8
:1042F00080B586B000AF00237B61474B1B68002B65
:104300007FD1464B1B6801333B61444A3B691360D4
:104310003B69002B20D1424B1B681B68002B0AD045
:104320004FF0400383F31188BFF36F8FBFF34F8FBC
:104330003B6000BFFEE73A4B1B68FB60394B1B68D4
:10434000374A1360374AFB681360374B1B680133E9
:10435000354A136000F08EFA344B1B683A699A4272
:1043600048D32F4B1B681B68002B04D12F4B4FF0F9
:10437000FF321A603EE02A4B1B68DB68DB68BB60DB
:10438000BB685B687B603A697B689A4203D2274AC4
:104390007B6813602EE0BB680433184605F037FDD8
:1043A000BB689B6A002B04D0BB681833184605F025
:1043B0002EFDBB68DB6A01229A401D4B1B6813432C
:1043C0001B4A1360BB68DA6A13469B0013449B00C8
:1043D000184A1A44BB6804331946104605F0BAFC63
:1043E000BB68DA6A144B1B68DB6A9A42B9D30123B3
:1043F0007B61B6E7114B1B68002B07D001237B6163
:1044000004E00F4B1B6801330D4A13607B691846AB
:104410001837BD4680BD00BF44360020203600203E
:10442000D4350020D8350020343600203C3600201A
:104430002436002048350020443500203036002046
:104440002C36002080B487B000AF274B1B68002BB0
:1044500003D0264B01221A603FE0244B00221A6051
:10446000234B1B68FB60FB68B3FA83F3FB72FB7A98
:10447000C3F11F037B611F497A6913469B001344F4
:104480009B000B441B68002B0AD14FF0400383F3C1
:104490001188BFF36F8FBFF34F8F7B6000BFFEE7C4
:1044A0007A6913469B0013449B00124A13443B61F4
:1044B0003B695B685A683B695A603B695A683B696B
:1044C00008339A4204D13B695B685A683B695A6079
:1044D0003B695B68DB68084A136000BF1C37BD4658
:1044E0005DF8047B704700BF443600203036002062
:1044F00024360020483500204435002080B584B0A3
:1045000000AF786039607B68002B0AD14FF0400320
:1045100083F31188BFF36F8FBFF34F8FFB6000BF32
:10452000FEE7074B1B6818331946786805F036FC20
:104530000121386800F07AFB00BF1037BD4680BD0E
:104540004435002080B586B000AFF860B9607A606D
:10455000FB68002B0AD14FF0400383F31188BFF3AF
:104560006F8FBFF34F8F7B6100BFFEE70A4B1B6865
:1045700018331946F86805F0EDFB7B68002B02D074
:104580004FF0FF33BB607968B86800F04FFB00BFA5
:104590001837BD4680BD00BF4435002080B586B0C9
:1045A00000AF78607B68DB68DB683B613B69002BB0
:1045B0000AD14FF0400383F31188BFF36F8FBFF32D
:1045C0004F8FFB6000BFFEE73B691833184605F0CC
:1045D0001EFC1D4B1B68002B1CD13B690433184685
:1045E00005F015FC3B69DB6A01229A40174B1B68FA
:1045F0001343164A13603B69DA6A13469B0013445F
:104600009B00134A1A443B6904331946104605F0CF
:10461000A1FB05E03B69183319460E4805F09AFBEB
:104620003B69DA6A0C4B1B68DB6A9A4205D90123A5
:104630007B610A4B01221A6001E000237B617B69E8
:1046400018461837BD4680BD443600202436002069
:1046500048350020DC35002044350020303600206D
:1046600080B483B000AF7860064B1A687B681A602C
:10467000054B1A687B685A6000BF0C37BD465DF871
:10468000047B7047343600202036002080B588B087
:1046900000AF786039607B68002B0AD14FF040038F
:1046A00083F31188BFF36F8FBFF34F8F3B6100BF60
:1046B000FEE73B68002B0AD14FF0400383F31188DB
:1046C000BFF36F8FBFF34F8FFB6000BFFEE7FEF7B6
:1046D000EDFE1D4B1B68BB617B685B68BA69D31A32
:1046E0007B613B681B68B3F1FF3F02D10023FB6194
:1046F00023E07B681A68154B1B689A4207D07B68D9
:104700005B68BA699A4202D30123FB6115E03B68FA
:104710001B687A699A420BD23B681A687B69D21A85
:104720003B681A607868FFF79BFF0023FB6104E099
:104730003B6800221A600123FB61FEF7E7FEFB697C
:1047400018462037BD4680BD203600203436002074
:1047500080B400AF034B01221A6000BFBD465DF874
:10476000047B70473036002080B582B000AF78609F
:1047700000F052F8064B1B68012BF9D9054B4FF09E
:1047800080521A60BFF34F8FBFF36F8FF0E700BF07
:104790004835002004ED00E080B582B000AF002372
:1047A0007B600CE07A6813469B0013449B00124A1E
:1047B0001344184605F0A1FA7B6801337B607B68DF
:1047C000042BEFD90D4805F098FA0D4805F095FA3D
:1047D0000C4805F092FA0C4805F08FFA0B4805F0EA
:1047E0008CFA0B4B054A1A600A4B054A1A6000BF47
:1047F0000837BD4680BD00BF48350020AC350020DD
:10480000C0350020DC350020F035002008360020BF
:10481000D4350020D835002080B582B000AF19E033
:10482000FEF744FE104BDB68DB687B607B6804337B
:10483000184605F0ECFA0D4B1B68013B0B4A136060
:104840000B4B1B68013B0A4A1360FEF75FFE78685A
:1048500005F0F9FE064B1B68002BE1D100BF00BF3D
:104860000837BD4680BD00BFF03500201C36002053
:104870000436002080B483B000AF0C4B1B681B686B
:10488000002B04D10A4B4FF0FF321A6008E0074BAF
:104890001B68DB68DB687B607B685B68044A1360CD
:1048A00000BF0C37BD465DF8047B7047D43500204F
:1048B0003C36002080B483B000AF0B4B1B68002B4C
:1048C00002D101237B6008E0084B1B68002B02D15A
:1048D00002237B6001E000237B607B6818460C3775
:1048E000BD465DF8047B7047283600204436002022
:1048F00080B584B000AF78607B68BB600023FB604C
:104900007B68002B5ED0BB68DA6A314B1B68DB6AC0
:104910009A424ED2BB689B69002B06DB2C4B1B686E
:10492000DB6AC3F10502BB689A61BB685969BB6861
:10493000DA6A13469B0013449B00264A13449942AB
:104940002FD1BB680433184605F061FA0346002BEB
:104950000AD1BB68DB6A012202FA03F3DA431E4B79
:104960001B6813401C4A1360194B1B68DA6ABB684A
:10497000DA62BB68DB6A01229A40174B1B6813435B
:10498000154A1360BB68DA6A13469B0013449B0008
:10499000104A1A44BB6804331946104605F0DAF988
:1049A00004E00B4B1B68DA6ABB68DA620123FB6028
:1049B00008E0BB685A6D064B1B68DB6A9A4201D25D
:1049C0000123FB60FB6818461037BD4680BD00BF61
:1049D00044350020483500202436002080B586B0BC
:1049E00000AF78607B683B6100237B617B68002BB4
:1049F0006ED03A4B1B683A699A420AD04FF0400396
:104A000083F31188BFF36F8FBFF34F8FFB6000BF3D
:104A1000FEE73B699B6D002B0AD14FF0400383F307
:104A20001188BFF36F8FBFF34F8FBB6000BFFEE7EE
:104A30003B699B6D5A1E3B699A653B69DA6A3B6923
:104A40005B6D9A4244D03B699B6D002B40D13B6922
:104A50000433184605F0DBF90346002B15D13B69FA
:104A6000DA6A1F4913469B0013449B000B441B68E2
:104A7000002B0AD13B69DB6A012202FA03F3DA4315
:104A8000184B1B681340174A13603B695A6D3B690A
:104A9000DA623B69DB6AC3F105023B699A613B69F3
:104AA000DB6A01229A400F4B1B6813430D4A1360C7
:104AB0003B69DA6A13469B0013449B00084A1A4478
:104AC0003B6904331946104605F044F901237B6124
:104AD0007B6918461837BD4680BD00BF44350020AD
:104AE000483500202436002080B588B000AF7860BB
:104AF00039607B68BB6101237B617B68002B77D0C9
:104B0000BB699B6D002B0AD14FF0400383F31188E2
:104B1000BFF36F8FBFF34F8FFB6000BFFEE7BB6932
:104B20005B6D3A689A4202D93B68FB6102E0BB695F
:104B30005B6DFB61BB69DB6AFA699A4258D0BB695D
:104B40009B6D7A699A4253D12B4B1B68BA699A4282
:104B50000AD14FF0400383F31188BFF36F8FBFF387
:104B60004F8FBB6000BFFEE7BB69DB6A3B61BB697F
:104B7000FA69DA62BB699B69002B04DBFB69C3F14C
:104B80000502BB699A61BB6959693A6913469B0082
:104B900013449B00194A1344994229D1BB69043339
:104BA000184605F034F90346002B0AD1BB69DB6ACD
:104BB000012202FA03F3DA43114B1B681340104A37
:104BC0001360BB69DB6A01229A400D4B1B681343DB
:104BD0000B4A1360BB69DA6A13469B0013449B00BF
:104BE000064A1A44BB6904331946104605F0B2F868
:104BF00000BF2037BD4680BD443500204835002029
:104C00002436002080B400AF074B1B68002B04D073
:104C1000054B1B689A6D01329A65034B1B68184659
:104C2000BD465DF8047B70474435002080B584B0F4
:104C300000AF78603960294B1B68FB60284B1B680C
:104C40000433184605F0E3F80346002B0BD1244B40
:104C50001B68DB6A012202FA03F3DA43214B1B686B
:104C60001340204A13607B68B3F1FF3F0AD13B68D1
:104C7000002B07D01A4B1B68043319461A4805F05D
:104C800069F826E0FA687B681344BB60144B1B6824
:104C9000BA685A60BA68FB689A4209D2134B1A681C
:104CA0000F4B1B6804331946104605F077F810E0E7
:104CB0000F4B1A680A4B1B6804331946104605F05F
:104CC0006DF80C4B1B68BA689A4202D2094ABB685D
:104CD000136000BF1037BD4680BD00BF20360020E6
:104CE000443500202436002008360020D835002026
:104CF000D43500203C36002080B584B002AF0023BC
:104D00007B6000F0DFFA114B1B68002B0AD0104BC0
:104D10000193042300930023B4220E490E4805F0AA
:104D2000AFFB78607B68002B0AD14FF0400383F320
:104D30001188BFF36F8FBFF34F8F3B6000BFFEE75B
:104D40007B6818460837BD4680BD00BF7836002016
:104D50007C3600203CD4000067A6000080B58AB0F5
:104D600000AFF860B9607A603B6000237B62FB684B
:104D7000002B0AD14FF0400383F31188BFF36F8FEC
:104D8000BFF34F8F3B6200BFFEE71A4B1B68002B3F
:104D90002AD0BB683B617B687B61FB68BB61BB68F9
:104DA000052B18DCFFF786FD0346022B09D1114BBA
:104DB000186807F1100100233A6BFEF7C9FC78620E
:104DC00012E00C4B186807F1100100230022FEF7D7
:104DD000BFFC786208E0074B186807F11001002358
:104DE0003A6805F0C9F878627B6A18462837BD46EC
:104DF00080BD00BF7836002080B588B002AF7860F3
:104E00003960224B1B68DB68DB687B617B6904339C
:104E1000184604F0FCFF7B6993F8283003F0040384
:104E2000002B22D07B699A697B68D1187B683A682D
:104E3000786900F0BFF80346002B1FD000230093D1
:104E400000237A6800217869FFF788FF38613B69A1
:104E5000002B13D14FF0400383F31188BFF36F8F02
:104E6000BFF34F8FFB6000BFFEE77B6993F82830EC
:104E700023F00103DAB27B6983F828207B691B6A7F
:104E80007869984700BF1837BD4680BD703600204E
:104E900080B584B000AF78603960FFF76FF907F133
:104EA0000803184600F066F8F860BB68002B30D1A4
:104EB0003B68002B0AD17A68FB689A4206D8FFF754
:104EC0006BF9F9687868FFF797FF24E03B68002BDF
:104ED00008D0134B1B681B68002B01D1012300E095
:104EE00000233B600F4B18687A68FB68D31A3A6856
:104EF000194605F091FAFFF74FF90346002B0AD146
:104F0000094B4FF080521A60BFF34F8FBFF36F8F82
:104F100001E0FFF741F900BF1037BD4680BD00BF7B
:104F2000743600207836002004ED00E080B485B0AF
:104F300000AF78600E4B1B681B68002B01D101226B
:104F400000E000227B681A607B681B68002B05D19B
:104F5000074B1B68DB681B68FB6001E00023FB60FC
:104F6000FB6818461437BD465DF8047B704700BFE8
:104F70007036002080B584B000AF7860FFF7A8F9E4
:104F8000F8600B4B1B68FA689A4205D200F036F9BC
:104F90007B6801221A6002E07B6800221A60044AE2
:104FA000FB681360FB6818461037BD4680BD00BF24
:104FB0008036002080B586B000AFF860B9607A60B6
:104FC0003B6000237B61FB68BA685A60FB68FA6843
:104FD0001A61BA687B689A4212D87A683B68D21A1A
:104FE000FB689B699A4202D301237B611BE0104B53
:104FF0001A68FB6804331946104604F0CFFE12E02D
:105000007A683B689A4206D2BA683B689A4202D3F1
:1050100001237B6107E0074B1A68FB6804331946DC
:10502000104604F0BBFE7B6918461837BD4680BDAC
:10503000743600207036002080B58EB002AFCAE012
:105040007B68002B18DA3B1D0433FB62FB6A002BE4
:105050000AD14FF0400383F31188BFF36F8FBFF382
:105060004F8FFB6100BFFEE7FB6A1B68FA6A50685E
:10507000FA6A9268114698477B68002BC0F2AA80B2
:10508000FB68BB62BB6A5B69002B04D0BB6A04335C
:10509000184604F0BCFE3B461846FFF76BFF7862EB
:1050A0007B68092B00F2978001A252F823F000BF21
:1050B000D9500000D9500000D95000004D510000D7
:1050C00061510000AB510000D9500000D9500000E0
:1050D0004D51000061510000BB6A93F8283043F045
:1050E0000103DAB2BB6A83F82820BA68BB6A9B69FD
:1050F000D118BB687A6AB86AFFF75CFF0346002BD9
:1051000069D0BB6A1B6AB86A9847BB6A93F82830B3
:1051100003F00403002B5ED0BA68BB6A9B691A4493
:105120000023009300230021B86AFFF717FE3862BE
:105130003B6A002B4FD14FF0400383F31188BFF33C
:105140006F8FBFF34F8FBB6100BFFEE7BB6A93F861
:10515000283023F00103DAB2BB6A83F828203AE052
:10516000BB6A93F8283043F00103DAB2BB6A83F8D4
:105170002820BA68BB6A9A61BB6A9B69002B0AD176
:105180004FF0400383F31188BFF36F8FBFF34F8F4E
:105190007B6100BFFEE7BB6A9A697B6AD1187B6AB4
:1051A0007A6AB86AFFF706FF15E0BB6A93F8283001
:1051B00003F00203002B03D1B86AFDF743FF0AE0B6
:1051C000BB6A93F8283023F00103DAB2BB6A83F894
:1051D000282000E000BF084B1B68391D002218463C
:1051E000FEF7B4FB0346002B7FF42AAF00BF00BFDD
:1051F0003037BD4680BD00BF7836002080B588B00E
:1052000002AF48E02D4B1B68DB681B683B612B4BF2
:105210001B68DB68DB68FB60FB680433184604F03E
:10522000F6FDFB681B6AF8689847FB6893F828301E
:1052300003F00403002B2ED0FB689B693A691344EA
:10524000BB60BA683B699A420ED9FB68BA685A607B
:10525000FB68FA681A61194B1A68FB68043319462F
:10526000104604F09BFD16E00023009300233A69EA
:105270000021F868FFF772FD78607B68002B0AD187
:105280004FF0400383F31188BFF36F8FBFF34F8F4D
:105290003B6000BFFEE7094B1B681B68002BB1D1C8
:1052A000064B1B687B61064B1B68044A1360044A6B
:1052B0007B69136000BF1837BD4680BD7036002083
:1052C0007436002080B500AFFEF7F0F8124B1B6873
:1052D000002B1DD1114804F010FD114804F00DFD04
:1052E000104B0E4A1A60104B0D4A1A600022102112
:1052F0000A2004F0B6FD0346074A1360064B1B68FC
:10530000002B05D0044B1B6808491846FEF70CFD1E
:10531000FEF7FCF800BF80BD78360020483600203C
:105320005C360020703600207436002044D4000023
:1053300080B483B000AF064B1B6A03F003037B60AD
:105340007B68DBB218460C37BD465DF8047B7047BE
:105350000000044080B487B000AF78607B687B6158
:105360001F4BFB607B68B3F1004F33D000233B61E0
:105370002BE07B69002B2CD07B699BB2C3F30B0322
:105380007B817B89002B1AD07B897B727B891B0AEE
:10539000DBB203F00F03DBB2013B3B727B7A1F2BC6
:1053A00007D14FF080430122DA640E4A3B7A136240
:1053B00005E07B7A9B00FA6813443A7A1A607B69AD
:1053C0001B0B7B613B6901333B613B69012BD0D9EE
:1053D00000E000BF00BF1C37BD465DF8047B70478E
:1053E000800200400000044080B485B000AF034656
:1053F0003960FB711346BB71114BFB60BB79002B0D
:1054000006D0FB799B00FA6813444FF000521A60F3
:105410003B68002B07D1FB799B00FA6813444FF0DF
:1054200080421A6006E0FB799B00FA6813443A68F0
:10543000013A1A6000BF1437BD465DF8047B70471F
:105440000003004080B584B000AF78607B682A4AD2
:10545000934209D07B68294A934205D07B68284A49
:10546000934201D0012342E0042005F07FF94FF080
:105470008043D3F800351B0E03F00103FB607B680B
:105480001D4A934228D91F4B786898477B681C4A6D
:10549000934211D14FF08043D3F80025FB681B06DF
:1054A00003F0807313434FF0804243F0404343F4D2
:1054B0008043C2F8003519E04FF08043D3F800254F
:1054C000FB681B0603F0807313434FF0804243F0E8
:1054D0004043C2F8003509E04FF08043D3F800356F
:1054E0004FF0804223F08043C2F800350023184675
:1054F0001037BD4680BD00BF001BB700006CDC024A
:1055000000D8B805DF91000380B582B000AF00235A
:105510007B604FF08043D3F88832072B32D801A24A
:1055200052F823F0455500004D5500005555000038
:105530005D550000655500006D5500007555000073
:105540007D55000000F006F978601EE000F078F864
:1055500078601AE000F07EF8786016E000F0AEF8AF
:10556000786012E000F0D2F878600EE000F0E6F823
:1055700078600AE000F0D6F8786006E005F00DF9F2
:10558000786002E00748FAF787FE4FF08043D3F8CF
:105590008433DBB201337A68B2FBF3F31846083781
:1055A000BD4680BD6CD4000080B582B000AF002342
:1055B0007B604FF08043D3F8E032072B17D0072BE6
:1055C00018D8002B02D0012B0DD013E000F076F894
:1055D00002464FF08043D3F88833DBB20133B2FB8D
:1055E000F3F37B6009E000F09DF8786005E00023AC
:1055F0007B6002E00748FAF74FFE4FF08043D3F894
:10560000AC33DBB201337A68B2FBF3F318460837E8
:10561000BD4680BD84D4000080B400AF4FF080430D
:10562000D3F8103603F01003002B01D0002300E064
:10563000024B1846BD465DF8047B7047001BB7005F
:1056400080B400AF024B1846BD465DF8047B70473E
:10565000001BB70080B483B000AF4FF08043D3F895
:10566000103603F48013002B01D000231DE04FF00F
:105670008043D3F80835DBB203F01F03DBB20133FC
:10568000DBB25B00FB714FF08043D3F808355B0958
:1056900003F01F03084AD35CBB71BB794CF2503254
:1056A00003FB02F2FB79B2FBF3F318460C37BD465D
:1056B0005DF8047B704700BF4CD4000080B400AF9D
:1056C0004FF08043D3F8103603F01003002B07D1BE
:1056D0004FF08043D3F8003503F08043002B01D115
:1056E00000230AE04FF08043D3F8003503F48043F1
:1056F000002B01D0034B00E0034B1846BD465DF87C
:10570000047B704700D8B805006CDC0280B400AFA1
:10571000034B1B681846BD465DF8047B704700BF0D
:105720008436002080B400AF034B1B681846BD468A
:105730005DF8047B704700BF8C36002080B400AF5A
:10574000034B1B681846BD465DF8047B704700BFDD
:105750008836002080B582B000AF00237B604FF018
:105760008043D3F88432032B32D0032B34D8002B60
:1057700002D0022B28D02FE04FF08043D3F88032A4
:10578000002B03D1FFF748FF786028E04FF08043FB
:10579000D3F88032012B03D1FFF752FF78601EE06F
:1057A0004FF08043D3F88032022B03D1FFF752FF32
:1057B000786014E04FF08043D3F88032032B0ED191
:1057C000FFF77CFF78600AE0FFF7A0FF786007E052
:1057D00004F0E3FF786003E00448FAF75DFD00BFE2
:1057E0007B6818460837BD4680BD00BF9CD40000CA
:1057F00080B582B000AFFFF79BFD0346FB70FB78DE
:10580000002B02D0012B04D006E0FFF7A3FF786045
:1058100005E0054B7B6002E000237B6000BF7B68F6
:1058200018460837BD4680BD001BB70080B582B062
:1058300000AF00237B604FF08043D3F8E832032BA6
:105840001AD801A252F823F05958000061580000FC
:105850006958000071580000FFF77CFF78600EE087
:10586000FFF754FF78600AE0FFF7D6FE786006E0A5
:10587000FFF724FF786002E00348FAF70DFD7B682C
:1058800018460837BD4680BDB4D4000080B584B04A
:1058900000AF0346FB71FB790D2B58D801A252F8DB
:1058A00023F000BFDD580000E5580000FF5800005D
:1058B0000F5900004F590000075900001759000008
:1058C0001F590000275900004F5900002F590000B0
:1058D000375900003F59000047590000FFF73AFFD1
:1058E000F86037E0FFF736FF02464FF08043D3F809
:1058F0008033DBB20133B2FBF3F3FB602AE0FFF746
:1059000003FEF86026E0FFF74FFEF86022E0FFF7A5
:10591000D5FEF8601EE0FFF77FFEF8601AE0FFF7A3
:105920008FFEF86016E0FFF7F1FEF86012E0FFF777
:1059300091FEF8600EE004F041FFF8600AE0FFF726
:1059400057FFF86006E004F031FFF86002E0002342
:10595000FB6000BFFB6818461037BD4680BD00BF26
:1059600080B582B000AF78607B68274A934203D845
:10597000002004F08AFE42E07B68244A934203D868
:10598000012004F082FE3AE07B68214A934203D86A
:10599000022004F07AFE32E07B681E4A934203D86C
:1059A000032004F072FE2AE07B681B4A934203D86E
:1059B000042004F06AFE22E07B68184A934203D870
:1059C000052004F062FE1AE07B68154A934203D872
:1059D000062004F05AFE12E07B68124A934207D96F
:1059E0007B68114A934207D97B68104A934203D8D7
:1059F000072004F04AFE02E0082004F046FE00BF43
:105A00000837BD4680BD00BF001BB70000366E01E1
:105A1000005125020087930300D8B805000E270720
:105A200000449508007A030A0095BA0A00EF1C0D9D
:105A300080B584B000AF78604FF08043D3F89032E7
:105A400003F00703012B02D1012004F04AFE02F00B
:105A5000D1F8162004F073FE4FF080427B681B687B
:105A6000C2F880354FF080427B685B68C2F88835A9
:105A70007B685B684FF0804243F48063C2F88835EE
:105A80004FF080427B689B68C2F88C357B689B68CE
:105A90004FF0804243F08003C2F88C354FF08042D3
:105AA0007B68DB68C2F890357B68DB684FF080422A
:105AB00043F40033C2F890357B689B6903F003031D
:105AC000002B2AD0214BFB604FF08043D3F8903558
:105AD00023F40033BB604FF08042FB68C2F890357E
