:100000000080022061010000E901000065A60000F7
:10001000ED010000EF010000F101000084D0FCDFE1
:1000200000000000000000000000000001020000CD
:10003000F50100000000000031020000A53A0000B8
:100040003196000039960000419600004996000064
:1000500051960000599600006196000069960000D4
:1000600071960000799600009129000081960000A9
:10007000899600009196000099960000A1960000D4
:10008000A9960000B1960000B9960000C196000044
:10009000C9960000D1960000112C0000D9960000EE
:1000A000E1960000E9960000F1960000F996000044
:1000B00001970000099700001197000019970000B0
:1000C0002197000029970000319700003997000020
:1000D0004197000049970000790700005197000000
:1000E0005997000061970000699700007197000020
:1000F0007997000081970000899700009197000090
:1001000099970000A1970000A9970000B1970000FF
:10011000B9970000C1970000C9970000D19700006F
:10012000D9970000E8ED0000000000204801000021
:10013000E8ED00000000000400000000E8ED000011
:1001400000001040000000000006002010330000F6
:10015000000000040000000000001040000000004B
:1001600010B572B613484FF03801016007F084FEF5
:100170000D4B07E003F10C049A685968186800F009
:100180001BF82346094A9342F4D306E01C465968FB
:1001900054F8080B00F01FF82346054A9342F5D3A4
:1001A00062B60BF0BAFBFEE7240100004801000034
:1001B0006001000020020040002393420AD210B4E4
:1001C00050F8044B41F8044B04339342F8D35DF8E4
:1001D000044B70477047002303E0002240F8042BD3
:1001E00004338B42F9D37047FEE7FEE7FEE7FEE7F4
:1001F000FEE7FEE7FEE7FEE7FEE7FEE7FFFFFFFFA5
:10020000074B19680868B0E8F04F80F30988BFF31E
:100210006F8F4FF0000080F311887047AFF30080BC
:10022000C435002000BF00BFFFFFFFFFFFFFFFFF3F
:10023000EFF30980BFF36F8F154B1A681EF0100F94
:1002400008BF20ED108A20E9F04F10602DE9090069
:100250004FF0400080F31188BFF34F8FBFF36F8FD3
:1002600004F092FB4FF0000080F3118809BC19687C
:100270000868B0E8F04F1EF0100F08BFB0EC108A0D
:1002800080F30988BFF36F8F704700BFAFF3008022
:10029000C435002000BF00BF80B582B000AF7860D9
:1002A0007968024808F06CFE00BEFDE7C0BF0000A0
:1002B00080B582B002AF00F04FF8214B5B69204A55
:1002C00043F0806353611F4BD3F888311D4A23F0FC
:1002D0000F03C2F888311B4BD3F88831194A43F019
:1002E0000403C2F88831184B03F50053DB68164A43
:1002F00043F0040302F50052D360144B1B681B68E3
:100300006FF0DB0202FB03F303F5860303F50E53E4
:100310000B4AC2F88030002301930123009300238D
:10032000BE220B490B480AF076FD0346012B04D090
:1003300004220221044809F063FA00BFBD4680BDD3
:10034000009000400010004000C008400000002065
:10035000DCBF00009103000080B582B002AF094904
:10036000094805F057FF00230093084B074A022174
:10037000054805F089FF044809F032FA00BFBD4680
:1003800080BD00BFD4BF0000009000408023430028
:1003900080B582B000AF78601A4B1B681B686FF0A5
:1003A000DB0202FB03F303F5860303F50E53164A43
:1003B000C2F880304FF4FA7004F06EF8134B1B68EB
:1003C0001B686FF0DB0202FB03F303F5860303F502
:1003D0000E530D4AC2F880304FF4487004F05CF8B8
:1003E0000B4B1B681B686FF0DB0202FB03F303F58A
:1003F000860303F50E53044AC2F88030002004F04F
:100400007FF8C9E7040000200090004008000020A9
:100410000000002080B500AF00F042F81E4B1B6EBC
:100420001D4A23F00F0313661B4B1B6E1A4A43F041
:1004300003031366184B1B6E174A43F02003136621
:10044000164B03F500531B68144A23F4FF5323F0A3
:100450001F0302F5005213600F4B5B6E0E4A23F030
:100460000F0353660C4B5B6E0B4A43F0030353665A
:10047000094B5B6E084A43F020035366074B03F5B4
:1004800000531B68054A23F4FF5323F01F0302F5B2
:100490000052136000BF80BD0010004000C0084043
:1004A00080B500AF0C490D4805F0B4FE01220C499F
:1004B0000A4805F09BFF012301220021074805F0AF
:1004C00045FF012301220121044805F03FFF0348B5
:1004D00009F0B5F900BF80BDE8BF00000080024010
:1004E0000C00002080B582B000AF7860144809F09D
:1004F0009AF90246134B1B68D31A134A1360134B25
:100500001B781946104B1B68114A42F821300C48E1
:1005100009F089F903460B4A13600C4B1B78642BD6
:1005200006D80A4B1B780133DAB2084B1A7002E086
:10053000064B00221A7000BF0837BD4680BD00BFC1
:1005400000800240E0070020E40700200839002076
:10055000F007002080B582B000AF7860144809F041
:1005600062F90246134B1B68D31A134A1360134BEC
:100570001B781946124B1B68124A42F821300C486E
:1005800009F051F903460B4A13600C4B1B78642B9E
:1005900006D80A4B1B780133DAB2084B1A7002E016
:1005A000064B00221A7000BF0837BD4680BD00BF51
:1005B00000800240E8070020EC07002009390020F5
:1005C000E40700208009002080B483B000AF034618
:1005D000FB7197F90730002B0BDBFB7903F01F024F
:1005E000074997F907305B09012000FA02F241F848
:1005F000232000BF0C37BD465DF8047B704700BF69
:1006000000E100E080B483B000AF0346FB7197F9CE
:100610000730002B12DBFB7903F01F020A4997F920
:1006200007305B09012000FA02F2203341F8232051
:10063000BFF34F8F00BFBFF36F8F00BF00BF0C37FA
:10064000BD465DF8047B704700E100E080B483B0F4
:1006500000AF03463960FB7197F90730002B0ADBC6
:100660003B68DAB20C4997F907305201D2B20B4419
:1006700083F800230AE03B68DAB20849FB7903F00B
:100680000F03043B5201D2B20B441A7600BF0C3761
:10069000BD465DF8047B704700E100E000ED00E03E
:1006A000B0B500AF134809F075F9134809F054F9D3
:1006B0001249134807F09CFB0121114809F030F959
:1006C000104B1B68104AA2FB03239B0900221C4607
:1006D000154622462B460A480BF0B5F80021262085
:1006E000FFF7B4FF262009F0BAF8054809F008F929
:1006F00000BFB0BD100B0020240B0020F0BF000095
:1007000000D0024040010020D34D621080B582B07D
:1007100000AF00237B60262009F0B7F80346002BCA
:1007200009D1074809F08BF9034603F003037B6006
:10073000262009F094F87B6818460837BD4680BD2E
:10074000100B002080B582B000AF00237B60262014
:1007500009F09BF80346002B06D1064809F009F979
:100760007860262009F07BF87B6818460837BD467C
:1007700080BD00BF240B002098B500AF14220321D8
:100780001E4809F098F80346DCB2162203211B48E4
:1007900009F091F80346DBB21A462146184800F0EA
:1007A00037F8184B1B78092B18D915220321134849
:1007B00009F081F8034603F001041E2203210F48CB
:1007C00009F079F803465B0003F00203234319465E
:1007D0000D4809F0F4F80B4B00221A70094B1B78F6
:1007E0000133DAB2074B1A700121084809F077F893
:1007F000BFF34F8F00BF00BF98BD00BF00C00840CF
:10080000240B00200A390020100B002000D00240E9
:1008100080B483B000AF78600B46FB701346BB70AA
:100820007B681B78DBB29B00DBB203F00F03DAB20C
:100830007B681A70FB78002B07D07B681B78DBB2D3
:1008400043F00203DAB27B681A70BB78002B07D042
:100850007B681B78DBB243F00103DAB27B681A7065
:100860007B681B78DBB21A46144B99567B685B7821
:100870005BB2DAB2CBB21344DBB25AB27B685A70C5
:100880007B681B78DBB203F00A030A2B0FD17B686D
:100890005B785BB2002B0AD07B685B785AB27B68CE
:1008A0005B681A447B685A607B6800225A7000BFFC
:1008B0000C37BD465DF8047B704700BFF4BF0000F5
:1008C00080B582B000AF0346FB710B46BB71134687
:1008D0007B713F4B1B68002B04D03D4B1B681846B7
:1008E00009F0DCF83B4B1B78012B02D0022B2FD0F8
:1008F00060E0BB79002B04D0364B02221A7000F066
:10090000ABFB334B1B68002B51D0FB79002B04D081
:100910002F4B1B68184609F0D5F997F90530002BC5
:1009200006DA2B4B1B680121184609F0A1FA09E0F1
:1009300097F90530002B05DD254B1B680121184672
:1009400009F033FA224B1B68184609F006FB2EE02B
:10095000BB79002B04D01F4B01221A7009F059F902
:100960001B4B1B68002B24D0FB79002B04D0184BA9
:100970001B68184609F0A6F997F90530002B06DA2E
:10098000134B1B680121184609F072FA09E097F928
:100990000530002B05DD0E4B1B680121184609F0C0
:1009A00004FA0B4B1B68184609F0D7FA01E000BFA8
:1009B00000E000BF064B1B68002B04D0044B1B68F3
:1009C000184609F07AF800BF0837BD4680BD00BF61
:1009D0002C0B00200B39002080B58AB002AF786064
:1009E0001423BB6103F016FF0346BB600023FB61C9
:1009F00001F048FE3C4809F0C0FA3C4809F0BDFA55
:100A00003B4809F0BAFA3B4809F0B7FA3A4809F00E
:100A1000B4FA3A4809F0B1FA394809F0AEFA39485F
:100A200009F0ABFA384809F0A8FA384809F0A5FAF5
:100A3000374809F0A2FA374809F012F8364B01227C
:100A400001925A6800921B6800220021314809F087
:100A500089FC304809F013F8642003F01DFD2D488F
:100A600008F0FEFF2D4B012201925A6800921B688C
:100A700000220021274809F075FC264808F0FFFFF6
:100A8000642003F009FD264B01221A7000F0C2FD1C
:100A900000F0B6FCFFF704FEFFF738FE78617B69D3
:100AA000DBB203F00103FB747B695B08DBB203F08C
:100AB0000103BB74FFF746FEF860FB685AB2B97CCD
:100AC000FB7C1846FFF7FCFEFB695A1CFA61192BE8
:100AD00003D80023FB6100F0CDFC07F10803B969DE
:100AE000184603F05BFCD7E7F40000202C00002040
:100AF0004000002054000020680000207C000020FE
:100B000090000020A4000020B8000020CC000020AD
:100B1000E0000020C40B002004C400000CC800004A
:100B20000B39002080B58AB004AF78600023FB75D4
:100B30007B685B7A03F00203DBB2002B00F03E829D
:100B40007B4808F0DDFF00230293012301933F233C
:100B500000937F230D220021754809F0E2FA754BBE
:100B6000012201925A6800921B68392200217048C4
:100B700009F0F8FB704B012201925A6800921B6841
:100B8000132205216A4809F0EDFB6B4B012201920B
:100B90005A6800921B6813222321654809F0E2FB82
:100BA000654B012201925A6800921B681322422170
:100BB0005F4809F0D7FB604B012201925A6800920E
:100BC0001B68132260215A4809F0CCFB7B681B7A12
:100BD000022B0BD1594B012201925A6800921B68DB
:100BE00039222821524809F0BDFB4DE07B681B7A71
:100BF000002B0CD101230293012301932C2300939A
:100C00001E23142206214A4809F08BFA31E07B6842
:100C10001B7A012B0CD101230293012301932C2376
:100C200000933C2314222421414809F07AFA20E061
:100C30007B681B7A032B0CD10123029301230193C0
:100C40002C2300935B2314224321394809F069FACD
:100C50000FE07B681B7A042B0BD101230293012345
:100C600001932C230093792314226121304809F049
:100C700058FA334B012201925A6800921B683922BC
:100C800028212B4809F06EFB7B685B683B613B6960
:100C90005B691B68092B16D83B695B691A68294B8D
:100CA00083FB02139910D317C91A0B469B000B4400
:100CB0005B00D11ACBB23033DBB23B7200237B72C4
:100CC0000123FB758CE03B695B691B68632B3BD898
:100CD0003B695B691B681B4A82FB03129210DB179E
:100CE000D21A184B83FB02139910D317C91A0B465B
:100CF0009B000B445B00D11ACBB23033DBB23B72AA
:100D00003B695B691A680F4B83FB02139910D31779
:100D1000C91A0B469B000B445B00D11ACBB230338F
:100D2000DBB27B720023BB720223FB7558E000BF6D
:100D3000C40B002014D20000F0D3000028D400001F
:100D400060D40000676666663B695B691B68B3F543
:100D50007A7F45D23B695B691B689A4A82FB031222
:100D60005211DB17D21A984B83FB02139910D31739
:100D7000C91A0B469B000B445B00D11ACBB230332F
:100D8000DBB23B723B695B691B688F4A82FB0312D3
:100D90009210DB17D21A8C4B83FB02139910D317D6
:100DA000C91A0B469B000B445B00D11ACBB23033FF
:100DB000DBB27B723B695B691A68834B83FB02136E
:100DC0009910D317C91A0B469B000B445B00D11A2C
:100DD000CBB23033DBB2BB720023FB720323FB7553
:100DE0007B681B7A002B14BF01230023DBB21A4659
:100DF000764B01925A6800921B68162208217448AB
:100E000009F0B0FAFB7DC3F10303DBB25B00DBB298
:100E10000D33DBB21E2219466D4808F05DFE7B687B
:100E20001B7A002B14BF01230023DBB21A46694B47
:100E300007F108010192012200920CCB644809F0ED
:100E400071FA7B685B6828333B613B695B691B68AF
:100E500003F00103002B12D07B681B7A012B14BF17
:100E600001230023DBB21A465B4B01925A680092C1
:100E70001B6816222621564809F074FA11E07B6897
:100E80001B7A012B14BF01230023DBB21A46534BFC
:100E900001925A6800921B68162226214C4809F0DC
:100EA00061FA7B685B6878333B613B695B691B680F
:100EB00003F00103002B12D07B681B7A032B14BFB5
:100EC00001230023DBB21A46454B01925A68009277
:100ED0001B68162245213E4809F044FA11E07B6860
:100EE0001B7A032B14BF01230023DBB21A463D4BB0
:100EF00001925A6800921B6816224521344809F075
:100F000031FA7B685B68A0333B613B695B691968B8
:100F1000354BA3FB01235A0813465B001344CA1A3E
:100F20001346FB73FB7B022B2CD0022B3DDC002BEA
:100F300002D0012B13D038E07B681B7A042B14BF3E
:100F400001230023DBB21A46284B01925A68009213
:100F50001B68162263211E4809F004FA25E07B680D
:100F60001B7A042B14BF01230023DBB21A46204B4B
:100F700001925A6800921B6816226321144809F0F6
:100F8000F1F912E07B681B7A042B14BF01230023C4
:100F9000DBB21A46174B01925A6800921B68162260
:100FA00063210B4809F0DEF900BF094808F0B7FDDE
:100FB0007A68537A6FF34103537200E000BF183729
:100FC000BD4680BD1F85EB51676666668CD100000B
:100FD000C40B0020B4D00000FCD000005CD20000A4
:100FE000A4D2000044D10000ABAAAAAAECD200000F
:100FF00034D300007CD3000080B483B000AF7860AD
:1010000039607B68134AA2FB0323D908114BA3FB69
:101010000123DA0813469B0013445B00CA1AD3B2BB
:101020003033DAB23B681A7079680A4BA3FB0123AC
:10103000DA0813469B0013445B00CA1AD2B23B681D
:1010400001333032D2B21A7000BF0C37BD465DF8A2
:10105000047B7047CDCCCCCC80B500AF08490948A3
:1010600008F0BCFD064B02221A720749054808F039
:10107000B5FD044B1B68184608F00DFE00BF80BD8F
:10108000F40000202C0B00202C00002080B500AFC5
:101090000549064808F0A2FD044B1B68184608F0F5
:1010A000FAFD00BF80BD00BF400000202C0B0020D7
:1010B00080B500AF0549064808F090FD044B1B6859
:1010C000184608F0E8FD00BF80BD00BF54000020B6
:1010D0002C0B002080B586B004AF0346FB7121487D
:1010E00008F040FD00230293012301933F23009366
:1010F0007F230D2200211B4809F013F8122208213A
:10110000184808F01BFD184B0122019200220092A2
:101110000CCB1649134809F005F922220B2111487E
:1011200008F00CFD104B01220192002200920CCB22
:101130000F490C4809F0F6F832221D21094808F041
:10114000FDFC094B01220192002200920CCB0949BF
:10115000044809F0E7F8034808F013FD00BF08371A
:10116000BD4680BDC40B002098D8000024DB0000E1
:1011700038DB000044DB000080B500AF05490648BD
:1011800008F02CFD044B1B68184608F084FD00BFD6
:1011900080BD00BF900000202C0B002080B500AF68
:1011A0000549064808F01AFD044B1B68184608F06C
:1011B00072FD00BF80BD00BFA40000202C0B0020EA
:1011C00080B500AF0549064808F008FD044B1B68D0
:1011D000184608F060FD00BF80BD00BFB8000020C9
:1011E0002C0B002080B500AF0549064808F0F6FC3E
:1011F000044B1B68184608F04EFD00BF80BD00BFC1
:10120000CC0000202C0B002080B500AF054906481B
:1012100008F0E4FC044B1B68184608F03CFD00BFD6
:1012200080BD00BFE00000202C0B002080B500AF87
:101230000549064808F0D2FC044B1B68184608F024
:101240002AFD00BF80BD00BF680000202C0B0020DD
:1012500080B500AF0549064808F0C0FC044B1B6888
:10126000184608F018FD00BF80BD00BF7C000020BC
:101270002C0B002090B58DB004AF0346FB7100230A
:10128000FB770023BB77514B07F10C040FCB07C44E
:1012900023800023BB764E4B9B6F4E4AA2FB032359
:1012A0005A0C07F10C030D334B49184607F0FEFDAD
:1012B0004A4808F057FC00230293012301933F237F
:1012C00000937F230D220021444808F02AFF0023C9
:1012D000FB7714E0FB7F424AD35CDBB2414AA2FBBE
:1012E00003239B08DBB2C3F14003BB77BA7FF97FCE
:1012F00001233A4808F0BAFEFB7F0133FB7797F9E8
:101300001F30002BE6DA384B1B78D9B2364B1B78EE
:10131000DBB201220292012201923F2200920D22B1
:101320002E4808F0FEFE304B1B78DBB20133DBB2F7
:1013300032221946294808F001FC2C4B0122019267
:10134000002200920CCB2A49244808F0EBFF294BDD
:101350001B78D9B2274B1B78DBB201220292012203
:1013600001923F2200920D221C4808F0DAFE214B28
:101370001B78DBB2073BDBB232221946174808F074
:10138000DDFB1A4B01220192002200920CCB1A497C
:10139000124808F0C7FF114808F0F3FB174B5B6DCC
:1013A000002B0FD0122200210C4808F0C7FB0F4B76
:1013B00007F10C0101220192002200920CCB074898
:1013C00008F0B0FF00BF2437BD4690BD54DB0000DD
:1013D000008000404128859850DB0000C40B0020AD
:1013E000E00B0020CDCCCCCC0C39002098D80000EC
:1013F00024E900000D39002048DC0000E00C00204A
:1014000080B584B004AF174808F0ACFB002302930A
:1014100001230193382300937F230D2200211148DB
:1014200008F07FFE0021104808F0D8FB0F4B012286
:1014300001925A6800921B6812222721094808F07D
:1014400091FF0B4B012201925A6800921B683922CE
:101450000021044808F086FF024808F092FB00BF14
:10146000BD4680BDC40B00202C0B00201CDB0000FF
:101470004CDA000080B586B002AF03F0CBF903462A
:101480005E4AA2FB03239B09FB60FB685C4AA2FB4C
:101490000323D90A5B4BA3FB0123DA0813469B0005
:1014A00013445B00CA1AD3B23033DBB23B71FB6822
:1014B000554AA2FB03235909534BA3FB01235A09A5
:1014C00013461B019B1A9B00CA1A3B1D0133194688
:1014D0001046FFF791FDF9684B4BA3FB01235A0916
:1014E00013461B019B1A9B00CA1A3B1D0333194666
:1014F0001046FFF781FD454808F034FB0022082123
:10150000424808F01BFB3979414B0122019201222C
:1015100000920CCB3D4808F044FE00220E213B48CF
:1015200008F00CFB79793A4B0122019201220092DA
:101530000CCB364808F035FE00221221334808F063
:10154000FDFAB979324B01220192012200920CCBB3
:101550002E4808F026FE002218212C4808F0EEFA4A
:10156000F9792B4B01220192012200920CCB2748E2
:1015700008F017FE00221C21244808F0DFFA397A0F
:10158000234B01220192012200920CCB1F4808F04C
:1015900008FE002261211D4808F0D0FA1C4B0122F0
:1015A0000192012200920CCB2D21184808F0F9FD80
:1015B00000226521154808F0C1FA154B012201925D
:1015C000012200920CCB2D21104808F0EAFD0022E8
:1015D0006D210E4808F0B2FA0D4B01220192012252
:1015E00000920CCB2D21094808F0DBFD074808F0DC
:1015F000C8FA00BF1037BD4680BD00BFD34D621092
:10160000C5B3A291CDCCCCCC89888888C40B0020EE
:1016100050D6000080B584B004AF6D4808F0A2FA3F
:1016200000230293012301933F2300937F23002291
:101630000021674808F075FD664B012201925A6847
:1016400000921B6800220021614808F08BFE624B6B
:10165000012201925A6800921B68002200215C4816
:1016600008F080FE012301220C21594808F0FEFCFD
:10167000012303220C21564808F0F8FC0123012223
:101680001621534808F0F2FC01230322162150488A
:1016900008F0ECFC002208214D4808F04FFA4F4BAF
:1016A00001220192012200920CCB3021484808F01F
:1016B00078FD00220E21464808F040FA474B0122EF
:1016C0000192012200920CCB3021414808F069FDC3
:1016D000002212213E4808F031FA404B01220192CB
:1016E000012200920CCB3021394808F05AFD00222B
:1016F0001821374808F022FA384B012201920122C2
:1017000000920CCB3021324808F04BFD00221C2106
:101710002F4808F013FA314B012201920122009266
:101720000CCB30212A4808F03CFD2D4B01220192C0
:101730005A6800921B6801227621254808F012FEA3
:10174000012304226A21224808F090FC0022712122
:101750001F4808F0F3F9214B012201920022009268
:101760000CCB56211A4808F01CFD002261211848B4
:1017700008F0E4F9194B01220192012200920CCBEE
:101780002D21134808F00DFD00226521104808F0B6
:10179000D5F9124B01220192012200920CCB2D218E
:1017A0000B4808F0FEFC00226D21094808F0C6F93C
:1017B0000A4B01220192012200920CCB2D210448F8
:1017C00008F0EFFC024808F0DCF900BFBD4680BD20
:1017D000C40B0020A0D90000B0D9000050D60000F2
:1017E000C4D9000080B582B002AF00F065F82C4B80
:1017F0005B692B4A43F0807353612A4BD3F8A831BD
:10180000284A23F00F03C2F8A831264BD3F8A83199
:10181000244A43F00303C2F8A831234B03F50053D5
:10182000DB68214A43F4806302F50052D3601C4B0D
:101830001E4A9A671A4B5B69194A43F080635361E9
:10184000184BDB6E174A23F00F03D366154BDB6E84
:10185000144A43F00303D366134B03F500531B688C
:10186000114A43F0006302F5005213600C4B0F4A1B
:10187000C3F8802000230193012300930023BE229C
:101880000B490C4809F0C7FA0346012B04D0042287
:101890000221054808F0D5F900BFBD4680BD00BF54
:1018A000008004400010004000C0084020C83F00F5
:1018B0006CDB00000119000080B582B002AF0D4959
:1018C0000D4804F0A7FC002300930C4B0B4A0021A9
:1018D000094804F0D9FC00230093084B074A022171
:1018E000054804F0D1FC044808F09BF900BFBD4650
:1018F00080BD00BF64DB0000008004408023430003
:1019000080B582B000AF7860124B134A9A67114BD2
:10191000114AC3F880204FF4FA6002F0BDFD0D4B70
:101920000E4A9A670B4B0D4AC3F880204FF4FA60B9
:1019300002F0B2FD074B084A9A67064B064AC3F805
:10194000802040F6AC5002F0A7FD002002F0D8FD48
:10195000DAE700BF0080044020C83F00701A3E0054
:1019600080B586B000AF0346FB710120FFF782FC13
:10197000834B3B610023FB81FB79022B29D1814BF7
:101980001B681B686FF0DB0202FB03F303F58603A1
:1019900003F50E537C4A93677C4B1B681B686FF002
:1019A000DB0202FB03F303F5860303F50E53764ACD
:1019B000C2F88030764B1B681B686FF0DB0202FBBD
:1019C00003F303F5860303F50E53724AC2F8803021
:1019D000D2E0714B1B681B689AB2704B1B68196888
:1019E0006D4B1B681B68CB1A6D49096801FB03F33B
:1019F0006C4981FB03014911DB17CB1A9BB21344DD
:101A00009BB2BB81B7F90C306FF0DB0202FB03F332
:101A100003F5860303F50E535B4A9367B7F90C3061
:101A20006FF0DB0202FB03F303F5860303F50E53AD
:101A3000554AC2F880305C4B1B78DBB21A465B4BD0
:101A40001B78DBB21344DA0F13445B10FB81B7F948
:101A50000E3018460AF03CFA4FF00002544B07F0E3
:101A6000D7FB02460B46104619464FF00002514B79
:101A700007F04CFC02460B461046194607F0A6FD3F
:101A800003463B614C4B93F9003007EE903AF8EE79
:101A9000E77A97ED047A67EE277AC7ED047AD7EDF7
:101AA000047A9FED467AF4EEC77AF1EE10FA01DB84
:101AB000434B3B61D7ED047A9FED427AF4EEC77A4F
:101AC000F1EE10FA01D8404B3B61D7ED047AF5EE08
:101AD000C07AF1EE10FA21D82D4B1B681B6807EE77
:101AE000903AB8EEE77A2A4B1B681A68374B1B68A6
:101AF0001B68D31A07EE903AF8EEE76AD7ED047A3E
:101B000066EEA76A9FED2D6AC6EE867A77EE277A93
:101B1000FDEEE77A17EE903AFB8220E01C4B1B6843
:101B20001B6807EE903AB8EEE77A294B1B681A68F3
:101B3000174B1B681B68D31A07EE903AF8EEE76A5A
:101B4000D7ED047A66EEA76A9FED1C6AC6EE867A28
:101B500077EE277AFDEEE77A17EE903AFB82B7F937
:101B600016306FF0DB0202FB03F303F5860303F587
:101B70000E53084AC2F880301837BD4680BD00BFFA
:101B80000000F041180100200080044024010020E2
:101B90000C010020009000401C01002020010020CA
:101BA000080100201F85EB510C3900200D39002061
:101BB0000000F93F00005940440100200000C842E5
:101BC0000000C8420000C8C20000C8C210010020C6
:101BD0001401002080B58CB004AF78607B685B7A1C
:101BE00003F00203DBB2002B00F036837B685B7AE4
:101BF00003F00103DBB2002B10D07B685A687B68CE
:101C00001B7A19460B469B000B44DB0013449B7C5C
:101C1000032B03D1786808F089F91EE37B681A7AF0
:101C20007B681B789A4202D37B6800221A727B6819
:101C30001B7AAF4AA2FB03239B08BB767B681A7A08
:101C4000AB4BA3FB021399080B469B000B44D31A22
:101C50007B767B681B78A64AA2FB03239B08DBB23A
:101C6000BA7E9A420BD17B681A78A14BA3FB021370
:101C700099080B469B000B44D31ADBB200E0052306
:101C80003B76786800F0B8FC0023029301230193AF
:101C90003F2300937F230D220021786800F06AFC27
:101CA0000023FB766DE2FB7E1A46920013445B0034
:101CB000DBB21233D8B2FB7E1A46920013445B00AB
:101CC000DBB21333DBB2F97E7A7E91420CBF012284
:101CD0000022D2B202920122019200930023024616
:101CE0000021786800F046FCFB7E1A4692001344FF
:101CF0005B00DBB21133D8B2FB7E1A46920013446C
:101D00005B00DBB21433DBB2F97E7A7E91420CBF0A
:101D100001220022D2B202920122019200930123F9
:101D200002460121786800F025FCFB7E1A469200ED
:101D300013445B00DBB21033D8B2FB7E1A4692002C
:101D400013445B00DBB21533DBB2F97E7A7E91423D
:101D50000CBF01220022D2B2029201220192009312
:101D6000022302460221786800F004FCFB7E1A463A
:101D7000920013445B00DBB20F33D8B2FB7E1A46ED
:101D8000920013445B00DBB21633DBB2F97E7A7E3D
:101D900091420CBF01220022D2B202920122019292
:101DA0000093032302460321786800F0E3FBFB7EE7
:101DB0001A46920013445B00DBB20E33D8B2FB7EAE
:101DC0001A46920013445B00DBB21733DBB2F97E94
:101DD0007A7E91420CBF01220022D2B202920122ED
:101DE000019200937A2302460421786800F0C2FB36
:101DF000FA7E3B7E9A4280F0C1817B685968BA7E48
:101E000013469B001A44FB7E13441A4613469B005C
:101E10001344DB000B443B61FB7E1A4692001344E3
:101E20005B00DBB20F33D9B23869FA7E7B7E9A420F
:101E300014BF01230023DBB2009303460A460521A9
:101E4000786800F0B7FB3B699B7C022B40F0EA808E
:101E50007B685B7A03F00103DBB2002B19D0FB7EB9
:101E60001A46920013445B00DBB20E33DAB2FB7EFB
:101E7000194689000B445B00DBB21733DBB200214B
:101E8000029101210191009378235421786800F098
:101E900071FB3B695B691B68FB61FB6942F20F7276
:101EA000934205DD3E233B7242F20F73FB6114E067
:101EB000FB69104A934205DA3C233B7242F20F73EE
:101EC000FB610AE0FB69002B05DA2D233B72FB69FD
:101ED0005B42FB6101E020233B723B7A3C2B0BD140
:101EE000FB6942F20F72934206D12D237B7215E0FB
:101EF000CDCCCCCCF1D8FFFFFB69474A82FB031263
:101F00009211DB17D31AFB81FB89002B04D0FB89CC
:101F1000DBB23033DBB200E020237B72FB693F4A47
:101F200082FB03125211DB17D21A3D4B83FB0213C3
:101F30009910D317C91A0B469B000B445B00D11AAA
:101F40000B46FB81FB89002B04D0FB89DBB23033CD
:101F5000DBB205E0FB69632B01DC202300E03023CA
:101F6000BB72FB692E4A82FB03129210DB17D21A56
:101F70002B4B83FB02139910D317C91A0B469B00F6
:101F80000B445B00D11A0B46FB81FB89002B04D06C
:101F9000FB89DBB23033DBB205E0FB69632B01DC8C
:101FA000202300E03023FB72FA691D4B83FB0213F0
:101FB0009910D317C91A0B469B000B445B00D11A2A
:101FC0000B46FB81FB89DBB23033DBB23B73002372
:101FD0007B73FB7E1A46920013445B00DBB20F3327
:101FE000D9B2FA7E7B7E9A4206D17B685B7A03F097
:101FF0000103DBB2002B01D0012300E0002303F03A
:102000000103DBB207F10802009313460A4655218B
:10201000786800F0CFFAB1E0D34D62101F85EB5124
:10202000676666663B699B7C012B40F0A780FA7E61
:102030007B7E9A4219D1FB7E1A46920013445B00C4
:10204000DBB20E33DAB2FB7E194689000B445B002B
:10205000DBB21733DBB20021029101210191009321
:1020600079237021786800F085FAFB7E1A46920089
:1020700013445B00DBB20F33DAB2FB7E19468900F2
:102080000B445B00DBB21633DBB20121029100216D
:102090000191009378237121786800F06BFA3B6915
:1020A0005B691B6803F00103002B67D0FB7E1A46B7
:1020B000920013445B00DBB21133DAB201237321C7
:1020C000786800F03DFAFB7E1A46920013445B00EC
:1020D000DBB21233DAB201237421786800F030FAEF
:1020E000FB7E1A46920013445B00DBB21333DAB274
:1020F00001237521786800F023FAFB7E1A469200CE
:1021000013445B00DBB21433DAB201237621786822
:1021100000F016FAFB7E1A46920013445B00DBB215
:102120001433DAB201237321786800F009FAFB7ED8
:102130001A46920013445B00DBB21333DAB2012378
:102140007421786800F0FCF9FB7E1A469200134473
:102150005B00DBB21233DAB201237521786800F03C
:10216000EFF9FB7E1A46920013445B00DBB2113399
:10217000DAB201237621786800F0E2F9FB7E0133C0
:10218000FB76FB7E042B7FF68EAD7B681B781A46B0
:102190002D2393FBF2F3FB7501230293002301939C
:1021A0000E2300937F230E227D21786800F0E2F950
:1021B0007B681B78FA7D12FB03F3DBB21233D9B2D2
:1021C0007B681B78FA7D12FB03F3DBB21233DBB2C0
:1021D000012202920022019200937F230A467D2170
:1021E000786800F0C7F97B681B78FA7D12FB03F36F
:1021F000DBB21033DBB20022029201220192009383
:102200007F2310227D21786800F0B4F97B681B7A67
:10221000FA7D12FB03F3DBB21033D9B27B681B7A71
:102220000133DBB2FA7D12FB03F3DBB21033DBB216
:10223000012202920122019200937F230A467D210E
:10224000786800F097F9786800F0E4F97A68537AD2
:102250006FF34103537200E000BF2037BD4680BDDD
:1022600080B582B000AF786039603B681D2B02D921
:102270001048FEF711F87B6803F120023B68DBB2DF
:102280005B09DBB29B00134419683B68DBB203F0C7
:102290001F0301229A407B6803F120003B68DBB2F8
:1022A0005B09DBB29B0003440A431A6000BF083796
:1022B000BD4680BD7CDB000080B586B002AFF86013
:1022C000B9607A603B60FB68BA681A60FB687A683C
:1022D0001A65FB683A685A6503220021012008F05C
:1022E0008BFA0246FB689A66012008F0F8FA02466B
:1022F000FB68DA66FB681B6D184604F049FAFB6858
:102300005833184605F058F9FB68BA69DA65FB6876
:102310001868FB685833FA69194609F056F94FF006
:1023200080430022C3F8B822FB681A6DFB685B6D1E
:1023300019461046FFF794FFFB6803F14000FB6865
:10234000196DFB685B6D1A4604F020FCFB68186889
:10235000FB68191DFB6840330093FB68034A05F0D6
:10236000E5FB00BF1037BD4680BD00BF71230000F4
:1023700080B586B000AFF860B9607A603B603B68BA
:102380007B617B697A685A667B699B6E07F11002F4
:102390001146184608F056FB3B69002B07D0064B48
:1023A0004FF080521A60BFF34F8FBFF36F8F00BFA3
:1023B0001837BD4680BD00BF04ED00E080B582B097
:1023C00000AF78601E23164A0021786800F088F874
:1023D0007B689A1D01230021786800F081F87B68F2
:1023E000DA1D01230021786800F07AF87B6803F198
:1023F000080201230021786800F072F80021786853
:1024000007F012FE786808F03CF80123054A002125
:10241000786800F065F800BF0837BD4680BD00BF92
:1024200020DC00003EDC000080B584B002AF7860A4
:10243000084611461A460346FB700B46BB7013460E
:102440007B707B68FA781A707B68BA785A707B6800
:102450007A789A70BB787A7802FB03F3DB109AB231
:102460007B689A807B68A022DA717B68C0229A71AF
:102470007B68A6221A727B6800229A727B6800220F
:10248000DA727B683A69DA60012008F028FA0246BD
:102490007B689A617B689B69002B00D1FEE77B68B3
:1024A0009A697B681A617B6800221A757B681846F6
:1024B000FFF784FF00230193042300937B68BE226F
:1024C0000549064808F0A7FC0346012B00D0FEE7AB
:1024D00000BF0837BD4680BD40DC0000EDA4000011
:1024E00080B584B000AFF8607A603B600B46FB7249
:1024F000FB681A78104B1A710F4B00225A71FB7A45
:10250000002B01D1002300E040230B4A93600A4BCB
:102510000122DA60084A7B681361074A3B6853610D
:10252000054B00221A600449044807F042FD00BF31
:102530001037BD4680BD00BF3C0B0020540B00206F
:1025400080B582B000AF7860084611461A4603464F
:10255000FB700B46BB7013467B707B78BA78F978BA
:10256000034807F083FD00BF0837BD4680BD00BFAC
:10257000C40B002080B586B004AF786008461146D1
:102580001A460346FB700B46BB7013467B703B7EBE
:102590007878BA78F97802933B7D01933B7C00937D
:1025A0000346034807F0BDFD00BF0837BD4680BDA8
:1025B000C40B002080B586B002AFF8607B600B468C
:1025C000FB721346BB72BA7AFB7A1946084807F0C9
:1025D000AAFF3B7E074A0193002300930CCA796847
:1025E000034807F09FFE00BF1037BD4680BD00BF07
:1025F000C40B00208CDE000080B582B000AF786094
:10260000034807F0A4FF00BF0837BD4680BD00BFE8
:10261000C40B002080B582B000AF7860034807F09B
:10262000A5FF00BF0837BD4680BD00BFC40B00201A
:1026300080B483B000AF03463960FB7197F907306F
:10264000002B0ADB3B68DAB20C4997F907305201DC
:10265000D2B20B4483F800230AE03B68DAB208499F
:10266000FB7903F00F03043B5201D2B20B441A76FC
:1026700000BF0C37BD465DF8047B704700E100E009
:1026800000ED00E080B582B002AF02211020FFF71C
:10269000CFFF02210120FFF7CBFF0A4B01930A4B2A
:1026A00000930523094A0A490A48FFF705FE0A4B29
:1026B0000093802340223C210848FFF7B5FE00BF6D
:1026C000BD4680BD001BB700801A060000200840F0
:1026D00000800840540B002048010020C40B00205B
:1026E00080B483B000AF0346FB7197F90730002B2D
:1026F0000BDBFB7903F01F02074997F907305B09F1
:10270000012000FA02F241F8232000BF0C37BD4639
:102710005DF8047B704700BF00E100E080B483B047
:1027200000AF03463960FB7197F90730002B0ADBD5
:102730003B68DAB20C4997F907305201D2B20B4428
:1027400083F800230AE03B68DAB20849FB7903F01A
:102750000F03043B5201D2B20B441A7600BF0C3770
:10276000BD465DF8047B704700E100E000ED00E04D
:1027700080B500AF00F014F800F03AF800F072F8FD
:1027800000F0BCF800F03AF900F08EF9034B5B68FA
:10279000024A23F00403536000BF80BD005008408C
:1027A00080B500AF0F49104803F034FD0E4B0022F6
:1027B0005A610D4B5B690C4A43F0807343F003038D
:1027C0005361094A094B1B68936700210A20FFF7F0
:1027D000A5FF0A2007F0D9FE034807F0FAFE00BF64
:1027E00080BD00BF94DE000000800040300100206A
:1027F00080B400AF4FF080430022C3F8F0224FF0C6
:1028000080430422C3F8B4234FF08043D3F804324A
:102810004FF0804243F00403C2F804324FF080438B
:10282000D3F844314FF0804243F00403C2F84431FE
:102830000B4B1B680A4A43F006031360084B1B68E6
:10284000074A43F070031360054B1B68044A43F4C6
:102850000033136000BFBD465DF8047B704700BFC6
:102860000050084080B400AF214BD3F8EC31204A2F
:1028700023F00F03C2F8EC311D4BD3F8EC311C4AA6
:1028800043F00203C2F8EC311A4B03F50053DB6846
:10289000184A43F0006302F50052D360164B192228
:1028A000C3F80022144B4FF0FF32C3F80023124B41
:1028B0004FF48052C3F804230F4B0122C3F80825BC
:1028C0000D4B0C22C3F804220B4B4FF0FF32C3F820
:1028D0000823094B41F20102C3F80C23064B0222E4
:1028E000C3F80C2500BFBD465DF8047B704700BFF0
:1028F0000010004000C008400050084080B400AF05
:10290000204BD3F8E8311F4A23F00F03C2F8E83117
:102910001C4BD3F8E8311B4A43F00203C2F8E831FC
:10292000194B03F50053DB68174A43F0806302F547
:102930000052D360154B1722C3F80822134B002214
:10294000C3F81023114B41F20202C3F814230F4BBA
:102950000422C3F800250D4B0122C3F80C220B4BB7
:102960006FF07042C3F81823084B41F20302C3F81A
:102970001C23064B0822C3F8042500BFBD465DF8A2
:10298000047B70470010004000C008400050084021
:1029900080B584B000AF7860154B00221A70154BDB
:1029A0006FF07042C3F81023124B5B68114A23F09A
:1029B000040353600023FB7302E0FB7B0133FB73D2
:1029C000FB7B092BF9D90023FB730A4B0022C3F8C8
:1029D0001023084B5B68074A23F00403536001216E
:1029E000054807F0E8FD00BF1037BD4680BD00BFB9
:1029F00045010020005008400080004080B400AF36
:102A00000D4B1522C3F810220B4B6FF07042C3F828
:102A10002023094B41F20402C3F82423064B102261
:102A2000C3F82025044B0122C3F8242500BFBD466E
:102A30005DF8047B704700BF0050084080B582B04D
:102A400000AF174B1B687B60154B1B68144A43F0A3
:102A500002031360124B0122DA66114BDB6E03F0A6
:102A60000103002B16D00E4B1B680D4A43F00703E1
:102A700013600B4B01221A670A49642003F00EFB16
:102A8000074B1B6F03F00103012B05D0044A7B6841
:102A9000136002E000BF00E000BF0837BD4680BD04
:102AA00000000A4000EF1C0D80B500AF544B1B6CBA
:102AB000534A23F00F031364514B1B6C504A23F409
:102AC000807313644F4B03F500531B684D4A23F486
:102AD000803302F5005213604FF08043D3F8103674
:102AE0004FF0804223F48063C2F810364FF08043E9
:102AF000D3F810364FF0804223F40073C2F810363A
:102B00004FF08043D3F810364FF0804223F4002377
:102B1000C2F810364FF08043D3F810364FF08042A1
:102B200023F40003C2F810363749142003F0B6FA34
:102B30004FF08043D3F800324FF0804243F00063FF
:102B4000C2F800324FF08043D3F840314FF080425A
:102B500043F00063C2F84031FFF770FF2B4B1B6856
:102B60002A4A43F002031360284B1B68274A23F4C8
:102B7000C0631360254B1B68244A43F40073136041
:102B8000224B1B68214A43F4005313601F4B9B6880
:102B90001E4A23F0004393601C4B9B681B4A43F082
:102BA00010039360194B9B68184A43F44053936099
:102BB000164B9B68154A43F480239360134B9B6824
:102BC000124A43F400239360104B9B680F4A43F072
:102BD000804393600D4B9B680C4A43F00043936025
:102BE0000A4B5B6E094A43F001035366002116202D
:102BF000FFF794FD162007F0C8FC00BF80BD00BFA2
:102C00000010004000C0084000EF1C0D00000A400A
:102C100080B400AF104B1B78DBB2802B10D80F4B69
:102C20001B69190A0C4B1B78DBB21A46C9B20C4B54
:102C30009954094B1B78DBB20133DAB2064B1A7098
:102C4000064B4FF080529A66BFF34F8F00BF00BF14
:102C5000BD465DF8047B70474501002000000A4036
:102C6000E00B002080B584B000AF78600023FB60EB
:102C70000023FB720AE0FB7A124AD35CDBB21A46ED
:102C8000FB681344FB60FB7A0133FB7297F90B304E
:102C9000002BF0DAFB68C3F5804213469B00134417
:102CA0005B001A46084B1B681344074A1360074A27
:102CB000054B1B68936700F00BF8012001F0ECFB5B
:102CC000D4E700BFE00B002030010020008000406E
:102CD00080B483B000AF14233B713723FB70002313
:102CE000FB710023BB71324B7F221A70314B0022E3
:102CF0001A7000237B7150E07B7904332E4AD35C39
:102D0000DBB21A463B7913447A792B498A5CD2B2FA
:102D1000934216DA7B790233284A0121D1547B7918
:102D20009A1CFB78C3F140039A4233DBBB79002B3A
:102D300030D17B790233DAB21D4B1A700123BB719B
:102D400028E07B7904331C4AD35CDBB21A463B791A
:102D5000D31A7A7918498A5CD2B2934215DD7B790D
:102D60000233164A0221D154FB7803F13D027B79EC
:102D70009A420FDBFB79002B0CD17B790233DAB25C
:102D80000C4B1A700123FB7104E07B7902330B4A70
:102D90000021D1547B7904337B717B797B2BABD9B8
:102DA00000BF00BF0C37BD465DF8047B704700BF15
:102DB0000D3900200C390020E00B0020600C0020B1
:102DC00080B582B000AF78604FF4804203210448A0
:102DD00007F022FC4FF4FA7001F05EFBF4E700BF4D
:102DE00000C0084080B500AF4FF48042032108487E
:102DF00007F0FFFB08220321054807F0FAFB042235
:102E00000221034807F0F5FB00F004F800BF80BD85
:102E100000C0084080B400AF144BD3F8B031134A5F
:102E200023F00F03C2F8B031104BD3F8B0310F4A82
:102E300043F00503C2F8B0310D4B03F50053DB68D6
:102E40000B4A43F4805302F50052D3604FF08043A5
:102E50000422C3F888224FF08043DB22C3F8842386
:102E600000BFBD465DF8047B704700BF0010004006
:102E700000C0084080B582B002AF4FF4867002F007
:102E80000BFD08F044FD08F025FD08F004FD05F0F9
:102E9000D9F8FFF7A7FF00F04FF8FFF769FCFDF73F
:102EA000B9FAFDF705FAFEF79DFC00230193012313
:102EB00000930023BE221949194807F0ACFF0346CE
:102EC000012B04D004220221164807F0B8FB00238E
:102ED0000193012300930023BE221349134807F0F6
:102EE0009AFF0346012B04D0042202210D4807F06B
:102EF000A6FB00230193012300930023BE220C496B
:102F00000C4807F088FF0346012B04D0042202215D
:102F1000044807F094FB01F085FBFEE79CDE00000F
:102F2000C12D000000C00840ACDE0000D90900003F
:102F3000B8DE0000652C000080B584B000AF012031
:102F400002F046FFF8603B1D184608F0EEF93B1D05
:102F5000FA681946054804F0C7F880220449054874
:102F600008F0E2FC00BF1037BD4680BD00400140C4
:102F700000801040E00C002080B500AF802207499F
:102F8000074808F0EDFC0346002B04D0034A00215B
:102F9000044808F0ECF900BF80BD00BFE00C002041
:102FA000008010400040014080B485B000AF03466F
:102FB000FB71FB79022B0ED12B4B1B681B686FF04A
:102FC000DB0202FB03F303F5860303F50E53274AE6
:102FD000C2F8803043E0264B1B68002B19DC224BE3
:102FE0001B681B689AB2204B1B681968214B1B6831
:102FF0001B68CB1A1E49096801FB03F31E4981FBBC
:1030000003014911DB17CB1A9BB213449BB2FB811E
:1030100018E0154B1B681B689AB2184B1B6819689F
:10302000114B1B681B68CB1A1149096801FB03F39C
:10303000114981FB03014911DB17CB1A9BB21344E1
:103040009BB2FB81B7F90E306FF0DB0202FB03F39A
:1030500003F5860303F50E53044AC2F88030143793
:10306000BD465DF8047B70470000002000900040E2
:10307000300B0020040000201F85EB5108000020C9
:1030800080B483B000AF0346FB710A4B1B681B681A
:103090006FF0DB0202FB03F303F5860303F50E5327
:1030A000054AC2F8803000BF0C37BD465DF8047B8E
:1030B000704700BF000000200090004080B483B043
:1030C00000AF0346FB71FB79022B0ED1104B1B683E
:1030D0001B686FF0DB0202FB03F303F5860303F5C5
:1030E0000E530C4AC2F880300DE00B4B1B681B6876
:1030F0006FF0DB0202FB03F303F5860303F50E53C7
:10310000044AC2F880300C37BD465DF8047B704736
:1031100000000020009000400400002080B483B034
:1031200000AF0346FB71FB79022B0ED1104B1B68DD
:103130001B686FF0DB0202FB03F303F5860303F564
:103140000E530C4AC2F880300DE00B4B1B681B6815
:103150006FF0DB0202FB03F303F5860303F50E5366
:10316000044AC2F880300C37BD465DF8047B7047D6
:1031700000000020009000400800002080B584B0CE
:1031800000AF0346FB71FB79022B0DD11E4B1B6870
:103190001B686FF0DB0202FB03F303F5860303F504
:1031A0000E531A4A93672CE0194B1B681B689AB29E
:1031B000184B1B681968164B1B681B68CB1A1649FD
:1031C000096801FB03F3154981FB03014911DB1772
:1031D000CB1A9BB213449BB2FB81B7F90E306FF050
:1031E000DB0202FB03F303F5860303F50E53074AE4
:1031F0009367B7F90E30054A926F1946084805F0F3
:10320000BFFE1037BD4680BD18010020008004407D
:103210001C01002020010020340B00201F85EB51F1
:10322000D4DE000080B483B000AF0346FB71094BCD
:103230001B681B686FF0DB0202FB03F303F58603D8
:1032400003F50E53044A936700BF0C37BD465DF883
:10325000047B7047180100200080044080B483B0D4
:1032600000AF0346FB71FB79022B0DD10F4B1B689E
:103270001B686FF0DB0202FB03F303F5860303F523
:103280000E530B4A93670CE00A4B1B681B686FF0E8
:10329000DB0202FB03F303F5860303F50E53044A36
:1032A00093670C37BD465DF8047B7047180100201A
:1032B000008004401C01002080B584B000AF0346AC
:1032C000FB71FB79022B0ED1204B1B681B686FF042
:1032D000DB0202FB03F303F5860303F50E531C4ADE
:1032E000C2F880302EE01B4B1B681B689AB21A4B49
:1032F0001B681968174B1B681B68CB1A17490968AC
:1033000001FB03F3164981FB03014911DB17CB1ABB
:103310009BB213449BB2FB81B7F90E306FF0DB0216
:1033200002FB03F303F5860303F50E53084AC2F8C4
:103330008030B7F90E30064AD2F880201946094885
:1033400005F01EFE1037BD4680BD00BF24010020E1
:1033500000800440280100202C010020380B0020B0
:103360001F85EB51FCDE000080B500AF1F4B1B68D2
:1033700040F2DC529A611D4B1B6840F25642DA6102
:103380001A4B1B6840F652021A62184B1B684FF426
:1033900080425A62154B1B684FF47A729A62134B43
:1033A0001B6840F24C42DA62104B1B6840F26C72B0
:1033B0001A630E4B1B6842F6BB325A630B4B1B68F9
:1033C0004FF47A729A63094B1B6840F24C42DA63FD
:1033D000064B1B6840F26C721A64044B1B6842F681
:1033E000BB325A64FDF7C8FE00BF80BD3401002027
:1033F00080B58AB000AF78600023FB6101F060F90E
:103400005B4B1B68002B01D100F020F9594B1A6867
:103410007B681340002B40F093807B68002B1DD00D
:1034200008227B6813447B607B6803F00703002B52
:1034300014D07B6823F0070308337B607B6803F0BC
:103440000703002B0AD04FF0400383F31188BFF32A
:103450006F8FBFF34F8F7B6100BFFEE77B68002B50
:103460006ED0454B1B687A689A4269D8434B3B62E1
:10347000424B1B687B6204E07B6A3B627B6A1B6891
:103480007B627B6A5B687A689A4203D97B6A1B68B5
:10349000002BF1D1364B1B687A6A9A4250D03B6AB6
:1034A0001B6808221344FB617B6A1A683B6A1A6036
:1034B0007B6A5A687B68D21A08235B009A421FD93C
:1034C0007A6A7B681344BB61BB6903F00703002B76
:1034D0000AD04FF0400383F31188BFF36F8FBFF31F
:1034E0004F8F3B6100BFFEE77B6A5A687B68D21A48
:1034F000BB695A607B6A7A685A60B86900F008F95B
:103500001D4B1A687B6A5B68D31A1B4A13601A4BFF
:103510001A681B4B1B689A4203D2174B1B68184A48
:1035200013607B6A5A68134B1B681A437B6A5A60A4
:103530007B6A00221A60134B1B680133114A136027
:1035400001F0CCF8FB6903F00703002B0AD04FF021
:10355000400383F31188BFF36F8FBFF34F8FFB607E
:1035600000BFFEE7FB6918462837BD4680BD00BF97
:10357000683500207C3500206C3500206035002047
:10358000703500207435002080B586B000AF7860BB
:103590007B687B617B68002B4DD008235B427A6996
:1035A00013447B617B693B613B695A68244B1B6810
:1035B0001340002B0AD14FF0400383F31188BFF36F
:1035C0006F8FBFF34F8FFB6000BFFEE73B691B6847
:1035D000002B0AD04FF0400383F31188BFF36F8FA5
:1035E000BFF34F8FBB6000BFFEE73B695A68144BC7
:1035F0001B681340002B1ED03B691B68002B1AD19F
:103600003B695A680E4B1B68DB431A403B695A60A2
:1036100001F056F83B695A680A4B1B681344094A83
:103620001360386900F074F8074B1B680133064AD1
:10363000136001F053F800BF1837BD4680BD00BFCE
:103640007C3500206C3500207835002080B485B0B2
:1036500000AF4FF42053BB60274BFB60FB6803F0C7
:103660000703002B0CD0FB680733FB60FB6823F0DB
:103670000703FB60BA68FB68D31A1F4A1344BB6098
:10368000FB687B601D4A7B6813601C4B00225A60FC
:103690007B68BA681344FB600822FB689B1AFB60D6
:1036A000FB6823F00703FB60FB68154A1360144BAB
:1036B0001B6800225A60124B1B6800221A607B684C
:1036C0003B603B68FA68D21A3B685A600C4B1A6838
:1036D0003B681A603B685B680A4A13603B685B683A
:1036E000094A1360094B4FF000421A6000BF1437BB
:1036F000BD465DF8047B7047600D002060350020FA
:1037000068350020703500206C3500207C350020A5
:1037100080B485B000AF7860284BFB6002E0FB68A6
:103720001B68FB60FB681B687A689A42F7D8FB68E5
:10373000BB60FB685B68BA6813447A689A4208D138
:10374000FB685A687B685B681A44FB685A60FB68D0
:103750007B607B68BB607B685B68BA681A44FB6807
:103760001B689A4218D1FB681A68154B1B689A426D
:103770000DD07B685A68FB681B685B681A447B68DD
:103780005A60FB681B681A687B681A6008E00C4B7B
:103790001A687B681A6003E0FB681A687B681A6025
:1037A000FA687B689A4202D0FB687A681A6000BFA8
:1037B0001437BD465DF8047B704700BF60350020BC
:1037C0006835002080B485B000AFF860B9607A60D9
:1037D000FB68043BFB60FB684FF080721A60FB687B
:1037E000043BFB60BB6823F00102FB681A60FB68C6
:1037F000043BFB600C4AFB681A60FB68143BFB60EF
:103800007A68FB681A60FB68043BFB60FB686FF03A
:1038100002021A60FB68203BFB60FB681846143705
:10382000BD465DF8047B70472D38000080B485B03C
:1038300000AF00237B60124B1B68B3F1FF3F0AD03F
:103840004FF0400383F31188BFF36F8FBFF34F8FA7
:10385000FB6000BFFEE74FF0400383F31188BFF326
:103860006F8FBFF34F8FBB6000BF00BF7B68002B23
:10387000FCD000BF00BF1437BD465DF8047B704725
:103880003801002008480068006880F308884FF07D
:10389000000080F3148862B661B6BFF34F8FBFF3A8
:1038A0006F8F00DF00BF00BF08ED00E080B586B07D
:1038B00000AF464B1B68464A93420AD14FF0400383
:1038C00083F31188BFF36F8FBFF34F8F3B6100BF4E
:1038D000FEE73E4B1B683F4A93420AD14FF040033C
:1038E00083F31188BFF36F8FBFF34F8FFB6000BF6F
:1038F000FEE7394B7B617B691B78DBB27B607B69C0
:10390000FF221A707B691B78DBB2FB70FB78DBB29D
:1039100003F04003DAB2314B1A70314B07221A60C0
:1039200009E02F4B1B68013B2D4A1360FB78DBB28B
:103930005B00DBB2FB70FB78DBB203F08003802B13
:10394000EFD0274B1B68C3F10703032B0AD04FF0BE
:10395000400383F31188BFF36F8FBFF34F8FBB60BA
:1039600000BFFEE71E4B1B681B021D4A13601C4B69
:103970001B6803F4E0631A4A13607B68DAB27B6960
:103980001A70184B1B68174A43F460031360154BF9
:103990001B68144A43F06043136000F0A5F8124B13
:1039A00000221A6000F0C4F8104B1B680F4A43F065
:1039B00040431360FFF766FF00F0E6FFFFF736FFB6
:1039C000002318461837BD4680BD00BF00ED00E05B
:1039D00071C20F4170C20F4100E400E00E390020B7
:1039E0008035002020ED00E03801002034EF00E0B9
:1039F00080B483B000AF4FF0400383F31188BFF36E
:103A00006F8FBFF34F8F7B6000BF0F4B1B6801337D
:103A10000D4A13600C4B1B68012B0FD10B4B1B681D
:103A2000DBB2002B0AD04FF0400383F31188BFF3C1
:103A30006F8FBFF34F8F3B6000BFFEE700BF0C37B7
:103A4000BD465DF8047B70473801002004ED00E0BE
:103A500080B483B000AF124B1B68002B0AD14FF02B
:103A6000400383F31188BFF36F8FBFF34F8F7B60E9
:103A700000BFFEE70A4B1B68013B094A1360084B75
:103A80001B68002B05D100233B603B6883F3118842
:103A900000BF00BF0C37BD465DF8047B704700BF18
:103AA0003801002080B582B000AF4FF0400383F3AF
:103AB0001188BFF36F8FBFF34F8F7B6000BF00F0A3
:103AC000B9FE0346002B03D0064B4FF080521A601C
:103AD00000233B603B6883F3118800BF00BF0837B9
:103AE000BD4680BD04ED00E080B400AF0B4B00226A
:103AF0001A600B4B00221A600A4B1B680A4AA2FB91
:103B000003239B09094A013B1360044B07221A60F7
:103B100000BFBD465DF8047B704700BF10E000E0C9
:103B200018E000E040010020D34D621014E000E0F6
:103B3000DFF80C00016841F470010160704700BFBC
:103B400088ED00E080B485B000AFEFF30583FB6043
:103B5000FB680F2B14D9174AFB6813441B78FB72C0
:103B6000154B1B78FA7A9A420AD24FF0400383F33E
:103B70001188BFF36F8FBFF34F8F7B6000BFFEE7ED
:103B80000E4B1B6803F4E0620D4B1B689A420AD986
:103B90004FF0400383F31188BFF36F8FBFF34F8F54
:103BA0003B6000BFFEE700BF1437BD465DF8047BF5
:103BB000704700BFF0E300E00E3900200CED00E09C
:103BC0008035002080B584B000AF786039607B68B4
:103BD000FB60FB68002B0AD14FF0400383F3118890
:103BE000BFF36F8FBFF34F8FBB6000BFFEE7FFF7E0
:103BF000FFFEFB681A68FB68DB6BF968096C01FB68
:103C000003F31A44FB689A60FB6800229A63FB681E
:103C10001A68FB685A60FB681A68FB68DB6B013B3B
:103C2000F968096C01FB03F31A44FB68DA60FB686E
:103C3000FF2283F84420FB68FF2283F845203B687D
:103C4000002B14D1FB681B69002B1AD0FB681033C2
:103C5000184600F045FF0346002B12D00C4B4FF0E6
:103C600080521A60BFF34F8FBFF36F8F09E0FB687C
:103C70001033184606F00CFDFB682433184606F096
:103C800007FDFFF7E5FE012318461037BD4680BD4E
:103C900004ED00E080B58EB000AFF860B9607A60E6
:103CA0003B6000237B63FB683B633B6B002B0AD1CB
:103CB0004FF0400383F31188BFF36F8FBFF34F8F33
:103CC000BB6200BFFEE7BB68002B03D13B6B1B6CE4
:103CD000002B01D1012300E00023002B0AD14FF07B
:103CE000400383F31188BFF36F8FBFF34F8F7B6265
:103CF00000BFFEE73B68022B03D13B6BDB6B012B64
:103D000001D1012300E00023002B0AD14FF0400332
:103D100083F31188BFF36F8FBFF34F8F3B6200BFF8
:103D2000FEE701F069F80346002B02D17B68002B07
:103D300001D1012300E00023002B0AD14FF0400302
:103D400083F31188BFF36F8FBFF34F8FFB6100BF09
:103D5000FEE7FFF74DFE3B6B9A6B3B6BDB6B9A42CA
:103D600002D33B68022B29D13A68B968386B06F058
:103D70000EFFF8623B6B5B6A002B10D03B6B243369
:103D8000184600F0ADFE0346002B13D03F4B4FF01A
:103D900080521A60BFF34F8FBFF36F8F0AE0FB6A48
:103DA000002B07D0394B4FF080521A60BFF34F8F72
:103DB000BFF36F8FFFF74CFE012363E07B68002B9E
:103DC00003D1FFF745FE00235CE07B6B002B06D19F
:103DD00007F11403184600F0E5FE01237B63FFF7AB
:103DE00037FE00F06DFCFFF703FE3B6B93F84430A9
:103DF0005BB2B3F1FF3F03D13B6B002283F8442059
:103E00003B6B93F845305BB2B3F1FF3F03D13B6BA3
:103E1000002283F84520FFF71BFE3A1D07F114032B
:103E20001146184600F0D4FE0346002B24D1386B0F
:103E300006F0A5FF0346002B18D03B6B10337A68C1
:103E40001146184600F0FCFD386B06F030FF00F01C
:103E500045FC0346002B7FF47CAF0C4B4FF08052A7
:103E60001A60BFF34F8FBFF36F8F72E7386B06F0A6
:103E70001EFF00F033FC6CE7386B06F018FF00F013
:103E80002DFC002318463837BD4680BD04ED00E008
:103E900080B58CB000AFF860B9607A600023FB6237
:103EA000FB68BB62BB6A002B0AD14FF0400383F36F
:103EB0001188BFF36F8FBFF34F8F3B6200BFFEE7E8
:103EC000BB68002B03D1BB6A1B6C002B01D1012303
:103ED00000E00023002B0AD14FF0400383F3118848
:103EE000BFF36F8FBFF34F8FFB6100BFFEE700F0A2
:103EF00083FF0346002B02D17B68002B01D10123F5
:103F000000E00023002B0AD14FF0400383F3118817
:103F1000BFF36F8FBFF34F8FBB6100BFFEE7FFF7AB
:103F200067FDBB6A9B6B7B627B6A002B1FD0B96805
:103F3000B86A06F096FE7B6A5A1EBB6A9A63BB6A31
:103F40001B69002B0FD0BB6A1033184600F0C8FD68
:103F50000346002B07D03D4B4FF080521A60BFF351
:103F60004F8FBFF36F8FFFF773FD012369E07B680D
:103F7000002B03D1FFF76CFD002362E0FB6A002BEE
:103F800006D107F11003184600F00CFE0123FB6276
:103F9000FFF75EFD00F094FBFFF72AFDBB6A93F884
:103FA00044305BB2B3F1FF3F03D1BB6A002283F818
:103FB0004420BB6A93F845305BB2B3F1FF3F03D1B5
:103FC000BB6A002283F84520FFF742FD3A1D07F146
:103FD00010031146184600F0FBFD0346002B23D1C9
:103FE000B86A06F0B6FE0346002B17D0BB6A24332E
:103FF0007A681146184600F023FDB86A06F057FEAD
:1040000000F06CFB0346002B89D1104B4FF080521F
:104010001A60BFF34F8FBFF36F8F80E7B86A06F067
:1040200046FE00F05BFB7AE7B86A06F040FE00F05F
:1040300055FBB86A06F08DFE0346002B3FF46FAFC8
:10404000002318463037BD4680BD00BF04ED00E0B8
:1040500080B58EB000AF7860396000237B637B68E9
:10406000FB620023BB6200233B63FB6A002B0AD187
:104070004FF0400383F31188BFF36F8FBFF34F8F6F
:10408000FB6100BFFEE7FB6A1B6C002B0AD04FF000
:10409000400383F31188BFF36F8FBFF34F8FBB6172
:1040A00000BFFEE700F0A8FE0346002B02D13B68EC
:1040B000002B01D1012300E00023002B0AD14FF097
:1040C000400383F31188BFF36F8FBFF34F8F7B6182
:1040D00000BFFEE7FFF78CFCFB6A9B6B7B627B6A91
:1040E000002B24D07B6A5A1EFB6A9A63FB6A1B680A
:1040F000002B04D101F028F80246FB6A9A60FB6AA3
:104100001B69002B0FD0FB6A1033184600F0E8FC47
:104110000346002B07D0544B4FF080521A60BFF378
:104120004F8FBFF36F8FFFF793FC012397E03B683E
:10413000002B11D13B6B002B0AD04FF0400383F3CF
:104140001188BFF36F8FBFF34F8F3B6100BFFEE756
:10415000FFF77EFC002382E07B6B002B06D107F18A
:104160000803184600F01EFD01237B63FFF770FC77
:1041700000F0A6FAFFF73CFCFB6A93F844305BB210
:10418000B3F1FF3F03D1FB6A002283F84420FB6AAE
:1041900093F845305BB2B3F1FF3F03D1FB6A0022D5
:1041A00083F84520FFF754FC3A4607F1080311460F
:1041B000184600F00DFD0346002B32D1F86A06F0D8
:1041C000C8FD0346002B26D0FB6A1B68002B09D1D3
:1041D000FFF70EFCFB6A9B68184600F02BFE386365
:1041E000FFF736FCFB6A24333A681146184600F0A4
:1041F00027FCF86A06F05BFD00F070FA0346002B1E
:104200007FF468AF184B4FF080521A60BFF34F8FA6
:10421000BFF36F8F5EE7F86A06F049FD00F05EFAC3
:1042200058E7F86A06F043FD00F058FAF86A06F01D
:1042300090FD0346002B3FF44DAF3B6B002B0DD0A0
:10424000FFF7D6FBF86A06F08AFC3862FB6A9B68C7
:10425000396A184600F0EAFEFFF7FAFB0023184619
:104260003837BD4680BD00BF04ED00E080B485B0A6
:1042700000AF786039600023FB6014E00F4AFB68F0
:1042800052F83330002B0BD10C49FB683A6841F8E7
:1042900033200A4AFB68DB0013447A685A6006E060
:1042A000FB680133FB60FB68072BE7D900BF00BF49
:1042B0001437BD465DF8047B704700BF843500208D
:1042C00080B582B000AF7860FFF792FB2C4B1B6883
:1042D00001332B4A13602B4B1B68002B09D1294A51
:1042E0007B681360264B1B68012B10D100F0F6FC95
:1042F0000DE0254B1B68002B09D1224B1B68DA6AA5
:104300007B68DB6A9A4202D81E4A7B6813601F4BA7
:104310001B6801331D4A13601C4B1A687B68DA6402
:104320007B68DB6A01229A40194B1B681343184AC9
:1043300013607B68DA6A13469B0013449B00154A9E
:104340001A447B6804331946104606F0CEF9FFF78D
:104350007FFB0D4B1B68002B0ED00A4B1B68DA6AE3
:104360007B68DB6A9A4207D20B4B4FF080521A608F
:10437000BFF34F8FBFF36F8F00BF0837BD4680BDBF
:104380009C360020C4350020A8360020B836002016
:10439000A4360020C835002004ED00E080B58AB0C6
:1043A00000AF7860396000237B627B68002B0AD104
:1043B0004FF0400383F31188BFF36F8FBFF34F8F2C
:1043C0007B6100BFFEE73B68002B0AD14FF0400342
:1043D00083F31188BFF36F8FBFF34F8F3B6100BF33
:1043E000FEE72A4B1B68002B0AD04FF0400383F3F3
:1043F0001188BFF36F8FBFF34F8FFB6000BFFEE7E5
:1044000000F05EF9224B1B683B627B681B683A68D0
:104410001344FB617B681B683A6A9A420BD27B6843
:104420001B68FA699A4211D2FA693B6A9A420DD91D
:1044300001237B620AE07B681B68FA699A4203D316
:10444000FA693B6A9A4201D901237B627B68FA6967
:104450001A607B6A002B06D0FA693B6AD31A0021E6
:10446000184600F085FE00F039F9B861BB69002BF1
:1044700007D1084B4FF080521A60BFF34F8FBFF344
:104480006F8F00BF2837BD4680BD00BFC4360020F7
:10449000A036002004ED00E080B584B000AF786065
:1044A0000023FB607B68002B17D0134B1B68002B8D
:1044B0000AD04FF0400383F31188BFF36F8FBFF32F
:1044C0004F8FBB6000BFFEE700F0FAF8002178686C
:1044D00000F04EFE00F002F9F860FB68002B07D1F7
:1044E000064B4FF080521A60BFF34F8FBFF36F8FB0
:1044F00000BF1037BD4680BDC436002004ED00E08B
:1045000080B584B000AF7860FFF772FA7B68002B4B
:1045100002D13C4B1B6800E07B68FB60FB68043306
:10452000184606F03FF90346002B15D1FB68DA6AFE
:10453000354913469B0013449B000B441B68002B1A
:104540000AD1FB68DB6A012202FA03F3DA432F4B3C
:104550001B6813402D4A1360FB689B6A002B04D034
:10456000FB681833184606F01DF9FB68043319463A
:10457000274806F0BAF8FB6893F87430DBB2012BD9
:1045800003D1FB68002283F87420FFF761FA214B06
:104590001B68002B05D0FFF72BFA00F00DFCFFF78E
:1045A00057FA184B1B68FA689A4227D1194B1B68B7
:1045B000002B17D0184B1B68002B0AD04FF040037C
:1045C00083F31188BFF36F8FBFF34F8FBB6000BFC2
:1045D000FEE7124B4FF080521A60BFF34F8FBFF3CC
:1045E0006F8F0BE00A4B1A680D4B1B689A4203D180
:1045F000044B00221A6001E000F0C6F900BF10373A
:10460000BD4680BDC4350020C8350020A43600203A
:1046100088360020A8360020C436002004ED00E0D3
:104620009C36002080B586B002AF1F4B019300235B
:10463000009300235A221D491D4806F0ECFBF86048
:10464000FB68012B02D100F0F9FDF860FB68012B3B
:1046500016D14FF0400383F31188BFF36F8FBFF380
:104660004F8FBB6000BF134B4FF0FF321A60124BED
:1046700001221A60114B00221A60FFF717F90EE0B1
:10468000FB68B3F1FF3F0AD14FF0400383F3118879
:10469000BFF36F8FBFF34F8F7B6000BFFEE700BF9C
:1046A0001037BD4680BD00BFC03600209CBF000053
:1046B000AD4C0000BC360020A8360020A0360020FB
:1046C00080B400AF044B1B680133034A136000BF82
:1046D000BD465DF8047B7047C436002080B584B0C9
:1046E00000AF0023FB600023BB60414B1B68002B25
:1046F0000AD14FF0400383F31188BFF36F8FBFF3EC
:104700004F8F3B6000BFFEE7FFF772F9384B1B6825
:10471000013B374A1360364B1B68002B61D1354B88
:104720001B68002B5DD02EE0334BDB68DB68FB6041
:10473000FB681833184606F035F8FB680433184652
:1047400006F030F8FB68DB6A01229A402B4B1B68AD
:1047500013432A4A1360FB68DA6A13469B0013442A
:104760009B00274A1A44FB6804331946104605F09B
:10477000BCFFFB68DA6A234B1B68DB6A9A4202D3F0
:10478000214B01221A601C4B1B68002BCCD1FB680B
:10479000002B01D000F010FB1C4B1B687B607B687A
:1047A000002B10D000F046F80346002B02D0164B29
:1047B00001221A607B68013B7B607B68002BF1D192
:1047C000124B00221A60104B1B68002B09D00123EA
:1047D000BB600F4B4FF080521A60BFF34F8FBFF397
:1047E0006F8FFFF735F9BB6818461037BD4680BD9F
:1047F000C43600209C3600205C360020A436002001
:10480000C8350020C4350020B0360020AC3600206A
:1048100004ED00E080B483B000AF054B1B687B6003
:104820007B6818460C37BD465DF8047B704700BFB7
:10483000A036002080B586B000AF00237B61474BD7
:104840001B68002B7FD1464B1B6801333B61444AF8
:104850003B6913603B69002B20D1424B1B681B68EE
:10486000002B0AD04FF0400383F31188BFF36F8F02
:10487000BFF34F8F3B6000BFFEE73A4B1B68FB6006
:10488000394B1B68374A1360374AFB681360374B54
:104890001B680133354A136000F08EFA344B1B68F5
:1048A0003A699A4248D32F4B1B681B68002B04D1EE
:1048B0002F4B4FF0FF321A603EE02A4B1B68DB683B
:1048C000DB68BB60BB685B687B603A697B689A4267
:1048D00003D2274A7B6813602EE0BB680433184676
:1048E00005F060FFBB689B6A002B04D0BB681833DF
:1048F000184605F057FFBB68DB6A01229A401D4B42
:104900001B6813431B4A1360BB68DA6A13469B009B
:1049100013449B00184A1A44BB68043319461046D6
:1049200005F0E3FEBB68DA6A144B1B68DB6A9A4247
:10493000B9D301237B61B6E7114B1B68002B07D06D
:1049400001237B6104E00F4B1B6801330D4A1360A8
:104950007B6918461837BD4680BD00BFC4360020AD
:10496000A03600205436002058360020B4360020EF
:10497000BC360020A4360020C8350020C4350020F5
:10498000B0360020AC36002080B487B000AF274B93
:104990001B68002B03D0264B01221A603FE0244BFA
:1049A00000221A60234B1B68FB60FB68B3FA83F399
:1049B000FB72FB7AC3F11F037B611F497A691346BF
:1049C0009B0013449B000B441B68002B0AD14FF043
:1049D000400383F31188BFF36F8FBFF34F8F7B606A
:1049E00000BFFEE77A6913469B0013449B00124AFE
:1049F00013443B613B695B685A683B695A603B6999
:104A00005A683B6908339A4204D13B695B685A682B
:104A10003B695A603B695B68DB68084A136000BF0A
:104A20001C37BD465DF8047B704700BFC4360020CC
:104A3000B0360020A4360020C8350020C435002040
:104A400080B584B000AF786039607B68002B0AD1F4
:104A50004FF0400383F31188BFF36F8FBFF34F8F85
:104A6000FB6000BFFEE7074B1B68183319467868E8
:104A700005F05FFE0121386800F07AFB00BF1037B7
:104A8000BD4680BDC435002080B586B000AFF8605B
:104A9000B9607A60FB68002B0AD14FF0400383F3C2
:104AA0001188BFF36F8FBFF34F8F7B6100BFFEE7AD
:104AB0000A4B1B6818331946F86805F016FE7B6828
:104AC000002B02D04FF0FF33BB607968B86800F06C
:104AD0004FFB00BF1837BD4680BD00BFC435002066
:104AE00080B586B000AF78607B68DB68DB683B61CF
:104AF0003B69002B0AD14FF0400383F31188BFF3C9
:104B00006F8FBFF34F8FFB6000BFFEE73B69183329
:104B1000184605F047FE1D4B1B68002B1CD13B6956
:104B20000433184605F03EFE3B69DB6A01229A40D9
:104B3000174B1B681343164A13603B69DA6A134626
:104B40009B0013449B00134A1A443B6904331946E3
:104B5000104605F0CAFD05E03B69183319460E48BA
:104B600005F0C3FD3B69DA6A0C4B1B68DB6A9A42AD
:104B700005D901237B610A4B01221A6001E0002361
:104B80007B617B6918461837BD4680BDC43600205E
:104B9000A4360020C83500205C360020C435002033
:104BA000B036002080B483B000AF7860064B1A683E
:104BB0007B681A60054B1A687B685A6000BF0C3727
:104BC000BD465DF8047B7047B4360020A036002057
:104BD00080B588B000AF786039607B68002B0AD15F
:104BE0004FF0400383F31188BFF36F8FBFF34F8FF4
:104BF0003B6100BFFEE73B68002B0AD14FF040034A
:104C000083F31188BFF36F8FBFF34F8FFB6000BF3B
:104C1000FEE7FEF7EDFE1D4B1B68BB617B685B6822
:104C2000BA69D31A7B613B681B68B3F1FF3F02D1BD
:104C30000023FB6123E07B681A68154B1B689A42CE
:104C400007D07B685B68BA699A4202D30123FB6193
:104C500015E03B681B687A699A420BD23B681A6878
:104C60007B69D21A3B681A607868FFF79BFF0023C4
:104C7000FB6104E03B6800221A600123FB61FEF740
:104C8000E7FEFB6918462037BD4680BDA0360020F0
:104C9000B436002080B400AF034B01221A6000BF7D
:104CA000BD465DF8047B7047B036002080B582B009
:104CB00000AF786000F052F8064B1B68012BF9D961
:104CC000054B4FF080521A60BFF34F8FBFF36F8FC9
:104CD000F0E700BFC835002004ED00E080B582B0E9
:104CE00000AF00237B600CE07A6813469B001344FE
:104CF0009B00124A1344184605F0CAFC7B68013336
:104D00007B607B68042BEFD90D4805F0C1FC0D4892
:104D100005F0BEFC0C4805F0BBFC0C4805F0B8FCE7
:104D20000B4805F0B5FC0B4B054A1A600A4B054AC7
:104D30001A6000BF0837BD4680BD00BFC8350020DF
:104D40002C360020403600205C36002070360020D3
:104D500088360020543600205836002080B582B0B6
:104D600000AF19E0FEF744FE104BDB68DB687B60A8
:104D70007B680433184605F015FD0D4B1B68013B9D
:104D80000B4A13600B4B1B68013B0A4A1360FEF78A
:104D90005FFE786806F022F9064B1B68002BE1D114
:104DA00000BF00BF0837BD4680BD00BF7036002081
:104DB0009C3600208436002080B483B000AF0C4BBA
:104DC0001B681B68002B04D10A4B4FF0FF321A609E
:104DD00008E0074B1B68DB68DB687B607B685B680F
:104DE000044A136000BF0C37BD465DF8047B704772
:104DF00054360020BC36002080B483B000AF0B4B8B
:104E00001B68002B02D101237B6008E0084B1B6864
:104E1000002B02D102237B6001E000237B607B68D2
:104E200018460C37BD465DF8047B7047A836002055
:104E3000C436002080B584B000AF78607B68BB606A
:104E40000023FB607B68002B5ED0BB68DA6A314BC5
:104E50001B68DB6A9A424ED2BB689B69002B06DB5B
:104E60002C4B1B68DB6AC3F10502BB689A61BB6807
:104E70005969BB68DA6A13469B0013449B00264AB3
:104E8000134499422FD1BB680433184605F08AFCBD
:104E90000346002B0AD1BB68DB6A012202FA03F346
:104EA000DA431E4B1B6813401C4A1360194B1B68E6
:104EB000DA6ABB68DA62BB68DB6A01229A40174B88
:104EC0001B681343154A1360BB68DA6A13469B00DC
:104ED00013449B00104A1A44BB6804331946104619
:104EE00005F003FC04E00B4B1B68DA6ABB68DA626E
:104EF0000123FB6008E0BB685A6D064B1B68DB6A48
:104F00009A4201D20123FB60FB6818461037BD4668
:104F100080BD00BFC4350020C8350020A436002065
:104F200080B586B000AF78607B683B6100237B6111
:104F30007B68002B6ED03A4B1B683A699A420AD0C4
:104F40004FF0400383F31188BFF36F8FBFF34F8F90
:104F5000FB6000BFFEE73B699B6D002B0AD14FF061
:104F6000400383F31188BFF36F8FBFF34F8FBB6094
:104F700000BFFEE73B699B6D5A1E3B699A653B6922
:104F8000DA6A3B695B6D9A4244D03B699B6D002BAA
:104F900040D13B690433184605F004FC0346002B5E
:104FA00015D13B69DA6A1F4913469B0013449B00E5
:104FB0000B441B68002B0AD13B69DB6A012202FA11
:104FC00003F3DA43184B1B681340174A13603B691D
:104FD0005A6D3B69DA623B69DB6AC3F105023B69E2
:104FE0009A613B69DB6A01229A400F4B1B681343AD
:104FF0000D4A13603B69DA6A13469B0013449B0019
:10500000084A1A443B6904331946104605F06DFB03
:1050100001237B617B6918461837BD4680BD00BF00
:10502000C4350020C8350020A436002080B588B0E3
:1050300000AF786039607B68BB6101237B617B686E
:10504000002B77D0BB699B6D002B0AD14FF040033A
:1050500083F31188BFF36F8FBFF34F8FFB6000BFE7
:10506000FEE7BB695B6D3A689A4202D93B68FB6117
:1050700002E0BB695B6DFB61BB69DB6AFA699A425E
:1050800058D0BB699B6D7A699A4253D12B4B1B68F0
:10509000BA699A420AD14FF0400383F31188BFF3F3
:1050A0006F8FBFF34F8FBB6000BFFEE7BB69DB6A4A
:1050B0003B61BB69FA69DA62BB699B69002B04DB5F
:1050C000FB69C3F10502BB699A61BB6959693A6919
:1050D00013469B0013449B00194A1344994229D15B
:1050E000BB690433184605F05DFB0346002B0AD16B
:1050F000BB69DB6A012202FA03F3DA43114B1B6836
:105100001340104A1360BB69DB6A01229A400D4BC1
:105110001B6813430B4A1360BB69DA6A13469B0092
:1051200013449B00064A1A44BB69043319461046CF
:1051300005F0DBFA00BF2037BD4680BDC435002036
:10514000C8350020A436002080B400AF074B1B6890
:10515000002B04D0054B1B689A6D01329A65034BF6
:105160001B681846BD465DF8047B7047C4350020B7
:1051700080B584B000AF78603960294B1B68FB6054
:10518000284B1B680433184605F00CFB0346002B24
:105190000BD1244B1B68DB6A012202FA03F3DA43CA
:1051A000214B1B681340204A13607B68B3F1FF3F1B
:1051B0000AD13B68002B07D01A4B1B6804331946F1
:1051C0001A4805F092FA26E0FA687B681344BB603F
:1051D000144B1B68BA685A60BA68FB689A4209D2D5
:1051E000134B1A680F4B1B6804331946104605F021
:1051F000A0FA10E00F4B1A680A4B1B6804331946DB
:10520000104605F096FA0C4B1B68BA689A4202D217
:10521000094ABB68136000BF1037BD4680BD00BFA0
:10522000A0360020C4350020A43600208836002097
:105230005836002054360020BC36002080B584B09B
:1052400002AF00237B6000F0DFFA114B1B68002BDC
:105250000AD0104B0193042300930023B4220E497B
:105260000E4805F0D8FD78607B68002B0AD14FF01E
:10527000400383F31188BFF36F8FBFF34F8F3B6001
:1052800000BFFEE77B6818460837BD4680BD00BFFB
:10529000F8360020FC36002028DF0000FDAF0000BB
:1052A00080B58AB000AFF860B9607A603B600023D7
:1052B0007B62FB68002B0AD14FF0400383F3118817
:1052C000BFF36F8FBFF34F8F3B6200BFFEE71A4BF8
:1052D0001B68002B2AD0BB683B617B687B61FB6845
:1052E000BB61BB68052B18DCFFF786FD0346022B6C
:1052F00009D1114B186807F1100100233A6BFEF732
:10530000C9FC786212E00C4B186807F11001002309
:105310000022FEF7BFFC786208E0074B186807F12F
:10532000100100233A6805F0F2FA78627B6A1846A9
:105330002837BD4680BD00BFF836002080B588B054
:1053400002AF78603960224B1B68DB68DB687B61E9
:105350007B690433184605F025FA7B6993F82830F9
:1053600003F00403002B22D07B699A697B68D11873
:105370007B683A68786900F0BFF80346002B1FD0BD
:105380000023009300237A6800217869FFF788FFE3
:1053900038613B69002B13D14FF0400383F3118830
:1053A000BFF36F8FBFF34F8FFB6000BFFEE77B69DA
:1053B00093F8283023F00103DAB27B6983F82820C0
:1053C0007B691B6A7869984700BF1837BD4680BD66
:1053D000F036002080B584B000AF78603960FFF708
:1053E0006FF907F10803184600F066F8F860BB682B
:1053F000002B30D13B68002B0AD17A68FB689A42B7
:1054000006D8FFF76BF9F9687868FFF797FF24E093
:105410003B68002B08D0134B1B681B68002B01D185
:10542000012300E000233B600F4B18687A68FB689B
:10543000D31A3A68194605F0BAFCFFF74FF903464C
:10544000002B0AD1094B4FF080521A60BFF34F8FE7
:10545000BFF36F8F01E0FFF741F900BF1037BD4682
:1054600080BD00BFF4360020F836002004ED00E0D7
:1054700080B485B000AF78600E4B1B681B68002BB2
:1054800001D1012200E000227B681A607B681B6862
:10549000002B05D1074B1B68DB681B68FB6001E034
:1054A0000023FB60FB6818461437BD465DF8047B9B
:1054B000704700BFF036002080B584B000AF786040
:1054C000FFF7A8F9F8600B4B1B68FA689A4205D2FF
:1054D00000F036F97B6801221A6002E07B68002246
:1054E0001A60044AFB681360FB6818461037BD4613
:1054F00080BD00BF0037002080B586B000AFF860E7
:10550000B9607A603B6000237B61FB68BA685A60CF
:10551000FB68FA681A61BA687B689A4212D87A689E
:105520003B68D21AFB689B699A4202D301237B61D4
:105530001BE0104B1A68FB6804331946104605F04F
:10554000F8F812E07A683B689A4206D2BA683B687B
:105550009A4202D301237B6107E0074B1A68FB687C
:1055600004331946104605F0E4F87B6918461837ED
:10557000BD4680BDF4360020F036002080B58EB0E8
:1055800002AFCAE07B68002B18DA3B1D0433FB62D4
:10559000FB6A002B0AD14FF0400383F31188BFF35D
:1055A0006F8FBFF34F8FFB6100BFFEE7FB6A1B6885
:1055B000FA6A5068FA6A9268114698477B68002B2D
:1055C000C0F2AA80FB68BB62BB6A5B69002B04D097
:1055D000BB6A0433184605F0E5F83B461846FFF76A
:1055E0006BFF78627B68092B00F2978001A252F86A
:1055F00023F000BF1D5600001D5600001D56000080
:1056000091560000A5560000EF5600001D56000000
:105610001D56000091560000A5560000BB6A93F885
:10562000283043F00103DAB2BB6A83F82820BA6855
:10563000BB6A9B69D118BB687A6AB86AFFF75CFFDE
:105640000346002B69D0BB6A1B6AB86A9847BB6ADD
:1056500093F8283003F00403002B5ED0BA68BB6ACD
:105660009B691A440023009300230021B86AFFF7C6
:1056700017FE38623B6A002B4FD14FF0400383F393
:105680001188BFF36F8FBFF34F8FBB6100BFFEE781
:10569000BB6A93F8283023F00103DAB2BB6A83F8BF
:1056A00028203AE0BB6A93F8283043F00103DAB2CD
:1056B000BB6A83F82820BA68BB6A9A61BB6A9B6997
:1056C000002B0AD14FF0400383F31188BFF36F8F93
:1056D000BFF34F8F7B6100BFFEE7BB6A9A697B6AAD
:1056E000D1187B6A7A6AB86AFFF706FF15E0BB6AD1
:1056F00093F8283003F00203002B03D1B86AFDF7BA
:1057000043FF0AE0BB6A93F8283023F00103DAB2C2
:10571000BB6A83F8282000E000BF084B1B68391DD6
:1057200000221846FEF7B4FB0346002B7FF42AAF95
:1057300000BF00BF3037BD4680BD00BFF836002037
:1057400080B588B002AF48E02D4B1B68DB681B6852
:105750003B612B4B1B68DB68DB68FB60FB68043339
:10576000184605F01FF8FB681B6AF8689847FB6845
:1057700093F8283003F00403002B2ED0FB689B69BC
:105780003A691344BB60BA683B699A420ED9FB6818
:10579000BA685A60FB68FA681A61194B1A68FB68A4
:1057A00004331946104604F0C4FF16E000230093AA
:1057B00000233A690021F868FFF772FD78607B6882
:1057C000002B0AD14FF0400383F31188BFF36F8F92
:1057D000BFF34F8F3B6000BFFEE7094B1B681B68A0
:1057E000002BB1D1064B1B687B61064B1B68044A3A
:1057F0001360044A7B69136000BF1837BD4680BD43
:10580000F0360020F436002080B500AFFEF7F0F847
:10581000124B1B68002B1DD1114804F039FF1148B1
:1058200004F036FF104B0E4A1A60104B0D4A1A60F6
:10583000002210210A2004F0DFFF0346074A13600C
:10584000064B1B68002B05D0044B1B680849184603
:10585000FEF70CFDFEF7FCF800BF80BDF836002017
:10586000C8360020DC360020F0360020F436002058
:1058700030DF000080B483B000AF064B1B6A03F03A
:1058800003037B607B68DBB218460C37BD465DF8CE
:10589000047B70470000044080B487B000AF78609C
:1058A0007B687B611F4BFB607B68B3F1004F33D09B
:1058B00000233B612BE07B69002B2CD07B699BB2E2
:1058C000C3F30B037B817B89002B1AD07B897B720E
:1058D0007B891B0ADBB203F00F03DBB2013B3B7297
:1058E0007B7A1F2B07D14FF080430122DA640E4AE6
:1058F0003B7A136205E07B7A9B00FA6813443A7A9C
:105900001A607B691B0B7B613B6901333B613B691F
:10591000012BD0D900E000BF00BF1C37BD465DF8A9
:10592000047B7047800200400000044080B485B0D2
:1059300000AF03463960FB711346BB71114BFB602E
:10594000BB79002B06D0FB799B00FA6813444FF01B
:1059500000521A603B68002B07D1FB799B00FA6864
:1059600013444FF080421A6006E0FB799B00FA680E
:1059700013443A68013A1A6000BF1437BD465DF817
:10598000047B70470003004080B584B000AF7860AE
:105990007B682A4A934209D07B68294A934205D002
:1059A0007B68284A934201D0012342E0042005F09D
:1059B000A8FB4FF08043D3F800351B0E03F0010322
:1059C000FB607B681D4A934228D91F4B7868984733
:1059D0007B681C4A934211D14FF08043D3F80025D5
:1059E000FB681B0603F0807313434FF0804243F0C3
:1059F000404343F48043C2F8003519E04FF0804340
:105A0000D3F80025FB681B0603F0807313434FF0A7
:105A1000804243F04043C2F8003509E04FF0804334
:105A2000D3F800354FF0804223F08043C2F80035B0
:105A3000002318461037BD4680BD00BF001BB700CD
:105A4000006CDC0200D8B805DF91000380B582B09D
:105A500000AF00237B604FF08043D3F88832072BE0
:105A600032D801A252F823F0895A0000915A00005E
:105A7000995A0000A15A0000A95A0000B15A00002A
:105A8000B95A0000C15A000000F006F978601EE023
:105A900000F078F878601AE000F07EF8786016E0A0
:105AA00000F0AEF8786012E000F0D2F878600EE016
:105AB00000F0E6F878600AE000F0D6F8786006E0DA
:105AC00005F036FB786002E00748FAF7E5FB4FF097
:105AD0008043D3F88433DBB201337A68B2FBF3F34B
