:100000000080022061010000E9010000D9A8000081
:10001000ED010000EF010000F101000010CEFCDF57
:1000200000000000000000000000000001020000CD
:10003000F50100000000000031020000F53C000066
:10004000A5980000AD980000B5980000BD9800008C
:10005000C5980000CD980000D5980000DD980000FC
:10006000E5980000ED980000312A0000F5980000A6
:10007000FD980000059900000D99000015990000F9
:100080001D990000259900002D9900003599000068
:100090003D99000045990000B12C00004D990000E9
:1000A000559900005D990000659900006D99000068
:1000B000759900007D990000859900008D990000D8
:1000C000959900009D990000A5990000AD99000048
:1000D000B5990000BD9900007D070000C59900009A
:1000E000CD990000D5990000DD990000E599000048
:1000F000ED990000F5990000FD990000059A0000B7
:100100000D9A0000159A00001D9A0000259A000023
:100110002D9A0000359A00003D9A0000459A000093
:100120004D9A000050F0000000000020480100003F
:1001300050F00000000000040000000050F000003B
:100140000000104000000000000600209033000076
:10015000000000040000000000001040000000004B
:1001600010B572B613484FF03801016007F0D6FFA2
:100170000D4B07E003F10C049A685968186800F009
:100180001BF82346094A9342F4D306E01C465968FB
:1001900054F8080B00F01FF82346054A9342F5D3A4
:1001A00062B60BF0FDFCFEE72401000048010000F0
:1001B0006001000020020040002393420AD210B4E4
:1001C00050F8044B41F8044B04339342F8D35DF8E4
:1001D000044B70477047002303E0002240F8042BD3
:1001E00004338B42F9D37047FEE7FEE7FEE7FEE7F4
:1001F000FEE7FEE7FEE7FEE7FEE7FEE7FFFFFFFFA5
:10020000074B19680868B0E8F04F80F30988BFF31E
:100210006F8F4FF0000080F311887047AFF30080BC
:100220004436002000BF00BFFFFFFFFFFFFFFFFFBE
:10023000EFF30980BFF36F8F154B1A681EF0100F94
:1002400008BF20ED108A20E9F04F10602DE9090069
:100250004FF0400080F31188BFF34F8FBFF36F8FD3
:1002600004F0D2FC4FF0000080F3118809BC19683B
:100270000868B0E8F04F1EF0100F08BFB0EC108A0D
:1002800080F30988BFF36F8F704700BFAFF3008022
:100290004436002000BF00BF80B582B000AF786058
:1002A0007968024808F092FF00BEFDE74CC20000EA
:1002B00080B582B002AF00F04FF8214B5B69204A55
:1002C00043F0806353611F4BD3F888311D4A23F0FC
:1002D0000F03C2F888311B4BD3F88831194A43F019
:1002E0000403C2F88831184B03F50053DB68164A43
:1002F00043F0040302F50052D360144B1B681B68E3
:100300006FF0DB0202FB03F303F5860303F50E53E4
:100310000B4AC2F88030002301930123009300238D
:10032000BE220B490B480AF0B7FE0346012B04D04E
:1003300004220221044809F09DFB00BFBD4680BD98
:10034000009000400010004000C008400000002065
:1003500068C200009103000080B582B002AF094975
:10036000094806F0A9F800230093084B074A022128
:10037000054806F0DBF8044809F06CFB00BFBD46F9
:1003800080BD00BF60C20000009000408023430099
:1003900080B582B000AF78601B4B1B681B686FF0A4
:1003A000DB0202FB03F303F5860303F50E53174A42
:1003B000C2F880304FF4FA7004F0A6F9144B1B68B1
:1003C0001B686FF0DB0202FB03F303F5860303F502
:1003D0000E530E4AC2F880304FF4487004F094F97E
:1003E0000C4B1B681B686FF0DB0202FB03F303F589
:1003F000860303F50E53054AC2F88030002004F04E
:10040000B9F900BFC8E700BF040000200090004019
:10041000080000200000002080B500AF00F042F886
:100420001E4B1B6E1D4A23F00F0313661B4B1B6EE6
:100430001A4A43F003031366184B1B6E174A43F026
:1004400020031366164B03F500531B68144A23F46C
:10045000FF5323F01F0302F5005213600F4B5B6E36
:100460000E4A23F00F0353660C4B5B6E0B4A43F0AE
:1004700003035366094B5B6E084A43F0200353663F
:10048000074B03F500531B68054A23F4FF5323F081
:100490001F0302F50052136000BF80BD0010004032
:1004A00000C0084080B500AF0C490D4806F004F8C4
:1004B00001220C490A4806F0EBF801230122002131
:1004C000074806F095F8012301220121044806F0AF
:1004D0008FF8034809F0EDFA00BF80BD74C2000038
:1004E000008002400C00002080B582B000AF786030
:1004F000144809F0D2FA0246134B1B68D31A134A68
:100500001360134B1B781946104B1B68114A42F8B5
:1005100021300C4809F0C1FA03460B4A13600C4B1A
:100520001B78642B06D80A4B1B780133DAB2084BD0
:100530001A7002E0064B00221A7000BF0837BD4651
:1005400080BD00BF00800240E0070020E4070020DB
:1005500088390020F007002080B582B000AF7860B5
:10056000144809F09AFA0246134B1B68D31A134A2F
:100570001360134B1B781946124B1B68124A42F842
:1005800021300C4809F089FA03460B4A13600C4BE2
:100590001B78642B06D80A4B1B780133DAB2084B60
:1005A0001A7002E0064B00221A7000BF0837BD46E1
:1005B00080BD00BF00800240E8070020EC0700205B
:1005C00089390020E40700208009002080B483B02E
:1005D00000AF0346FB7197F90730002B0BDBFB796B
:1005E00003F01F02074997F907305B09012000FA61
:1005F00002F241F8232000BF0C37BD465DF8047BB2
:10060000704700BF00E100E080B483B000AF034654
:10061000FB7197F90730002B12DBFB7903F01F0207
:100620000A4997F907305B09012000FA02F22033EA
:1006300041F82320BFF34F8F00BFBFF36F8F00BF80
:1006400000BF0C37BD465DF8047B704700E100E059
:1006500080B483B000AF03463960FB7197F907306F
:10066000002B0ADB3B68DAB20C4997F907305201DC
:10067000D2B20B4483F800230AE03B68DAB208499F
:10068000FB7903F00F03043B5201D2B20B441A76FC
:1006900000BF0C37BD465DF8047B704700E100E009
:1006A00000ED00E0B0B500AF134809F0ADFA134813
:1006B00009F08CFA1249134807F0ECFC01211148AB
:1006C00009F068FA104B1B68104AA2FB03239B0930
:1006D00000221C46154622462B460A480BF0F6F926
:1006E00000212620FFF7B4FF262009F0F2F9054883
:1006F00009F040FA00BFB0BD100B0020240B002011
:100700007CC2000000D0024040010020D34D6210A6
:1007100080B582B000AF00237B60262009F0EFF99E
:100720000346002B09D1074809F0C3FA034603F03A
:1007300003037B60262009F0CCF97B681846083754
:10074000BD4680BD100B002080B582B000AF0023F5
:100750007B60262009F0D3F90346002B06D106481A
:1007600009F041FA7860262009F0B3F97B68184651
:100770000837BD4680BD00BF240B002098B500AFF0
:10078000142203211E4809F0D0F90346DCB21622D8
:1007900003211B4809F0C9F90346DBB21A4621467A
:1007A000184800F037F8184B1B78092B18D9152278
:1007B0000321134809F0B9F9034603F001041E228E
:1007C00003210F4809F0B1F903465B0003F002036F
:1007D000234319460D4809F02CFA0B4B00221A70DE
:1007E000094B1B780133DAB2074B1A700121084814
:1007F00009F0AFF9BFF34F8F00BF00BF98BD00BF36
:1008000000C00840240B00208A390020100B002073
:1008100000D0024080B483B000AF78600B46FB701C
:100820001346BB707B681B78DBB29B00DBB203F026
:100830000F03DAB27B681A70FB78002B07D07B6855
:100840001B78DBB243F00203DAB27B681A70BB7824
:10085000002B07D07B681B78DBB243F00103DAB2D0
:100860007B681A707B681B78DBB21A46144B99566A
:100870007B685B785BB2DAB2CBB21344DBB25AB2BC
:100880007B685A707B681B78DBB203F00A030A2B83
:100890000FD17B685B785BB2002B0AD07B685B78FA
:1008A0005AB27B685B681A447B685A607B68002296
:1008B0005A7000BF0C37BD465DF8047B704700BF1F
:1008C00080C2000080B582B000AF0346FB710B46CA
:1008D000BB7113467B713F4B1B68002B04D03D4B13
:1008E0001B68184609F014FA3B4B1B78012B02D009
:1008F000022B2FD060E0BB79002B04D0364B0222B4
:100900001A7000F0ABFB334B1B68002B51D0FB7906
:10091000002B04D02F4B1B68184609F00DFB97F9EC
:100920000530002B06DA2B4B1B680121184609F015
:10093000D8FB09E097F90530002B05DD254B1B6836
:100940000121184609F06BFB224B1B68184609F081
:100950003DFC2EE0BB79002B04D01F4B01221A7006
:1009600009F091FA1B4B1B68002B24D0FB79002B5C
:1009700004D0184B1B68184609F0DEFA97F90530C9
:10098000002B06DA134B1B680121184609F0A9FB5E
:1009900009E097F90530002B05DD0E4B1B6801219E
:1009A000184609F03CFB0B4B1B68184609F00EFC7F
:1009B00001E000BF00E000BF064B1B68002B04D025
:1009C000044B1B68184609F0B2F900BF0837BD4652
:1009D00080BD00BF2C0B00208B39002080B58AB071
:1009E00002AF78601423BB6104F052F80346BB6089
:1009F0000023FB6101F096FE3C4809F0F7FB3C4800
:100A000009F0F4FB3B4809F0F1FB3B4809F0EEFB31
:100A10003A4809F0EBFB3A4809F0E8FB394809F09D
:100A2000E5FB394809F0E2FB384809F0DFFB3848BC
:100A300009F0DCFB374809F0D9FB374809F04AF9DF
:100A4000364B012201925A6800921B680022002155
:100A5000314809F0C0FD304809F04BF9642003F03B
:100A600053FE2D4809F036F92D4B012201925A68A8
:100A700000921B6800220021274809F0ACFD26489F
:100A800009F037F9642003F03FFE264B01221A706B
:100A900000F00EFE00F002FDFFF704FEFFF738FE47
:100AA00078617B69DBB203F00103FB747B695B084F
:100AB000DBB203F00103BB74FFF746FEF860FB688E
:100AC0005AB2B97CFB7C1846FFF7FCFEFB695A1C46
:100AD000FA61192B03D80023FB6100F019FD07F11F
:100AE0000803B969184603F08FFDD7E7F40000202A
:100AF0002C0000204000002054000020680000204E
:100B00007C00002090000020A4000020B8000020FD
:100B1000CC000020E0000020C40B002090C60000A4
:100B200098CA00008B39002080B58AB004AF786085
:100B30000023FB757B685B7A03F00203DBB2002BBA
:100B400000F03E827B4809F015F90023029301234F
:100B500001933F2300937F230D220021754809F064
:100B600019FC754B012201925A6800921B683922C8
:100B70000021704809F02FFD704B012201925A6844
:100B800000921B68132205216A4809F024FD6B4B73
:100B9000012201925A6800921B68132223216548A2
:100BA00009F019FD654B012201925A6800921B68F9
:100BB000132242215F4809F00EFD604B0122019291
:100BC0005A6800921B68132260215A4809F003FDFD
:100BD0007B681B7A022B0BD1594B012201925A6878
:100BE00000921B6839222821524809F0F4FC4DE09C
:100BF0007B681B7A002B0CD1012302930123019304
:100C00002C2300931E23142206214A4809F0C2FB1C
:100C100031E07B681B7A012B0CD101230293012365
:100C200001932C2300933C2314222421414809F0F2
:100C3000B1FB20E07B681B7A032B0CD101230293CC
:100C4000012301932C2300935B2314224321394871
:100C500009F0A0FB0FE07B681B7A042B0BD101236A
:100C60000293012301932C23009379231422612101
:100C7000304809F08FFB334B012201925A680092F1
:100C80001B68392228212B4809F0A5FC7B685B688A
:100C90003B613B695B691B68092B16D83B695B6943
:100CA0001A68294B83FB02139910D317C91A0B46F4
:100CB0009B000B445B00D11ACBB23033DBB23B72EA
:100CC00000237B720123FB758CE03B695B691B6829
:100CD000632B3BD83B695B691B681B4A82FB031291
:100CE0009210DB17D21A184B83FB02139910D317FB
:100CF000C91A0B469B000B445B00D11ACBB23033B0
:100D0000DBB23B723B695B691A680F4B83FB0213D2
:100D10009910D317C91A0B469B000B445B00D11ADC
:100D2000CBB23033DBB27B720023BB720223FB7584
:100D300058E000BFC40B0020A0D400007CD6000007
:100D4000B4D60000ECD60000676666663B695B6956
:100D50001B68B3F57A7F45D23B695B691B689A4A89
:100D600082FB03125211DB17D21A984B83FB02133A
:100D70009910D317C91A0B469B000B445B00D11A7C
:100D8000CBB23033DBB23B723B695B691B688F4A85
:100D900082FB03129210DB17D21A8C4B83FB0213D7
:100DA0009910D317C91A0B469B000B445B00D11A4C
:100DB000CBB23033DBB27B723B695B691A68834B21
:100DC00083FB02139910D317C91A0B469B000B44DF
:100DD0005B00D11ACBB23033DBB2BB720023FB72A3
:100DE0000323FB757B681B7A002B14BF01230023B0
:100DF000DBB21A46764B01925A6800921B681622A3
:100E00000821744809F0E7FBFB7DC3F10303DBB263
:100E10005B00DBB20D33DBB21E2219466D4808F0D1
:100E200095FF7B681B7A002B14BF01230023DBB2E4
:100E30001A46694B07F108010192012200920CCB7E
:100E4000644809F0A8FB7B685B6828333B613B6919
:100E50005B691B6803F00103002B12D07B681B7ACF
:100E6000012B14BF01230023DBB21A465B4B019216
:100E70005A6800921B6816222621564809F0ABFBDF
:100E800011E07B681B7A012B14BF01230023DBB226
:100E90001A46534B01925A6800921B68162226216B
:100EA0004C4809F098FB7B685B6878333B613B6991
:100EB0005B691B6803F00103002B12D07B681B7A6F
:100EC000032B14BF01230023DBB21A46454B0192CA
:100ED0005A6800921B68162245213E4809F07BFBA8
:100EE00011E07B681B7A032B14BF01230023DBB2C4
:100EF0001A463D4B01925A6800921B681622452102
:100F0000344809F068FB7B685B68A0333B613B6950
:100F10005B691968354BA3FB01235A0813465B0034
:100F20001344CA1A1346FB73FB7B022B2CD0022BF3
:100F30003DDC002B02D0012B13D038E07B681B7AFC
:100F4000042B14BF01230023DBB21A46284B019265
:100F50005A6800921B68162263211E4809F03BFB69
:100F600025E07B681B7A042B14BF01230023DBB22E
:100F70001A46204B01925A6800921B681622632180
:100F8000144809F028FB12E07B681B7A042B14BF7D
:100F900001230023DBB21A46174B01925A680092D4
:100FA0001B68162263210B4809F015FB00BF094896
:100FB00008F0EFFE7A68537A6FF34103537200E052
:100FC00000BF1837BD4680BD1F85EB51676666665A
:100FD00018D40000C40B002040D3000088D30000C8
:100FE000E8D4000030D50000D0D30000ABAAAAAAF4
:100FF00078D50000C0D5000008D6000080B483B0CA
:1010000000AF786039607B68134AA2FB0323D908DC
:10101000114BA3FB0123DA0813469B0013445B002A
:10102000CA1AD3B23033DAB23B681A7079680A4B05
:10103000A3FB0123DA0813469B0013445B00CA1A82
:10104000D2B23B6801333032D2B21A7000BF0C37D3
:10105000BD465DF8047B7047CDCCCCCC80B500AFED
:101060000849094808F0F4FE064B02221A720749A3
:10107000054808F0EDFE044B1B68184608F045FFD4
:1010800000BF80BDF40000202C0B00202C000020AD
:1010900080B500AF0549064808F0DAFE044B1B682E
:1010A000184608F032FF00BF80BD00BF400000209E
:1010B0002C0B002080B500AF0549064808F0C8FE9B
:1010C000044B1B68184608F020FF00BF80BD00BF1E
:1010D000540000202C0B002080B586B004AF0346DE
:1010E000FB71214808F078FE00230293012301934D
:1010F0003F2300937F230D2200211B4809F04AF96A
:1011000012220821184808F053FE184B01220192C0
:10111000002200920CCB1649134809F03CFA222217
:101120000B21114808F044FE104B012201920022CD
:1011300000920CCB0F490C4809F02DFA32221D21E8
:10114000094808F035FE094B012201920022009265
:101150000CCB0949044809F01EFA034808F04BFE7D
:1011600000BF0837BD4680BDC40B002024DB000053
:10117000B0DD0000C4DD0000D0DD000080B500AFB0
:101180000549064808F064FE044B1B68184608F041
:10119000BCFE00BF80BD00BF900000202C0B0020D3
:1011A00080B500AF0549064808F052FE044B1B68A5
:1011B000184608F0AAFE00BF80BD00BFA4000020B2
:1011C0002C0B002080B500AF0549064808F040FE12
:1011D000044B1B68184608F098FE00BF80BD00BF96
:1011E000B80000202C0B002080B500AF0549064850
:1011F00008F02EFE044B1B68184608F086FE00BF60
:1012000080BD00BFCC0000202C0B002080B500AFBB
:101210000549064808F01CFE044B1B68184608F0F8
:1012200074FE00BF80BD00BFE00000202C0B00203A
:1012300080B500AF0549064808F00AFE044B1B685C
:10124000184608F062FE00BF80BD00BF68000020A5
:101250002C0B002080B500AF0549064808F0F8FDCA
:10126000044B1B68184608F050FE00BF80BD00BF4D
:101270007C0000202C0B002090B58DB004AF0346FD
:10128000FB710023FB770023BB77754B07F10C0440
:101290000FCB07C423800023BB76724B9B6F724A2F
:1012A000A2FB03235A0C07F10C030D336F491846B8
:1012B00007F022FF6E4808F08FFD00230293012300
:1012C00001933F2300937F230D220021684809F0FA
:1012D00061F80023FB775CE0FB7F664AD35CDBB2FE
:1012E000654AA2FB03239B08DBB2C3F14003BB7733
:1012F000BA7FF97F01235E4808F0F1FFFB7F5F4A68
:10130000D35CDBB2012B0BD1FB7FF97F0122029270
:1013100001220192122200920D22554809F03AF85A
:10132000FB7F574AD35CDBB2012B0BD1FB7FF97FEC
:1013300001220292012201921E2200920D224C48AB
:1013400009F028F8FB7F4D4AD35CDBB2022B0BD1AE
:10135000FB7FF97F01220292012201921222009268
:101360000D22434809F016F8FB7F454AD35CDBB2F7
:10137000022B0BD1FB7FF97F012202920122019205
:101380001E2200920D223A4809F004F8FB7F013337
:10139000FB7797F91F30002B9EDA3A4B1B78D9B2B6
:1013A000384B1B78DBB201220292012201923F22CC
:1013B00000920D222E4808F0EDFF324B1B78DBB275
:1013C0000133DBB232221946294808F0F1FC2E4BDA
:1013D00001220192002200920CCB2C49244809F0F2
:1013E000DAF82B4B1B78D9B2294B1B78DBB20122E0
:1013F0000292012201923F2200920D221C4808F025
:10140000C9FF234B1B78DBB2073BDBB23222194604
:10141000174808F0CDFC1C4B0122019200220092DB
:101420000CCB1C49124809F0B6F8114808F0E3FC4F
:10143000194B5B6D002B0FD0122200210C4808F0D5
:10144000B7FC114B07F10C0101220192002200921E
:101450000CCB074809F09FF800BF2437BD4690BD6C
:10146000E0DD00000080004041288598DCDD0000C0
:10147000C40B0020E00B0020CDCCCCCC600C0020B5
:10148000E00C00208C39002024DB00008CEB0000F5
:101490008D390020B0DE0000600D002080B584B0E2
:1014A00004AF174808F098FC00230293012301932E
:1014B000382300937F230D220021114808F06AFF92
:1014C0000021104808F0C4FC0F4B012201925A6819
:1014D00000921B6812222721094809F07CF80B4B67
:1014E000012201925A6800921B68392200210448A7
:1014F00009F071F8024808F07EFC00BFBD4680BDCF
:10150000C40B00202C0B0020A8DD0000D8DC00005C
:1015100080B586B002AF03F0BBFA03465E4AA2FB79
:1015200003239B09FB60FB685C4AA2FB0323D90AE7
:101530005B4BA3FB0123DA0813469B0013445B00BB
:10154000CA1AD3B23033DBB23B71FB68554AA2FBF7
:1015500003235909534BA3FB01235A0913461B01CB
:101560009B1A9B00CA1A3B1D013319461046FFF710
:1015700045FDF9684B4BA3FB01235A0913461B0198
:101580009B1A9B00CA1A3B1D033319461046FFF7EE
:1015900035FD454808F020FC00220821424808F0AB
:1015A00007FC3979414B01220192012200920CCBB8
:1015B0003D4808F02FFF00220E213B4808F0F8FBC1
:1015C00079793A4B01220192012200920CCB3648E4
:1015D00008F020FF00221221334808F0E9FBB97916
:1015E000324B01220192012200920CCB2E4808F0CE
:1015F00011FF002218212C4808F0DAFBF9792B4B57
:1016000001220192012200920CCB274808F002FF30
:1016100000221C21244808F0CBFB397A234B0122FD
:101620000192012200920CCB1F4808F0F3FE002229
:1016300061211D4808F0BCFB1C4B012201920122D4
:1016400000920CCB2D21184808F0E4FE0022652101
:10165000154808F0ADFB154B0122019201220092C2
:101660000CCB2D21104808F0D5FE00226D210E482C
:1016700008F09EFB0D4B01220192012200920CCB3F
:101680002D21094808F0C6FE074808F0B4FB00BF4A
:101690001037BD4680BD00BFD34D6210C5B3A291C7
:1016A000CDCCCCCC89888888C40B0020DCD8000045
:1016B00080B584B004AF6D4808F08EFB0023029320
:1016C000012301933F2300937F23002200216748D9
:1016D00008F060FE664B012201925A6800921B6876
:1016E00000220021614808F076FF624B012201923E
:1016F0005A6800921B68002200215C4808F06BFFCA
:10170000012301220C21594808F0E9FD012303229D
:101710000C21564808F0E3FD01230122162153480D
:1017200008F0DDFD012303221621504808F0D7FD03
:10173000002208214D4808F03BFB4F4B012201924B
:10174000012200920CCB3021484808F063FE0022B1
:101750000E21464808F02CFB474B01220192012242
:1017600000920CCB3021414808F054FE0022122197
:101770003E4808F01DFB404B0122019201220092DD
:101780000CCB3021394808F045FE0022182137489B
:1017900008F00EFB384B01220192012200920CCB83
:1017A0003021324808F036FE00221C212F4808F074
:1017B000FFFA314B01220192012200920CCB302121
:1017C0002A4808F027FE2D4B012201925A68009208
:1017D0001B6801227621254808F0FDFE0123042222
:1017E0006A21224808F07BFD002271211F4808F081
:1017F000DFFA214B01220192002200920CCB5621EC
:101800001A4808F007FE00226121184808F0D0FAB3
:10181000194B01220192012200920CCB2D21134879
:1018200008F0F8FD00226521104808F0C1FA124BBB
:1018300001220192012200920CCB2D210B4808F0CD
:10184000E9FD00226D21094808F0B2FA0A4B012295
:101850000192012200920CCB2D21044808F0DAFD00
:10186000024808F0C8FA00BFBD4680BDC40B002086
:101870002CDC00003CDC0000DCD8000050DC000068
:1018800080B582B002AF00F065F82C4B5B692B4A43
:1018900043F0807353612A4BD3F8A831284A23F0D0
:1018A0000F03C2F8A831264BD3F8A831244A43F0DD
:1018B0000303C2F8A831234B03F50053DB68214A28
:1018C00043F4806302F50052D3601C4B1E4A9A67B2
:1018D0001A4B5B69194A43F080635361184BDB6E06
:1018E000174A23F00F03D366154BDB6E144A43F0FF
:1018F0000303D366134B03F500531B68114A43F0EF
:10190000006302F5005213600C4B0F4AC3F88020AD
:1019100000230193012300930023BE220B490C48AE
:1019200009F0BAFB0346012B04D00422022105482A
:1019300008F0C1FA00BFBD4680BD00BF0080044072
:101940000010004000C0084020C83F00F8DD000043
:101950009D19000080B582B002AF0D490D4804F01A
:10196000ABFD002300930C4B0B4A0021094804F007
:10197000DDFD00230093084B074A0221054804F0CF
:10198000D5FD044808F087FA00BFBD4680BD00BF02
:10199000F0DD0000008004408023430080B582B069
:1019A00000AF7860124B134A9A67114B114AC3F883
:1019B00080204FF4FA6002F0A7FE0D4B0E4A9A67A2
:1019C0000B4B0D4AC3F880204FF4FA6002F09CFEE6
:1019D000074B084A9A67064B064AC3F8802040F630
:1019E000AC5002F091FE002002F0C4FE00BFD9E727
:1019F0000080044020C83F00701A3E0080B586B0C9
:101A000000AF0346FB710120FFF736FC834B3B61BF
:101A10000023FB81FB79022B29D1814B1B681B68BA
:101A20006FF0DB0202FB03F303F5860303F50E53AD
:101A30007C4A93677C4B1B681B686FF0DB0202FBE0
:101A400003F303F5860303F50E53764AC2F880309C
:101A5000764B1B681B686FF0DB0202FB03F303F598
:101A6000860303F50E53724AC2F88030D2E0714B00
:101A70001B681B689AB2704B1B6819686D4B1B681A
:101A80001B68CB1A6D49096801FB03F36C4981FBA4
:101A900003014911DB17CB1A9BB213449BB2BB81E4
:101AA000B7F90C306FF0DB0202FB03F303F586039A
:101AB00003F50E535B4A9367B7F90C306FF0DB0206
:101AC00002FB03F303F5860303F50E53554AC2F8F0
:101AD00080305C4B1B78DBB21A465B4B1B78DBB269
:101AE0001344DA0F13445B10FB81B7F90E3018462C
:101AF0000AF034FB4FF00002544B07F0ADFC0246F5
:101B00000B46104619464FF00002514B07F022FDDC
:101B100002460B461046194607F092FE03463B610B
:101B20004C4B93F9003007EE903AF8EEE77A97EDD8
:101B3000047A67EE277AC7ED047AD7ED047A9FED31
:101B4000467AF4EEC77AF1EE10FA01DB434B3B61C3
:101B5000D7ED047A9FED427AF4EEC77AF1EE10FAEF
:101B600001D8404B3B61D7ED047AF5EEC07AF1EE37
:101B700010FA21D82D4B1B681B6807EE903AB8EE7F
:101B8000E77A2A4B1B681A68374B1B681B68D31A05
:101B900007EE903AF8EEE76AD7ED047A66EEA76AA8
:101BA0009FED2D6AC6EE867A77EE277AFDEEE77A0C
:101BB00017EE903AFB8220E01C4B1B681B6807EE77
:101BC000903AB8EEE77A294B1B681A68174B1B68E6
:101BD0001B68D31A07EE903AF8EEE76AD7ED047A5D
:101BE00066EEA76A9FED1C6AC6EE867A77EE277AC4
:101BF000FDEEE77A17EE903AFB82B7F916306FF0F8
:101C0000DB0202FB03F303F5860303F50E53084AD8
:101C1000C2F880301837BD4680BD00BF0000F041DB
:101C20001801002000800440240100200C01002045
:101C3000009000401C01002020010020080100202D
:101C40001F85EB518C3900208D3900200000F93FB1
:101C500000005940440100200000C8420000C84272
:101C60000000C8C20000C8C21001002014010020FA
:101C700080B58CB004AF78607B685B7A03F00203B8
:101C8000DBB2002B00F036837B685B7A03F0010344
:101C9000DBB2002B10D07B685A687B681B7A194630
:101CA0000B469B000B44DB0013449B7C032B03D1AE
:101CB000786808F074FA1EE37B681A7A7B681B78F0
:101CC0009A4202D37B6800221A727B681B7AAF4A61
:101CD000A2FB03239B08BB767B681A7AAB4BA3FB62
:101CE000021399080B469B000B44D31A7B767B6842
:101CF0001B78A64AA2FB03239B08DBB2BA7E9A425A
:101D00000BD17B681A78A14BA3FB021399080B46F1
:101D10009B000B44D31ADBB200E005233B767868C6
:101D200000F0BAFC00230293012301933F230093A8
:101D30007F230D220021786800F06CFC0023FB76E5
:101D40006DE2FB7E1A46920013445B00DBB2123355
:101D5000D8B2FB7E1A46920013445B00DBB2133309
:101D6000DBB2F97E7A7E91420CBF01220022D2B210
:101D7000029201220192009300230246002178681A
:101D800000F048FCFB7E1A46920013445B00DBB275
:101D90001133D8B2FB7E1A46920013445B00DBB2CB
:101DA0001433DBB2F97E7A7E91420CBF012200220D
:101DB000D2B2029201220192009301230246012134
:101DC000786800F027FCFB7E1A46920013445B0003
:101DD000DBB21033D8B2FB7E1A46920013445B008C
:101DE000DBB21533DBB2F97E7A7E91420CBF012261
:101DF0000022D2B2029201220192009302230246F3
:101E00000221786800F006FCFB7E1A46920013441B
:101E10005B00DBB20F33D8B2FB7E1A46920013444C
:101E20005B00DBB21633DBB2F97E7A7E91420CBFE7
:101E300001220022D2B202920122019200930323D6
:101E400002460321786800F0E5FBFB7E1A4692000B
:101E500013445B00DBB20E33D8B2FB7E1A4692000D
:101E600013445B00DBB21733DBB2F97E7A7E91421A
:101E70000CBF01220022D2B20292012201920093F1
:101E80007A2302460421786800F0C4FBFA7E3B7E88
:101E90009A4280F0C1817B685968BA7E13469B00E4
:101EA0001A44FB7E13441A4613469B001344DB007E
:101EB0000B443B61FB7E1A46920013445B00DBB28D
:101EC0000F33D9B23869FA7E7B7E9A4214BF012360
:101ED0000023DBB2009303460A460521786800F030
:101EE000B9FB3B699B7C022B40F0EA807B685B7A04
:101EF00003F00103DBB2002B19D0FB7E1A469200DF
:101F000013445B00DBB20E33DAB2FB7E1946890064
:101F10000B445B00DBB21733DBB2002102910121DD
:101F20000191009378235421786800F073FB3B699A
:101F30005B691B68FB61FB6942F20F72934205DD2E
:101F40003E233B7242F20F73FB6114E0FB69104ABF
:101F5000934205DA3C233B7242F20F73FB610AE0C5
:101F6000FB69002B05DA2D233B72FB695B42FB61A9
:101F700001E020233B723B7A3C2B0BD1FB6942F200
:101F80000F72934206D12D237B7215E0CDCCCCCCC1
:101F9000F1D8FFFFFB69474A82FB03129211DB175E
:101FA000D31AFB81FB89002B04D0FB89DBB23033D1
:101FB000DBB200E020237B72FB693F4A82FB031205
:101FC0005211DB17D21A3D4B83FB02139910D31722
:101FD000C91A0B469B000B445B00D11A0B46FB81D0
:101FE000FB89002B04D0FB89DBB23033DBB205E088
:101FF000FB69632B01DC202300E03023BB72FB690B
:102000002E4A82FB03129210DB17D21A2B4B83FB52
:1020100002139910D317C91A0B469B000B445B009F
:10202000D11A0B46FB81FB89002B04D0FB89DBB264
:102030003033DBB205E0FB69632B01DC202300E0D9
:102040003023FB72FA691D4B83FB02139910D317DF
:10205000C91A0B469B000B445B00D11A0B46FB814F
:10206000FB89DBB23033DBB23B7300237B73FB7E37
:102070001A46920013445B00DBB20F33D9B2FA7EEA
:102080007B7E9A4206D17B685B7A03F00103DBB268
:10209000002B01D0012300E0002303F00103DBB299
:1020A00007F10802009313460A465521786800F0AC
:1020B000D1FAB1E0D34D62101F85EB5167666666B9
:1020C0003B699B7C012B40F0A780FA7E7B7E9A4285
:1020D00019D1FB7E1A46920013445B00DBB20E332B
:1020E000DAB2FB7E194689000B445B00DBB2173382
:1020F000DBB200210291012101910093792370212B
:10210000786800F087FAFB7E1A46920013445B0061
:10211000DBB20F33DAB2FB7E194689000B445B0059
:10212000DBB21633DBB20121029100210191009351
:1021300078237121786800F06DFA3B695B691B6850
:1021400003F00103002B67D0FB7E1A469200134474
:102150005B00DBB21133DAB201237321786800F03F
:102160003FFAFB7E1A46920013445B00DBB2123347
:10217000DAB201237421786800F032FAFB7E1A4645
:10218000920013445B00DBB21333DAB201237521F2
:10219000786800F025FAFB7E1A46920013445B0033
:1021A000DBB21433DAB201237621786800F018FA32
:1021B000FB7E1A46920013445B00DBB21433DAB2A2
:1021C00001237321786800F00BFAFB7E1A46920017
:1021D00013445B00DBB21333DAB201237421786855
:1021E00000F0FEF9FB7E1A46920013445B00DBB25E
:1021F0001233DAB201237521786800F0F1F9FB7E21
:102200001A46920013445B00DBB21133DAB20123A9
:102210007621786800F0E4F9FB7E0133FB76FB7EE3
:10222000042B7FF68EAD7B681B781A462D2393FB1B
:10223000F2F3FB7501230293002301930E23009315
:102240007F230E227D21786800F0E4F97B681B78FB
:10225000FA7D12FB03F3DBB21233D9B27B681B7831
:10226000FA7D12FB03F3DBB21233DBB201220292DE
:102270000022019200937F230A467D21786800F0B6
:10228000C9F97B681B78FA7D12FB03F3DBB21033CC
:10229000DBB2002202920122019200937F231022DE
:1022A0007D21786800F0B6F97B681B7AFA7D12FB15
:1022B00003F3DBB21033D9B27B681B7A0133DBB294
:1022C000FA7D12FB03F3DBB21033DBB20122029280
:1022D0000122019200937F230A467D21786800F055
:1022E00099F9786800F0E6F97A68537A6FF3410358
:1022F000537200E000BF2037BD4680BD80B582B07C
:1023000000AF786039603B681D2B02D91048FDF79B
:10231000C3FF7B6803F120023B68DBB25B09DBB2E1
:102320009B00134419683B68DBB203F01F030122D2
:102330009A407B6803F120003B68DBB25B09DBB2AB
:102340009B0003440A431A6000BF0837BD4680BDA6
:1023500008DE000080B586B002AFF860B9607A6030
:102360003B60FB68BA681A60FB687A681A65FB68AC
:102370003A685A6503220021012008F077FB0246E3
:10238000FB689A66012008F0E5FB0246FB68DA6606
:10239000FB681B6D184604F04DFBFB68583318466C
:1023A00005F05CFAFB68BA69DA65FB681868FB68D7
:1023B0005833FA69194609F04BFA4FF0804300226E
:1023C000C3F8B822FB681A6DFB685B6D19461046AE
:1023D000FFF794FFFB6803F14000FB68196DFB6891
:1023E0005B6D1A4604F024FDFB681868FB68191D34
:1023F000FB6840330093FB68034A05F0E9FC00BF2B
:102400001037BD4680BD00BF0D24000080B586B0EA
:1024100000AFF860B9607A603B603B687B617B69C4
:102420007A685A667B699B6E07F11002114618465E
:1024300008F046FC3B69002B07D0064B4FF080525A
:102440001A60BFF34F8FBFF36F8F00BF1837BD46C1
:1024500080BD00BF04ED00E080B582B000AF7860C1
:102460001E23164A0021786800F08AF87B689A1DBE
:1024700001230021786800F083F87B68DA1D0123CE
:102480000021786800F07CF87B6803F108020123E2
:102490000021786800F074F80021786807F0FDFEEC
:1024A000786808F027F90123054A0021786800F0D0
:1024B00067F800BF0837BD4680BD00BF88DE00005A
:1024C000A6DE000080B584B002AF786008461146F1
:1024D0001A460346FB700B46BB7013467B707B6845
:1024E000FA781A707B68BA785A707B687A789A7032
:1024F000BB787A7802FB03F3DB109AB27B689A8090
:102500007B68A022DA717B68C0229A717B68A62260
:102510001A727B6800229A727B680022DA727B68EA
:102520003A69DA60012008F015FB02467B689A617F
:102530007B689B69002B01D100BFFDE77B689A692E
:102540007B681A617B6800221A757B681846FFF762
:1025500083FF00230193042300937B68BE22064976
:10256000064808F099FD0346012B01D000BFFDE7A6
:1025700000BF0837BD4680BDA8DE00005FA7000091
:1025800080B584B000AFF8607A603B600B46FB72A8
:10259000FB681A78104B1A710F4B00225A71FB7AA4
:1025A000002B01D1002300E040230B4A93600A4B2B
:1025B0000122DA60084A7B681361074A3B6853616D
:1025C000054B00221A600449044807F02BFE00BFA7
:1025D0001037BD4680BD00BF3C0B0020540B0020CF
:1025E00080B582B000AF7860084611461A460346AF
:1025F000FB700B46BB7013467B707B78BA78F9781A
:10260000034807F06CFE00BF0837BD4680BD00BF21
:10261000C40B002080B586B004AF78600846114630
:102620001A460346FB700B46BB7013467B703B7E1D
:102630007878BA78F97802933B7D01933B7C0093DC
:102640000346034807F0A6FE00BF0837BD4680BD1D
:10265000C40B002080B586B002AFF8607B600B46EB
:10266000FB721346BB72BA7AFB7A1946084808F027
:1026700094F83B7E074A0193002300930CCA7968C3
:10268000034807F088FF00BF1037BD4680BD00BF7C
:10269000C40B0020F4E0000080B582B000AF786089
:1026A000034808F08EF800BF0837BD4680BD00BF64
:1026B000C40B002080B582B000AF7860034808F0FA
:1026C0008FF800BF0837BD4680BD00BFC40B002097
:1026D00080B483B000AF03463960FB7197F90730CF
:1026E000002B0ADB3B68DAB20C4997F9073052013C
:1026F000D2B20B4483F800230AE03B68DAB20849FF
:10270000FB7903F00F03043B5201D2B20B441A765B
:1027100000BF0C37BD465DF8047B704700E100E068
:1027200000ED00E080B582B002AF02211020FFF77B
:10273000CFFF02210120FFF7CBFF0A4B01930A4B89
:1027400000930523094A0A490A48FFF703FE0A4B8A
:102750000093802340223C210848FFF7B3FE00BFCE
:10276000BD4680BD001BB700801A0600002008404F
:1027700000800840540B002048010020C40B0020BA
:1027800080B483B000AF0346FB7197F90730002B8C
:102790000BDBFB7903F01F02074997F907305B0950
:1027A000012000FA02F241F8232000BF0C37BD4699
:1027B0005DF8047B704700BF00E100E080B483B0A7
:1027C00000AF03463960FB7197F90730002B0ADB35
:1027D0003B68DAB20C4997F907305201D2B20B4488
:1027E00083F800230AE03B68DAB20849FB7903F07A
:1027F0000F03043B5201D2B20B441A7600BF0C37D0
:10280000BD465DF8047B704700E100E000ED00E0AC
:1028100080B500AF00F014F800F03AF800F072F85C
:1028200000F0BCF800F03AF900F08EF9034B5B6859
:10283000024A23F00403536000BF80BD00500840EB
:1028400080B500AF0F49104803F036FE0E4B002252
:102850005A610D4B5B690C4A43F0807343F00303EC
:102860005361094A094B1B68936700210A20FFF74F
:10287000A5FF0A2007F0C3FF034807F0E4FF00BFED
:1028800080BD00BFFCE0000000800040300100205F
:1028900080B400AF4FF080430022C3F8F0224FF025
:1028A00080430422C3F8B4234FF08043D3F80432AA
:1028B0004FF0804243F00403C2F804324FF08043EB
:1028C000D3F844314FF0804243F00403C2F844315E
:1028D0000B4B1B680A4A43F006031360084B1B6846
:1028E000074A43F070031360054B1B68044A43F426
:1028F0000033136000BFBD465DF8047B704700BF26
:102900000050084080B400AF214BD3F8EC31204A8E
:1029100023F00F03C2F8EC311D4BD3F8EC311C4A05
:1029200043F00203C2F8EC311A4B03F50053DB68A5
:10293000184A43F0006302F50052D360164B192287
:10294000C3F80022144B4FF0FF32C3F80023124BA0
:102950004FF48052C3F804230F4B0122C3F808251B
:102960000D4B0C22C3F804220B4B4FF0FF32C3F87F
:102970000823094B41F20102C3F80C23064B022243
:10298000C3F80C2500BFBD465DF8047B704700BF4F
:102990000010004000C008400050084080B400AF64
:1029A000204BD3F8E8311F4A23F00F03C2F8E83177
:1029B0001C4BD3F8E8311B4A43F00203C2F8E8315C
:1029C000194B03F50053DB68174A43F0806302F5A7
:1029D0000052D360154B1722C3F80822134B002274
:1029E000C3F81023114B41F20202C3F814230F4B1A
:1029F0000422C3F800250D4B0122C3F80C220B4B17
:102A00006FF07042C3F81823084B41F20302C3F879
:102A10001C23064B0822C3F8042500BFBD465DF801
:102A2000047B70470010004000C008400050084080
:102A300080B584B000AF7860154B00221A70154B3A
:102A40006FF07042C3F81023124B5B68114A23F0F9
:102A5000040353600023FB7302E0FB7B0133FB7331
:102A6000FB7B092BF9D90023FB730A4B0022C3F827
:102A70001023084B5B68074A23F0040353600121CD
:102A8000054807F0D2FE00BF1037BD4680BD00BF2D
:102A900045010020005008400080004080B400AF95
:102AA0000D4B1522C3F810220B4B6FF07042C3F888
:102AB0002023094B41F20402C3F82423064B1022C1
:102AC000C3F82025044B0122C3F8242500BFBD46CE
:102AD0005DF8047B704700BF0050084080B582B0AD
:102AE00000AF174B1B687B60154B1B68144A43F003
:102AF00002031360124B0122DA66114BDB6E03F006
:102B00000103002B16D00E4B1B680D4A43F0070340
:102B100013600B4B01221A670A49642003F010FC72
:102B2000074B1B6F03F00103012B05D0044A7B68A0
:102B3000136002E000BF00E000BF0837BD4680BD63
:102B400000000A4000EF1C0D80B500AF544B1B6C19
:102B5000534A23F00F031364514B1B6C504A23F468
:102B6000807313644F4B03F500531B684D4A23F4E5
:102B7000803302F5005213604FF08043D3F81036D3
:102B80004FF0804223F48063C2F810364FF0804348
:102B9000D3F810364FF0804223F40073C2F8103699
:102BA0004FF08043D3F810364FF0804223F40023D7
:102BB000C2F810364FF08043D3F810364FF0804201
:102BC00023F40003C2F810363749142003F0B8FB91
:102BD0004FF08043D3F800324FF0804243F000635F
:102BE000C2F800324FF08043D3F840314FF08042BA
:102BF00043F00063C2F84031FFF770FF2B4B1B68B6
:102C00002A4A43F002031360284B1B68274A23F427
:102C1000C0631360254B1B68244A43F400731360A0
:102C2000224B1B68214A43F4005313601F4B9B68DF
:102C30001E4A23F0004393601C4B9B681B4A43F0E1
:102C400010039360194B9B68184A43F440539360F8
:102C5000164B9B68154A43F480239360134B9B6883
:102C6000124A43F400239360104B9B680F4A43F0D1
:102C7000804393600D4B9B680C4A43F00043936084
:102C80000A4B5B6E094A43F001035366002116208C
:102C9000FFF794FD162007F0B2FD00BF80BD00BF16
:102CA0000010004000C0084000EF1C0D00000A406A
:102CB00080B400AF104B1B78DBB2802B10D80F4BC9
:102CC0001B69190A0C4B1B78DBB21A46C9B20C4BB4
:102CD0009954094B1B78DBB20133DAB2064B1A70F8
:102CE000064B4FF080529A66BFF34F8F00BF00BF74
:102CF000BD465DF8047B70474501002000000A4096
:102D0000E00B002080B584B000AF78600023FB604A
:102D10000023FB720AE0FB7A124AD35CDBB21A464C
:102D2000FB681344FB60FB7A0133FB7297F90B30AD
:102D3000002BF0DAFB68C3F5804213469B00134476
:102D40005B001A46084B1B681344074A1360074A86
:102D5000054B1B68936700F00BF8012001F0D4FCD1
:102D6000D4E700BFE00B00203001002000800040CD
:102D700080B485B000AF14233B720223FB711E2385
:102D8000BB710023FB730023BB7300237B71002303
:102D90003B710023FB7000237B7300233B730023F4
:102DA000FB720023BB708D4B7F221A708C4B00226C
:102DB0001A700123BB72BCE0BB7A8A4A0021D1544D
:102DC000BB7A013B884AD35CDBB21946BB7A01333C
:102DD000854AD35CDBB2CA1A3B7A9A420DDDBB7AD4
:102DE000824A0121D154BB7A013B804AD35CDBB2D9
:102DF000012B23D0BB7A7B7320E0BB7A01337A4A64
:102E0000D35CDBB21946BB7A013B774AD35CDBB2B9
:102E1000CA1A3B7A9A420DDDBB7A744A0221D15418
:102E2000BB7A013B714AD35CDBB2022B06D0BB7A82
:102E3000FB7203E0BB7A6D4A0021D154BB7A6B4A26
:102E4000D35CDBB2012B02D1BB7A7E2B32D1BB7AB1
:102E5000013B664AD35CDBB2012B2BD1BB7A013B31
:102E60003B737B7B604AD35CDAB23B7B5E49CB5CD5
:102E7000DBB2D31A3B713A7B7B7BD31A7B717A79B5
:102E8000FB799A4216D33A79BB799A4212D37B796D
:102E90005B08DAB27B7B1344FB70FB78514A01215B
:102EA000D1543A79FB7B9A4204D94C4AFB7813708F
:102EB0003B79FB73BB7A4D4AD35CDBB2022B02D168
:102EC000BB7A7E2B32D1BB7A013B484AD35CDBB262
:102ED000022B2BD1BB7A013BBB703B7B424AD35CBC
:102EE000DAB27B7B4049CB5CDBB2D31A3B71BA7858
:102EF000FB7AD31A7B717A79FB799A4216D33A79A5
:102F0000BB799A4212D37B795B08DAB2FB7A13441D
:102F1000FB70FB78334A0221D1543A79BB7B9A4249
:102F200004D92F4AFB7813703B79BB73BB7A01330A
:102F3000BB72BB7A7E2B7FF63FAF0023BB730123AE
:102F40007B7238E07B7A294AD35CDBB2022B2FD12B
:102F50007B7AFB7202E07B7A01337B727B7A234AB5
:102F6000D35CDBB2022BF6D07B7A013BBB70BA7824
:102F7000FB7AD31A7B713B7B1B4AD35CDAB27B7B37
:102F80001949CB5CDBB2D31A3B717B795B08DAB2AF
:102F9000FB7A1344FB70FB78124A0221D1543A7930
:102FA000BB7B9A4204D90E4AFB7813703B79BB7302
:102FB0007B7A01337B727B7A7E2BC3D9074B1B78DC
:102FC000DAB20B4B1A70064B1B78DAB2094B1A7047
:102FD00000BF1437BD465DF8047B70478D39002073
:102FE0008C390020E00C0020E00B0020600C002059
:102FF000460100204701002080B582B000AF786014
:103000004FF480420321044807F040FC4FF4FA706B
:1030100001F07AFB00BFF3E700C0084080B500AFC5
:103020004FF480420321084807F01DFC08220321C9
:10303000054807F018FC04220221034807F013FC9E
:1030400000F004F800BF80BD00C0084080B400AFAD
:10305000144BD3F8B031134A23F00F03C2F8B03148
:10306000104BD3F8B0310F4A43F00503C2F8B0312A
:103070000D4B03F50053DB680B4A43F4805302F514
:103080000052D3604FF080430422C3F888224FF0EF
:103090008043DB22C3F8842300BFBD465DF8047B78
:1030A000704700BF0010004000C0084080B582B0EB
:1030B00002AF4FF4867002F041FD08F06BFD08F09E
:1030C0004CFD08F02BFD05F00FF9FFF7A7FF00F00E
:1030D00051F8FFF79DFBFDF79FF9FDF7E9F8FEF7C3
:1030E000CFFB00230193012300930023BE221A4942
:1030F0001A4807F0D1FF0346012B04D00422022115
:10310000174807F0D6FB0023019301230093002307
:10311000BE221449144807F0BFFF0346012B04D018
:10312000042202210E4807F0C4FB0023019301236F
:1031300000930023BE220D490D4807F0ADFF034662
:10314000012B04D004220221054807F0B2FB01F054
:10315000A5FB00BFFDE700BF04E10000F92F000060
:1031600000C0084014E10000DD09000020E100007B
:10317000052D000080B584B000AF012002F07AFF79
:10318000F8603B1D184608F013FA3B1DFA68194613
:10319000054804F0FBF880220449054808F007FDC3
:1031A00000BF1037BD4680BD004001400080104088
:1031B000600D002080B500AF80220749074808F065
:1031C00012FD0346002B04D0034A0021044808F0F6
:1031D00011FA00BF80BD00BF600D002000801040CC
:1031E0000040014080B485B000AF0346FB71FB791D
:1031F000022B0ED12B4B1B681B686FF0DB0202FB0E
:1032000003F303F5860303F50E53274AC2F8803013
:1032100043E0264B1B68002B19DC224B1B681B6804
:103220009AB2204B1B681968214B1B681B68CB1A8C
:103230001E49096801FB03F31E4981FB0301491183
:10324000DB17CB1A9BB213449BB2FB8118E0154BE2
:103250001B681B689AB2184B1B681968114B1B68D6
:103260001B68CB1A1149096801FB03F3114981FB63
:1032700003014911DB17CB1A9BB213449BB2FB81AC
:10328000B7F90E306FF0DB0202FB03F303F58603A0
:1032900003F50E53044AC2F880301437BD465DF87A
:1032A000047B70470000002000900040300B00209D
:1032B000040000201F85EB510800002080B483B07B
:1032C00000AF0346FB710A4B1B681B686FF0DB0203
:1032D00002FB03F303F5860303F50E53054AC2F818
:1032E000803000BF0C37BD465DF8047B704700BFDF
:1032F000000000200090004080B483B000AF03467F
:10330000FB71FB79022B0ED1104B1B681B686FF011
:10331000DB0202FB03F303F5860303F50E530C4AAD
:10332000C2F880300DE00B4B1B681B686FF0DB02AE
:1033300002FB03F303F5860303F50E53044AC2F8B8
:1033400080300C37BD465DF8047B704700000020DC
:10335000009000400400002080B483B000AF03461A
:10336000FB71FB79022B0ED1104B1B681B686FF0B1
:10337000DB0202FB03F303F5860303F50E530C4A4D
:10338000C2F880300DE00B4B1B681B686FF0DB024E
:1033900002FB03F303F5860303F50E53044AC2F858
:1033A00080300C37BD465DF8047B7047000000207C
:1033B000009000400800002080B584B000AF0346B4
:1033C000FB71FB79022B0DD11E4B1B681B686FF044
:1033D000DB0202FB03F303F5860303F50E531A4ADF
:1033E00093672CE0194B1B681B689AB2184B1B683B
:1033F0001968164B1B681B68CB1A1649096801FB34
:1034000003F3154981FB03014911DB17CB1A9BB26A
:1034100013449BB2FB81B7F90E306FF0DB0202FB65
:1034200003F303F5860303F50E53074A9367B7F9D1
:103430000E30054A926F1946084805F0C7FE10374E
:10344000BD4680BD18010020008004401C01002002
:1034500020010020340B00201F85EB513CE10000CF
:1034600080B483B000AF0346FB71094B1B681B6837
:103470006FF0DB0202FB03F303F5860303F50E5343
:10348000044A936700BF0C37BD465DF8047B704764
:10349000180100200080044080B483B000AF0346D0
:1034A000FB71FB79022B0DD10F4B1B681B686FF072
:1034B000DB0202FB03F303F5860303F50E530B4A0D
:1034C00093670CE00A4B1B681B686FF0DB0202FB82
:1034D00003F303F5860303F50E53044A93670C3791
:1034E000BD465DF8047B7047180100200080044051
:1034F0001C01002080B584B000AF0346FB71FB794E
:10350000022B0ED1204B1B681B686FF0DB0202FB05
:1035100003F303F5860303F50E531C4AC2F880300B
:103520002EE01B4B1B681B689AB21A4B1B6819686C
:10353000174B1B681B68CB1A1749096801FB03F37B
:10354000164981FB03014911DB17CB1A9BB21344C7
:103550009BB2FB81B7F90E306FF0DB0202FB03F385
:1035600003F5860303F50E53084AC2F88030B7F915
:103570000E30064AD2F880201946094805F026FE8A
:103580001037BD4680BD00BF2401002000800440EC
:10359000280100202C010020380B00201F85EB5152
:1035A00064E1000080B500AF1F4B1B6840F2DC52A5
:1035B0009A611D4B1B6840F2CA32DA611A4B1B68D4
:1035C00040F652021A62184B1B684FF480425A624E
:1035D000154B1B684FF47A729A62134B1B6840F2CA
:1035E0004C42DA62104B1B6840F26C721A630E4B4D
:1035F0001B6842F6BB325A630B4B1B684FF47A725E
:103600009A63094B1B6840F24C42DA63064B1B6815
:1036100040F26C721A64044B1B6842F6BB325A6467
:10362000FDF7ACFD00BF80BD3401002080B58AB03D
:1036300000AF78600023FB6101F07EF95C4B1B68F2
:10364000002B01D100F024F95A4B1A687B68134013
:10365000002B40F095807B68002B1ED008227B68F1
:1036600013447B607B6803F00703002B15D07B6855
:1036700023F0070308337B607B6803F00703002B0C
:103680000BD04FF0400383F31188BFF36F8FBFF36C
:103690004F8F7B6100BF00BFFDE77B68002B6FD0C1
:1036A000454B1B687A689A426AD8444B3B62434B4D
:1036B0001B687B6204E07B6A3B627B6A1B687B62FF
:1036C0007B6A5B687A689A4203D97B6A1B68002B25
:1036D000F1D1374B1B687A6A9A4251D03B6A1B681A
:1036E00008221344FB617B6A1A683B6A1A607B6A92
:1036F0005A687B68D21A08235B009A4220D97A6AFA
:103700007B681344BB61BB6903F00703002B0BD03C
:103710004FF0400383F31188BFF36F8FBFF34F8FD8
:103720003B6100BF00BFFDE77B6A5A687B68D21A25
:10373000BB695A607B6A7A685A60B86900F00AF916
:103740001D4B1A687B6A5B68D31A1B4A13601A4BBD
:103750001A681B4B1B689A4203D2174B1B68184A06
:1037600013607B6A5A68134B1B681A437B6A5A6062
:103770007B6A00221A60134B1B680133114A1360E5
:1037800001F0E8F8FB6903F00703002B0BD04FF0C2
:10379000400383F31188BFF36F8FBFF34F8FFB603C
:1037A00000BF00BFFDE7FB6918462837BD4680BD56
:1037B000E8350020FC350020EC350020E035002005
:1037C000F0350020F435002080B586B000AF786079
:1037D0007B687B617B68002B4FD008235B427A6952
:1037E00013447B617B693B613B695A68254B1B68CD
:1037F0001340002B0BD14FF0400383F31188BFF32C
:103800006F8FBFF34F8FFB6000BF00BFFDE73B69C9
:103810001B68002B0BD04FF0400383F31188BFF3DC
:103820006F8FBFF34F8FBB6000BF00BFFDE73B69E9
:103830005A68144B1B681340002B1ED03B691B6851
:10384000002B1AD13B695A680E4B1B68DB431A40A8
:103850003B695A6001F070F83B695A680A4B1B6873
:103860001344094A1360386900F074F8074B1B6869
:103870000133064A136001F06DF800BF1837BD46EA
:1038800080BD00BFFC350020EC350020F83500205D
:1038900080B485B000AF4FF42053BB60274BFB6072
:1038A000FB6803F00703002B0CD0FB680733FB60B9
:1038B000FB6823F00703FB60BA68FB68D31A1F4A52
:1038C0001344BB60FB687B601D4A7B6813601C4B24
:1038D00000225A607B68BA681344FB600822FB68C8
:1038E0009B1AFB60FB6823F00703FB60FB68154A2B
:1038F0001360144B1B6800225A60124B1B68002295
:103900001A607B683B603B68FA68D21A3B685A6071
:103910000C4B1A683B681A603B685B680A4A136084
:103920003B685B68094A1360094B4FF000421A601C
:1039300000BF1437BD465DF8047B7047E00D0020E2
:10394000E0350020E8350020F0350020EC3500207F
:10395000FC35002080B485B000AF7860284BFB6058
:1039600002E0FB681B68FB60FB681B687A689A4290
:10397000F7D8FB68BB60FB685B68BA6813447A6879
:103980009A4208D1FB685A687B685B681A44FB68F6
:103990005A60FB687B607B68BB607B685B68BA6869
:1039A0001A44FB681B689A4218D1FB681A68154BC9
:1039B0001B689A420DD07B685A68FB681B685B687D
:1039C0001A447B685A60FB681B681A687B681A6037
:1039D00008E00C4B1A687B681A6003E0FB681A6801
:1039E0007B681A60FA687B689A4202D0FB687A6842
:1039F0001A6000BF1437BD465DF8047B704700BFF6
:103A0000E0350020E835002080B485B000AFF860D4
:103A1000B9607A60FB68043BFB60FB684FF0807222
:103A20001A60FB68043BFB60BB6823F00102FB6883
:103A30001A60FB68043BFB600C4AFB681A60FB6879
:103A4000143BFB607A68FB681A60FB68043BFB6010
:103A5000FB686FF002021A60FB68203BFB60FB68AA
:103A600018461437BD465DF8047B7047713A000074
:103A700080B485B000AF00237B60134B1B68B3F1AB
:103A8000FF3F0BD04FF0400383F31188BFF36F8FDC
:103A9000BFF34F8FFB6000BF00BFFDE74FF0400357
:103AA00083F31188BFF36F8FBFF34F8FBB6000BFED
:103AB00000BF7B68002BFCD000BF00BF1437BD46A1
:103AC0005DF8047B704700BF38010020084800689B
:103AD000006880F308884FF0000080F3148862B615
:103AE00061B6BFF34F8FBFF36F8F00DF00BF00BF22
:103AF00008ED00E080B586B000AF474B1B68474A31
:103B000093420BD14FF0400383F31188BFF36F8FC3
:103B1000BFF34F8F3B6100BF00BFFDE73E4B1B680B
:103B20003F4A93420BD14FF0400383F31188BFF318
:103B30006F8FBFF34F8FFB6000BF00BFFDE7394BB6
:103B40007B617B691B78DBB27B607B69FF221A702B
:103B50007B691B78DBB2FB70FB78DBB203F04003C0
:103B6000DAB2314B1A70314B07221A6009E02F4B41
:103B70001B68013B2D4A1360FB78DBB25B00DBB2B4
:103B8000FB70FB78DBB203F08003802BEFD0274B78
:103B90001B68C3F10703032B0BD04FF0400383F3E3
:103BA0001188BFF36F8FBFF34F8FBB6000BF00BFA3
:103BB000FDE71E4B1B681B021C4A13601B4B1B6856
:103BC00003F4E063194A13607B68DAB27B691A7008
:103BD000174B1B68164A43F460031360144B1B68B1
:103BE000134A43F06043136000F0A6F8114B002223
:103BF0001A6000F0C5F8104B1B680F4A43F04043B1
:103C00001360FFF763FF00F0FFFFFFF731FF0023B2
:103C100018461837BD4680BD00ED00E071C20F4167
:103C200070C20F4100E400E08E3900200036002011
:103C300020ED00E03801002034EF00E080B483B0D4
:103C400000AF4FF0400383F31188BFF36F8FBFF3D2
:103C50004F8F7B6000BF104B1B6801330E4A13600F
:103C60000D4B1B68012B10D10C4B1B68DBB2002BDA
:103C70000BD04FF0400383F31188BFF36F8FBFF376
:103C80004F8F3B6000BF00BFFDE700BF0C37BD4654
:103C90005DF8047B704700BF3801002004ED00E0B0
:103CA00080B483B000AF124B1B68002B0BD14FF0D8
:103CB000400383F31188BFF36F8FBFF34F8F7B6097
:103CC00000BF00BFFDE70A4B1B68013B084A1360B9
:103CD000074B1B68002B05D100233B603B6883F337
:103CE000118800BF00BF0C37BD465DF8047B7047EC
:103CF0003801002080B582B000AF4FF0400383F35D
:103D00001188BFF36F8FBFF34F8F7B6000BF00F050
:103D1000CFFE0346002B03D0064B4FF080521A60B3
:103D200000233B603B6883F3118800BF00BF083766
:103D3000BD4680BD04ED00E080B400AF0B4B002217
:103D40001A600B4B00221A600A4B1B680A4AA2FB3E
:103D500003239B09094A013B1360044B07221A60A5
:103D600000BFBD465DF8047B704700BF10E000E077
:103D700018E000E040010020D34D621014E000E0A4
:103D8000DFF80C00016841F470010160704700BF6A
:103D900088ED00E080B485B000AFEFF30583FB60F1
:103DA000FB680F2B15D9184AFB6813441B78FB726C
:103DB000164B1B78FA7A9A420BD24FF0400383F3EA
:103DC0001188BFF36F8FBFF34F8F7B6000BF00BFC1
:103DD000FDE70F4B1B6803F4E0620E4B1B689A4231
:103DE0000BD94FF0400383F31188BFF36F8FBFF3FC
:103DF0004F8F3B6000BF00BFFDE700BF1437BD46DB
:103E00005DF8047B704700BFF0E300E08E390020CE
:103E10000CED00E00036002080B584B000AF786083
:103E200039607B68FB60FB68002B0BD14FF04003CF
:103E300083F31188BFF36F8FBFF34F8FBB6000BF59
:103E400000BFFDE7FFF7FAFEFB681A68FB68DB6B53
:103E5000F968096C01FB03F31A44FB689A60FB687C
:103E600000229A63FB681A68FB685A60FB681A684C
:103E7000FB68DB6B013BF968096C01FB03F31A4437
:103E8000FB68DA60FB68FF2283F84420FB68FF22AE
:103E900083F845203B68002B14D1FB681B69002B7D
:103EA0001AD0FB681033184600F05CFF0346002B65
:103EB00012D00D4B4FF080521A60BFF34F8FBFF3FB
:103EC0006F8F09E0FB681033184606F01BFDFB6896
:103ED0002433184606F016FDFFF7E2FE01231846CC
:103EE0001037BD4680BD00BF04ED00E080B58EB048
:103EF00000AFF860B9607A603B6000237B63FB68C9
:103F00003B633B6B002B0BD14FF0400383F31188D5
:103F1000BFF36F8FBFF34F8FBB6200BF00BFFDE7E2
:103F2000BB68002B03D13B6B1B6C002B01D1012321
:103F300000E00023002B0BD14FF0400383F31188E6
:103F4000BFF36F8FBFF34F8F7B6200BF00BFFDE7F2
:103F50003B68022B03D13B6BDB6B012B01D10123AF
:103F600000E00023002B0BD14FF0400383F31188B6
:103F7000BFF36F8FBFF34F8F3B6200BF00BFFDE702
:103F800001F080F80346002B02D17B68002B01D1A1
:103F9000012300E00023002B0BD14FF0400383F3FB
:103FA0001188BFF36F8FBFF34F8FFB6100BF00BF5E
:103FB000FDE7FFF743FE3B6B9A6B3B6BDB6B9A4273
:103FC00002D33B68022B29D13A68B968386B06F0F6
:103FD0001FFFF8623B6B5B6A002B10D03B6B2433F6
:103FE000184600F0BFFE0346002B13D03F4B4FF0A6
:103FF00080521A60BFF34F8FBFF36F8F0AE0FB6AE6
:10400000002B07D0394B4FF080521A60BFF34F8F0F
:10401000BFF36F8FFFF744FE012363E07B68002B43
:1040200003D1FFF73DFE00235CE07B6B002B06D144
:1040300007F11403184600F0F9FE01237B63FFF734
:104040002FFE00F079FCFFF7F9FD3B6B93F844304D
:104050005BB2B3F1FF3F03D13B6B002283F84420F6
:104060003B6B93F845305BB2B3F1FF3F03D13B6B41
:10407000002283F84520FFF713FE3A1D07F11403D1
:104080001146184600F0E8FE0346002B24D1386B99
:1040900006F0B6FF0346002B18D03B6B10337A684E
:1040A0001146184600F00CFE386B06F041FF00F098
:1040B00051FC0346002B7FF47CAF0C4B4FF0805239
:1040C0001A60BFF34F8FBFF36F8F72E7386B06F044
:1040D0002FFF00F03FFC6CE7386B06F029FF00F083
:1040E00039FC002318463837BD4680BD04ED00E09A
:1040F00080B58CB000AFF860B9607A600023FB62D5
:10410000FB68BB62BB6A002B0BD14FF0400383F30B
:104110001188BFF36F8FBFF34F8F3B6200BF00BFAB
:10412000FDE7BB68002B03D1BB6A1B6C002B01D1E0
:10413000012300E00023002B0BD14FF0400383F359
:104140001188BFF36F8FBFF34F8FFB6100BF00BFBC
:10415000FDE700F097FF0346002B02D17B68002BA0
:1041600001D1012300E00023002B0BD14FF04003CD
:1041700083F31188BFF36F8FBFF34F8FBB6100BF15
:1041800000BFFDE7FFF75AFDBB6A9B6B7B627B6A52
:10419000002B1FD0B968B86A06F0A4FE7B6A5A1ECD
:1041A000BB6A9A63BB6A1B69002B0FD0BB6A1033D2
:1041B000184600F0D7FD0346002B07D03C4B4FF0CC
:1041C00080521A60BFF34F8FBFF36F8FFFF768FD08
:1041D000012369E07B68002B03D1FFF761FD002319
:1041E00062E0FB6A002B06D107F11003184600F0CD
:1041F0001DFE0123FB62FFF753FD00F09DFBFFF75F
:104200001DFDBB6A93F844305BB2B3F1FF3F03D1AD
:10421000BB6A002283F84420BB6A93F845305BB246
:10422000B3F1FF3F03D1BB6A002283F84520FFF7BB
:1042300037FD3A1D07F110031146184600F00CFE39
:104240000346002B23D1B86A06F0C4FE0346002BB8
:1042500017D0BB6A24337A681146184600F030FD47
:10426000B86A06F065FE00F075FB0346002B89D1A5
:104270000F4B4FF080521A60BFF34F8FBFF36F8F19
:1042800080E7B86A06F054FE00F064FB7AE7B86A8B
:1042900006F04EFE00F05EFBB86A06F09BFE034699
:1042A000002B3FF46FAF002318463037BD4680BD6A
:1042B00004ED00E080B58EB000AF78603960002377
:1042C0007B637B68FB620023BB6200233B63FB6A6A
:1042D000002B0BD14FF0400383F31188BFF36F8F96
:1042E000BFF34F8FFB6100BF00BFFDE7FB6A1B6C94
:1042F000002B0BD04FF0400383F31188BFF36F8F77
:10430000BFF34F8FBB6100BF00BFFDE700F0BAFEF7
:104310000346002B02D13B68002B01D1012300E0B2
:104320000023002B0BD14FF0400383F31188BFF320
:104330006F8FBFF34F8F7B6100BF00BFFDE7FFF7BB
:104340007DFCFB6A9B6B7B627B6A002B24D07B6AC3
:104350005A1EFB6A9A63FB6A1B68002B04D101F0AA
:104360003DF80246FB6A9A60FB6A1B69002B0FD07E
:10437000FB6A1033184600F0F5FC0346002B07D00B
:10438000544B4FF080521A60BFF34F8FBFF36F8FC3
:10439000FFF786FC012398E03B68002B12D13B6BB2
:1043A000002B0BD04FF0400383F31188BFF36F8FC6
:1043B000BFF34F8F3B6100BF00BFFDE7FFF770FC0D
:1043C000002382E07B6B002B06D107F1080318461F
:1043D00000F02CFD01237B63FFF762FC00F0ACFAD8
:1043E000FFF72CFCFB6A93F844305BB2B3F1FF3F5C
:1043F00003D1FB6A002283F84420FB6A93F845301E
:104400005BB2B3F1FF3F03D1FB6A002283F8452082
:10441000FFF746FC3A4607F108031146184600F03C
:104420001BFD0346002B32D1F86A06F0D3FD03468C
:10443000002B26D0FB6A1B68002B09D1FFF7FEFB7F
:10444000FB6A9B68184600F03BFE3863FFF728FCC8
:10445000FB6A24333A681146184600F031FCF86ACA
:1044600006F066FD00F076FA0346002B7FF467AF96
:10447000184B4FF080521A60BFF34F8FBFF36F8F0E
:104480005DE7F86A06F054FD00F064FA57E7F86A51
:1044900006F04EFD00F05EFAF86A06F09BFD03465A
:1044A000002B3FF44CAF3B6B002B0DD0FFF7C6FB4E
:1044B000F86A06F095FC3862FB6A9B68396A184610
:1044C00000F0FCFEFFF7ECFB002318463837BD4632
:1044D00080BD00BF04ED00E080B485B000AF78601F
:1044E00039600023FB6014E00F4AFB6852F8333058
:1044F000002B0BD10C49FB683A6841F833200A4A7B
:10450000FB68DB0013447A685A6006E0FB680133FD
:10451000FB60FB68072BE7D900BF00BF1437BD461F
:104520005DF8047B704700BF0436002080B582B080
:1045300000AF7860FFF782FB2C4B1B6801332B4ADE
:1045400013602B4B1B68002B09D1294A7B68136031
:10455000264B1B68012B10D100F006FD0DE0254B0A
:104560001B68002B09D1224B1B68DA6A7B68DB6A67
:104570009A4202D81E4A7B6813601F4B1B680133A6
:104580001D4A13601C4B1A687B68DA647B68DB6A1F
:1045900001229A40194B1B681343184A13607B6829
:1045A000DA6A13469B0013449B00154A1A447B6841
:1045B00004331946104606F0D2F9FFF771FB0D4B94
:1045C0001B68002B0ED00A4B1B68DA6A7B68DB6A1B
:1045D0009A4207D20B4B4FF080521A60BFF34F8FB5
:1045E000BFF36F8F00BF0837BD4680BD1C3700206A
:1045F0004436002028370020383700202437002098
:104600004836002004ED00E080B58AB000AF786045
:10461000396000237B627B68002B0BD14FF0400395
:1046200083F31188BFF36F8FBFF34F8F7B6100BFA0
:1046300000BFFDE73B68002B0BD14FF0400383F335
:104640001188BFF36F8FBFF34F8F3B6100BF00BF77
:10465000FDE72A4B1B68002B0BD04FF0400383F380
:104660001188BFF36F8FBFF34F8FFB6000BF00BF98
:10467000FDE700F061F9224B1B683B627B681B6819
:104680003A681344FB617B681B683A6A9A420BD212
:104690007B681B68FA699A4211D2FA693B6A9A42AE
:1046A0000DD901237B620AE07B681B68FA699A4294
:1046B00003D3FA693B6A9A4201D901237B627B6882
:1046C000FA691A607B6A002B06D0FA693B6AD31A32
:1046D0000021184600F096FE00F03CF9B861BB6975
:1046E000002B07D1074B4FF080521A60BFF34F8F5A
:1046F000BFF36F8F00BF2837BD4680BD4437002011
:104700002037002004ED00E080B584B000AF786071
:104710000023FB607B68002B18D0144B1B68002B18
:104720000BD04FF0400383F31188BFF36F8FBFF3BB
:104730004F8FBB6000BF00BFFDE700F0FDF8002118
:10474000786800F05FFE00F005F9F860FB68002B68
:1047500007D1074B4FF080521A60BFF34F8FBFF362
:104760006F8F00BF1037BD4680BD00BF44370020AB
:1047700004ED00E080B584B000AF7860FFF75EFA2A
:104780007B68002B02D13D4B1B6800E07B68FB601F
:10479000FB680433184606F03FF90346002B15D199
:1047A000FB68DA6A364913469B0013449B000B44AE
:1047B0001B68002B0AD1FB68DB6A012202FA03F3B3
:1047C000DA43304B1B6813402E4A1360FB689B6A28
:1047D000002B04D0FB681833184606F01DF9FB685F
:1047E00004331946284806F0BAF8FB6893F8743089
:1047F000DBB2012B03D1FB68002283F87420FFF7A2
:104800004FFA224B1B68002B05D0FFF717FA00F078
:1048100019FCFFF745FA194B1B68FA689A4228D130
:104820001A4B1B68002B18D0194B1B68002B0BD0A0
:104830004FF0400383F31188BFF36F8FBFF34F8FA7
:10484000BB6000BF00BFFDE7124B4FF080521A6003
:10485000BFF34F8FBFF36F8F0BE00B4B1A680E4BFC
:104860001B689A4203D1054B00221A6001E000F058
:10487000CBF900BF1037BD4680BD00BF44360020D5
:104880004836002024370020083700202837002031
:104890004437002004ED00E01C37002080B586B0CE
:1048A00002AF1F4B01930023009300235A221D499E
:1048B0001D4806F0F1FBF860FB68012B02D100F007
:1048C00007FEF860FB68012B16D14FF0400383F31D
:1048D0001188BFF36F8FBFF34F8FBB6000BF134BC7
:1048E0004FF0FF321A60124B01221A60114B002266
:1048F0001A60FFF7FFF80FE0FB68B3F1FF3F0BD141
:104900004FF0400383F31188BFF36F8FBFF34F8FD6
:104910007B6000BF00BFFDE700BF1037BD4680BD14
:104920004037002028C20000394F00003C370020EB
:10493000283700202037002080B400AF044B1B68CC
:104940000133034A136000BFBD465DF8047B704726
:104950004437002080B584B000AF0023FB60002303
:10496000BB60424B1B68002B0BD14FF0400383F31D
:104970001188BFF36F8FBFF34F8F3B6000BF00BF45
:10498000FDE7FFF75BF9394B1B68013B374A1360C2
:10499000364B1B68002B61D1354B1B68002B5DD05B
:1049A0002EE0344BDB68DB68FB60FB68183318468D
:1049B00006F032F8FB680433184606F02DF8FB6861
:1049C000DB6A01229A402C4B1B6813432A4A13606E
:1049D000FB68DA6A13469B0013449B00274A1A447B
:1049E000FB6804331946104605F0B9FFFB68DA6A24
:1049F000234B1B68DB6A9A4202D3224B01221A60C6
:104A00001C4B1B68002BCCD1FB68002B01D000F0A5
:104A100019FB1D4B1B687B607B68002B10D000F0DE
:104A200047F80346002B02D0164B01221A607B6820
:104A3000013B7B607B68002BF1D1134B00221A6095
:104A4000104B1B68002B09D00123BB600F4B4FF0AC
:104A500080521A60BFF34F8FBFF36F8FFFF720F9BB
:104A6000BB6818461037BD4680BD00BF44370020E4
:104A70001C370020DC360020243700204836002078
:104A800044360020303700202C37002004ED00E0B1
:104A900080B483B000AF054B1B687B607B68184611
:104AA0000C37BD465DF8047B704700BF20370020FF
:104AB00080B586B000AF00237B61484B1B68002B9C
:104AC00040F08180464B1B6801333B61444A3B699F
:104AD00013603B69002B21D1424B1B681B68002BE4
:104AE0000BD04FF0400383F31188BFF36F8FBFF3F8
:104AF0004F8F3B6000BF00BFFDE73A4B1B68FB6078
:104B0000394B1B68374A1360374AFB681360374BD1
:104B10001B680133354A136000F094FA344B1B686C
:104B20003A699A4248D32F4B1B681B68002B04D16B
:104B30002F4B4FF0FF321A603EE02A4B1B68DB68B8
:104B4000DB68BB60BB685B687B603A697B689A42E4
:104B500003D2274A7B6813602EE0BB6804331846F3
:104B600005F05AFFBB689B6A002B04D0BB68183362
:104B7000184605F051FFBB68DB6A01229A401D4BC5
:104B80001B6813431B4A1360BB68DA6A13469B0019
:104B900013449B00184A1A44BB6804331946104654
:104BA00005F0DDFEBB68DA6A144B1B68DB6A9A42CB
:104BB000B9D301237B61B6E7114B1B68002B07D0EB
:104BC00001237B6104E00F4B1B6801330D4A136026
:104BD0007B6918461837BD4680BD00BF44370020AA
:104BE00020370020D4360020D8360020343700206B
:104BF0003C3700202437002048360020443600206F
:104C0000303700202C37002080B487B000AF274B0E
:104C10001B68002B03D0264B01221A6040E0244B76
:104C200000221A60234B1B68FB60FB68B3FA83F316
:104C3000FB72FB7AC3F11F037B611F497A6913463C
:104C40009B0013449B000B441B68002B0BD14FF0BF
:104C5000400383F31188BFF36F8FBFF34F8F7B60E7
:104C600000BF00BFFDE77A6913469B0013449B0019
:104C7000114A13443B613B695B685A683B695A605F
:104C80003B695A683B6908339A4204D13B695B68C7
:104C90005A683B695A603B695B68DB68074A136086
:104CA00000BF1C37BD465DF8047B704744370020C9
:104CB00030370020243700204836002044360020BA
:104CC00080B584B000AF786039607B68002B0BD171
:104CD0004FF0400383F31188BFF36F8FBFF34F8F03
:104CE000FB6000BF00BFFDE7074B1B681833194688
:104CF000786805F058FE0121386800F083FB00BF9A
:104D00001037BD4680BD00BF4436002080B586B058
:104D100000AFF860B9607A60FB68002B0BD14FF0F0
:104D2000400383F31188BFF36F8FBFF34F8F7B6115
:104D300000BF00BFFDE70A4B1B6818331946F8682F
:104D400005F00DFE7B68002B02D04FF0FF33BB60F7
:104D50007968B86800F056FB00BF1837BD4680BDC3
:104D60004436002080B586B000AF78607B68DB6891
:104D7000DB683B613B69002B0BD14FF0400383F3B1
:104D80001188BFF36F8FBFF34F8FFB6000BF00BF71
:104D9000FDE73B691833184605F03EFE1D4B1B68C6
:104DA000002B1CD13B690433184605F035FE3B69E6
:104DB000DB6A01229A40184B1B681343164A1360A2
:104DC0003B69DA6A13469B0013449B00134A1A445A
:104DD0003B6904331946104605F0C1FD05E03B6907
:104DE000183319460E4805F0BAFD3B69DA6A0D4BD7
:104DF0001B68DB6A9A4205D901237B610A4B0122B9
:104E00001A6001E000237B617B6918461837BD46B4
:104E100080BD00BF443700202437002048360020E2
:104E2000DC360020443600203037002080B483B0C8
:104E300000AF7860064B1A687B681A60054B1A68E9
:104E40007B685A6000BF0C37BD465DF8047B704735
:104E5000343700202037002080B588B000AF78605C
:104E600039607B68002B0BD14FF0400383F311882E
:104E7000BFF36F8FBFF34F8F3B6100BF00BFFDE7F4
:104E80003B68002B0BD14FF0400383F31188BFF335
:104E90006F8FBFF34F8FFB6000BF00BFFDE7FEF7D2
:104EA000CDFE1D4B1B68BB617B685B68BA69D31A7A
:104EB0007B613B681B68B3F1FF3F02D10023FB61BC
:104EC00023E07B681A68154B1B689A4207D07B6801
:104ED0005B68BA699A4202D30123FB6115E03B6823
:104EE0001B687A699A420BD23B681A687B69D21AAE
:104EF0003B681A607868FFF799FF0023FB6104E0C4
:104F00003B6800221A600123FB61FEF7C9FEFB69C2
:104F100018462037BD4680BD20370020343700209A
:104F200080B400AF034B01221A6000BFBD465DF89C
:104F3000047B70473037002080B582B000AF7860C6
:104F400000F052F8064B1B68012BF9D9054B4FF0C6
:104F500080521A60BFF34F8FBFF36F8FF0E700BF2F
:104F60004836002004ED00E080B582B000AF002399
:104F70007B600CE07A6813469B0013449B00124A46
:104F80001344184605F0BEFC7B6801337B607B68E8
:104F9000042BEFD90D4805F0B5FC0D4805F0B2FC27
:104FA0000C4805F0AFFC0C4805F0ACFC0B4805F0D4
:104FB000A9FC0B4B054A1A600A4B054A1A6000BF50
:104FC0000837BD4680BD00BF48360020AC36002003
:104FD000C0360020DC360020F036002008370020E4
:104FE000D4360020D836002080B582B000AF19E05A
:104FF000FEF724FE104BDB68DB687B607B680433C4
:10500000184605F009FD0D4B1B68013B0B4A136068
:105010000B4B1B68013B0A4A1360FEF741FE7868A0
:1050200006F01EF9064B1B68002BE1D100BF00BF44
:105030000837BD4680BD00BFF03600201C37002079
:105040000437002080B483B000AF0C4B1B681B6892
:10505000002B04D10A4B4FF0FF321A6008E0074BD7
:105060001B68DB68DB687B607B685B68044A1360F5
:1050700000BF0C37BD465DF8047B7047D436002076
:105080003C37002080B483B000AF0B4B1B68002B73
:1050900002D101237B6008E0084B1B68002B02D182
:1050A00002237B6001E000237B607B6818460C379D
:1050B000BD465DF8047B7047283700204437002048
:1050C00080B584B000AF78607B68BB600023FB6074
:1050D0007B68002B5ED0BB68DA6A314B1B68DB6AE9
:1050E0009A424ED2BB689B69002B06DB2C4B1B6897
:1050F000DB6AC3F10502BB689A61BB685969BB688A
:10510000DA6A13469B0013449B00264A13449942D3
:105110002FD1BB680433184605F07EFC0346002BF4
:105120000AD1BB68DB6A012202FA03F3DA431E4BA1
:105130001B6813401C4A1360194B1B68DA6ABB6872
:10514000DA62BB68DB6A01229A40174B1B68134383
:10515000154A1360BB68DA6A13469B0013449B0030
:10516000104A1A44BB6804331946104605F0F7FB91
:1051700004E00B4B1B68DA6ABB68DA620123FB6050
:1051800008E0BB685A6D064B1B68DB6A9A4201D285
:105190000123FB60FB6818461037BD4680BD00BF89
:1051A00044360020483600202437002080B586B0E1
:1051B00000AF78607B683B6100237B617B68002BDC
:1051C00070D03B4B1B683A699A420BD04FF04003BA
:1051D00083F31188BFF36F8FBFF34F8FFB6000BF66
:1051E00000BFFDE73B699B6D002B0BD14FF04003E7
:1051F00083F31188BFF36F8FBFF34F8FBB6000BF86
:1052000000BFFDE73B699B6D5A1E3B699A653B6990
:10521000DA6A3B695B6D9A4244D03B699B6D002B17
:1052200040D13B690433184605F0F6FB0346002BDA
:1052300015D13B69DA6A1F4913469B0013449B0052
:105240000B441B68002B0AD13B69DB6A012202FA7E
:1052500003F3DA43184B1B681340174A13603B698A
:105260005A6D3B69DA623B69DB6AC3F105023B694F
:105270009A613B69DB6A01229A400F4B1B6813431A
:105280000D4A13603B69DA6A13469B0013449B0086
:10529000084A1A443B6904331946104605F05FFB7F
:1052A00001237B617B6918461837BD4680BD00BF6E
:1052B00044360020483600202437002080B588B0CE
:1052C00000AF786039607B68BB6101237B617B68DC
:1052D000002B79D0BB699B6D002B0BD14FF04003A5
:1052E00083F31188BFF36F8FBFF34F8FFB6000BF55
:1052F00000BFFDE7BB695B6D3A689A4202D93B6823
:10530000FB6102E0BB695B6DFB61BB69DB6AFA694B
:105310009A4259D0BB699B6D7A699A4254D12C4B01
:105320001B68BA699A420BD14FF0400383F311888E
:10533000BFF36F8FBFF34F8FBB6000BF00BFFDE7B0
:10534000BB69DB6A3B61BB69FA69DA62BB699B696D
:10535000002B04DBFB69C3F10502BB699A61BB69E1
:1053600059693A6913469B0013449B00194A134438
:10537000994229D1BB690433184605F04DFB034619
:10538000002B0AD1BB69DB6A012202FA03F3DA437C
:10539000114B1B681340104A1360BB69DB6A012282
:1053A0009A400D4B1B6813430B4A1360BB69DA6AC2
:1053B00013469B0013449B00064A1A44BB690433FE
:1053C0001946104605F0CBFA00BF2037BD4680BD18
:1053D00044360020483600202437002080B400AF37
:1053E000074B1B68002B04D0054B1B689A6D0132DC
:1053F0009A65034B1B681846BD465DF8047B7047F1
:105400004436002080B584B000AF78603960294B05
:105410001B68FB60284B1B680433184605F0FCFA38
:105420000346002B0BD1244B1B68DB6A012202FAD6
:1054300003F3DA43214B1B681340204A13607B6857
:10544000B3F1FF3F0AD13B68002B07D01A4B1B6812
:10545000043319461A4805F082FA26E0FA687B6898
:105460001344BB60144B1B68BA685A60BA68FB6887
:105470009A4209D2134B1A680F4B1B680433194622
:10548000104605F090FA10E00F4B1A680A4B1B68A3
:1054900004331946104605F086FA0C4B1B68BA68AF
:1054A0009A4202D2094ABB68136000BF1037BD465A
:1054B00080BD00BF20370020443600202437002064
:1054C00008370020D8360020D43600203C37002092
:1054D00080B584B002AF00237B6000F0E7FA114B87
:1054E0001B68002B0AD0104B019304230093002368
:1054F000B4220E490E4805F0CFFD78607B68002B82
:105500000BD14FF0400383F31188BFF36F8FBFF3CC
:105510004F8F3B6000BF00BFFDE77B681846083730
:10552000BD4680BD783700207C37002090E1000028
:1055300081B2000080B58AB000AFF860B9607A60CF
:105540003B6000237B62FB68002B0BD14FF04003D4
:1055500083F31188BFF36F8FBFF34F8F3B6200BFA0
:1055600000BFFDE7194B1B68002B2AD0BB683B61CD
:105570007B687B61FB68BB61BB68052B18DCFFF7B0
:1055800081FD0346022B09D1104B186807F1100169
:1055900000233A6BFEF7AAFC786212E00B4B186806
:1055A00007F1100100230022FEF7A0FC786208E05A
:1055B000064B186807F1100100233A6805F0E2FA7B
:1055C00078627B6A18462837BD4680BD7837002050
:1055D00080B588B002AF78603960234B1B68DB6808
:1055E000DB687B617B690433184605F015FA7B693B
:1055F00093F8283003F00403002B23D07B699A69C9
:105600007B68D1187B683A68786900F0C1F8034676
:10561000002B20D00023009300237A6800217869B2
:10562000FFF788FF38613B69002B14D14FF040032E
:1056300083F31188BFF36F8FBFF34F8FFB6000BF01
:1056400000BFFDE77B6993F8283023F00103DAB24D
:105650007B6983F828207B691B6A7869984700BFBB
:105660001837BD4680BD00BF7037002080B584B0BC
:1056700000AF78603960FFF75FF907F1080318465B
:1056800000F066F8F860BB68002B30D13B68002B57
:105690000AD17A68FB689A4206D8FFF75BF9F96885
:1056A0007868FFF795FF24E03B68002B08D0134B88
:1056B0001B681B68002B01D1012300E000233B6025
:1056C0000F4B18687A68FB68D31A3A68194605F0D8
:1056D000AFFCFFF73FF90346002B0AD1094B4FF00F
:1056E00080521A60BFF34F8FBFF36F8F01E0FFF757
:1056F00031F900BF1037BD4680BD00BF74370020B0
:105700007837002004ED00E080B485B000AF786009
:105710000E4B1B681B68002B01D1012200E0002208
:105720007B681A607B681B68002B05D1074B1B68E0
:10573000DB681B68FB6001E00023FB60FB68184628
:105740001437BD465DF8047B704700BF70370020FA
:1057500080B584B000AF7860FFF79AF9F8600B4B22
:105760001B68FA689A4205D200F03AF97B68012278
:105770001A6002E07B6800221A60044AFB6813602A
:10578000FB6818461037BD4680BD00BF803700203B
:1057900080B586B000AFF860B9607A603B600023E6
:1057A0007B61FB68BA685A60FB68FA681A61BA687C
:1057B0007B689A4212D87A683B68D21AFB689B6968
:1057C0009A4202D301237B611BE0104B1A68FB68ED
:1057D00004331946104605F0E6F812E07A683B6893
:1057E0009A4206D2BA683B689A4202D301237B618F
:1057F00007E0074B1A68FB6804331946104605F0AA
:10580000D2F87B6918461837BD4680BD7437002032
:105810007037002080B58EB002AFCEE07B68002BE1
:1058200019DA3B1D0433FB62FB6A002B0BD14FF0EE
:10583000400383F31188BFF36F8FBFF34F8FFB617A
:1058400000BF00BFFDE7FB6A1B68FA6A5068FA6A8E
:105850009268114698477B68002BC0F2AE80FB68C7
:10586000BB62BB6A5B69002B04D0BB6A0433184679
:1058700005F0D2F83B461846FFF76AFF78627B686E
:10588000092B00F2978001A252F823F0B5580000CE
:10589000B5580000B55800002B5900003F590000D2
:1058A0008B590000B5580000B55800002B59000076
:1058B0003F590000BB6A93F8283043F00103DAB285
:1058C000BB6A83F82820BA68BB6A9B69D118BB6899
:1058D0007A6AB86AFFF75CFF0346002B6CD0BB6A9C
:1058E0001B6AB86A9847BB6A93F8283003F0040330
:1058F000002B61D0BA68BB6A9B691A4400230093ED
:1059000000230021B86AFFF715FE38623B6A002BBE
:1059100052D14FF0400383F31188BFF36F8FBFF371
:105920004F8FBB6100BF00BFFDE7BB6A93F8283013
:1059300023F00103DAB2BB6A83F828203DE0BB6A9A
:1059400093F8283043F00103DAB2BB6A83F82820C9
:10595000BA68BB6A9A61BB6A9B69002B0BD14FF096
:10596000400383F31188BFF36F8FBFF34F8F7B61C9
:1059700000BF00BFFDE7BB6A9A697B6AD1187B6AEA
:105980007A6AB86AFFF704FF17E0BB6A93F8283019
:1059900003F00203002B03D1B86AFDF715FF0CE0FA
:1059A000BB6A93F8283023F00103DAB2BB6A83F8AC
:1059B000282002E000BF00E000BF084B1B68391D33
:1059C00000221846FEF794FB0346002B7FF426AF17
:1059D00000BF00BF3037BD4680BD00BF7837002014
:1059E00080B588B002AF49E02E4B1B68DB681B68AE
:1059F0003B612C4B1B68DB68DB68FB60FB68043396
:105A0000184605F009F8FB681B6AF8689847FB68B8
:105A100093F8283003F00403002B2FD0FB689B6918
:105A20003A691344BB60BA683B699A420ED9FB6875
:105A3000BA685A60FB68FA681A611A4B1A68FB6800
:105A400004331946104604F0AEFF17E0002300931C
:105A500000233A690021F868FFF76CFD78607B68E5
:105A6000002B0BD14FF0400383F31188BFF36F8FEE
:105A7000BFF34F8F3B6000BF00BFFDE7094B1B68C2
:105A80001B68002BB0D1074B1B687B61064B1B6862
:105A9000044A1360044A7B69136000BF1837BD468F
:105AA00080BD00BF703700207437002080B500AF84
:105AB000FEF7C4F8124B1B68002B1DD1114804F0EF
:105AC00021FF114804F01EFF104B0E4A1A60104BC4
:105AD0000D4A1A60002210210A2004F0C7FF034675
