:100000000080022061010000E901000019B3000036
:10001000ED010000EF010000F1010000D0C3FCDFA2
:1000200000000000000000000000000001020000CD
:10003000F50100000000000031020000054800004A
:1000400041A3000049A3000051A3000059A30000F0
:1000500061A3000069A3000071A3000079A3000060
:1000600081A3000089A300007931000091A3000062
:10007000C134000099A30000A1A30000A9A30000BF
:10008000B1A30000B9A30000C1A30000C9A30000F0
:10009000D1A30000D9A3000035340000E1A3000083
:1000A000E9A30000F1A30000F9A3000001A40000EF
:1000B00009A4000011A4000019A4000021A400005C
:1000C00029A4000031A4000039A4000041A40000CC
:1000D00049A40000B1310000290D000051A4000026
:1000E00059A4000061A4000069A4000071A40000EC
:1000F00079A4000081A4000089A4000091A400005C
:1001000099A40000A1A40000A9A40000B1A40000CB
:10011000B9A40000C1A40000C9A40000D1A400003B
:10012000D9A40000F4FC00000000002050010000F1
:10013000F4FC00000000000400000000F4FC0000DB
:1001400000001040000000000006002024360000DF
:10015000000000040000000000001040000000004B
:1001600010B572B613484FF03801016008F0BAFCC0
:100170000D4B07E003F10C049A685968186800F009
:100180001BF82346094A9342F4D306E01C465968FB
:1001900054F8080B00F01FF82346054A9342F5D3A4
:1001A00062B60CF013FAFEE72401000048010000DB
:1001B0006001000020020040002393420AD210B4E4
:1001C00050F8044B41F8044B04339342F8D35DF8E4
:1001D000044B70477047002303E0002240F8042BD3
:1001E00004338B42F9D37047FEE7FEE7FEE7FEE7F4
:1001F000FEE7FEE7FEE7FEE7FEE7FEE7FFFFFFFFA5
:10020000074B19680868B0E8F04F80F30988BFF31E
:100210006F8F4FF0000080F311887047AFF30080BC
:10022000CC38002000BF00BFFFFFFFFFFFFFFFFF34
:10023000EFF30980BFF36F8F154B1A681EF0100F94
:1002400008BF20ED108A20E9F04F10602DE9090069
:100250004FF0400080F31188BFF34F8FBFF36F8FD3
:1002600005F0C6F94FF0000080F3118809BC196849
:100270000868B0E8F04F1EF0100F08BFB0EC108A0D
:1002800080F30988BFF36F8F704700BFAFF3008022
:10029000CC38002000BF00BFB0B588B000AF034627
:1002A000FB710023FB830023BB8300233B830023DC
:1002B000FB8200237B831E23BB820A237B820023D5
:1002C0003B820023FB818723BB817B4B1B881AB2B7
:1002D0007A4B1A807A4B00221A80774B1B881BB20C
:1002E0009AB2774BB3F900309BB2D31A9BB21AB2D1
:1002F000744B1A80734BB3F900309AB2724BB3F956
:1003000000309BB212FB03F39BB21AB26F4B1A8000
:100310006F4BB3F9003018460CF06BFC02460B46ED
:1003200009F06CFF02460B4614461D46674BB3F9B5
:10033000003018460CF05DFC02460B46204629466C
:1003400009F06EFD02460B4614461D46614BB3F99B
:1003500000301A465F4BB3F9003003FB02F25B4BEF
:10036000B3F900301946594BB3F9003001FB03F3E0
:10037000134418460CF03DFC02460B462046294625
:1003800009F0CCFD02460B4643EC172BB0EE470AB2
:10039000F0EE670A00F0A4F9B0EE407AF0EE607A71
:1003A0004D4B83ED007B4C4BD3E900014FF0000235
:1003B0004A4B09F035FD02460B46104619463CA350
:1003C000D3E9002309F0AAFD02460B464249C1E9E0
:1003D0000023414BD3E900014FF00002404B0CF0E9
:1003E00068FC0346002B06D03B494FF000023C4B13
:1003F000C1E9002310E0384BD3E900014FF00002BF
:10040000384B0CF083FC0346002B05D032494FF0EB
:100410000002344BC1E900232F4BD3E900014FF018
:100420000002314B09F0FCFC02460B46104619460F
:100430004FF000022D4B09F071FD02460B46264994
:10044000C1E90023244BD3E90023104619460CF0E0
:100450008CFB0346FB83B7F91E30632B01DD64235D
:10046000FB83B7F91E3013F1630F02DA4FF69C736A
:10047000FB83B7F91E30002B40DC1D4B1B681B684B
:100480009AB2B7F91E301A4909680868194909680B
:100490000968411A01FB03F3174981FB0301491164
:1004A000DB17CB1A9BB213449BB2BB833FE000BF68
:1004B0001F85EB51B81E0940163C00200C3C002063
:1004C0000E3C0020103C002046010020123C002081
:1004D0004401002048010020E00700200080664021
:1004E00000004EC000004E400000244000001840B4
:1004F000080100200C0100201F85EB516D4B1B688B
:100500001B689AB2B7F91E306B49096808686949D7
:1005100009680968411A01FB03F3684981FB03017B
:100520004911DB17CB1A9BB213449BB2BB83B7F9BB
:100530001C306FF0DB0202FB03F303F5860303F5C7
:100540000E535F4AC2F88030B7F91E3018460CF0DF
:10055000B3F803467B837B8BC3F164039BB27B833D
:10056000B7F91A30B7F9142002FB03F3534A82FBA0
:1005700003125211DB17D31A7B83B7F91A300A2BF7
:1005800001DC7B8A7B83B7F90C304E4AB2F900203C
:1005900003FB02F24C4BB3F9003019464A4BB3F956
:1005A000003003FB01F1474BB3F900301846454BCF
:1005B000B3F9003000FB03F30B4492FBF3F3013378
:1005C0009AB27B8B12FB03F39BB23B83B7F90C30DF
:1005D0003C4AB2F9002003FB02F23B4BB3F9003076
:1005E0001946394BB3F9003003FB01F1354BB3F930
:1005F00000301846334BB3F9003000FB03F30B44D3
:1006000092FBF3F3C3F101039AB27B8B12FB03F36A
:100610009BB2FB822D4B1B681B689AB2B7F918304E
:100620002B4909680868294909680968411A01FBCA
:1006300003F3224981FB03014911DB17CB1A9BB25B
:1006400013449BB23B82234B1B681B689AB2B7F9D9
:1006500016302149096808681E4909680968411A65
:1006600001FB03F3154981FB03014911DB17CB1A89
:100670009BB213449BB2FB81B7F910306FF0DB02E1
:1006800002FB03F303F5860303F50E53134A936746
:10069000B7F90E306FF0DB0202FB03F303F58603BC
:1006A00003F50E530D4AC2F8803000BF2037BD4617
:1006B000B0BD00BF08010020100100201F85EB51D4
:1006C00000900040103C002048010020180100204C
:1006D0001C0100202401002028010020008004408B
:1006E0002DE9F3478DED000B0BF093FF55EC104B0C
:1006F0007F4B0022204629460CF0B0FA002800F07B
:10070000C38022462B467A49002009F007FC4FF0AF
:10071000020A04460D465EA3D3E90023204629467B
:100720000CF09CFA28B35CA3D3E9002320462946A9
:1007300009F076FB6F4B002209F086FC6D4B00221E
:1007400009F082FC22462B4609F058FD54A3D3E958
:10075000002306460F462046294609F04FFD024673
:100760000B463046394609F0D9FB0AF1010A044626
:100770000D4645EC104B0BF04CFF4BA3D3E9002387
:1007800051EC100B0CF06AFA00285DD022462B4683
:100790002046294609F044FB45A3D3E90023064639
:1007A0000F4609F03DFB44A3D3E9002309F04CFCBC
:1007B00032463B4609F034FB41A3D3E9002309F05C
:1007C00043FC32463B4609F02BFB3FA3D3E9002311
:1007D00009F03AFC32463B4609F022FB3CA3D3E940
:1007E0000023804689463046394609F007FD3246E7
:1007F0003B4609F015FB38A3D3E9002309F0FEFCC2
:1008000032463B4609F00CFB35A3D3E9002309F03F
:10081000F5FC32463B4609F003FB33A3D3E9002342
:1008200009F0ECFC02460B464046494609F076FBCF
:1008300022462B4609F0F4FA02460B46204629468A
:1008400009F0DCFC04460D46BAF1010F02DD05F1AA
:1008500000431D46284B03EBCA03D3E9002320467F
:10086000294609F0CBFC002204460D460023DDE9B1
:1008700000010CF0C6F910B105F100431D4645EC2E
:10088000104B02B0BDE8F087824644E7AFF300802A
:1008900056CD9E5E1426D13F5599B0D0F56CE73FFA
:1008A000AA4C58E87AB6FB3FBBBDD7D9DF7CDB3D0D
:1008B000BD87B1D97ACDEABF636A8D5C3FFD204028
:1008C000CBBCE2B97F813440E21C0651A6602B40CC
:1008D00010C74AE1490C2E40D7A30D320ACA4D4039
:1008E000A56D0B04128A5540A995C4BC7C88444070
:1008F0000000F03F0000E03F48CE000080B582B02D
:1009000000AF78607968024809F044F900BEFDE75D
:1009100068CE000080B500AF00F038F8174B5B6977
:10092000164A43F080635361154BD3F88831144A5B
:1009300023F00F03C2F88831114BD3F88831104AE5
:1009400043F00403C2F888310E4B03F50053DB6813
:100950000C4A43F0040302F50052D3600A4B1B68B3
:100960001B686FF0DB0202FB03F303F5860303F55C
:100970000E53024AC2F8803000BF80BD0090004094
:100980000010004000C008400000002080B582B088
:1009900002AF0949094806F083FA00230093084B87
:1009A000074A0221054806F0B5FA044809F098FD07
:1009B00000BFBD4680BD00BF7CCE0000009000405F
:1009C0008023430080B500AF00F042F81E4B1B6E41
:1009D0001D4A23F00F0313661B4B1B6E1A4A43F08C
:1009E00003031366184B1B6E174A43F0200313666C
:1009F000164B03F500531B68144A23F4FF5323F0EE
:100A00001F0302F5005213600F4B5B6E0E4A23F07A
:100A10000F0353660C4B5B6E0B4A43F003035366A4
:100A2000094B5B6E084A43F020035366074B03F5FE
:100A300000531B68054A23F4FF5323F01F0302F5FC
:100A40000052136000BF80BD0010004000C008408D
:100A500080B500AF0C490D4806F022FA01220C497E
:100A60000A4806F009FB012301220021074806F08D
:100A7000B3FA012301220121044806F0ADFA03482C
:100A800009F04AFD00BF80BD84CE00000080024016
:100A90000C00002080B582B000AF7860144809F0E7
:100AA0002FFD0246134B1B68D31A134A1360134BD6
:100AB0001B781946104B1B68114A42F821300C482C
:100AC00009F01EFD03460B4A13600C4B1B78642B88
:100AD00006D80A4B1B780133DAB2084B1A7002E0D1
:100AE000064B00221A7000BF0837BD4680BD00BF0C
:100AF00000800240E8070020EC070020183C00209E
:100B0000F807002080B582B000AF7860144809F083
:100B1000F7FC0246134B1B68D31A134A1360134B9E
:100B20001B781946124B1B68124A42F821300C48B8
:100B300009F0E6FC03460B4A13600C4B1B78642B50
:100B400006D80A4B1B780133DAB2084B1A7002E060
:100B5000064B00221A7000BF0837BD4680BD00BF9B
:100B600000800240F0070020F4070020193C00201C
:100B7000EC0700208809002080B483B000AF034652
:100B8000FB7197F90730002B0BDBFB7903F01F0299
:100B9000074997F907305B09012000FA02F241F892
:100BA000232000BF0C37BD465DF8047B704700BFB3
:100BB00000E100E080B483B000AF0346FB7197F919
:100BC0000730002B12DBFB7903F01F020A4997F96B
:100BD00007305B09012000FA02F2203341F823209C
:100BE000BFF34F8F00BFBFF36F8F00BF00BF0C3745
:100BF000BD465DF8047B704700E100E080B483B03F
:100C000000AF03463960FB7197F90730002B0ADB10
:100C10003B68DAB20C4997F907305201D2B20B4463
:100C200083F800230AE03B68DAB20849FB7903F055
:100C30000F03043B5201D2B20B441A7600BF0C37AB
:100C4000BD465DF8047B704700E100E000ED00E088
:100C5000B0B500AF134809F00AFD134809F0E9FCEC
:100C60001249134807F00AFF0121114809F0C5FC99
:100C7000104B1B68104AA2FB03239B0900221C4651
:100C8000154622462B460A480BF036FC002126204A
:100C9000FFF7B4FF262009F04FFC054809F09DFC42
:100CA00000BFB0BD180B00202C0B00208CCE000024
:100CB00000D0024040010020D34D621080B582B0C8
:100CC00000AF00237B60262009F04CFC0346002B7C
:100CD00009D1074809F020FD034603F003037B60B8
:100CE000262009F029FC7B6818460837BD4680BDE0
:100CF000180B002080B582B000AF00237B60262057
:100D000009F030FC0346002B06D1064809F09EFC92
:100D10007860262009F010FC7B6818460837BD462D
:100D200080BD00BF2C0B002098B500AF142203211A
:100D30001E4809F02DFC0346DCB2162203211B4895
:100D400009F026FC0346DBB21A462146184800F09B
:100D500037F8184B1B78092B18D915220321134893
:100D600009F016FC034603F001041E2203210F487C
:100D700009F00EFC03465B0003F00203234319460F
:100D80000D4809F089FC0B4B00221A70094B1B78A7
:100D90000133DAB2074B1A700121084809F00CFC44
:100DA000BFF34F8F00BF00BF98BD00BF00C0084019
:100DB0002C0B00201A3C0020180B002000D0024011
:100DC00080B483B000AF78600B46FB701346BB70F5
:100DD0007B681B78DBB29B00DBB203F00F03DAB257
:100DE0007B681A70FB78002B07D07B681B78DBB21E
:100DF00043F00203DAB27B681A70BB78002B07D08D
:100E00007B681B78DBB243F00103DAB27B681A70AF
:100E10007B681B78DBB21A46144B99567B685B786B
:100E20005BB2DAB2CBB21344DBB25AB27B685A700F
:100E30007B681B78DBB203F00A030A2B0FD17B68B7
:100E40005B785BB2002B0AD07B685B785AB27B6818
:100E50005B681A447B685A607B6800225A7000BF46
:100E60000C37BD465DF8047B704700BF90CE000094
:100E700080B582B000AF0346FB710B46BB711346D1
:100E80007B713F4B1B68002B04D03D4B1B68184601
:100E900009F071FC3B4B1B78012B02D0022B2FD0A9
:100EA00060E0BB79002B04D0364B02221A7000F0B0
:100EB000ABFB334B1B68002B51D0FB79002B04D0CC
:100EC0002F4B1B68184609F057FD97F90530002B8A
:100ED00006DA2B4B1B680121184609F022FE09E0B7
:100EE00097F90530002B05DD254B1B6801211846BD
:100EF00009F0B5FD224B1B68184609F087FE2EE06D
:100F0000BB79002B04D01F4B01221A7009F0EEFCB4
:100F10001B4B1B68002B24D0FB79002B04D0184BF3
:100F20001B68184609F028FD97F90530002B06DAF2
:100F3000134B1B680121184609F0F3FD09E097F9EE
:100F40000530002B05DD0E4B1B680121184609F00A
:100F500086FD0B4B1B68184609F058FE01E000BFE8
:100F600000E000BF064B1B68002B04D0044B1B683D
:100F7000184609F00FFC00BF0837BD4680BD00BF12
:100F8000340B00201B3C002080B58AB002AF786093
:100F90001423BB6104F070FA0346BB600023FB61BD
:100FA00001F0DEFE3C4809F041FE3C4809F03EFEFF
:100FB0003B4809F03BFE3B4809F038FE3A4809F04F
:100FC00035FE3A4809F032FE394809F02FFE39481B
:100FD00009F02CFE384809F029FE384809F026FEB1
:100FE000374809F023FE374809F0A7FB364B0122AA
:100FF00001925A6800921B680022002131480AF0D1
:101000000AF8304809F0A8FB642004F005F92D48DF
:1010100009F093FB2D4B012201925A6800921B6844
:1010200000220021274809F0F6FF264809F094FB2A
:10103000642004F0F1F8264B01221A7000F0D8FF6A
:1010400000F0CCFEFFF704FEFFF738FE78617B6905
:10105000DBB203F00103FB747B695B08DBB203F0D6
:101060000103BB74FFF746FEF860FB685AB2B97C17
:10107000FB7C1846FFF7FCFEFB695A1CFA61192B32
:1010800003D80023FB6100F0E3FE07F10803B96910
:10109000184604F041F8D7E7F40000202C000020A7
:1010A0004000002054000020680000207C00002048
:1010B00090000020A4000020B8000020CC000020F8
:1010C000E0000020CC0B0020A0D20000A8D6000039
:1010D0001B3C002080B58AB004AF78600023FB750C
:1010E0007B685B7A03F00203DBB2002B00F03E82E8
:1010F0007B4809F072FB00230293012301933F23F5
:1011000000937F230D220021754809F063FE754B83
:10111000012201925A6800921B683922002170480E
:1011200009F079FF704B012201925A6800921B6806
:10113000132205216A4809F06EFF6B4B01220192D0
:101140005A6800921B6813222321654809F063FF47
:10115000654B012201925A6800921B6813224221BA
:101160005F4809F058FF604B012201925A680092D3
:101170001B68132260215A4809F04DFF7B681B7AD7
:10118000022B0BD1594B012201925A6800921B6825
:1011900039222821524809F03EFF4DE07B681B7A36
:1011A000002B0CD101230293012301932C230093E4
:1011B0001E23142206214A4809F00CFE31E07B6808
:1011C0001B7A012B0CD101230293012301932C23C1
:1011D00000933C2314222421414809F0FBFD20E028
:1011E0007B681B7A032B0CD101230293012301930B
:1011F0002C2300935B2314224321394809F0EAFD94
:101200000FE07B681B7A042B0BD10123029301238F
:1012100001932C230093792314226121304809F093
:10122000D9FD334B012201925A6800921B68392282
:1012300028212B4809F0EFFE7B685B683B613B6926
:101240005B691B68092B16D83B695B691A68294BD7
:1012500083FB02139910D317C91A0B469B000B444A
:101260005B00D11ACBB23033DBB23B7200237B720E
:101270000123FB758CE03B695B691B68632B3BD8E2
:101280003B695B691B681B4A82FB03129210DB17E8
:10129000D21A184B83FB02139910D317C91A0B46A5
:1012A0009B000B445B00D11ACBB23033DBB23B72F4
:1012B0003B695B691A680F4B83FB02139910D317C4
:1012C000C91A0B469B000B445B00D11ACBB23033DA
:1012D000DBB27B720023BB720223FB7558E000BFB8
:1012E000CC0B002050E100002CE3000064E3000080
:1012F0009CE30000676666663B695B691B68B3F543
:101300007A7F45D23B695B691B689A4A82FB03126C
:101310005211DB17D21A984B83FB02139910D31783
:10132000C91A0B469B000B445B00D11ACBB2303379
:10133000DBB23B723B695B691B688F4A82FB03121D
:101340009210DB17D21A8C4B83FB02139910D31720
:10135000C91A0B469B000B445B00D11ACBB2303349
:10136000DBB27B723B695B691A68834B83FB0213B8
:101370009910D317C91A0B469B000B445B00D11A76
:10138000CBB23033DBB2BB720023FB720323FB759D
:101390007B681B7A002B14BF01230023DBB21A46A3
:1013A000764B01925A6800921B68162208217448F5
:1013B00009F031FEFB7DC3F10303DBB25B00DBB25E
:1013C0000D33DBB21E2219466D4809F0F2F97B6835
:1013D0001B7A002B14BF01230023DBB21A46694B92
:1013E00007F108010192012200920CCB644809F038
:1013F000F2FD7B685B6828333B613B695B691B6876
:1014000003F00103002B12D07B681B7A012B14BF61
:1014100001230023DBB21A465B4B01925A6800920B
:101420001B6816222621564809F0F5FD11E07B685D
:101430001B7A012B14BF01230023DBB21A46534B46
:1014400001925A6800921B68162226214C4809F026
:10145000E2FD7B685B6878333B613B695B691B68D5
:1014600003F00103002B12D07B681B7A032B14BFFF
:1014700001230023DBB21A46454B01925A680092C1
:101480001B68162245213E4809F0C5FD11E07B6826
:101490001B7A032B14BF01230023DBB21A463D4BFA
:1014A00001925A6800921B6816224521344809F0BF
:1014B000B2FD7B685B68A0333B613B695B6919687F
:1014C000354BA3FB01235A0813465B001344CA1A89
:1014D0001346FB73FB7B022B2CD0022B3DDC002B35
:1014E00002D0012B13D038E07B681B7A042B14BF89
:1014F00001230023DBB21A46284B01925A6800925E
:101500001B68162263211E4809F085FD25E07B68D3
:101510001B7A042B14BF01230023DBB21A46204B95
:1015200001925A6800921B6816226321144809F040
:1015300072FD12E07B681B7A042B14BF0123002389
:10154000DBB21A46174B01925A6800921B681622AA
:1015500063210B4809F05FFD00BF094809F04CF911
:101560007A68537A6FF34103537200E000BF183773
:10157000BD4680BD1F85EB5167666666C8E000000A
:10158000CC0B0020F0DF000038E0000098E1000004
:10159000E0E1000080E00000ABAAAAAA28E2000077
:1015A00070E20000B8E2000080B483B000AF786061
:1015B00039607B68134AA2FB0323D908114BA3FBB4
:1015C0000123DA0813469B0013445B00CA1AD3B206
:1015D0003033DAB23B681A7079680A4BA3FB0123F7
:1015E000DA0813469B0013445B00CA1AD2B23B6868
:1015F00001333032D2B21A7000BF0C37BD465DF8ED
:10160000047B7047CDCCCCCC80B500AF08490948ED
:1016100009F051F9064B02221A720749054809F0F0
:101620004AF9044B1B68184609F08FF900BF80BDCA
:10163000F4000020340B00202C00002080B500AF07
:101640000549064809F037F9044B1B68184609F0AC
:101650007CF900BF80BD00BF40000020340B00209B
:1016600080B500AF0549064809F025F9044B1B6811
:10167000184609F06AF900BF80BD00BF5400002081
:10168000340B002080B586B004AF0346FB712148BF
:1016900009F0D5F800230293012301933F2300931F
:1016A0007F230D2200211B4809F094FB1222082100
:1016B000184809F0B0F8184B01220192002200925C
:1016C0000CCB1649134809F086FC22220B21114845
:1016D00009F0A1F8104B01220192002200920CCBDC
:1016E0000F490C4809F077FC32221D21094809F006
:1016F00092F8094B01220192002200920CCB094979
:10170000044809F068FC034809F0A8F800BF08374E
:10171000BD4680BDCC0B0020D4E7000060EA00008D
:1017200074EA000080EA000080B500AF0549064871
:1017300009F0C1F8044B1B68184609F006F900BF10
:1017400080BD00BF90000020340B002080B500AFAA
:101750000549064809F0AFF8044B1B68184609F024
:10176000F4F800BF80BD00BFA4000020340B0020AF
:1017700080B500AF0549064809F09DF8044B1B6889
:10178000184609F0E2F800BF80BD00BFB800002095
:10179000340B002080B500AF0549064809F08BF8EE
:1017A000044B1B68184609F0D0F800BF80BD00BF8D
:1017B000CC000020340B002080B500AF054906485E
:1017C00009F079F8044B1B68184609F0BEF800BF11
:1017D00080BD00BFE0000020340B002080B500AFCA
:1017E0000549064809F067F8044B1B68184609F0DC
:1017F000ACF800BF80BD00BF68000020340B0020A3
:1018000080B500AF0549064809F055F8044B1B6840
:10181000184609F09AF800BF80BD00BF7C00002088
:10182000340B002090B58DB004AF0346FB7100234C
:10183000FB7700237B77834B07F10C040FCB07C4A6
:1018400023800023BB76804B9B6F804AA2FB03233F
:101850005A0C07F10C030D337D49184608F030F996
:101860007C4808F0ECFF00230293012301933F23FF
:1018700000937F230D220021764809F0ABFA002364
:10188000FB7738E0FB7F744AD35CDBB2734AA2FB80
:1018900003239B08DBB2C3F140037B777A7FF97F98
:1018A00001236C4809F03BFAFB7F6D4AD35CDBB245
:1018B000012B0BD1FB7FF97F0122029201220192C1
:1018C0001E2200920D22634809F084FAFB7F644ACD
:1018D000D35CDBB2022B0BD1FB7FF97F012202929A
:1018E000012201921E2200920D225A4809F072FA3A
:1018F000FB7F0133FB7797F91F30002BC2DA594B7E
:101900001B78DBB2002B23D0574B1B78D9B2564B38
:101910001B78DBB201220292012201923F22009247
:101920000D224C4809F056FA4F4B1B78DBB20133BD
:10193000DBB232221946474808F06DFF4B4B0122BB
:101940000192002200920CCB4949424809F043FB26
:10195000484B1B78DBB2002B23D0474B1B78D9B206
:10196000454B1B78DBB201220292012201923F22F9
:1019700000920D22374809F02DFA3F4B1B78DBB25D
:10198000073BDBB232221946324808F044FF374B9E
:1019900001220192002200920CCB38492D4809F017
:1019A0001AFB344B1B78DBB2002B04D12D4B1B7878
:1019B000DBB2002B2AD0324B1B78BB77304B1B7825
:1019C0002F4B1B78DBB25BB2002B01DA7F23BB7796
:1019D000BB7FB97F01220292012201923F22009235
:1019E0002B221C4809F0F6F9BB7F073BDBB2322201
:1019F0001946184808F00FFF1C4B012201920022E3
:101A000000920CCB1F49134809F0E5FA114808F081
:101A100025FF1D4B5B6D002B0FD0122200210D48BE
:101A200008F0F9FE114B07F10C010122019200228E
:101A300000920CCB074809F0CEFA00BF2437BD4610
:101A400090BD00BF94EA00000080004041288598C6
:101A50008CEA0000CC0B0020E80B0020CDCCCCCCD5
:101A6000680F00201C3C00201E3C0020D4E7000032
:101A700030F800001D3C00201F3C002054EB00000B
:101A8000143C002090EA0000E80F002080B584B0EC
:101A900000AF0346FB710023FB730023BB730023DD
:101AA000FB7313E0FB7B124AD35C5BB2DAB2FB7BC5
:101AB0001049CB5CDBB2D31ADBB2803BDAB2FB7BE2
:101AC00051B20B4AD154FB7B0133FB7397F90F30B2
:101AD000002BE7DA0849094808F0EDFE074B1B68C0
:101AE000184608F032FF00BF1037BD4680BD00BF6A
:101AF000E80C0020E80B002054000020340B0020EC
:101B000090B58DB004AF0346FB710023FB77002333
:101B10007B77834B07F10C040FCB07C42380002392
:101B2000BB76804B9B6F804AA2FB03235A0C07F1C4
:101B30000C030D337D49184607F0C2FF7C4808F0BE
:101B40007EFE00230293012301933F2300937F2312
:101B50000D220021764809F03DF90023FB7738E09B
:101B6000FB7F744AD35CDBB2734AA2FB03239B085E
:101B7000DBB2C3F140037B777A7FF97F01236C48A6
:101B800009F0CDF8FB7F6D4AD35CDBB2012B0BD1A2
:101B9000FB7FF97F01220292012201921E22009214
:101BA0000D22634809F016F9FB7F644AD35CDBB26F
:101BB000022B0BD1FB7FF97F0122029201220192BD
:101BC0001E2200920D225A4809F004F9FB7F0133CE
:101BD000FB7797F91F30002BC2DA594B1B78DBB229
:101BE000002B23D0574B1B78D9B2564B1B78DBB256
:101BF00001220292012201923F2200920D224C48C2
:101C000009F0E8F84F4B1B78DBB20133DBB232222C
:101C10001946474808F0FFFD4B4B01220192002274
:101C200000920CCB4949424809F0D5F9484B1B7842
:101C3000DBB2002B23D0474B1B78D9B2454B1B7826
:101C4000DBB201220292012201923F2200920D2278
:101C5000374809F0BFF83F4B1B78DBB2073BDBB2DC
:101C600032221946324808F0D6FD374B0122019244
:101C7000002200920CCB38492D4809F0ACF9344BC6
:101C80001B78DBB2002B04D12D4B1B78DBB2002B71
:101C90002AD0324B1B78BB77304B1B782F4B1B78ED
:101CA000DBB25BB2002B01DA7F23BB77BB7FB97F4E
:101CB00001220292012201923F2200922B221C4813
:101CC00009F088F8BB7F073BDBB23222194618487F
:101CD00008F0A1FD1C4B01220192002200920CCBC6
:101CE0001F49134809F077F9114808F0B7FD1D4B5B
:101CF0005B6D002B0FD0122200210D4808F08BFDE8
:101D0000114B07F10C0101220192002200920CCB31
:101D1000074809F060F900BF2437BD4690BD00BFF9
:101D200094EA000000900440412885988CEA000065
:101D3000CC0B0020680D0020CDCCCCCC680F00204F
:101D40001C3C00201E3C0020D4E7000030F80000BE
:101D50001D3C00201F3C002054EB0000143C0020E0
:101D600090EA0000E80F002080B584B000AF034681
:101D7000FB710023FB730023BB730023FB7313E091
:101D8000FB7B124AD35C5BB2DAB2FB7B1049CB5CC3
:101D9000DBB2D31ADBB2803BDAB2FB7B51B20B4A27
:101DA000D154FB7B0133FB7397F90F30002BE7DA3B
:101DB0000849094808F07FFD074B1B68184608F0E2
:101DC000C4FD00BF1037BD4680BD00BF680E0020B7
:101DD000680D002054000020340B002080B584B032
:101DE00004AF174808F02BFD002302930123019351
:101DF000382300937F230D220021114808F0EAFFC9
:101E00000021104808F057FD0F4B012201925A683B
:101E100000921B6812222721094809F0FCF80B4B9D
:101E2000012201925A6800921B683922002104485D
:101E300009F0F1F8024808F011FD00BFBD4680BD71
:101E4000CC0B0020340B002058EA000088E9000089
:101E500080B586B002AF03F00FFB03465E4AA2FBDB
:101E600003239B09FB60FB685C4AA2FB0323D90A9E
:101E70005B4BA3FB0123DA0813469B0013445B0072
:101E8000CA1AD3B23033DBB23B71FB68554AA2FBAE
:101E900003235909534BA3FB01235A0913461B0182
:101EA0009B1A9B00CA1A3B1D013319461046FFF7C7
:101EB0007BFBF9684B4BA3FB01235A0913461B011B
:101EC0009B1A9B00CA1A3B1D033319461046FFF7A5
:101ED0006BFB454808F0B3FC00220821424808F09B
:101EE0009AFC3979414B01220192012200920CCBDC
:101EF0003D4808F0AFFF00220E213B4808F08BFC64
:101F000079793A4B01220192012200920CCB36489A
:101F100008F0A0FF00221221334808F07CFCB979B8
:101F2000324B01220192012200920CCB2E4808F084
:101F300091FF002218212C4808F06DFCF9792B4BF9
:101F400001220192012200920CCB274808F082FF67
:101F500000221C21244808F05EFC397A234B012220
:101F60000192012200920CCB1F4808F073FF00225F
:101F700061211D4808F04FFC1C4B012201920122F7
:101F800000920CCB2D21184808F064FF0022652137
:101F9000154808F040FC154B0122019201220092E5
:101FA0000CCB2D21104808F055FF00226D210E4862
:101FB00008F031FC0D4B01220192012200920CCB62
:101FC0002D21094808F046FF074808F047FC00BFEC
:101FD0001037BD4680BD00BFD34D6210C5B3A2917E
:101FE000CDCCCCCC89888888CC0B00208CE5000037
:101FF00080B584B004AF6D4808F021FC0023029343
:10200000012301933F2300937F230022002167488F
:1020100008F0E0FE664B012201925A6800921B68AC
:1020200000220021614808F0F6FF624B0122019274
:102030005A6800921B68002200215C4808F0EBFF00
:10204000012301220C21594808F069FE01230322D3
:102050000C21564808F063FE012301221621534843
:1020600008F05DFE012303221621504808F057FEB8
:10207000002208214D4808F0CEFB4F4B012201926F
:10208000012200920CCB3021484808F0E3FE0022E8
:102090000E21464808F0BFFB474B01220192012266
:1020A00000920CCB3021414808F0D4FE00221221CE
:1020B0003E4808F0B0FB404B012201920122009201
:1020C0000CCB3021394808F0C5FE002218213748D2
:1020D00008F0A1FB384B01220192012200920CCBA7
:1020E0003021324808F0B6FE00221C212F4808F0AB
:1020F00092FB314B01220192012200920CCB302144
:102100002A4808F0A7FE2D4B012201925A6800923E
:102110001B6801227621254808F07DFF0123042257
:102120006A21224808F0FBFD002271211F4808F0B7
:1021300072FB214B01220192002200920CCB56210E
:102140001A4808F087FE00226121184808F063FB56
:10215000194B01220192012200920CCB2D21134830
:1021600008F078FE00226521104808F054FB124B5D
:1021700001220192012200920CCB2D210B4808F084
:1021800069FE00226D21094808F045FB0A4B012237
:102190000192012200920CCB2D21044808F05AFE36
:1021A000024808F05BFB00BFBD4680BDCC0B0020A1
:1021B000DCE80000ECE800008CE5000000E900002D
:1021C00080B500AF00F04EF8224B5B69214A43F026
:1021D00080735361204BD3F8A8311F4A23F00F03BB
:1021E000C2F8A8311C4BD3F8A8311B4A43F00303B3
:1021F000C2F8A831194B03F50053DB68174A43F4C2
:10220000806302F50052D360124B154A9A67114B56
:102210005B69104A43F0806353610F4BDB6E0E4ADB
:1022200023F00F03D3660C4BDB6E0B4A43F0030322
:10223000D3660A4B03F500531B68084A43F000635A
:1022400002F500521360034B054AC3F8802000BF1B
:1022500080BD00BF008004400010004000C0084066
:1022600020C83F0080B582B002AF0D490D4804F090
:1022700017FE002300930C4B0B4A0021094804F081
:1022800049FE00230093084B074A0221054804F049
:1022900041FE044808F032FB00BFBD4680BD00BFD0
:1022A000A4EA0000008004408023430080B58CB085
:1022B00004AF78607B685B7A03F00203DBB2002B2B
:1022C00000F036837B685B7A03F00103DBB2002BFE
:1022D00010D07B685A687B681B7A19460B469B00B6
:1022E0000B44DB0013449B7C032B03D1786808F07C
:1022F00076FC1EE37B681A7A7B681B789A4202D3CD
:102300007B6800221A727B681B7AAF4AA2FB032308
:102310009B08BB767B681A7AAB4BA3FB0213990828
:102320000B469B000B44D31A7B767B681B78A64A2E
:10233000A2FB03239B08DBB2BA7E9A420BD17B68D7
:102340001A78A14BA3FB021399080B469B000B4480
:10235000D31ADBB200E005233B76786800F0BAFCC4
:1023600000230293012301933F2300937F230D2237
:102370000021786800F06CFC0023FB766DE2FB7EA8
:102380001A46920013445B00DBB21233D8B2FB7ED4
:102390001A46920013445B00DBB21333DBB2F97EC2
:1023A0007A7E91420CBF01220022D2B20292012217
:1023B00001920093002302460021786800F048FC57
:1023C000FB7E1A46920013445B00DBB21133D8B295
:1023D000FB7E1A46920013445B00DBB21433DBB27F
:1023E000F97E7A7E91420CBF01220022D2B2029283
:1023F000012201920093012302460121786800F036
:1024000027FCFB7E1A46920013445B00DBB21033BC
:10241000D8B2FB7E1A46920013445B00DBB2153340
:10242000DBB2F97E7A7E91420CBF01220022D2B249
:10243000029201220192009302230246022178684F
:1024400000F006FCFB7E1A46920013445B00DBB2F0
:102450000F33D8B2FB7E1A46920013445B00DBB206
:102460001633DBB2F97E7A7E91420CBF0122002244
:10247000D2B2029201220192009303230246032169
:10248000786800F0E5FBFB7E1A46920013445B007F
:10249000DBB20E33D8B2FB7E1A46920013445B00C7
:1024A000DBB21733DBB2F97E7A7E91420CBF012298
:1024B0000022D2B202920122019200937A230246B4
:1024C0000421786800F0C4FBFA7E3B7E9A4280F0DB
:1024D000C1817B685968BA7E13469B001A44FB7E13
:1024E00013441A4613469B001344DB000B443B6124
:1024F000FB7E1A46920013445B00DBB20F33D9B265
:102500003869FA7E7B7E9A4214BF01230023DBB236
:10251000009303460A460521786800F0B9FB3B6941
:102520009B7C022B40F0EA807B685B7A03F001031E
:10253000DBB2002B19D0FB7E1A46920013445B00DD
:10254000DBB20E33DAB2FB7E194689000B445B0026
:10255000DBB21733DBB2002102910121019100931C
:1025600078235421786800F073FB3B695B691B6832
:10257000FB61FB6942F20F72934205DD3E233B7221
:1025800042F20F73FB6114E0FB69104A934205DAD3
:102590003C233B7242F20F73FB610AE0FB69002BA4
:1025A00005DA2D233B72FB695B42FB6101E02023CE
:1025B0003B723B7A3C2B0BD1FB6942F20F72934288
:1025C00006D12D237B7215E0CDCCCCCCF1D8FFFF0A
:1025D000FB69474A82FB03129211DB17D31AFB8176
:1025E000FB89002B04D0FB89DBB23033DBB200E087
:1025F00020237B72FB693F4A82FB03125211DB17D7
:10260000D21A3D4B83FB02139910D317C91A0B46FC
:102610009B000B445B00D11A0B46FB81FB89002B0E
:1026200004D0FB89DBB23033DBB205E0FB69632BFE
:1026300001DC202300E03023BB72FB692E4A82FBC1
:1026400003129210DB17D21A2B4B83FB0213991043
:10265000D317C91A0B469B000B445B00D11A0B46DB
:10266000FB81FB89002B04D0FB89DBB23033DBB26A
:1026700005E0FB69632B01DC202300E03023FB72C3
:10268000FA691D4B83FB02139910D317C91A0B4625
:102690009B000B445B00D11A0B46FB81FB89DBB22C
:1026A0003033DBB23B7300237B73FB7E1A46920010
:1026B00013445B00DBB20F33D9B2FA7E7B7E9A42C1
:1026C00006D17B685B7A03F00103DBB2002B01D0FB
:1026D000012300E0002303F00103DBB207F108024D
:1026E000009313460A465521786800F0D1FAB1E00C
:1026F000D34D62101F85EB51676666663B699B7C14
:10270000012B40F0A780FA7E7B7E9A4219D1FB7E96
:102710001A46920013445B00DBB20E33DAB2FB7E42
:10272000194689000B445B00DBB21733DBB2002192
:10273000029101210191009379237021786800F0C2
:1027400087FAFB7E1A46920013445B00DBB20F331C
:10275000DAB2FB7E194689000B445B00DBB216330C
:10276000DBB20121029100210191009378237121B4
:10277000786800F06DFA3B695B691B6803F0010340
:10278000002B67D0FB7E1A46920013445B00DBB23D
:102790001133DAB201237321786800F03FFAFB7E2F
:1027A0001A46920013445B00DBB21233DAB2012303
:1027B0007421786800F032FAFB7E1A4692001344C6
:1027C0005B00DBB21333DAB201237521786800F0C5
:1027D00025FAFB7E1A46920013445B00DBB21433E9
:1027E000DAB201237621786800F018FAFB7E1A46E7
:1027F000920013445B00DBB21433DAB2012373217D
:10280000786800F00BFAFB7E1A46920013445B00D6
:10281000DBB21333DAB201237421786800F0FEF9D9
:10282000FB7E1A46920013445B00DBB21233DAB22D
:1028300001237521786800F0F1F9FB7E1A469200B9
:1028400013445B00DBB21133DAB2012376217868DE
:1028500000F0E4F9FB7E0133FB76FB7E042B7FF670
:102860008EAD7B681B781A462D2393FBF2F3FB7524
:1028700001230293002301930E2300937F230E2252
:102880007D21786800F0E4F97B681B78FA7D12FB03
:1028900003F3DBB21233D9B27B681B78FA7D12FBEB
:1028A00003F3DBB21233DBB2012202920022019267
:1028B00000937F230A467D21786800F0C9F97B6880
:1028C0001B78FA7D12FB03F3DBB21033DBB200227C
:1028D00002920122019200937F2310227D217868C9
:1028E00000F0B6F97B681B7AFA7D12FB03F3DBB2CA
:1028F0001033D9B27B681B7A0133DBB2FA7D12FB4D
:1029000003F3DBB21033DBB2012202920122019207
:1029100000937F230A467D21786800F099F9786852
:1029200000F0E6F97A68537A6FF34103537200E0DE
:1029300000BF2037BD4680BD80B582B000AF786053
:1029400039603B681D2B02D91048FDF7D7FF7B6823
:1029500003F120023B68DBB25B09DBB29B0013444E
:1029600019683B68DBB203F01F0301229A407B68C1
:1029700003F120003B68DBB25B09DBB29B00034440
:102980000A431A6000BF0837BD4680BDACEA0000AC
:1029900080B586B002AFF860B9607A603B60FB68D2
:1029A000BA681A60FB687A681A65FB683A685A6503
:1029B00003220021012008F079FD0246FB689A6697
:1029C000012008F0E7FD0246FB68DA66FB681B6D34
:1029D000184604F023FDFB685833184605F032FC16
:1029E000FB68BA69DA65FB681868FB685833FA69EE
:1029F000194609F043FC4FF080430022C3F8B82287
:102A0000FB681A6DFB685B6D19461046FFF794FF73
:102A1000FB6803F14000FB68196DFB685B6D1A46AB
:102A200004F0FAFEFB681868FB68191DFB68403368
:102A30000093FB68034A05F0BFFE00BF1037BD4698
:102A400080BD00BF492A000080B586B000AFF860A5
:102A5000B9607A603B603B687B617B697A685A66E3
:102A60007B699B6E07F110021146184608F048FE7C
:102A70003B69002B07D0064B4FF080521A60BFF322
:102A80004F8FBFF36F8F00BF1837BD4680BD00BFAB
:102A900004ED00E080B582B000AF78601E23164AD6
:102AA0000021786800F08AF87B689A1D01230021D4
:102AB000786800F083F87B68DA1D012300217868CC
:102AC00000F07CF87B6803F108020123002178689C
:102AD00000F074F80021786808F0FFF8786808F0D2
:102AE00029FB0123054A0021786800F067F800BF40
:102AF0000837BD4680BD00BF2CEB00004AEB00004C
:102B000080B584B002AF7860084611461A46034685
:102B1000FB700B46BB7013467B707B68FA781A70AB
:102B20007B68BA785A707B687A789A70BB787A78C2
:102B300002FB03F3DB109AB27B689A807B68A022C9
:102B4000DA717B68C0229A717B68A6221A727B6850
:102B500000229A727B680022DA727B683A69DA6036
:102B6000012008F017FD02467B689A617B689B692B
:102B7000002B01D100BFFDE77B689A697B681A6171
:102B80007B6800221A757B681846FFF783FF0023D5
:102B90000193042300937B68BE220649064808F08F
:102BA0009BFF0346012B01D000BFFDE700BF0837A4
:102BB000BD4680BD4CEB00009FB1000080B584B0E5
:102BC00000AFF8607A603B600B46FB72FB681A78D6
:102BD000104B1A710F4B00225A71FB7A002B01D156
:102BE000002300E040230B4A93600A4B0122DA6085
:102BF000084A7B681361074A3B685361054B002212
:102C00001A600449044808F02DF800BF1037BD468B
:102C100080BD00BF440B00205C0B002080B582B05B
:102C200000AF7860084611461A460346FB700B4613
:102C3000BB7013467B707B78BA78F978034808F04C
:102C40006EF800BF0837BD4680BD00BFCC0B00202A
:102C500080B586B004AF7860084611461A46034630
:102C6000FB700B46BB7013467B703B7E7878BA785E
:102C7000F97802933B7D01933B7C00930346034824
:102C800008F0A8F800BF0837BD4680BDCC0B002077
:102C900080B586B002AFF8607B600B46FB721346CE
:102CA000BB72BA7AFB7A1946084808F096FA3B7E5E
:102CB000074A0193002300930CCA7968034808F07F
:102CC0008AF900BF1037BD4680BD00BFCC0B002085
:102CD00098ED000080B582B000AF7860034808F03E
:102CE00090FA00BF0837BD4680BD00BFCC0B002066
:102CF00080B582B000AF7860034808F091FA00BF59
:102D00000837BD4680BD00BFCC0B002080B483B027
:102D100000AF03463960FB7197F90730002B0ADBDF
:102D20003B68DAB20C4997F907305201D2B20B4432
:102D300083F800230AE03B68DAB20849FB7903F024
:102D40000F03043B5201D2B20B441A7600BF0C377A
:102D5000BD465DF8047B704700E100E000ED00E057
:102D600080B582B002AF02211020FFF7CFFF022111
:102D70000120FFF7CBFF0A4B01930A4B0093052379
:102D8000094A0A490A48FFF703FE0A4B00938023C9
:102D900040223C210848FFF7B3FE00BFBD4680BD7E
:102DA000001BB700801A0600002008400080084081
:102DB0005C0B002050010020CC0B002080B483B0BD
:102DC00000AF0346FB7197F90730002B0BDBFB7953
:102DD00003F01F02074997F907305B09012000FA49
:102DE00002F241F8232000BF0C37BD465DF8047B9A
:102DF000704700BF00E100E080B483B000AF03463D
:102E00003960FB7197F90730002B0ADB3B68DAB2B7
:102E10000C4997F907305201D2B20B4483F80023D2
:102E20000AE03B68DAB20849FB7903F00F03043B80
:102E30005201D2B20B441A7600BF0C37BD465DF882
:102E4000047B704700E100E000ED00E080B500AFDA
:102E500000F016F800F038F800F05AF800F092F898
:102E600000F0FEF800F0C0F900F014FA034B5B68C4
:102E7000024A23F00403536000BF80BD00500840A5
:102E800080B500AF0D490E4804F00AF80C4B002243
:102E90005A610B4B5B690A4A43F0807343F00303AA
:102EA0005361074A074B1B6893670A2008F0C7F96C
:102EB000034808F0E8F900BF80BD00BFA0ED0000A6
:102EC000008000402C01002080B500AF0D490E4865
:102ED00003F0E6FF0C4B00225A610B4B5B690A4A78
:102EE00043F0807343F003035361074A074B1B68A9
:102EF0009367252008F0A3F9034808F0C4F900BF40
:102F000080BD00BFA0ED0000009004403001002013
:102F100080B400AF4FF080430022C3F8F0224FF09E
:102F200080430422C3F8B4234FF08043D3F8043223
:102F30004FF0804243F00403C2F804324FF0804364
:102F4000D3F844314FF0804243F00403C2F84431D7
:102F50000B4B1B680A4A43F006031360084B1B68BF
:102F6000074A43F070031360054B1B68044A43F49F
:102F70000033136000BFBD465DF8047B704700BF9F
:102F80000050084080B500AF0C2008F058F9314BD4
:102F9000D3F8EC312F4A23F00F03C2F8EC312D4B5C
:102FA000D3F8EC312B4A43F00203C2F8EC312A4B40
:102FB00003F50053DB68284A43F0006302F5005232
:102FC000D360244BD3F8F431224A23F00F03C2F824
:102FD000F431204BD3F8F4311E4A43F00203C2F817
:102FE000F4311D4B03F50053DB681B4A43F00053DB
:102FF00002F50052D360194B40F2F312C3F80022DD
:10300000164B4FF0FF32C3F80023144B4FF480529D
:10301000C3F80423114B0122C3F808250F4B0122EA
:10302000C3F818250D4BF922C3F804220B4B4FF0BF
:10303000FF32C3F80823094B41F20102C3F80C2305
:10304000064B0222C3F80C25044B0222C3F81C25B0
:1030500000BF80BD0010004000C008400050084084
:1030600080B400AF414BD3F8E831404A23F00F035E
:10307000C2F8E8313D4BD3F8E8313C4A43F0020353
:10308000C2F8E8313A4B03F50053DB68384A43F0A5
:10309000806302F50052D360344BD3F8F031334AE9
:1030A00023F00F03C2F8F031304BD3F8F0312F4A40
:1030B00043F00203C2F8F0312D4B03F50053DB68F7
:1030C0002B4A43F0805302F50052D360294B40F263
:1030D000DF12C3F80822274B0022C3F81023254B28
:1030E00041F20202C3F81423224B0422C3F8002544
:1030F000204BD3F8F0301F4A43F00403C2F8F030FD
:103100001C4B40F2DF12C3F814221A4B0022C3F802
:103110002823184B41F20502C3F82C23154B20221B
:10312000C3F81025134BD3F8F030124A43F02003B4
:10313000C2F8F0300F4B1322C3F80C220D4B6FF086
:103140007042C3F818230B4B41F20302C3F81C234F
:10315000084B0822C3F80425064B0822C3F814259F
:1031600000BFBD465DF8047B704700BF0010004003
:1031700000C008400050084080B582B000AF7860C1
:10318000094B6FF07042C3F81023074B5B68064A87
:1031900023F0040353600121044808F066F800BFDF
:1031A0000837BD4680BD00BF005008400080004089
:1031B00080B582B000AF7860094B6FF07042C3F801
:1031C0002823074B5B68064A23F004035360012160
:1031D000044808F04AF800BF0837BD4680BD00BF6C
:1031E000005008400090044080B400AF0D4B40F206
:1031F0000312C3F810220B4B6FF07042C3F8202368
:10320000084B41F20402C3F82423064B1022C3F8F2
:103210002025044B0122C3F8242500BFBD465DF8DC
:10322000047B70470050084080B582B000AF174B58
:103230001B687B60154B1B68144A43F00203136044
:10324000124B0122DA66114BDB6E03F00103002BF7
:1032500016D00E4B1B680D4A43F0070313600B4B4F
:1032600001221A670A49642003F05EFD074B1B6FB9
:1032700003F00103012B05D0044A7B68136002E0D0
:1032800000BF00E000BF0837BD4680BD00000A4017
:1032900000EF1C0D80B500AF624B1B6C614A23F040
:1032A0000F0313645F4B1B6C5E4A23F4807313643B
:1032B0005D4B03F500531B685B4A23F4803302F532
:1032C00000521360574BDB6F564A23F00F03D3674E
:1032D000544BDB6F534A23F48073D367524B03F58F
:1032E00000531B68504A23F0004302F5005213605C
:1032F0004FF08043D3F810364FF0804223F48063C0
:10330000C2F810364FF08043D3F810364FF08042A9
:1033100023F40073C2F810364FF08043D3F8103610
:103320004FF0804223F40023C2F810364FF0804360
:10333000D3F810364FF0804223F40003C2F8103661
:103340003A49142003F0F0FC4FF08043D3F80032E8
:103350004FF0804243F00063C2F800324FF08043E8
:10336000D3F840314FF0804243F00063C2F840315F
:10337000FFF75AFF2E4B1B682D4A43F002031360E0
:103380002B4B1B682A4A23F4C0631360284B1B682D
:10339000274A43F400731360254B1B68244A43F407
:1033A00000531360224B9B68214A23F00043936033
:1033B0001F4B9B681E4A43F0100393601C4B9B6895
:1033C0001B4A43F020039360194B9B68184A43F44F
:1033D00040539360164B9B68154A43F480239360D7
:1033E000134B9B68124A43F400239360104B9B6875
:1033F0000F4A43F0804393600D4B9B680C4A43F0A7
:10340000004393600A4B5B6E094A43F00103536625
:1034100000211620FFF7F0FC162007F010FF00BF78
:1034200080BD00BF0010004000C0084000EF1C0D30
:1034300000000A4080B400AF1C4B1B78DBB25BB2CB
:10344000002B10DB1A4B1B6B190A184B1B78DBB2D5
:103450001A46C9B2174B9954144B1B78DBB201338F
:10346000DAB2124B1A70144B1B78DBB25BB2002B32
:1034700010DB0F4B5B6B190A0F4B1B78DBB21A4644
:10348000C9B20E4B99540C4B1B78DBB20133DAB244
:10349000094B1A70064B4FF080529A66BFF34F8F5C
:1034A00000BF00BFBD465DF8047B70474A010020A5
:1034B00000000A40680C00204B010020E80D0020AD
:1034C00080B400AF1B4BD3F8F43003F00403002B9F
:1034D0000CD0194B00221A70164B0022C3F810238F
:1034E000144B5B68134A23F004035360114BD3F869
:1034F000F43003F02003002B0CD0104B00221A7084
:103500000C4B0022C3F828230A4B5B68094A23F0BE
:1035100004035360074BD3F8F430064A43F0240306
:10352000C2F8F430BFF34F8F00BF00BFBD465DF857
:10353000047B7047005008404A0100204B010020E6
:1035400080B586B000AF786000237B610023FB74F8
:1035500018E0FB7C324AD35CDBB21A467B69134429
:103560007B61FB7C2F4AD35CD9B2FB7C2E4AD35CB7
:103570005BB2DAB2FB7C0A44D1B2294AD154FB7C5B
:103580000133FB7497F91330002BE2DA7B69C3F542
:10359000804213469B0013445B001A46234B1B6872
:1035A0001344224A1360224A204B1B68936700236E
:1035B000FB600023FB7218E0FB7A1E4AD35CDBB28F
:1035C0001A46FB681344FB60FB7A1B4AD35CD9B2F2
:1035D000FB7A1A4AD35C5BB2DAB2FB7A0A44D1B204
:1035E000144AD154FB7A0133FB7297F90B30002B4C
:1035F000E2DAFB68C3F5804213469B0013445B008C
:103600001A460F4B1B6813440D4A13600D4A0C4BAE
:103610001B68936700F030F8012001F0FDFD93E78F
:10362000E80B0020680C0020E80C00202C01002092
:1036300000800040680D0020E80D0020680E00208A
:10364000300100200090044080B400AF074B1B788D
:10365000DBB21946064B1B78DBB2064ACB1AD364A1
:1036600000BFBD465DF8047B704700BF1F3C0020D3
:103670001E3C0020E80F0020B0B586B000AF1E232E
:10368000FB730123BB731E237B7307233B73002350
:10369000FB720023FB750023BB7200237B720023A7
:1036A0003B720023FB710023BB7100237B7100235D
:1036B0003B7100233B750023FB74764BDB6CDAB265
:1036C000754B1A70754B00221A70754B00221A70D8
:1036D0000123BB7432E0BB7C724A0021D154BB7C15
:1036E000013B714AD35CDBB21946BB7C01336E4AA5
:1036F000D35CDBB2CA1AFB7B9A4204DDBB7C6B4A0B
:103700000121D15417E0BB7C0133674AD35CDBB2A3
:103710001946BB7C013B644AD35CDBB2CA1AFB7B13
:103720009A4204DDBB7C614A0221D15403E0BB7C98
:103730005E4A0021D154BB7C0133BB74BB7C7E2B21
:10374000C9D95B4B1B78DBB2002B02D0012B05D013
:103750001BE00123BB757E237B7516E0554B1B7860
:10376000DAB23B7BD31ABB75524B1B78DAB23B7B88
:1037700013447B75BB7D002B01D10123BB757B7D81
:103780007E2B01D97E237B7500BF01237B744DE026
:103790007B7C464AD35CDBB2012B44D17B7CFB7142
:1037A00002E07B7C01337B747B7C404AD35CDBB2E0
:1037B000012B02D17B7C7E2BF3D97B7C013BBB713F
:1037C000BA79FB79D31ABB72FB79374AD35CDAB288
:1037D000BB793549CB5CDBB2D31A7B72BA7ABB7B3F
:1037E0009A4220D37A7A7B7B9A421CD3BB7A5B08BD
:1037F000DAB2FB7913443B723B7A2A4A0121D15455
:103800003B7D01333B753A7ABB7D9A420BD33A7AC2
:103810007B7D9A4207D8274A3B7A13707B7AFB72EA
:103820001E4B01221A707B7C01337B747B7C7E2BC8
:10383000AED91F4B1B78DBB2002B02D0012B05D079
:103840001BE00123BB757E237B7516E01A4B1B78AA
:10385000DAB23B7BD31ABB75174B1B78DAB23B7BD2
:1038600013447B75BB7D002B01D10123BB757B7D90
:103870007E2B01D97E237B7500BF01233B7469E059
:103880003B7C0A4AD35CDBB2022B60D13B7C7B7170
:1038900017E000BFE80F00204C0100201D3C002075
:1038A0001C3C0020680F0020E80B0020E80E0020E0
:1038B000203C00201F3C00201E3C00203B7C0133AC
:1038C0003B743B7C834AD35CDBB2022B02D13B7C52
:1038D0007E2BF3D93B7C013B3B713A797B79D31A40
:1038E000BB723B797C4AD35CDAB27B797A49CB5C98
:1038F000DBB2D31A7B72BA7ABB7B9A4227D37A7A2D
:103900007B7B9A4223D3BB7A5B08DAB27B79134480
:103910003B723B7A714A0221D154FB7C0133FB7428
:103920007A7AFB7D9A4212D93A7ABB7D9A420ED3BB
:103930003A7A7B7D9A420AD8FB7D002B07D1684AF0
:103940003B7A13707B7AFB75664B01221A703B7CC5
:1039500001333B743B7C7D2B92D9624B1B78DBB2ED
:10396000002B04D1604B1B78DBB2002B15D05F4BD2
:103970001B78DBB21A465A4B1B78DBB2D31A1846B7
:1039800008F09AFE0346092B07DD554B1B78DAB287
:10399000564B1B78DBB29A4203D9554B00221A7062
:1039A0004CE0504B1B78DBB2002B13D14E4B1B78F5
:1039B000DBB2012B0ED14D4B1B78DBB21A464D4BBF
:1039C0001B78DBB25B08DBB2D31A9BB21AB24A4B4C
:1039D0001A8033E0434B1B78DBB2012B13D1424BEF
:1039E0001B78DBB2002B0ED13D4B1B78DBB21A46A5
:1039F000404B1B78DBB25B08DBB213449BB21AB2BC
:103A00003D4B1A801AE0374B1B78DBB2012B15D1E6
:103A1000354B1B78DBB2012B10D1354B01221A70CC
:103A2000324B1B78DBB21A462D4B1B78DBB21344AA
:103A3000DA0F13445B101AB22F4B1A802E4B1B88DF
:103A40001BB23F3B184609F0D4F804460D46294BFB
:103A50001B78DBB2184609F0CCF802460B464FF053
:103A60000000264906F05AFA02460B46204629462F
:103A700006F0D6F902460B461046194609F075F8CD
:103A800003461AB21E4B1A803B7D052B06D1FB7CE8
:103A9000052B03D11B4B03221A7017E03B7D042B2F
:103AA00006D1FB7C042B03D1164B02221A700DE0C9
:103AB0003B7D032B06D1FB7C032B03D1114B012251
:103AC0001A7003E00F4B00221A7000BF00BF1837B6
:103AD000BD46B0BDE80E0020E80B0020680F0020B6
:103AE0001E3C00201C3C00201D3C00201F3C0020F0
:103AF000203C00204C010020143C002000407F406E
:103B0000163C0020213C002080B582B000AF7860D8
:103B10004FF480420321044807F0D8FB4FF4FA70B9
:103B200001F07AFB00BFF3E700C0084080B500AFAA
:103B30004FF480420321084807F0B5FB0822032117
:103B4000054807F0B0FB04220221034807F0ABFB55
:103B500000F004F800BF80BD00C0084080B400AF92
:103B6000144BD3F8B031134A23F00F03C2F8B0312D
:103B7000104BD3F8B0310F4A43F00503C2F8B0310F
:103B80000D4B03F50053DB680B4A43F4805302F5F9
:103B90000052D3604FF080430422C3F888224FF0D4
:103BA0008043DB22C3F8842300BFBD465DF8047B5D
:103BB000704700BF0010004000C0084080B582B0D0
:103BC00002AF4FF4867002F0ADFC08F0F9FC08F08B
:103BD000DAFC08F0B9FC05F06BF8FFF7A7FF00F07E
:103BE00051F8FFF733F9FCF7EDFEFCF793FEFEF713
:103BF000E7FA00230193012300930023BE221A4910
:103C00001A4807F069FF0346012B04D00422022161
:103C1000174807F06EFB0023019301230093002354
:103C2000BE221449144807F057FF0346012B04D065
:103C3000042202210E4807F05CFB002301930123BC
:103C400000930023BE220D490D4807F045FF0346AF
:103C5000012B04D004220221054807F04AFB01F0A1
:103C600011FB00BFFDE700BFA8ED0000093B00000D
:103C700000C00840B8ED0000890F0000C4ED00004E
:103C80004135000080B584B000AF012002F0E6FEAF
:103C9000F8603B1D184608F0A1F93B1DFA6819466B
:103CA000054804F067F880220449054808F095FCAF
:103CB00000BF1037BD4680BD00400140008010406D
:103CC000E80F002080B500AF80220749074808F0C0
:103CD000B0FC0346002B04D0034A0021044808F03E
:103CE0009FF900BF80BD00BFE80F0020008010409A
:103CF0000040014080B485B000AF0346FB71FB7902
:103D0000022B0ED12B4B1B681B686FF0DB0202FBF2
:103D100003F303F5860303F50E53274AC2F88030F8
:103D200043E0264B1B68002B19DC224B1B681B68E9
:103D30009AB2204B1B681968214B1B681B68CB1A71
:103D40001E49096801FB03F31E4981FB0301491168
:103D5000DB17CB1A9BB213449BB2FB8118E0154BC7
:103D60001B681B689AB2184B1B681968114B1B68BB
:103D70001B68CB1A1149096801FB03F3114981FB48
:103D800003014911DB17CB1A9BB213449BB2FB8191
:103D9000B7F90E306FF0DB0202FB03F303F5860385
:103DA00003F50E53044AC2F880301437BD465DF85F
:103DB000047B70470000002000900040380B00207A
:103DC000040000201F85EB510800002080B483B060
:103DD00000AF0346FB710A4B1B681B686FF0DB02E8
:103DE00002FB03F303F5860303F50E53054AC2F8FD
:103DF000803000BF0C37BD465DF8047B704700BFC4
:103E0000000000200090004080B483B000AF034663
:103E1000FB71FB79022B0ED1104B1B681B686FF0F6
:103E2000DB0202FB03F303F5860303F50E530C4A92
:103E3000C2F880300DE00B4B1B681B686FF0DB0293
:103E400002FB03F303F5860303F50E53044AC2F89D
:103E500080300C37BD465DF8047B704700000020C1
:103E6000009000400400002080B483B000AF0346FF
:103E7000FB71FB79022B0ED1104B1B681B686FF096
:103E8000DB0202FB03F303F5860303F50E530C4A32
:103E9000C2F880300DE00B4B1B681B686FF0DB0233
:103EA00002FB03F303F5860303F50E53044AC2F83D
:103EB00080300C37BD465DF8047B70470000002061
:103EC000009000400800002080B584B000AF034699
:103ED000FB71FB79022B0DD11E4B1B681B686FF029
:103EE000DB0202FB03F303F5860303F50E531A4AC4
:103EF00093672CE0194B1B681B689AB2184B1B6820
:103F00001968164B1B681B68CB1A1649096801FB18
:103F100003F3154981FB03014911DB17CB1A9BB24F
:103F200013449BB2FB81B7F90E306FF0DB0202FB4A
:103F300003F303F5860303F50E53074A9367B7F9B6
:103F40000E30054A926F1946084805F023FE1037D7
:103F5000BD4680BD140100200080044018010020EF
:103F60001C0100203C0B00201F85EB51E0ED000000
:103F700080B483B000AF0346FB71094B1B681B681C
:103F80006FF0DB0202FB03F303F5860303F50E5328
:103F9000044A936700BF0C37BD465DF8047B704749
:103FA000140100200080044080B483B000AF0346B9
:103FB000FB71FB79022B0DD10F4B1B681B686FF057
:103FC000DB0202FB03F303F5860303F50E530B4AF2
:103FD00093670CE00A4B1B681B686FF0DB0202FB67
:103FE00003F303F5860303F50E53044A93670C3776
:103FF000BD465DF8047B704714010020008004403A
:104000001801002080B584B000AF0346FB71FB7936
:10401000022B0ED1204B1B681B686FF0DB0202FBEA
:1040200003F303F5860303F50E531C4AC2F88030F0
:104030002EE01B4B1B681B689AB21A4B1B68196851
:10404000174B1B681B68CB1A1749096801FB03F360
:10405000164981FB03014911DB17CB1A9BB21344AC
:104060009BB2FB81B7F90E306FF0DB0202FB03F36A
:1040700003F5860303F50E53084AC2F88030B7F9FA
:104080000E30064AD2F880201946094805F082FD14
:104090001037BD4680BD00BF2001002000800440D5
:1040A0002401002028010020400B00201F85EB5137
:1040B00008EE000080B500AF1F4B1B6840F2DC52D9
:1040C0009A611D4B1B6840F2CA32DA611A4B1B68B9
:1040D00040F652021A62184B1B684FF480425A6233
:1040E000154B1B684FF47A729A62134B1B6840F2AF
:1040F0004C42DA62104B1B6840F26C721A630E4B32
:104100001B6842F6BB325A630B4B1B684FF47A7242
:104110009A63094B1B6840F24C42DA63064B1B68FA
:1041200040F26C721A64044B1B6842F6BB325A644C
:10413000FDF7FAFA00BF80BD3401002080B58AB0D7
:1041400000AF78600023FB6101F0EAF85C4B1B686C
:10415000002B01D100F024F95A4B1A687B681340F8
:10416000002B40F095807B68002B1ED008227B68D6
:1041700013447B607B6803F00703002B15D07B683A
:1041800023F0070308337B607B6803F00703002BF1
:104190000BD04FF0400383F31188BFF36F8FBFF351
:1041A0004F8F7B6100BF00BFFDE77B68002B6FD0A6
:1041B000454B1B687A689A426AD8444B3B62434B32
:1041C0001B687B6204E07B6A3B627B6A1B687B62E4
:1041D0007B6A5B687A689A4203D97B6A1B68002B0A
:1041E000F1D1374B1B687A6A9A4251D03B6A1B68FF
:1041F00008221344FB617B6A1A683B6A1A607B6A77
:104200005A687B68D21A08235B009A4220D97A6ADE
:104210007B681344BB61BB6903F00703002B0BD021
:104220004FF0400383F31188BFF36F8FBFF34F8FBD
:104230003B6100BF00BFFDE77B6A5A687B68D21A0A
:10424000BB695A607B6A7A685A60B86900F00AF9FB
:104250001D4B1A687B6A5B68D31A1B4A13601A4BA2
:104260001A681B4B1B689A4203D2174B1B68184AEB
:1042700013607B6A5A68134B1B681A437B6A5A6047
:104280007B6A00221A60134B1B680133114A1360CA
:1042900001F054F8FB6903F00703002B0BD04FF03B
:1042A000400383F31188BFF36F8FBFF34F8FFB6021
:1042B00000BF00BFFDE7FB6918462837BD4680BD3B
:1042C00070380020843800207438002068380020BE
:1042D000783800207C38002080B586B000AF786048
:1042E0007B687B617B68002B4FD008235B427A6937
:1042F00013447B617B693B613B695A68254B1B68B2
:104300001340002B0BD14FF0400383F31188BFF310
:104310006F8FBFF34F8FFB6000BF00BFFDE73B69AE
:104320001B68002B0BD04FF0400383F31188BFF3C1
:104330006F8FBFF34F8FBB6000BF00BFFDE73B69CE
:104340005A68144B1B681340002B1ED03B691B6836
:10435000002B1AD13B695A680E4B1B68DB431A408D
:104360003B695A6000F0DCFF3B695A680A4B1B68E6
:104370001344094A1360386900F074F8074B1B684E
:104380000133064A136000F0D9FF00BF1837BD465D
:1043900080BD00BF843800207438002080380020A1
:1043A00080B485B000AF4FF42053BB60274BFB6057
:1043B000FB6803F00703002B0CD0FB680733FB609E
:1043C000FB6823F00703FB60BA68FB68D31A1F4A37
:1043D0001344BB60FB687B601D4A7B6813601C4B09
:1043E00000225A607B68BA681344FB600822FB68AD
:1043F0009B1AFB60FB6823F00703FB60FB68154A10
:104400001360144B1B6800225A60124B1B68002279
:104410001A607B683B603B68FA68D21A3B685A6056
:104420000C4B1A683B681A603B685B680A4A136069
:104430003B685B68094A1360094B4FF000421A6001
:1044400000BF1437BD465DF8047B7047681000203C
:104450006838002070380020783800207438002038
:104460008438002080B485B000AF7860284BFB60B2
:1044700002E0FB681B68FB60FB681B687A689A4275
:10448000F7D8FB68BB60FB685B68BA6813447A685E
:104490009A4208D1FB685A687B685B681A44FB68DB
:1044A0005A60FB687B607B68BB607B685B68BA684E
:1044B0001A44FB681B689A4218D1FB681A68154BAE
:1044C0001B689A420DD07B685A68FB681B685B6862
:1044D0001A447B685A60FB681B681A687B681A601C
:1044E00008E00C4B1A687B681A6003E0FB681A68E6
:1044F0007B681A60FA687B689A4202D0FB687A6827
:104500001A6000BF1437BD465DF8047B704700BFDA
:10451000683800207038002080B485B000AFF860A3
:10452000B9607A60FB68043BFB60FB684FF0807207
:104530001A60FB68043BFB60BB6823F00102FB6868
:104540001A60FB68043BFB600C4AFB681A60FB685E
:10455000143BFB607A68FB681A60FB68043BFB60F5
:10456000FB686FF002021A60FB68203BFB60FB688F
:1045700018461437BD465DF8047B7047814500003E
:1045800080B485B000AF00237B60134B1B68B3F190
:10459000FF3F0BD04FF0400383F31188BFF36F8FC1
:1045A000BFF34F8FFB6000BF00BFFDE74FF040033C
:1045B00083F31188BFF36F8FBFF34F8FBB6000BFD2
:1045C00000BF7B68002BFCD000BF00BF1437BD4686
:1045D0005DF8047B704700BF380100200848006880
:1045E000006880F308884FF0000080F3148862B6FA
:1045F00061B6BFF34F8FBFF36F8F00DF00BF00BF07
:1046000008ED00E080B586B000AF474B1B68474A15
:1046100093420BD14FF0400383F31188BFF36F8FA8
:10462000BFF34F8F3B6100BF00BFFDE73E4B1B68F0
:104630003F4A93420BD14FF0400383F31188BFF3FD
:104640006F8FBFF34F8FFB6000BF00BFFDE7394B9B
:104650007B617B691B78DBB27B607B69FF221A7010
:104660007B691B78DBB2FB70FB78DBB203F04003A5
:10467000DAB2314B1A70314B07221A6009E02F4B26
:104680001B68013B2D4A1360FB78DBB25B00DBB299
:10469000FB70FB78DBB203F08003802BEFD0274B5D
:1046A0001B68C3F10703032B0BD04FF0400383F3C8
:1046B0001188BFF36F8FBFF34F8FBB6000BF00BF88
:1046C000FDE71E4B1B681B021C4A13601B4B1B683B
:1046D00003F4E063194A13607B68DAB27B691A70ED
:1046E000174B1B68164A43F460031360144B1B6896
:1046F000134A43F06043136000F0A6F8114B002208
:104700001A6000F0C5F8104B1B680F4A43F0404395
:104710001360FFF763FF00F06BFFFFF731FF00232B
:1047200018461837BD4680BD00ED00E071C20F414C
:1047300070C20F4100E400E0223C002088380020D5
:1047400020ED00E03801002034EF00E080B483B0B9
:1047500000AF4FF0400383F31188BFF36F8FBFF3B7
:104760004F8F7B6000BF104B1B6801330E4A1360F4
:104770000D4B1B68012B10D10C4B1B68DBB2002BBF
:104780000BD04FF0400383F31188BFF36F8FBFF35B
:104790004F8F3B6000BF00BFFDE700BF0C37BD4639
:1047A0005DF8047B704700BF3801002004ED00E095
:1047B00080B483B000AF124B1B68002B0BD14FF0BD
:1047C000400383F31188BFF36F8FBFF34F8F7B607C
:1047D00000BF00BFFDE70A4B1B68013B084A13609E
:1047E000074B1B68002B05D100233B603B6883F31C
:1047F000118800BF00BF0C37BD465DF8047B7047D1
:104800003801002080B582B000AF4FF0400383F341
:104810001188BFF36F8FBFF34F8F7B6000BF00F035
:104820003BFE0346002B03D0064B4FF080521A602C
:1048300000233B603B6883F3118800BF00BF08374B
:10484000BD4680BD04ED00E080B400AF0B4B0022FC
:104850001A600B4B00221A600A4B1B680A4AA2FB23
:1048600003239B09094A013B1360044B07221A608A
:1048700000BFBD465DF8047B704700BF10E000E05C
:1048800018E000E040010020D34D621014E000E089
:10489000DFF80C00016841F470010160704700BF4F
:1048A00088ED00E080B485B000AFEFF30583FB60D6
:1048B000FB680F2B15D9184AFB6813441B78FB7251
:1048C000164B1B78FA7A9A420BD24FF0400383F3CF
:1048D0001188BFF36F8FBFF34F8F7B6000BF00BFA6
:1048E000FDE70F4B1B6803F4E0620E4B1B689A4216
:1048F0000BD94FF0400383F31188BFF36F8FBFF3E1
:104900004F8F3B6000BF00BFFDE700BF1437BD46BF
:104910005DF8047B704700BFF0E300E0223C00201C
:104920000CED00E08838002080B584B000AF7860DE
:1049300039607B68FB60FB68002B0BD14FF04003B4
:1049400083F31188BFF36F8FBFF34F8FBB6000BF3E
:1049500000BFFDE7FFF7FAFEFB681A68FB68DB6B38
:10496000F968096C01FB03F31A44FB689A60FB6861
:1049700000229A63FB681A68FB685A60FB681A6831
:10498000FB68DB6B013BF968096C01FB03F31A441C
:10499000FB68DA60FB68FF2283F84420FB68FF2293
:1049A00083F845203B68002B14D1FB681B69002B62
:1049B0001AD0FB681033184600F0C8FE0346002BDF
:1049C00012D00D4B4FF080521A60BFF34F8FBFF3E0
:1049D0006F8F09E0FB681033184606F0B3FCFB68E4
:1049E0002433184606F0AEFCFFF7E2FE012318461A
:1049F0001037BD4680BD00BF04ED00E080B58EB02D
:104A000000AFF860B9607A603B6000237B63FB68AD
:104A10003B633B6B002B0BD14FF0400383F31188BA
:104A2000BFF36F8FBFF34F8FBB6200BF00BFFDE7C7
:104A3000BB68002B03D13B6B1B6C002B01D1012306
:104A400000E00023002B0BD14FF0400383F31188CB
:104A5000BFF36F8FBFF34F8F7B6200BF00BFFDE7D7
:104A60003B68022B03D13B6BDB6B012B01D1012394
:104A700000E00023002B0BD14FF0400383F311889B
:104A8000BFF36F8FBFF34F8F3B6200BF00BFFDE7E7
:104A900000F0ECFF0346002B02D17B68002B01D114
:104AA000012300E00023002B0BD14FF0400383F3E0
:104AB0001188BFF36F8FBFF34F8FFB6100BF00BF43
:104AC000FDE7FFF743FE3B6B9A6B3B6BDB6B9A4258
:104AD00002D33B68022B29D13A68B968386B06F0DB
:104AE000B7FEF8623B6B5B6A002B10D03B6B243344
:104AF000184600F02BFE0346002B13D03F4B4FF01F
:104B000080521A60BFF34F8FBFF36F8F0AE0FB6ACA
:104B1000002B07D0394B4FF080521A60BFF34F8FF4
:104B2000BFF36F8FFFF744FE012363E07B68002B28
:104B300003D1FFF73DFE00235CE07B6B002B06D129
:104B400007F11403184600F065FE01237B63FFF7AD
:104B50002FFE00F0E5FBFFF7F9FD3B6B93F84430C7
:104B60005BB2B3F1FF3F03D13B6B002283F84420DB
:104B70003B6B93F845305BB2B3F1FF3F03D13B6B26
:104B8000002283F84520FFF713FE3A1D07F11403B6
:104B90001146184600F054FE0346002B24D1386B12
:104BA00006F04EFF0346002B18D03B6B10337A689B
:104BB0001146184600F078FD386B06F0D9FE00F07B
:104BC000BDFB0346002B7FF47CAF0C4B4FF08052B3
:104BD0001A60BFF34F8FBFF36F8F72E7386B06F029
:104BE000C7FE00F0ABFB6CE7386B06F0C1FE00F0CF
:104BF000A5FB002318463837BD4680BD04ED00E014
:104C000080B58CB000AFF860B9607A600023FB62B9
:104C1000FB68BB62BB6A002B0BD14FF0400383F3F0
:104C20001188BFF36F8FBFF34F8F3B6200BF00BF90
:104C3000FDE7BB68002B03D1BB6A1B6C002B01D1C5
:104C4000012300E00023002B0BD14FF0400383F33E
:104C50001188BFF36F8FBFF34F8FFB6100BF00BFA1
:104C6000FDE700F003FF0346002B02D17B68002B19
:104C700001D1012300E00023002B0BD14FF04003B2
:104C800083F31188BFF36F8FBFF34F8FBB6100BFFA
:104C900000BFFDE7FFF75AFDBB6A9B6B7B627B6A37
:104CA000002B1FD0B968B86A06F03CFE7B6A5A1E1A
:104CB000BB6A9A63BB6A1B69002B0FD0BB6A1033B7
:104CC000184600F043FD0346002B07D03C4B4FF045
:104CD00080521A60BFF34F8FBFF36F8FFFF768FDED
:104CE000012369E07B68002B03D1FFF761FD0023FE
:104CF00062E0FB6A002B06D107F11003184600F0B2
:104D000089FD0123FB62FFF753FD00F009FBFFF76C
:104D10001DFDBB6A93F844305BB2B3F1FF3F03D192
:104D2000BB6A002283F84420BB6A93F845305BB22B
:104D3000B3F1FF3F03D1BB6A002283F84520FFF7A0
:104D400037FD3A1D07F110031146184600F078FDB3
:104D50000346002B23D1B86A06F05CFE0346002B05
:104D600017D0BB6A24337A681146184600F09CFCC1
:104D7000B86A06F0FDFD00F0E1FA0346002B89D188
:104D80000F4B4FF080521A60BFF34F8FBFF36F8FFE
:104D900080E7B86A06F0ECFD00F0D0FA7AE7B86A6E
:104DA00006F0E6FD00F0CAFAB86A06F033FE0346E4
:104DB000002B3FF46FAF002318463037BD4680BD4F
:104DC00004ED00E080B58EB000AF7860396000235C
:104DD0007B637B68FB620023BB6200233B63FB6A4F
:104DE000002B0BD14FF0400383F31188BFF36F8F7B
:104DF000BFF34F8FFB6100BF00BFFDE7FB6A1B6C79
:104E0000002B0BD04FF0400383F31188BFF36F8F5B
:104E1000BFF34F8FBB6100BF00BFFDE700F026FE70
:104E20000346002B02D13B68002B01D1012300E097
:104E30000023002B0BD14FF0400383F31188BFF305
:104E40006F8FBFF34F8F7B6100BF00BFFDE7FFF7A0
:104E50007DFCFB6A9B6B7B627B6A002B24D07B6AA8
:104E60005A1EFB6A9A63FB6A1B68002B04D100F090
:104E7000A9FF0246FB6A9A60FB6A1B69002B0FD0F0
:104E8000FB6A1033184600F061FC0346002B07D084
:104E9000544B4FF080521A60BFF34F8FBFF36F8FA8
:104EA000FFF786FC012398E03B68002B12D13B6B97
:104EB000002B0BD04FF0400383F31188BFF36F8FAB
:104EC000BFF34F8F3B6100BF00BFFDE7FFF770FCF2
:104ED000002382E07B6B002B06D107F10803184604
:104EE00000F098FC01237B63FFF762FC00F018FAE6
:104EF000FFF72CFCFB6A93F844305BB2B3F1FF3F41
:104F000003D1FB6A002283F84420FB6A93F8453002
:104F10005BB2B3F1FF3F03D1FB6A002283F8452067
:104F2000FFF746FC3A4607F108031146184600F021
:104F300087FC0346002B32D1F86A06F06BFD03466E
:104F4000002B26D0FB6A1B68002B09D1FFF7FEFB64
:104F5000FB6A9B68184600F0A7FD3863FFF728FC42
:104F6000FB6A24333A681146184600F09DFBF86A44
:104F700006F0FEFC00F0E2F90346002B7FF467AF79
:104F8000184B4FF080521A60BFF34F8FBFF36F8FF3
:104F90005DE7F86A06F0ECFC00F0D0F957E7F86A34
:104FA00006F0E6FC00F0CAF9F86A06F033FD0346A5
:104FB000002B3FF44CAF3B6B002B0DD0FFF7C6FB33
:104FC000F86A06F02DFC3862FB6A9B68396A18465D
:104FD00000F068FEFFF7ECFB002318463837BD46AB
:104FE00080BD00BF04ED00E080B485B000AF786004
:104FF00039600023FB6014E00F4AFB6852F833303D
:10500000002B0BD10C49FB683A6841F833200A4A5F
:10501000FB68DB0013447A685A6006E0FB680133E2
:10502000FB60FB68072BE7D900BF00BF1437BD4604
:105030005DF8047B704700BF8C38002080B582B0DB
:1050400000AF7860FFF782FB2C4B1B6801332B4AC3
:1050500013602B4B1B68002B09D1294A7B68136016
:10506000264B1B68012B10D100F072FC0DE0254B84
:105070001B68002B09D1224B1B68DA6A7B68DB6A4C
:105080009A4202D81E4A7B6813601F4B1B6801338B
:105090001D4A13601C4B1A687B68DA647B68DB6A04
:1050A00001229A40194B1B681343184A13607B680E
:1050B000DA6A13469B0013449B00154A1A447B6826
:1050C00004331946104606F06AF9FFF771FB0D4BE1
:1050D0001B68002B0ED00A4B1B68DA6A7B68DB6A00
:1050E0009A4207D20B4B4FF080521A60BFF34F8F9A
:1050F000BFF36F8F00BF0837BD4680BDA4390020C5
:10510000CC380020B0390020C0390020AC39002054
:10511000D038002004ED00E080B58AB000AF7860A0
:10512000396000237B627B68002B0BD14FF040037A
:1051300083F31188BFF36F8FBFF34F8F7B6100BF85
:1051400000BFFDE73B68002B0BD14FF0400383F31A
:105150001188BFF36F8FBFF34F8F3B6100BF00BF5C
:10516000FDE72A4B1B68002B0BD04FF0400383F365
:105170001188BFF36F8FBFF34F8FFB6000BF00BF7D
:10518000FDE700F0CDF8224B1B683B627B681B6893
:105190003A681344FB617B681B683A6A9A420BD2F7
:1051A0007B681B68FA699A4211D2FA693B6A9A4293
:1051B0000DD901237B620AE07B681B68FA699A4279
:1051C00003D3FA693B6A9A4201D901237B627B6867
:1051D000FA691A607B6A002B06D0FA693B6AD31A17
:1051E0000021184600F002FE00F0A8F8B861BB6983
:1051F000002B07D1074B4FF080521A60BFF34F8F3F
:10520000BFF36F8F00BF2837BD4680BDCC3900206B
:10521000A839002004ED00E080B584B000AF7860CC
:105220000023FB607B68002B18D0144B1B68002BFD
:105230000BD04FF0400383F31188BFF36F8FBFF3A0
:105240004F8FBB6000BF00BFFDE700F069F8002191
:10525000786800F0CBFD00F071F8F860FB68002B77
:1052600007D1074B4FF080521A60BFF34F8FBFF347
:105270006F8F00BF1037BD4680BD00BFCC39002006
:1052800004ED00E080B586B002AF1F4B0193002310
:10529000009300235A221D491D4806F01DFCF860AA
:1052A000FB68012B02D100F007FEF860FB68012BC0
:1052B00016D14FF0400383F31188BFF36F8FBFF314
:1052C0004F8FBB6000BF134B4FF0FF321A60124B81
:1052D00001221A60114B00221A60FFF793F90FE0C8
:1052E000FB68B3F1FF3F0BD14FF0400383F311880C
:1052F000BFF36F8FBFF34F8F7B6000BF00BFFDE731
:1053000000BF1037BD4680BDC839002020CE000048
:1053100021590000C4390020B0390020A8390020EC
:1053200080B400AF044B1B680133034A136000BF15
:10533000BD465DF8047B7047CC39002080B584B051
:1053400000AF0023FB600023BB60424B1B68002BB7
:105350000BD14FF0400383F31188BFF36F8FBFF37E
:105360004F8F3B6000BF00BFFDE7FFF7EFF9394B00
:105370001B68013B374A1360364B1B68002B61D119
:10538000354B1B68002B5DD02EE0344BDB68DB68AF
:10539000FB60FB681833184606F05EF8FB680433C0
:1053A000184606F059F8FB68DB6A01229A402C4B3C
:1053B0001B6813432A4A1360FB68DA6A13469B0092
:1053C00013449B00274A1A44FB68043319461046CD
:1053D00005F0E5FFFB68DA6A234B1B68DB6A9A423B
:1053E00002D3224B01221A601C4B1B68002BCCD12C
:1053F000FB68002B01D000F019FB1D4B1B687B6084
:105400007B68002B10D000F047F80346002B02D039
:10541000164B01221A607B68013B7B607B68002B86
:10542000F1D1134B00221A60104B1B68002B09D0DE
:105430000123BB600F4B4FF080521A60BFF34F8FB8
:10544000BFF36F8FFFF7B4F9BB6818461037BD463E
:1054500080BD00BFCC390020A43900206439002071
:10546000AC390020D0380020CC380020B8390020DA
:10547000B439002004ED00E080B483B000AF054BE8
:105480001B687B607B6818460C37BD465DF8047B63
:10549000704700BFA839002080B586B000AF002358
:1054A0007B61484B1B68002B40F08180464B1B689A
:1054B00001333B61444A3B6913603B69002B21D1B6
:1054C000424B1B681B68002B0BD04FF0400383F34B
:1054D0001188BFF36F8FBFF34F8F3B6000BF00BFDA
:1054E000FDE73A4B1B68FB60394B1B68374A13607A
:1054F000374AFB681360374B1B680133354A13602A
:1055000000F094FA344B1B683A699A4248D32F4B07
:105510001B681B68002B04D12F4B4FF0FF321A6021
:105520003EE02A4B1B68DB68DB68BB60BB685B68DE
:105530007B603A697B689A4203D2274A7B68136092
:105540002EE0BB680433184605F086FFBB689B6AF3
:10555000002B04D0BB681833184605F07DFFBB68EC
:10556000DB6A01229A401D4B1B6813431B4A1360E0
:10557000BB68DA6A13469B0013449B00184A1A441E
:10558000BB6804331946104605F009FFBB68DA6AA8
:10559000144B1B68DB6A9A42B9D301237B61B6E7DF
:1055A000114B1B68002B07D001237B6104E00F4BDC
:1055B0001B6801330D4A13607B6918461837BD46D6
:1055C00080BD00BFCC390020A83900205C39002004
:1055D00060390020BC390020C4390020AC390020DB
:1055E000D0380020CC380020B8390020B439002051
:1055F00080B487B000AF274B1B68002B03D0264B2D
:1056000001221A6040E0244B00221A60234B1B68E1
:10561000FB60FB68B3FA83F3FB72FB7AC3F11F03F1
:105620007B611F497A6913469B0013449B000B441E
:105630001B68002B0BD14FF0400383F31188BFF39D
:105640006F8FBFF34F8F7B6000BF00BFFDE77A69AC
:1056500013469B0013449B00114A13443B613B6972
:105660005B685A683B695A603B695A683B69083312
:105670009A4204D13B695B685A683B695A603B694E
:105680005B68DB68074A136000BF1C37BD465DF8E6
:10569000047B7047CC390020B8390020AC39002099
:1056A000D0380020CC38002080B584B000AF7860BE
:1056B00039607B68002B0BD14FF0400383F31188D6
:1056C000BFF36F8FBFF34F8FFB6000BF00BFFDE7DD
:1056D000074B1B6818331946786805F084FE0121D2
:1056E000386800F083FB00BF1037BD4680BD00BFA7
:1056F000CC38002080B586B000AFF860B9607A6021
:10570000FB68002B0BD14FF0400383F31188BFF3EC
:105710006F8FBFF34F8F7B6100BF00BFFDE70A4B68
:105720001B6818331946F86805F039FE7B68002BB2
:1057300002D04FF0FF33BB607968B86800F056FBC9
:1057400000BF1837BD4680BDCC38002080B586B07C
:1057500000AF78607B68DB68DB683B613B69002BEE
:105760000BD14FF0400383F31188BFF36F8FBFF36A
:105770004F8FFB6000BF00BFFDE73B691833184641
:1057800005F06AFE1D4B1B68002B1CD13B690433DE
:10579000184605F061FE3B69DB6A01229A40184B0E
:1057A0001B681343164A13603B69DA6A13469B0071
:1057B00013449B00134A1A443B69043319461046AC
:1057C00005F0EDFD05E03B69183319460E4805F07C
:1057D000E6FD3B69DA6A0D4B1B68DB6A9A4205D924
:1057E00001237B610A4B01221A6001E000237B61E7
:1057F0007B6918461837BD4680BD00BFCC390020F4
:10580000AC390020D038002064390020CC3800208A
:10581000B839002080B483B000AF7860064B1A68B6
:105820007B681A60054B1A687B685A6000BF0C37AA
:10583000BD465DF8047B7047BC390020A8390020C4
:1058400080B588B000AF786039607B68002B0BD1E1
:105850004FF0400383F31188BFF36F8FBFF34F8F77
:105860003B6100BF00BFFDE73B68002B0BD14FF051
:10587000400383F31188BFF36F8FBFF34F8FFB603B
:1058800000BF00BFFDE7FEF761FF1D4B1B68BB615A
:105890007B685B68BA69D31A7B613B681B68B3F1AC
:1058A000FF3F02D10023FB6123E07B681A68154BA0
:1058B0001B689A4207D07B685B68BA699A4202D338
:1058C0000123FB6115E03B681B687A699A420BD2A1
:1058D0003B681A687B69D21A3B681A607868FFF7E0
:1058E00099FF0023FB6104E03B6800221A6001235A
:1058F000FB61FEF75DFFFB6918462037BD4680BDA2
:10590000A8390020BC39002080B400AF034B01222D
:105910001A6000BFBD465DF8047B7047B8390020AF
:1059200080B582B000AF786000F052F8064B1B687B
:10593000012BF9D9054B4FF080521A60BFF34F8FFE
:10594000BFF36F8FF0E700BFD038002004ED00E018
:1059500080B582B000AF00237B600CE07A6813460C
:105960009B0013449B00124A1344184605F0EAFCBE
:105970007B6801337B607B68042BEFD90D4805F011
:10598000E1FC0D4805F0DEFC0C4805F0DBFC0C48A2
:1059900005F0D8FC0B4805F0D5FC0B4B054A1A6006
:1059A0000A4B054A1A6000BF0837BD4680BD00BFDC
:1059B000D0380020343900204839002064390020D4
:1059C00078390020903900205C39002060390020AF
:1059D00080B582B000AF19E0FEF7B8FE104BDB686F
:1059E000DB687B607B680433184605F035FD0D4BA2
:1059F0001B68013B0B4A13600B4B1B68013B0A4AB7
:105A00001360FEF7D5FE786806F04AF9064B1B686E
:105A1000002BE1D100BF00BF0837BD4680BD00BFED
:105A200078390020A43900208C39002080B483B05C
:105A300000AF0C4B1B681B68002B04D10A4B4FF0C6
:105A4000FF321A6008E0074B1B68DB68DB687B608D
:105A50007B685B68044A136000BF0C37BD465DF885
:105A6000047B70475C390020C439002080B483B0C7
:105A700000AF0B4B1B68002B02D101237B6008E0B9
:105A8000084B1B68002B02D102237B6001E000233E
:105A90007B607B6818460C37BD465DF8047B704719
:105AA000B0390020CC39002080B584B000AF7860D8
:105AB0007B68BB600023FB607B68002B5ED0BB680B
:105AC000DA6A314B1B68DB6A9A424ED2BB689B692B
:105AD000002B06DB2C4B1B68DB6AC3F10502BB689D
