:100000000080022061010000E9010000F9B1000058
:10001000ED010000EF010000F1010000F0C4FCDF81
:1000200000000000000000000000000001020000CD
:10003000F50100000000000031020000E54600006C
:1000400021A2000029A2000031A2000039A2000074
:1000500041A2000049A2000051A2000059A20000E4
:1000600061A2000069A20000BD2F000071A2000083
:100070000533000079A2000081A2000089A20000DF
:1000800091A2000099A20000A1A20000A9A2000074
:10009000B1A20000B9A2000079320000C1A20000A4
:1000A000C9A20000D1A20000D9A20000E1A2000074
:1000B000E9A20000F1A20000F9A2000001A30000E3
:1000C00009A3000011A3000019A3000021A3000050
:1000D00029A30000F52F0000990D000031A30000B6
:1000E00039A3000041A3000049A3000051A3000070
:1000F00059A3000061A3000069A3000071A30000E0
:1001000079A3000081A3000089A3000091A300004F
:1001100099A30000A1A30000A9A30000B1A30000BF
:10012000B9A30000D0FB000000000020580100002F
:10013000D0FB00000000000400000000D0FB000025
:1001400000001040000000000006002030370000D2
:10015000000000040000000000001040000000004B
:1001600010B572B613484FF03801016008F02AFC50
:100170000D4B07E003F10C049A685968186800F009
:100180001BF82346094A9342F4D306E01C465968FB
:1001900054F8080B00F01FF82346054A9342F5D3A4
:1001A00062B60CF083F9FEE724010000480100006C
:1001B0006001000020020040002393420AD210B4E4
:1001C00050F8044B41F8044B04339342F8D35DF8E4
:1001D000044B70477047002303E0002240F8042BD3
:1001E00004338B42F9D37047FEE7FEE7FEE7FEE7F4
:1001F000FEE7FEE7FEE7FEE7FEE7FEE7FFFFFFFFA5
:10020000074B19680868B0E8F04F80F30988BFF31E
:100210006F8F4FF0000080F311887047AFF30080BC
:10022000E039002000BF00BFFFFFFFFFFFFFFFFF1F
:10023000EFF30980BFF36F8F154B1A681EF0100F94
:1002400008BF20ED108A20E9F04F10602DE9090069
:100250004FF0400080F31188BFF34F8FBFF36F8FD3
:1002600005F036F94FF0000080F3118809BC1968D9
:100270000868B0E8F04F1EF0100F08BFB0EC108A0D
:1002800080F30988BFF36F8F704700BFAFF3008022
:10029000E039002000BF00BFB0B588B000AF034612
:1002A000FB710023FB830023BB830023FB8200231D
:1002B000BB8200237B831E237B820A233B82002395
:1002C000FB810023BB8187237B8101237B7628E090
:1002D0007B7E954A4FF4857101FB03F3134403F5CC
:1002E00080731B78DBB218467B7E8F4A4FF4857192
:1002F00001FB03F3134403F201131B78DBB25B0031
:100300000344032B0AD801A252F823F01D03000076
:100310001D0300001D0300001D0300007B7E013350
:100320007B767B7E012BD3D97F4BB3F806311AB293
:100330007E4B1A807C4BB3F806311AB27B4B1A8085
:100340007B4B00221A80784BB3F806311BB29AB26D
:10035000774BB3F900309BB2D31A9BB21AB2754BEC
:100360001A80744BB3F900309AB2734BB3F9003072
:100370009BB212FB03F39BB21AB2704B1A80704B04
:10038000B3F9003018460CF0A4FB02460B4609F006
:10039000A5FE02460B4614461D46684BB3F90030D5
:1003A00018460CF096FB02460B462046294609F0FB
:1003B000A7FC02460B4614461D46624BB3F90030BB
:1003C0001A46604BB3F9003003FB02F25B4BB3F902
:1003D00000301946594BB3F9003001FB03F31344C5
:1003E00018460CF076FB02460B462046294609F0DB
:1003F00005FD02460B4643EC172BB0EE470AF0EE24
:10040000670A00F0A5F9B0EE407AF0EE607A4E4B44
:1004100083ED007B4C4BD3E900014FF000024B4BC6
:1004200009F06EFC02460B46104619463CA3D3E980
:10043000002309F0E3FC02460B464349C1E90023CF
:10044000414BD3E900014FF00002414B0CF0A1FBFE
:100450000346002B06D03C494FF000023C4BC1E95B
:10046000002310E0384BD3E900014FF00002394B74
:100470000CF0BCFB0346002B05D033494FF00002C3
:10048000344BC1E90023304BD3E900014FF00002A7
:10049000314B09F035FC02460B46104619464FF029
:1004A00000022E4B09F0AAFC02460B462649C1E980
:1004B0000023254BD3E90023104619460CF0C5FA5A
:1004C0000346FB83B7F91E30632B01DD6423FB83F6
:1004D000B7F91E3013F1630F02DA4FF69C73FB83FA
:1004E000B7F91E30002B41DC1D4B1B681B689AB20C
:1004F000B7F91E301A49096808681A490968096875
:10050000411A01FB03F3184981FB03014911DB1771
:10051000CB1A9BB213449BB2BB8340E0AFF3008085
:100520001F85EB51B81E0940E80D0020203D00203A
:10053000223D0020243D002052010020263D0020C5
:100540005001002054010020E00700200080664098
:1005500000004EC000004E40000024400000184043
:100560000C010020100100201F85EB516D4B1B6812
:100570001B689AB2B7F91E306B4909680868694967
:1005800009680968411A01FB03F3684981FB03010B
:100590004911DB17CB1A9BB213449BB2BB83B7F94B
:1005A0001C306FF0DB0202FB03F303F5860303F557
:1005B0000E535F4AC2F88030B7F91E3018460BF070
:1005C000EBFF03467B837B8BC3F164039BB27B838E
:1005D000B7F91A30B7F9122002FB03F3534A82FB32
:1005E00003125211DB17D31A7B83B7F91A300A2B87
:1005F00001DC3B8A7B83B7F90A304E4AB2F900200E
:1006000003FB02F24C4BB3F9003019464A4BB3F9E5
:10061000003003FB01F1474BB3F900301846454B5E
:10062000B3F9003000FB03F30B4492FBF3F3013307
:100630009AB27B8B12FB03F39BB2FB82B7F90A30B1
:100640003C4AB2F9002003FB02F23B4BB3F9003005
:100650001946394BB3F9003003FB01F1354BB3F9BF
:1006600000301846334BB3F9003000FB03F30B4462
:1006700092FBF3F3C3F101039AB27B8B12FB03F3FA
:100680009BB2BB822D4B1B681B689AB2B7F9163020
:100690002B4909680868294909680968411A01FB5A
:1006A00003F3224981FB03014911DB17CB1A9BB2EB
:1006B00013449BB2FB81234B1B681B689AB2B7F9AA
:1006C00014302149096808681E4909680968411AF7
:1006D00001FB03F3154981FB03014911DB17CB1A19
:1006E0009BB213449BB2BB81B7F90E306FF0DB02B3
:1006F00002FB03F303F5860303F50E53134A9367D6
:10070000B7F90C306FF0DB0202FB03F303F586034D
:1007100003F50E530D4AC2F8803000BF2037BD46A6
:10072000B0BD00BF0C010020140100201F85EB515B
:1007300000900040243D0020540100201C010020B6
:1007400020010020280100202C010020008004400E
:100750002DE9F3478DED000B0BF0CBFE55EC104B64
:100760007F4B0022204629460CF0E8F9002800F0D3
:10077000C38022462B467A49002009F03FFB4FF008
:10078000020A04460D465EA3D3E90023204629460B
:100790000CF0D4F928B35CA3D3E900232046294602
:1007A00009F0AEFA6F4B002209F0BEFB6D4B002240
:1007B00009F0BAFB22462B4609F090FC54A3D3E97A
:1007C000002306460F462046294609F087FC0246CC
:1007D0000B463046394609F011FB0AF1010A04467E
:1007E0000D4645EC104B0BF084FE4BA3D3E90023E0
:1007F00051EC100B0CF0A2F900285DD022462B46DC
:100800002046294609F07CFA45A3D3E90023064691
:100810000F4609F075FA44A3D3E9002309F084FBDD
:1008200032463B4609F06CFA41A3D3E9002309F0B4
:100830007BFB32463B4609F063FA3FA3D3E9002332
:1008400009F072FB32463B4609F05AFA3CA3D3E961
:100850000023804689463046394609F03FFC32463F
:100860003B4609F04DFA38A3D3E9002309F036FCE2
:1008700032463B4609F044FA35A3D3E9002309F098
:100880002DFC32463B4609F03BFA33A3D3E9002363
:1008900009F024FC02460B464046494609F0AEFAF0
:1008A00022462B4609F02CFA02460B4620462946E2
:1008B00009F014FC04460D46BAF1010F02DD05F102
:1008C00000431D46284B03EBCA03D3E9002320460F
:1008D000294609F003FC002204460D460023DDE909
:1008E00000010CF0FEF810B105F100431D4645EC87
:1008F000104B02B0BDE8F087824644E7AFF30080BA
:1009000056CD9E5E1426D13F5599B0D0F56CE73F89
:10091000AA4C58E87AB6FB3FBBBDD7D9DF7CDB3D9C
:10092000BD87B1D97ACDEABF636A8D5C3FFD2040B7
:10093000CBBCE2B97F813440E21C0651A6602B405B
:1009400010C74AE1490C2E40D7A30D320ACA4D40C8
:10095000A56D0B04128A5540A995C4BC7C884440FF
:100960000000F03F0000E03F28CD000080B582B0DD
:1009700000AF78607968024809F07CF800BEFDE7B6
:1009800048CD000080B500AF00F038F8174B5B6928
:10099000164A43F080635361154BD3F88831144AEB
:1009A00023F00F03C2F88831114BD3F88831104A75
:1009B00043F00403C2F888310E4B03F50053DB68A3
:1009C0000C4A43F0040302F50052D3600A4B1B6843
:1009D0001B686FF0DB0202FB03F303F5860303F5EC
:1009E0000E53024AC2F8803000BF80BD0090004024
:1009F0000010004000C008400000002080B582B018
:100A000002AF0949094806F0BBF900230093084BDF
:100A1000074A0221054806F0EDF9044809F0D0FC28
:100A200000BFBD4680BD00BF5CCD0000009000400F
:100A30008023430080B500AF00F042F81E4B1B6ED0
:100A40001D4A23F00F0313661B4B1B6E1A4A43F01B
:100A500003031366184B1B6E174A43F020031366FB
:100A6000164B03F500531B68144A23F4FF5323F07D
:100A70001F0302F5005213600F4B5B6E0E4A23F00A
:100A80000F0353660C4B5B6E0B4A43F00303536634
:100A9000094B5B6E084A43F020035366074B03F58E
:100AA00000531B68054A23F4FF5323F01F0302F58C
:100AB0000052136000BF80BD0010004000C008401D
:100AC00080B500AF0C490D4806F05AF901220C49D7
:100AD0000A4806F041FA012301220021074806F0E6
:100AE000EBF9012301220121044806F0E5F903484E
:100AF00009F082FC00BF80BD64CD00000080024090
:100B00000C00002080B582B000AF7860144809F076
:100B100067FC0246134B1B68D31A134A1360134B2E
:100B20001B781946104B1B68114A42F821300C48BB
:100B300009F056FC03460B4A13600C4B1B78642BE0
:100B400006D80A4B1B780133DAB2084B1A7002E060
:100B5000064B00221A7000BF0837BD4680BD00BF9B
:100B600000800240E8070020EC070020283D00201C
:100B7000F807002080B582B000AF7860144809F013
:100B80002FFC0246134B1B68D31A134A1360134BF6
:100B90001B781946124B1B68124A42F821300C4848
:100BA00009F01EFC03460B4A13600C4B1B78642BA8
:100BB00006D80A4B1B780133DAB2084B1A7002E0F0
:100BC000064B00221A7000BF0837BD4680BD00BF2B
:100BD00000800240F0070020F4070020293D00209B
:100BE000EC0700208809002080B483B000AF0346E2
:100BF000FB7197F90730002B0BDBFB7903F01F0229
:100C0000074997F907305B09012000FA02F241F821
:100C1000232000BF0C37BD465DF8047B704700BF42
:100C200000E100E080B483B000AF0346FB7197F9A8
:100C30000730002B12DBFB7903F01F020A4997F9FA
:100C400007305B09012000FA02F2203341F823202B
:100C5000BFF34F8F00BFBFF36F8F00BF00BF0C37D4
:100C6000BD465DF8047B704700E100E080B483B0CE
:100C700000AF03463960FB7197F90730002B0ADBA0
:100C80003B68DAB20C4997F907305201D2B20B44F3
:100C900083F800230AE03B68DAB20849FB7903F0E5
:100CA0000F03043B5201D2B20B441A7600BF0C373B
:100CB000BD465DF8047B704700E100E000ED00E018
:100CC000B0B500AF134809F042FC134809F021FC0D
:100CD0001249134807F042FE0121114809F0FDFBBB
:100CE000104B1B68104AA2FB03239B0900221C46E1
:100CF000154622462B460A480BF06EFB00212620A3
:100D0000FFF7B4FF262009F087FB054809F0D5FB63
:100D100000BFB0BD180B00202C0B00206CCD0000D4
:100D200000D002404C010020D34D621080B582B04B
:100D300000AF00237B60262009F084FB0346002BD4
:100D400009D1074809F058FC034603F003037B6010
:100D5000262009F061FB7B6818460837BD4680BD38
:100D6000180B002080B582B000AF00237B602620E6
:100D700009F068FB0346002B06D1064809F0D6FBB4
:100D80007860262009F048FB7B6818460837BD4686
:100D900080BD00BF2C0B002098B500AF14220321AA
:100DA0001E4809F065FB0346DCB2162203211B48EE
:100DB00009F05EFB0346DBB21A462146184800F0F4
:100DC00037F8184B1B78092B18D915220321134823
:100DD00009F04EFB034603F001041E2203210F48D5
:100DE00009F046FB03465B0003F002032343194668
:100DF0000D4809F0C1FB0B4B00221A70094B1B7800
:100E00000133DAB2074B1A700121084809F044FB9C
:100E1000BFF34F8F00BF00BF98BD00BF00C00840A8
:100E20002C0B00202A3D0020180B002000D002408F
:100E300080B483B000AF78600B46FB701346BB7084
:100E40007B681B78DBB29B00DBB203F00F03DAB2E6
:100E50007B681A70FB78002B07D07B681B78DBB2AD
:100E600043F00203DAB27B681A70BB78002B07D01C
:100E70007B681B78DBB243F00103DAB27B681A703F
:100E80007B681B78DBB21A46144B99567B685B78FB
:100E90005BB2DAB2CBB21344DBB25AB27B685A709F
:100EA0007B681B78DBB203F00A030A2B0FD17B6847
:100EB0005B785BB2002B0AD07B685B785AB27B68A8
:100EC0005B681A447B685A607B6800225A7000BFD6
:100ED0000C37BD465DF8047B704700BF70CD000045
:100EE00080B582B000AF0346FB710B46BB71134661
:100EF0007B713F4B1B68002B04D03D4B1B68184691
:100F000009F0A9FB3B4B1B78012B02D0022B2FD001
:100F100060E0BB79002B04D0364B02221A7000F03F
:100F2000ABFB334B1B68002B51D0FB79002B04D05B
:100F30002F4B1B68184609F08FFC97F90530002BE2
:100F400006DA2B4B1B680121184609F05AFD09E00F
:100F500097F90530002B05DD254B1B68012118464C
:100F600009F0EDFC224B1B68184609F0BFFD2EE08E
:100F7000BB79002B04D01F4B01221A7009F026FC0C
:100F80001B4B1B68002B24D0FB79002B04D0184B83
:100F90001B68184609F060FC97F90530002B06DA4B
:100FA000134B1B680121184609F02BFD09E097F946
:100FB0000530002B05DD0E4B1B680121184609F09A
:100FC000BEFC0B4B1B68184609F090FD01E000BF0A
:100FD00000E000BF064B1B68002B04D0044B1B68CD
:100FE000184609F047FB00BF0837BD4680BD00BF6B
:100FF000340B00202B3D002080B58AB002AF786012
:101000001423BB6104F0A8F90346BB600023FB6115
:1010100001F0C8FD3C4809F079FD3C4809F076FD37
:101020003B4809F073FD3B4809F070FD3A4809F070
:101030006DFD3A4809F06AFD394809F067FD394805
:1010400009F064FD384809F061FD384809F05EFD9B
:10105000374809F05BFD374809F0DFFA364B0122CB
:1010600001925A6800921B6800220021314809F061
:1010700042FF304809F0E0FA642004F03DF82D48C2
:1010800009F0CBFA2D4B012201925A6800921B689D
:1010900000220021274809F02EFF264809F0CCFA4B
:1010A000642004F029F8264B01221A7000F0C2FED9
:1010B00000F0B6FDFFF704FEFFF738FE78617B69AC
:1010C000DBB203F00103FB747B695B08DBB203F066
:1010D0000103BB74FFF746FEF860FB685AB2B97CA7
:1010E000FB7C1846FFF7FCFEFB695A1CFA61192BC2
:1010F00003D80023FB6100F0CDFD07F10803B969B7
:10110000184603F079FFD7E7F40000202C000020F8
:101110004000002054000020680000207C000020D7
:1011200090000020A4000020B8000020CC00002087
:10113000E0000020CC0B002080D1000088D500000A
:101140002B3D002080B58AB004AF78600023FB758A
:101150007B685B7A03F00203DBB2002B00F03E8277
:101160007B4809F0AAFA00230293012301933F234D
:1011700000937F230D220021754809F09BFD754BDC
:10118000012201925A6800921B683922002170489E
:1011900009F0B1FE704B012201925A6800921B685F
:1011A000132205216A4809F0A6FE6B4B0122019229
:1011B0005A6800921B6813222321654809F09BFEA0
:1011C000654B012201925A6800921B68132242214A
:1011D0005F4809F090FE604B012201925A6800922C
:1011E0001B68132260215A4809F085FE7B681B7A30
:1011F000022B0BD1594B012201925A6800921B68B5
:1012000039222821524809F076FE4DE07B681B7A8E
:10121000002B0CD101230293012301932C23009373
:101220001E23142206214A4809F044FD31E07B6860
:101230001B7A012B0CD101230293012301932C2350
:1012400000933C2314222421414809F033FD20E07F
:101250007B681B7A032B0CD101230293012301939A
:101260002C2300935B2314224321394809F022FDEB
:101270000FE07B681B7A042B0BD10123029301231F
:1012800001932C230093792314226121304809F023
:1012900011FD334B012201925A6800921B683922DA
:1012A00028212B4809F027FE7B685B683B613B697E
:1012B0005B691B68092B16D83B695B691A68294B67
:1012C00083FB02139910D317C91A0B469B000B44DA
:1012D0005B00D11ACBB23033DBB23B7200237B729E
:1012E0000123FB758CE03B695B691B68632B3BD872
:1012F0003B695B691B681B4A82FB03129210DB1778
:10130000D21A184B83FB02139910D317C91A0B4634
:101310009B000B445B00D11ACBB23033DBB23B7283
:101320003B695B691A680F4B83FB02139910D31753
:10133000C91A0B469B000B445B00D11ACBB2303369
:10134000DBB27B720023BB720223FB7558E000BF47
:10135000CC0B002030E000000CE2000044E2000072
:101360007CE20000676666663B695B691B68B3F5F3
:101370007A7F45D23B695B691B689A4A82FB0312FC
:101380005211DB17D21A984B83FB02139910D31713
:10139000C91A0B469B000B445B00D11ACBB2303309
:1013A000DBB23B723B695B691B688F4A82FB0312AD
:1013B0009210DB17D21A8C4B83FB02139910D317B0
:1013C000C91A0B469B000B445B00D11ACBB23033D9
:1013D000DBB27B723B695B691A68834B83FB021348
:1013E0009910D317C91A0B469B000B445B00D11A06
:1013F000CBB23033DBB2BB720023FB720323FB752D
:101400007B681B7A002B14BF01230023DBB21A4632
:10141000764B01925A6800921B6816220821744884
:1014200009F069FDFB7DC3F10303DBB25B00DBB2B6
:101430000D33DBB21E2219466D4809F02AF97B688C
:101440001B7A002B14BF01230023DBB21A46694B21
:1014500007F108010192012200920CCB644809F0C7
:101460002AFD7B685B6828333B613B695B691B68CD
:1014700003F00103002B12D07B681B7A012B14BFF1
:1014800001230023DBB21A465B4B01925A6800929B
:101490001B6816222621564809F02DFD11E07B68B5
:1014A0001B7A012B14BF01230023DBB21A46534BD6
:1014B00001925A6800921B68162226214C4809F0B6
:1014C0001AFD7B685B6878333B613B695B691B682D
:1014D00003F00103002B12D07B681B7A032B14BF8F
:1014E00001230023DBB21A46454B01925A68009251
:1014F0001B68162245213E4809F0FDFC11E07B687F
:101500001B7A032B14BF01230023DBB21A463D4B89
:1015100001925A6800921B6816224521344809F04E
:10152000EAFC7B685B68A0333B613B695B691968D7
:10153000354BA3FB01235A0813465B001344CA1A18
:101540001346FB73FB7B022B2CD0022B3DDC002BC4
:1015500002D0012B13D038E07B681B7A042B14BF18
:1015600001230023DBB21A46284B01925A680092ED
:101570001B68162263211E4809F0BDFC25E07B682C
:101580001B7A042B14BF01230023DBB21A46204B25
:1015900001925A6800921B6816226321144809F0D0
:1015A000AAFC12E07B681B7A042B14BF01230023E2
:1015B000DBB21A46174B01925A6800921B6816223A
:1015C00063210B4809F097FC00BF094809F084F833
:1015D0007A68537A6FF34103537200E000BF183703
:1015E000BD4680BD1F85EB5167666666A8DF0000BB
:1015F000CC0B0020D0DE000018DF000078E00000F7
:10160000C0E0000060DF0000ABAAAAAA08E1000069
:1016100050E1000098E1000080B483B000AF786032
:1016200039607B68134AA2FB0323D908114BA3FB43
:101630000123DA0813469B0013445B00CA1AD3B295
:101640003033DAB23B681A7079680A4BA3FB012386
:10165000DA0813469B0013445B00CA1AD2B23B68F7
:1016600001333032D2B21A7000BF0C37BD465DF87C
:10167000047B7047CDCCCCCC80B500AF084909487D
:1016800009F089F8064B02221A720749054809F049
:1016900082F8044B1B68184609F0C7F800BF80BDEC
:1016A000F4000020340B00202C00002080B500AF97
:1016B0000549064809F06FF8044B1B68184609F005
:1016C000B4F800BF80BD00BF40000020340B0020F4
:1016D00080B500AF0549064809F05DF8044B1B686A
:1016E000184609F0A2F800BF80BD00BF54000020DA
:1016F000340B002080B586B004AF0346FB7121484F
:1017000009F00DF800230293012301933F23009376
:101710007F230D2200211B4809F0CCFA1222082158
:10172000184808F0E8FF184B0122019200220092AD
:101730000CCB1649134809F0BEFB22220B2111489D
:1017400008F0D9FF104B01220192002200920CCB2D
:101750000F490C4809F0AFFB32221D21094808F05F
:10176000CAFF094B01220192002200920CCB0949C9
:10177000044809F0A0FB034808F0E0FF00BF083769
:10178000BD4680BDCC0B0020B4E6000040E900005F
:1017900054E9000060E9000080B500AF0549064843
:1017A00008F0F9FF044B1B68184609F03EF800BF2B
:1017B00080BD00BF90000020340B002080B500AF3A
:1017C0000549064808F0E7FF044B1B68184609F076
:1017D0002CF800BF80BD00BFA4000020340B002007
:1017E00080B500AF0549064808F0D5FF044B1B68DB
:1017F000184609F01AF800BF80BD00BFB8000020ED
:10180000340B002080B500AF0549064808F0C3FF3F
:10181000044B1B68184609F008F800BF80BD00BFE4
:10182000CC000020340B002080B500AF05490648ED
:1018300008F0B1FF044B1B68184608F0F6FF00BF24
:1018400080BD00BFE0000020340B002080B500AF59
:101850000549064808F09FFF044B1B68184608F02E
:10186000E4FF00BF80BD00BF68000020340B0020F3
:1018700080B500AF0549064808F08DFF044B1B6892
:10188000184608F0D2FF00BF80BD00BF7C000020DA
:10189000340B002090B58FB004AF0346FB710023DA
:1018A00087F827300023BB76A24B07F108040FCB43
:1018B00007C423800023BB759F4B1B68012B02D0FC
:1018C000022B12D023E09D4B9B6F9D4AA2FB03236A
:1018D0005A0C07F108030D339A49184608F060F8CE
:1018E000994B3B62994BFB6111E0994B9B6F944A7A
:1018F000A2FB03235A0C07F108030D339149184644
:1019000008F04EF8934B3B62934BFB6100BF93484A
:1019100008F005FF00230293012301933F23009366
:101920007F230D2200218D4809F0C4F9002387F898
:10193000273047E097F82730FA6913441B78DBB269
:10194000874AA2FB03239B08DBB2C3F14003BB76AB
:10195000BA7E97F827100123804809F050F997F8CC
:1019600027303A6A134493F88030DBB2012B0DD153
:1019700097F8273097F8271001220292012201924E
:101980001E2200920D22754809F094F997F827302D
:101990003A6A134493F88030DBB2022B0DD197F8EA
:1019A000273097F8271001220292012201921E226D
:1019B00000920D22694809F07DF997F8273001332C
:1019C00087F8273097F92730002BB3DA3B6A93F872
:1019D0000031DBB2002B26D03B6A93F80231D9B23A
:1019E0003B6A93F80231DBB201220292012201929A
:1019F0003F2200920D22594809F05CF93B6A93F8A6
:101A00000231DBB20133DBB232221946534808F00F
:101A100072FE544B01220192002200920CCB5249DB
:101A20004E4809F048FA3B6A93F80131DBB2002BCB
:101A300026D03B6A93F80331D9B23B6A93F803315D
:101A4000DBB201220292012201923F2200920D227A
:101A5000424809F02FF93B6A93F80331DBB2073BA8
:101A6000DBB2322219463D4808F045FE3D4B0122CB
:101A70000192002200920CCB3C49384809F01BFA35
:101A80003B6A93F80131DBB2002B05D13B6A93F836
:101A90000031DBB2002B32D03B6AB3F804311BB209
:101AA000FB763B6AB3F804311BB2002B01DA00234A
:101AB000FB763B6AB3F804311BB27F2B01DD7F2339
:101AC000FB76FB7EF97E01220292012201923F22E7
:101AD00000922B22214809F0EDF8FB7E073BDBB298
:101AE000322219461D4808F006FE1E4B01220192C3
:101AF000002200920CCB1E49184809F0DCF9174867
:101B000008F01CFE1B4B9B6D002B0FD012220021F6
:101B1000124808F0F0FD134B07F108010122019271
:101B2000002200920CCB0D4809F0C5F900BF2C37FC
:101B3000BD4690BD74E9000008010020008000400F
:101B4000412885986CE90000E80D0020E80B002092
:101B500000900440F20E0020E80C0020CC0B002086
:101B6000CDCCCCCCB4E600000CF7000030EA00008D
:101B700070E90000FC0F002080B586B000AF03467E
:101B8000FB710023FB751F4B1B68012B02D0022B3E
:101B900005D009E01C4B3B611C4BFB6004E01C4B77
:101BA0003B611C4BFB6000BF0023FB7516E0FB7D17
:101BB000FA6813441B785BB2DAB2FB7D39690B44D7
:101BC0001B78DBB2D31ADBB2803BD9B2FB7DFA685B
:101BD00013444AB21A70FB7D0133FB7597F9173035
:101BE000002BE4DA01F0BCFF0B490C4808F0D3FDF0
:101BF0000A4B1B68184608F018FE00BF1837BD4690
:101C000080BD00BF08010020E80B00207C100020F0
:101C1000E80C0020FC10002054000020340B0020B1
:101C200080B584B004AF174808F079FD0023029313
:101C300001230193382300937F230D2200211148B3
:101C400009F038F80021104808F0A5FD0F4B0122DB
:101C500001925A6800921B6812222721094809F054
:101C60004AF90B4B012201925A6800921B683922F3
:101C70000021044809F03FF9024808F05FFD00BF69
:101C8000BD4680BDCC0B0020340B002038E900009D
:101C900068E8000080B586B002AF03F05DFB034644
:101CA0005E4AA2FB03239B09FB60FB685C4AA2FB24
:101CB0000323D90A5B4BA3FB0123DA0813469B00DD
:101CC00013445B00CA1AD3B23033DBB23B71FB68FA
:101CD000554AA2FB03235909534BA3FB01235A097D
:101CE00013461B019B1A9B00CA1A3B1D0133194660
:101CF0001046FFF791FCF9684B4BA3FB01235A09EF
:101D000013461B019B1A9B00CA1A3B1D033319463D
:101D10001046FFF781FC454808F001FD002208212C
:101D2000424808F0E8FC3979414B01220192012236
:101D300000920CCB3D4808F0FDFF00220E213B48ED
:101D400008F0D9FC79793A4B0122019201220092E4
:101D50000CCB364808F0EEFF00221221334808F081
:101D6000CAFCB979324B01220192012200920CCBBC
:101D70002E4808F0DFFF002218212C4808F0BBFC99
:101D8000F9792B4B01220192012200920CCB2748BA
:101D900008F0D0FF00221C21244808F0ACFC397A5E
:101DA000234B01220192012200920CCB1F4808F024
:101DB000C1FF002261211D4808F09DFC1C4B01223F
:101DC0000192012200920CCB2D21184808F0B2FF9D
:101DD00000226521154808F08EFC154B0122019266
:101DE000012200920CCB2D21104808F0A3FF002205
:101DF0006D210E4808F07FFC0D4B0122019201225B
:101E000000920CCB2D21094808F094FF074808F0F8
:101E100095FC00BF1037BD4680BD00BFD34D62109A
:101E2000C5B3A291CDCCCCCC89888888CC0B0020BE
:101E30006CE4000080B584B004AF6D4808F06FFC1E
:101E400000230293012301933F2300937F23002269
:101E50000021674808F02EFF664B012201925A6864
:101E600000921B6800220021614809F044F8624B8F
:101E7000012201925A6800921B68002200215C48EE
:101E800009F039F8012301220C21594808F0B7FE66
:101E9000012303220C21564808F0B1FE0123012240
:101EA0001621534808F0ABFE0123032216215048A7
:101EB00008F0A5FE002208214D4808F01CFC4F4BFD
:101EC00001220192012200920CCB3021484808F0F7
:101ED00031FF00220E21464808F00DFC474B01223D
:101EE0000192012200920CCB3021414808F022FFE0
:101EF000002212213E4808F0FEFB404B01220192D5
:101F0000012200920CCB3021394808F013FF002247
:101F10001821374808F0EFFB384B012201920122CB
:101F200000920CCB3021324808F004FF00221C2123
:101F30002F4808F0E0FB314B012201920122009270
:101F40000CCB30212A4808F0F5FE2D4B01220192DE
:101F50005A6800921B6801227621254808F0CBFFC1
:101F6000012304226A21224808F049FE002271213F
:101F70001F4808F0C0FB214B012201920022009271
:101F80000CCB56211A4808F0D5FE002261211848D2
:101F900008F0B1FB194B01220192012200920CCBF7
:101FA0002D21134808F0C6FE00226521104808F0D4
:101FB000A2FB124B01220192012200920CCB2D2197
:101FC0000B4808F0B7FE00226D21094808F093FB8A
:101FD0000A4B01220192012200920CCB2D210448D0
:101FE00008F0A8FE024808F0A9FB00BFBD4680BD6E
:101FF000CC0B0020BCE70000CCE700006CE4000044
:10200000E0E7000080B500AF00F04EF8224B5B69BE
:10201000214A43F080735361204BD3F8A8311F4A03
:1020200023F00F03C2F8A8311C4BD3F8A8311B4A88
:1020300043F00303C2F8A831194B03F50053DB68E2
:10204000174A43F4806302F50052D360124B154ADD
:102050009A67114B5B69104A43F0806353610F4BE1
:10206000DB6E0E4A23F00F03D3660C4BDB6E0B4A7C
:1020700043F00303D3660A4B03F500531B68084A79
:1020800043F0006302F500521360034B054AC3F8A6
:10209000802000BF80BD00BF0080044000100040D1
:1020A00000C0084020C83F0080B582B002AF0D4993
:1020B0000D4804F065FE002300930C4B0B4A0021F1
:1020C000094804F097FE00230093084B074A0221B9
:1020D000054804F08FFE044808F080FB00BFBD46B1
:1020E00080BD00BF84E900000080044080234300DD
:1020F00080B58CB004AF78607B685B7A03F0020334
:10210000DBB2002B00F036837B685B7A03F00103BF
:10211000DBB2002B10D07B685A687B681B7A1946AB
:102120000B469B000B44DB0013449B7C032B03D129
:10213000786808F0C4FC1EE37B681A7A7B681B7819
:102140009A4202D37B6800221A727B681B7AAF4ADC
:10215000A2FB03239B08BB767B681A7AAB4BA3FBDD
:10216000021399080B469B000B44D31A7B767B68BD
:102170001B78A64AA2FB03239B08DBB2BA7E9A42D5
:102180000BD17B681A78A14BA3FB021399080B466D
:102190009B000B44D31ADBB200E005233B76786842
:1021A00000F0BAFC00230293012301933F23009324
:1021B0007F230D220021786800F06CFC0023FB7661
:1021C0006DE2FB7E1A46920013445B00DBB21233D1
:1021D000D8B2FB7E1A46920013445B00DBB2133385
:1021E000DBB2F97E7A7E91420CBF01220022D2B28C
:1021F0000292012201920093002302460021786896
:1022000000F048FCFB7E1A46920013445B00DBB2F0
:102210001133D8B2FB7E1A46920013445B00DBB246
:102220001433DBB2F97E7A7E91420CBF0122002288
:10223000D2B20292012201920093012302460121AF
:10224000786800F027FCFB7E1A46920013445B007E
:10225000DBB21033D8B2FB7E1A46920013445B0007
:10226000DBB21533DBB2F97E7A7E91420CBF0122DC
:102270000022D2B20292012201920093022302466E
:102280000221786800F006FCFB7E1A469200134497
:102290005B00DBB20F33D8B2FB7E1A4692001344C8
:1022A0005B00DBB21633DBB2F97E7A7E91420CBF63
:1022B00001220022D2B20292012201920093032352
:1022C00002460321786800F0E5FBFB7E1A46920087
:1022D00013445B00DBB20E33D8B2FB7E1A46920089
:1022E00013445B00DBB21733DBB2F97E7A7E914296
:1022F0000CBF01220022D2B202920122019200936D
:102300007A2302460421786800F0C4FBFA7E3B7E03
:102310009A4280F0C1817B685968BA7E13469B005F
:102320001A44FB7E13441A4613469B001344DB00F9
:102330000B443B61FB7E1A46920013445B00DBB208
:102340000F33D9B23869FA7E7B7E9A4214BF0123DB
:102350000023DBB2009303460A460521786800F0AB
:10236000B9FB3B699B7C022B40F0EA807B685B7A7F
:1023700003F00103DBB2002B19D0FB7E1A4692005A
:1023800013445B00DBB20E33DAB2FB7E19468900E0
:102390000B445B00DBB21733DBB200210291012159
:1023A0000191009378235421786800F073FB3B6916
:1023B0005B691B68FB61FB6942F20F72934205DDAA
:1023C0003E233B7242F20F73FB6114E0FB69104A3B
:1023D000934205DA3C233B7242F20F73FB610AE041
:1023E000FB69002B05DA2D233B72FB695B42FB6125
:1023F00001E020233B723B7A3C2B0BD1FB6942F27C
:102400000F72934206D12D237B7215E0CDCCCCCC3C
:10241000F1D8FFFFFB69474A82FB03129211DB17D9
:10242000D31AFB81FB89002B04D0FB89DBB230334C
:10243000DBB200E020237B72FB693F4A82FB031280
:102440005211DB17D21A3D4B83FB02139910D3179D
:10245000C91A0B469B000B445B00D11A0B46FB814B
:10246000FB89002B04D0FB89DBB23033DBB205E003
:10247000FB69632B01DC202300E03023BB72FB6986
:102480002E4A82FB03129210DB17D21A2B4B83FBCE
:1024900002139910D317C91A0B469B000B445B001B
:1024A000D11A0B46FB81FB89002B04D0FB89DBB2E0
:1024B0003033DBB205E0FB69632B01DC202300E055
:1024C0003023FB72FA691D4B83FB02139910D3175B
:1024D000C91A0B469B000B445B00D11A0B46FB81CB
:1024E000FB89DBB23033DBB23B7300237B73FB7EB3
:1024F0001A46920013445B00DBB20F33D9B2FA7E66
:102500007B7E9A4206D17B685B7A03F00103DBB2E3
:10251000002B01D0012300E0002303F00103DBB214
:1025200007F10802009313460A465521786800F027
:10253000D1FAB1E0D34D62101F85EB516766666634
:102540003B699B7C012B40F0A780FA7E7B7E9A4200
:1025500019D1FB7E1A46920013445B00DBB20E33A6
:10256000DAB2FB7E194689000B445B00DBB21733FD
:10257000DBB20021029101210191009379237021A6
:10258000786800F087FAFB7E1A46920013445B00DD
:10259000DBB20F33DAB2FB7E194689000B445B00D5
:1025A000DBB21633DBB201210291002101910093CD
:1025B00078237121786800F06DFA3B695B691B68CC
:1025C00003F00103002B67D0FB7E1A4692001344F0
:1025D0005B00DBB21133DAB201237321786800F0BB
:1025E0003FFAFB7E1A46920013445B00DBB21233C3
:1025F000DAB201237421786800F032FAFB7E1A46C1
:10260000920013445B00DBB21333DAB2012375216D
:10261000786800F025FAFB7E1A46920013445B00AE
:10262000DBB21433DAB201237621786800F018FAAD
:10263000FB7E1A46920013445B00DBB21433DAB21D
:1026400001237321786800F00BFAFB7E1A46920092
:1026500013445B00DBB21333DAB2012374217868D0
:1026600000F0FEF9FB7E1A46920013445B00DBB2D9
:102670001233DAB201237521786800F0F1F9FB7E9C
:102680001A46920013445B00DBB21133DAB2012325
:102690007621786800F0E4F9FB7E0133FB76FB7E5F
:1026A000042B7FF68EAD7B681B781A462D2393FB97
:1026B000F2F3FB7501230293002301930E23009391
:1026C0007F230E227D21786800F0E4F97B681B7877
:1026D000FA7D12FB03F3DBB21233D9B27B681B78AD
:1026E000FA7D12FB03F3DBB21233DBB2012202925A
:1026F0000022019200937F230A467D21786800F032
:10270000C9F97B681B78FA7D12FB03F3DBB2103347
:10271000DBB2002202920122019200937F23102259
:102720007D21786800F0B6F97B681B7AFA7D12FB90
:1027300003F3DBB21033D9B27B681B7A0133DBB20F
:10274000FA7D12FB03F3DBB21033DBB201220292FB
:102750000122019200937F230A467D21786800F0D0
:1027600099F9786800F0E6F97A68537A6FF34103D3
:10277000537200E000BF2037BD4680BD80B582B0F7
:1027800000AF786039603B681D2B02D91048FEF716
:10279000EDF87B6803F120023B68DBB25B09DBB23A
:1027A0009B00134419683B68DBB203F01F0301224E
:1027B0009A407B6803F120003B68DBB25B09DBB227
:1027C0009B0003440A431A6000BF0837BD4680BD22
:1027D0008CE9000080B586B002AFF860B9607A601D
:1027E0003B60FB68BA681A60FB687A681A65FB6828
:1027F0003A685A6503220021012008F0C7FD02460D
:10280000FB689A66012008F035FE0246FB68DA662E
:10281000FB681B6D184604F071FDFB6858331846C1
:1028200005F080FCFB68BA69DA65FB681868FB682C
:102830005833FA69194609F091FC4FF080430022A1
:10284000C3F8B822FB681A6DFB685B6D1946104629
:10285000FFF794FFFB6803F14000FB68196DFB680C
:102860005B6D1A4604F048FFFB681868FB68191D89
:10287000FB6840330093FB68034A05F00DFF00BF7F
:102880001037BD4680BD00BF8D28000080B586B0E2
:1028900000AFF860B9607A603B603B687B617B6940
:1028A0007A685A667B699B6E07F1100211461846DA
:1028B00008F096FE3B69002B07D0064B4FF0805284
:1028C0001A60BFF34F8FBFF36F8F00BF1837BD463D
:1028D00080BD00BF04ED00E080B582B000AF78603D
:1028E0001E23164A0021786800F08AF87B689A1D3A
:1028F00001230021786800F083F87B68DA1D01234A
:102900000021786800F07CF87B6803F1080201235D
:102910000021786800F074F80021786808F04DF91B
:10292000786808F077FB0123054A0021786800F0F9
:1029300067F800BF0837BD4680BD00BF08EA000049
:1029400026EA000080B584B002AF786008461146E0
:102950001A460346FB700B46BB7013467B707B68C0
:10296000FA781A707B68BA785A707B687A789A70AD
:10297000BB787A7802FB03F3DB109AB27B689A800B
:102980007B68A022DA717B68C0229A717B68A622DC
:102990001A727B6800229A727B680022DA727B6866
:1029A0003A69DA60012008F065FD02467B689A61A9
:1029B0007B689B69002B01D100BFFDE77B689A69AA
:1029C0007B681A617B6800221A757B681846FFF7DE
:1029D00083FF00230193042300937B68BE220649F2
:1029E000064808F0E9FF0346012B01D000BFFDE7D0
:1029F00000BF0837BD4680BD28EA00007FB0000058
:102A000080B584B000AFF8607A603B600B46FB7223
:102A1000FB681A78104B1A710F4B00225A71FB7A1F
:102A2000002B01D1002300E040230B4A93600A4BA6
:102A30000122DA60084A7B681361074A3B685361E8
:102A4000054B00221A600449044808F07BF800BFD7
:102A50001037BD4680BD00BF440B00205C0B00203A
:102A600080B582B000AF7860084611461A4603462A
:102A7000FB700B46BB7013467B707B78BA78F97895
:102A8000034808F0BCF800BF0837BD4680BD00BF52
:102A9000CC0B002080B586B004AF786008461146A4
:102AA0001A460346FB700B46BB7013467B703B7E99
:102AB0007878BA78F97802933B7D01933B7C009358
:102AC0000346034808F0F6F800BF0837BD4680BD4E
:102AD000CC0B002080B586B002AFF8607B600B465F
:102AE000FB721346BB72BA7AFB7A1946084808F0A3
:102AF000E4FA3B7E074A0193002300930CCA7968ED
:102B0000034808F0D8F900BF1037BD4680BD00BFAC
:102B1000CC0B002074EC000080B582B000AF786070
:102B2000034808F0DEFA00BF0837BD4680BD00BF8D
:102B3000CC0B002080B582B000AF7860034808F06D
:102B4000DFFA00BF0837BD4680BD00BFCC0B0020B8
:102B500080B483B000AF03463960FB7197F907304A
:102B6000002B0ADB3B68DAB20C4997F907305201B7
:102B7000D2B20B4483F800230AE03B68DAB208497A
:102B8000FB7903F00F03043B5201D2B20B441A76D7
:102B900000BF0C37BD465DF8047B704700E100E0E4
:102BA00000ED00E080B582B002AF02211020FFF7F7
:102BB000CFFF02210120FFF7CBFF0A4B01930A4B05
:102BC00000930523094A0A490A48FFF703FE0A4B06
:102BD0000093802340223C210848FFF7B3FE00BF4A
:102BE000BD4680BD001BB700801A060000200840CB
:102BF000008008405C0B002058010020CC0B002016
:102C000080B483B000AF0346FB7197F90730002B07
:102C10000BDBFB7903F01F02074997F907305B09CB
:102C2000012000FA02F241F8232000BF0C37BD4614
:102C30005DF8047B704700BF00E100E080B483B022
:102C400000AF03463960FB7197F90730002B0ADBB0
:102C50003B68DAB20C4997F907305201D2B20B4403
:102C600083F800230AE03B68DAB20849FB7903F0F5
:102C70000F03043B5201D2B20B441A7600BF0C374B
:102C8000BD465DF8047B704700E100E000ED00E028
:102C900080B500AF00F016F800F038F800F05AF8F0
:102CA00000F092F800F0FEF800F0C0F900F014FA1D
:102CB000034B5B68024A23F00403536000BF80BDEE
:102CC0000050084080B500AF0D490E4804F058F898
:102CD0000C4B00225A610B4B5B690A4A43F080732C
:102CE00043F003035361074A074B1B6893670A20AD
:102CF00008F015FA034808F036FA00BF80BD00BF9F
:102D00007CEC0000008000403801002080B500AF5E
:102D10000D490E4804F034F80C4B00225A610B4B5D
:102D20005B690A4A43F0807343F003035361074A27
:102D3000074B1B689367252008F0F1F9034808F05A
:102D400012FA00BF80BD00BF7CEC00000090044080
:102D50003C01002080B400AF4FF080430022C3F854
:102D6000F0224FF080430422C3F8B4234FF0804395
:102D7000D3F804324FF0804243F00403C2F8043227
:102D80004FF08043D3F844314FF0804243F00403C6
:102D9000C2F844310B4B1B680A4A43F00603136028
:102DA000084B1B68074A43F070031360054B1B6810
:102DB000044A43F40033136000BFBD465DF8047B52
:102DC000704700BF0050084080B500AF0C2008F0ED
:102DD000A6F9314BD3F8EC312F4A23F00F03C2F898
:102DE000EC312D4BD3F8EC312B4A43F00203C2F8FF
:102DF000EC312A4B03F50053DB68284A43F00063AB
:102E000002F50052D360244BD3F8F431224A23F068
:102E10000F03C2F8F431204BD3F8F4311E4A43F0CB
:102E20000203C2F8F4311D4B03F50053DB681B4A63
:102E300043F0005302F50052D360194B40F2F312F5
:102E4000C3F80022164B4FF0FF32C3F80023144B97
:102E50004FF48052C3F80423114B0122C3F8082514
:102E60000F4B0122C3F818250D4BF922C3F8042299
:102E70000B4B4FF0FF32C3F80823094B41F201021C
:102E8000C3F80C23064B0222C3F80C25044B022284
:102E9000C3F81C2500BF80BD0010004000C00840E2
:102EA0000050084080B400AF414BD3F8E831404AAD
:102EB00023F00F03C2F8E8313D4BD3F8E8313C4A28
:102EC00043F00203C2F8E8313A4B03F50053DB68E4
:102ED000384A43F0806302F50052D360344BD3F894
:102EE000F031334A23F00F03C2F8F031304BD3F8FE
:102EF000F0312F4A43F00203C2F8F0312D4B03F5B5
:102F00000053DB682B4A43F0805302F50052D36034
:102F1000294B40F2DF12C3F80822274B0022C3F8E6
:102F20001023254B41F20202C3F81423224B042242
:102F3000C3F80025204BD3F8F0301F4A43F00403B8
:102F4000C2F8F0301C4B40F2DF12C3F814221A4BC7
:102F50000022C3F82823184B41F20502C3F82C23A2
:102F6000154B2022C3F81025134BD3F8F030124A2A
:102F700043F02003C2F8F0300F4B1322C3F80C22A9
:102F80000D4B6FF07042C3F818230B4B41F2030254
:102F9000C3F81C23084B0822C3F80425064B08225B
:102FA000C3F8142500BFBD465DF8047B704700BF21
:102FB0000010004000C008400050084080B582B0BA
:102FC00000AF7860094B6FF07042C3F81023074BD5
:102FD0005B68064A23F0040353600121044808F0AB
:102FE000B4F800BF0837BD4680BD00BF00500840A0
:102FF0000080004080B582B000AF7860094B6FF070
:103000007042C3F82823074B5B68064A23F0040389
:1030100053600121044808F098F800BF0837BD4606
:1030200080BD00BF005008400090044080B400AF55
:103030000D4B40F20312C3F810220B4B6FF070429D
:10304000C3F82023084B41F20402C3F82423064BA3
:103050001022C3F82025044B0122C3F8242500BF09
:10306000BD465DF8047B70470050084080B582B0D3
:1030700000AF174B1B687B60154B1B68144A43F06D
:1030800002031360124B0122DA66114BDB6E03F070
:103090000103002B16D00E4B1B680D4A43F00703AB
:1030A00013600B4B01221A670A49642003F0ACFD40
:1030B000074B1B6F03F00103012B05D0044A7B680B
:1030C000136002E000BF00E000BF0837BD4680BDCE
:1030D00000000A4000EF1C0D80B500AF624B1B6C76
:1030E000614A23F00F0313645F4B1B6C5E4A23F4A9
:1030F000807313645D4B03F500531B685B4A23F434
:10310000803302F500521360574BDB6F564A23F0B1
:103110000F03D367544BDB6F534A23F48073D36799
:10312000524B03F500531B68504A23F0004302F54D
:10313000005213604FF08043D3F810364FF08042B6
:1031400023F48063C2F810364FF08043D3F8103672
:103150004FF0804223F40073C2F810364FF08043E2
:10316000D3F810364FF0804223F40023C2F8103613
:103170004FF08043D3F810364FF0804223F4000321
:10318000C2F810363A49142003F03EFD4FF0804358
:10319000D3F800324FF0804243F00063C2F80032AF
:1031A0004FF08043D3F840314FF0804243F000634A
:1031B000C2F84031FFF75AFF2E4B1B682D4A43F0EF
:1031C000020313602B4B1B682A4A23F4C06313606D
:1031D000284B1B68274A43F400731360254B1B6878
:1031E000244A43F400531360224B9B68214A23F086
:1031F000004393601F4B9B681E4A43F0100393608B
:103200001C4B9B681B4A43F020039360194B9B683F
:10321000184A43F440539360164B9B68154A43F495
:1032200080239360134B9B68124A43F400239360FE
:10323000104B9B680F4A43F0804393600D4B9B6893
:103240000C4A43F0004393600A4B5B6E094A43F01B
:103250000103536600211620FFF7F0FC162007F04B
:103260005EFF00BF80BD00BF0010004000C00840EE
:1032700000EF1C0D00000A4080B400AF1C4B1B780F
:10328000DBB25BB2002B10DB1A4B1B6B190A184B1D
:103290001B78DBB21A46C9B2174B9954144B1B78F2
:1032A000DBB20133DAB2124B1A70144B1B78DBB26B
:1032B0005BB2002B10DB0F4B5B6B190A0F4B1B78BB
:1032C000DBB21A46C9B20E4B99540C4B1B78DBB2D9
:1032D0000133DAB2094B1A70064B4FF080529A66EE
:1032E000BFF34F8F00BF00BFBD465DF8047B704742
:1032F0005601002000000A40680C00205701002001
:10330000680D002080B400AF1B4BD3F8F43003F0FD
:103310000403002B0CD0194B00221A70164B00220C
:10332000C3F81023144B5B68134A23F00403536063
:10333000114BD3F8F43003F02003002B0CD0104BCA
:1033400000221A700C4B0022C3F828230A4B5B683A
:10335000094A23F004035360074BD3F8F430064ABC
:1033600043F02403C2F8F430BFF34F8F00BF00BF17
:10337000BD465DF8047B70470050084056010020B0
:103380005701002080B586B000AF786000237B61D4
:103390000023FB741AE0FB7C374AD35CDBB21A468D
:1033A0007B6913447B61FB7C344AD35CD9B2344BD8
:1033B0001A68FB7C13441B785BB2DAB2FB7C0A44CC
:1033C000D1B22D4AD154FB7C0133FB7497F91330F1
:1033D000002BE0DA7B69C3F5804213469B0013445F
:1033E0005B001A46274B1B681344264A1360264A83
:1033F000244B1B6893670023FB600023FB721AE0D9
:10340000FB7A224AD35CDBB21A46FB681344FB60AA
:10341000FB7A1F4AD35CD9B21E4B1A68FB7A13445D
:103420001B785BB2DAB2FB7A0A44D1B2174AD154A4
:10343000FB7A0133FB7297F90B30002BE0DAFB6863
:10344000C3F5804213469B0013445B001A46124B9F
:103450001B681344104A1360104A0F4B1B68936794
:1034600005490F4800F050F808490E4800F04CF8A4
:10347000012001F041FE89E7E80B0020680C0020E4
:10348000300100203801002000800040E80C0020BE
:10349000680D0020340100203C0100200090044011
:1034A000E80D0020F20E002080B400AF134B1B6823
:1034B000013B134A4FF4857101FB03F3134403F2FC
:1034C00003131B7818460D4B1B68013B0C4A4FF445
:1034D000857101FB03F3134403F581731B781A46CE
:1034E0000849064B1B68013B821A12339B000B44B0
:1034F0005A6000BFBD465DF8047B7047080100209C
:10350000E80D0020FC0F0020B0B588B000AF786057
:1035100039601E23FB750123BB751E237B750723B2
:103520003B75884A884B1B68013B12339B00134450
:103530005B68FB740023BB740023FB7700237B7460
:1035400000233B740023FB730023BB7300237B73B6
:1035500000233B730023FB7200233B770023FB76A1
:103560007B68002283F801217B68002283F8002118
:103570000123BB7638E0BB7E7A681344002283F8CF
:103580008020BB7E013B3A6813441B78DBB21946AE
:10359000BB7E01333A6813441B78DBB2CA1AFB7D49
:1035A0009A4204DDBB7E7A680121D15419E0BB7ECA
:1035B00001333A6813441B78DBB21946BB7E013BEA
:1035C0003A6813441B78DBB2CA1AFB7D9A4204DDC9
:1035D000BB7E7A680221D15403E0BB7E7A68002169
:1035E000D154BB7E0133BB76BB7E7E2BC3D9574BF8
:1035F0001B78DBB2002B02D0012B05D01BE001238E
:10360000BB777E237B7716E07B6893F803213B7DB5
:10361000D31ABB777B6893F803213B7D13447B77F8
:10362000BB7F002B01D10123BB777B7F7E2B01D990
:103630007E237B7700BF01237B7651E07B7E7A6817
:10364000D35C012B49D17B7EBB7302E07B7E0133CF
:103650007B767B7E7A68D35C012B02D17B7E7E2BCE
:10366000F4D97B7E013B7B737A7BBB7BD31A7B7463
:10367000BB7B3A6813441B78DAB27B7B39680B4416
:103680001B78DBB2D31A3B747A7CBB7D9A4224D37D
:103690003A7C7B7D9A4220D37B7C5B08DAB2BB7B91
:1036A0001344FB73FB7B7A681344012283F8802068
:1036B0003B7F01333B77FA7BBB7F9A420DD3FA7B8A
:1036C0007B7F9A4209D87B68FA7B83F803213B7C95
:1036D000BB747B68012283F801217B7E01337B76FA
:1036E0007B7E7E2BAAD9194B1B78DBB2002B02D034
:1036F000012B05D01BE00123BB777E237B7716E0EF
:103700007B6893F802213B7DD31ABB777B6893F8E3
:1037100002213B7D13447B77BB7F002B01D101232A
:10372000BB777B7F7E2B01D97E237B7700BF012374
:103730003B765EE03B7E7A68D35C022B56D13B7EC3
:103740003B7308E0FC0F0020080100202C3D002006
:103750003B7E01333B763B7E7A68D35C022B02D101
:103760003B7E7E2BF4D93B7E013BFB72FA7A3B7B9E
:10377000D31A7B74FB7A3A6813441B78DAB23B7B2A
:1037800039680B441B78DBB2D31A3B747A7CBB7D5F
:103790009A422BD33A7C7B7D9A4227D37B7C5B0871
:1037A000DAB23B7B1344FB73FB7B7A68134402223F
:1037B00083F88020FB7E0133FB763A7CFB7F9A42C4
:1037C00014D9FA7BBB7F9A4210D3FA7B7B7F9A4253
:1037D0000CD8FB7F002B09D17B68FA7B83F8022190
:1037E0003B7CFB777B68012283F800213B7E013321
:1037F0003B763B7E7D2B9DD97B6893F80031002B77
:1038000004D17B6893F80131002B15D07B6893F8C5
:1038100003311A467B6893F80231D31A184608F030
:10382000BBFE0346132B07DD7B6893F802217B6800
:1038300093F803319A4204D97B68002283F8082167
:103840004CE07B6893F80031002B12D17B6893F831
:103850000131012B0DD17B6893F803311A46FB7CB3
:103860005B08DBB2D31A9BB21AB27B68A3F80421BF
:1038700034E07B6893F80031012B12D17B6893F818
:103880000131002B0DD17B6893F802311A46FB7C85
:103890005B08DBB213449BB21AB27B68A3F8042125
:1038A0001CE07B6893F80031012B17D17B6893F8FB
:1038B0000131012B12D17B68012283F808217B683A
:1038C00093F803311A467B6893F802311344DA0FF8
:1038D00013445B101AB27B68A3F804217B68B3F928
:1038E00004313F3B184609F0F4F804460D46FB7CD2
:1038F000184609F0EEF802460B464FF000001F494B
:1039000006F07CFA02460B462046294606F0F8F9F6
:1039100002460B461046194609F097F803461AB2BC
:103920007B68A3F806213B7F052B07D1FB7E052B87
:1039300004D17B68032283F809211AE03B7F042B22
:1039400007D1FB7E042B04D17B68022283F8092176
:103950000FE03B7F032B07D1FB7E032B04D17B6859
:10396000012283F8092104E07B68002283F8092101
:1039700000BF00BF2037BD46B0BD00BF00407F4044
:1039800080B582B000AF78604FF4804203210448D4
:1039900007F00CFC4FF4FA7001F0AEFB00BFF3E748
:1039A00000C0084080B500AF4FF4804203210848B2
:1039B00007F0E9FB08220321054807F0E4FB042295
:1039C0000221034807F0DFFB00F004F800BF80BDD0
:1039D00000C0084080B400AF144BD3F8B031134A94
:1039E00023F00F03C2F8B031104BD3F8B0310F4AB7
:1039F00043F00503C2F8B0310D4B03F50053DB680B
:103A00000B4A43F4805302F50052D3604FF08043D9
:103A10000422C3F888224FF08043DB22C3F88423BA
:103A200000BFBD465DF8047B704700BF001000403A
:103A300000C0084080B582B002AF4FF4867002F03B
:103A4000E1FC08F02DFD08F00EFD08F0EDFC05F09E
:103A50009FF8FFF7A7FF00F051F8FFF719F9FCF7FF
:103A6000E9FFFCF78FFFFEF7CDFA00230193012356
:103A700000930023BE221A491A4807F09DFF03460F
:103A8000012B04D004220221174807F0A2FB0023D7
:103A90000193012300930023BE221449144807F028
:103AA0008BFF0346012B04D0042202210E4807F0AD
:103AB00090FB00230193012300930023BE220D49B4
:103AC0000D4807F079FF0346012B04D004220221A0
:103AD000054807F07EFB01F045FB00BFFDE700BF96
:103AE00084EC00008139000000C0084094EC000024
:103AF000F90F0000A0EC00008533000080B584B011
:103B000000AF012002F01AFFF8603B1D184608F0D4
:103B1000D5F93B1DFA6819460A4804F09BF8802243
:103B200009490A4808F0C9FC80220949094808F0F7
:103B3000C4FC80220849094808F0BFFC00BF1037C8
:103B4000BD4680BD0040014000801040FC0F0020B9
:103B5000808010407C10002000811040FC1000206C
:103B600080B500AF80221449144808F0D2FC034607
:103B7000002B04D0104A0021114808F0C1F980221E
:103B80001049114808F0C5FC0346002B04D00D4A2B
:103B900001210B4808F0B4F980220C490C4808F0C8
:103BA000B8FC0346002B04D0084A0221044808F060
:103BB000A7F900BF80BD00BFFC0F002000801040AF
:103BC000004001407C10002080801040FC1000204C
:103BD0000081104080B485B000AF0346FB71FB79D3
:103BE000022B0ED12B4B1B681B686FF0DB0202FB14
:103BF00003F303F5860303F50E53274AC2F880301A
:103C000043E0264B1B68002B19DC224B1B681B680A
:103C10009AB2204B1B681968214B1B681B68CB1A92
:103C20001E49096801FB03F31E4981FB0301491189
:103C3000DB17CB1A9BB213449BB2FB8118E0154BE8
:103C40001B681B689AB2184B1B681968114B1B68DC
:103C50001B68CB1A1149096801FB03F3114981FB69
:103C600003014911DB17CB1A9BB213449BB2FB81B2
:103C7000B7F90E306FF0DB0202FB03F303F58603A6
:103C800003F50E53044AC2F880301437BD465DF880
:103C9000047B70470000002000900040380B00209B
:103CA000040000201F85EB510800002080B483B081
:103CB00000AF0346FB710A4B1B681B686FF0DB0209
:103CC00002FB03F303F5860303F50E53054AC2F81E
:103CD000803000BF0C37BD465DF8047B704700BFE5
:103CE000000000200090004080B483B000AF034685
:103CF000FB71FB79022B0ED1104B1B681B686FF018
:103D0000DB0202FB03F303F5860303F50E530C4AB3
:103D1000C2F880300DE00B4B1B681B686FF0DB02B4
:103D200002FB03F303F5860303F50E53044AC2F8BE
:103D300080300C37BD465DF8047B704700000020E2
:103D4000009000400400002080B483B000AF034620
:103D5000FB71FB79022B0ED1104B1B681B686FF0B7
:103D6000DB0202FB03F303F5860303F50E530C4A53
:103D7000C2F880300DE00B4B1B681B686FF0DB0254
:103D800002FB03F303F5860303F50E53044AC2F85E
:103D900080300C37BD465DF8047B70470000002082
:103DA000009000400800002080B584B000AF0346BA
:103DB000FB71FB79022B0DD11E4B1B681B686FF04A
:103DC000DB0202FB03F303F5860303F50E531A4AE5
:103DD00093672CE0194B1B681B689AB2184B1B6841
:103DE0001968164B1B681B68CB1A1649096801FB3A
:103DF00003F3154981FB03014911DB17CB1A9BB271
:103E000013449BB2FB81B7F90E306FF0DB0202FB6B
:103E100003F303F5860303F50E53074A9367B7F9D7
:103E20000E30054A926F1946084805F023FE1037F8
:103E3000BD4680BD18010020008004401C01002008
:103E4000200100203C0B00201F85EB51BCEC000042
:103E500080B483B000AF0346FB71094B1B681B683D
:103E60006FF0DB0202FB03F303F5860303F50E5349
:103E7000044A936700BF0C37BD465DF8047B70476A
:103E8000180100200080044080B483B000AF0346D6
:103E9000FB71FB79022B0DD10F4B1B681B686FF078
:103EA000DB0202FB03F303F5860303F50E530B4A13
:103EB00093670CE00A4B1B681B686FF0DB0202FB88
:103EC00003F303F5860303F50E53044A93670C3797
:103ED000BD465DF8047B7047180100200080044057
:103EE0001C01002080B584B000AF0346FB71FB7954
:103EF000022B0ED1204B1B681B686FF0DB0202FB0C
:103F000003F303F5860303F50E531C4AC2F8803011
:103F10002EE01B4B1B681B689AB21A4B1B68196872
:103F2000174B1B681B68CB1A1749096801FB03F381
:103F3000164981FB03014911DB17CB1A9BB21344CD
:103F40009BB2FB81B7F90E306FF0DB0202FB03F38B
:103F500003F5860303F50E53084AC2F88030B7F91B
:103F60000E30064AD2F880201946094805F082FD35
:103F70001037BD4680BD00BF2401002000800440F2
:103F8000280100202C010020400B00201F85EB5150
:103F9000E4EC000080B500AF1F4B1B6840F2DC5220
:103FA0009A611D4B1B6840F2CA32DA611A4B1B68DA
:103FB00040F652021A62184B1B684FF480425A6254
:103FC000154B1B684FF47A729A62134B1B6840F2D0
:103FD0004C42DA62104B1B6840F26C721A630E4B53
:103FE0001B6842F6BB325A630B4B1B684FF47A7264
:103FF0009A63094B1B6840F24C42DA63064B1B681C
:1040000040F26C721A64044B1B6842F6BB325A646D
:10401000FDF7C2FB00BF80BD4001002080B58AB023
:1040200000AF78600023FB6101F0EAF85C4B1B688D
:10403000002B01D100F024F95A4B1A687B68134019
:10404000002B40F095807B68002B1ED008227B68F7
:1040500013447B607B6803F00703002B15D07B685B
:1040600023F0070308337B607B6803F00703002B12
:104070000BD04FF0400383F31188BFF36F8FBFF372
:104080004F8F7B6100BF00BFFDE77B68002B6FD0C7
:10409000454B1B687A689A426AD8444B3B62434B53
:1040A0001B687B6204E07B6A3B627B6A1B687B6205
:1040B0007B6A5B687A689A4203D97B6A1B68002B2B
:1040C000F1D1374B1B687A6A9A4251D03B6A1B6820
:1040D00008221344FB617B6A1A683B6A1A607B6A98
:1040E0005A687B68D21A08235B009A4220D97A6A00
:1040F0007B681344BB61BB6903F00703002B0BD043
:104100004FF0400383F31188BFF36F8FBFF34F8FDE
:104110003B6100BF00BFFDE77B6A5A687B68D21A2B
:10412000BB695A607B6A7A685A60B86900F00AF91C
:104130001D4B1A687B6A5B68D31A1B4A13601A4BC3
:104140001A681B4B1B689A4203D2174B1B68184A0C
:1041500013607B6A5A68134B1B681A437B6A5A6068
:104160007B6A00221A60134B1B680133114A1360EB
:1041700001F054F8FB6903F00703002B0BD04FF05C
:10418000400383F31188BFF36F8FBFF34F8FFB6042
:1041900000BF00BFFDE7FB6918462837BD4680BD5C
:1041A0008439002098390020883900207C3900208B
:1041B0008C3900209039002080B586B000AF78603F
:1041C0007B687B617B68002B4FD008235B427A6958
:1041D00013447B617B693B613B695A68254B1B68D3
:1041E0001340002B0BD14FF0400383F31188BFF332
:1041F0006F8FBFF34F8FFB6000BF00BFFDE73B69D0
:104200001B68002B0BD04FF0400383F31188BFF3E2
:104210006F8FBFF34F8FBB6000BF00BFFDE73B69EF
:104220005A68144B1B681340002B1ED03B691B6857
:10423000002B1AD13B695A680E4B1B68DB431A40AE
:104240003B695A6000F0DCFF3B695A680A4B1B6807
:104250001344094A1360386900F074F8074B1B686F
:104260000133064A136000F0D9FF00BF1837BD467E
:1042700080BD00BF98390020883900209439002083
:1042800080B485B000AF4FF42053BB60274BFB6078
:10429000FB6803F00703002B0CD0FB680733FB60BF
:1042A000FB6823F00703FB60BA68FB68D31A1F4A58
:1042B0001344BB60FB687B601D4A7B6813601C4B2A
:1042C00000225A607B68BA681344FB600822FB68CE
:1042D0009B1AFB60FB6823F00703FB60FB68154A31
:1042E0001360144B1B6800225A60124B1B6800229B
:1042F0001A607B683B603B68FA68D21A3B685A6078
:104300000C4B1A683B681A603B685B680A4A13608A
:104310003B685B68094A1360094B4FF000421A6022
:1043200000BF1437BD465DF8047B70477C11002048
:104330007C390020843900208C3900208839002005
:104340009839002080B485B000AF7860284BFB60BE
:1043500002E0FB681B68FB60FB681B687A689A4296
:10436000F7D8FB68BB60FB685B68BA6813447A687F
:104370009A4208D1FB685A687B685B681A44FB68FC
:104380005A60FB687B607B68BB607B685B68BA686F
:104390001A44FB681B689A4218D1FB681A68154BCF
:1043A0001B689A420DD07B685A68FB681B685B6883
:1043B0001A447B685A60FB681B681A687B681A603D
:1043C00008E00C4B1A687B681A6003E0FB681A6807
:1043D0007B681A60FA687B689A4202D0FB687A6848
:1043E0001A6000BF1437BD465DF8047B704700BFFC
:1043F0007C3900208439002080B485B000AFF8609B
:10440000B9607A60FB68043BFB60FB684FF0807228
:104410001A60FB68043BFB60BB6823F00102FB6889
:104420001A60FB68043BFB600C4AFB681A60FB687F
:10443000143BFB607A68FB681A60FB68043BFB6016
:10444000FB686FF002021A60FB68203BFB60FB68B0
:1044500018461437BD465DF8047B70476144000080
:1044600080B485B000AF00237B60134B1B68B3F1B1
:10447000FF3F0BD04FF0400383F31188BFF36F8FE2
:10448000BFF34F8FFB6000BF00BFFDE74FF040035D
:1044900083F31188BFF36F8FBFF34F8FBB6000BFF3
:1044A00000BF7B68002BFCD000BF00BF1437BD46A7
:1044B0005DF8047B704700BF440100200848006895
:1044C000006880F308884FF0000080F3148862B61B
:1044D00061B6BFF34F8FBFF36F8F00DF00BF00BF28
:1044E00008ED00E080B586B000AF474B1B68474A37
:1044F00093420BD14FF0400383F31188BFF36F8FCA
:10450000BFF34F8F3B6100BF00BFFDE73E4B1B6811
:104510003F4A93420BD14FF0400383F31188BFF31E
:104520006F8FBFF34F8FFB6000BF00BFFDE7394BBC
:104530007B617B691B78DBB27B607B69FF221A7031
:104540007B691B78DBB2FB70FB78DBB203F04003C6
:10455000DAB2314B1A70314B07221A6009E02F4B47
:104560001B68013B2D4A1360FB78DBB25B00DBB2BA
:10457000FB70FB78DBB203F08003802BEFD0274B7E
:104580001B68C3F10703032B0BD04FF0400383F3E9
:104590001188BFF36F8FBFF34F8FBB6000BF00BFA9
:1045A000FDE71E4B1B681B021C4A13601B4B1B685C
:1045B00003F4E063194A13607B68DAB27B691A700E
:1045C000174B1B68164A43F460031360144B1B68B7
:1045D000134A43F06043136000F0A6F8114B002229
:1045E0001A6000F0C5F8104B1B680F4A43F04043B7
:1045F0001360FFF763FF00F06BFFFFF731FF00234D
:1046000018461837BD4680BD00ED00E071C20F416D
:1046100070C20F4100E400E02D3D00209C390020D5
:1046200020ED00E04401002034EF00E080B483B0CE
:1046300000AF4FF0400383F31188BFF36F8FBFF3D8
:104640004F8F7B6000BF104B1B6801330E4A136015
:104650000D4B1B68012B10D10C4B1B68DBB2002BE0
:104660000BD04FF0400383F31188BFF36F8FBFF37C
:104670004F8F3B6000BF00BFFDE700BF0C37BD465A
:104680005DF8047B704700BF4401002004ED00E0AA
:1046900080B483B000AF124B1B68002B0BD14FF0DE
:1046A000400383F31188BFF36F8FBFF34F8F7B609D
:1046B00000BF00BFFDE70A4B1B68013B084A1360BF
:1046C000074B1B68002B05D100233B603B6883F33D
:1046D000118800BF00BF0C37BD465DF8047B7047F2
:1046E0004401002080B582B000AF4FF0400383F357
:1046F0001188BFF36F8FBFF34F8F7B6000BF00F057
:104700003BFE0346002B03D0064B4FF080521A604D
:1047100000233B603B6883F3118800BF00BF08376C
:10472000BD4680BD04ED00E080B400AF0B4B00221D
:104730001A600B4B00221A600A4B1B680A4AA2FB44
:1047400003239B09094A013B1360044B07221A60AB
:1047500000BFBD465DF8047B704700BF10E000E07D
:1047600018E000E04C010020D34D621014E000E09E
:10477000DFF80C00016841F470010160704700BF70
:1047800088ED00E080B485B000AFEFF30583FB60F7
:10479000FB680F2B15D9184AFB6813441B78FB7272
:1047A000164B1B78FA7A9A420BD24FF0400383F3F0
:1047B0001188BFF36F8FBFF34F8F7B6000BF00BFC7
:1047C000FDE70F4B1B6803F4E0620E4B1B689A4237
:1047D0000BD94FF0400383F31188BFF36F8FBFF302
:1047E0004F8F3B6000BF00BFFDE700BF1437BD46E1
:1047F0005DF8047B704700BFF0E300E02D3D002032
:104800000CED00E09C39002080B584B000AF7860EA
:1048100039607B68FB60FB68002B0BD14FF04003D5
:1048200083F31188BFF36F8FBFF34F8FBB6000BF5F
:1048300000BFFDE7FFF7FAFEFB681A68FB68DB6B59
:10484000F968096C01FB03F31A44FB689A60FB6882
:1048500000229A63FB681A68FB685A60FB681A6852
:10486000FB68DB6B013BF968096C01FB03F31A443D
:10487000FB68DA60FB68FF2283F84420FB68FF22B4
:1048800083F845203B68002B14D1FB681B69002B83
:104890001AD0FB681033184600F0C8FE0346002B00
:1048A00012D00D4B4FF080521A60BFF34F8FBFF301
:1048B0006F8F09E0FB681033184606F0B3FCFB6805
:1048C0002433184606F0AEFCFFF7E2FE012318463B
:1048D0001037BD4680BD00BF04ED00E080B58EB04E
:1048E00000AFF860B9607A603B6000237B63FB68CF
:1048F0003B633B6B002B0BD14FF0400383F31188DC
:10490000BFF36F8FBFF34F8FBB6200BF00BFFDE7E8
:10491000BB68002B03D13B6B1B6C002B01D1012327
:1049200000E00023002B0BD14FF0400383F31188EC
:10493000BFF36F8FBFF34F8F7B6200BF00BFFDE7F8
:104940003B68022B03D13B6BDB6B012B01D10123B5
:1049500000E00023002B0BD14FF0400383F31188BC
:10496000BFF36F8FBFF34F8F3B6200BF00BFFDE708
:1049700000F0ECFF0346002B02D17B68002B01D135
:10498000012300E00023002B0BD14FF0400383F301
:104990001188BFF36F8FBFF34F8FFB6100BF00BF64
:1049A000FDE7FFF743FE3B6B9A6B3B6BDB6B9A4279
:1049B00002D33B68022B29D13A68B968386B06F0FC
:1049C000B7FEF8623B6B5B6A002B10D03B6B243365
:1049D000184600F02BFE0346002B13D03F4B4FF040
:1049E00080521A60BFF34F8FBFF36F8F0AE0FB6AEC
:1049F000002B07D0394B4FF080521A60BFF34F8F16
:104A0000BFF36F8FFFF744FE012363E07B68002B49
:104A100003D1FFF73DFE00235CE07B6B002B06D14A
:104A200007F11403184600F065FE01237B63FFF7CE
:104A30002FFE00F0E5FBFFF7F9FD3B6B93F84430E8
:104A40005BB2B3F1FF3F03D13B6B002283F84420FC
:104A50003B6B93F845305BB2B3F1FF3F03D13B6B47
:104A6000002283F84520FFF713FE3A1D07F11403D7
:104A70001146184600F054FE0346002B24D1386B33
:104A800006F04EFF0346002B18D03B6B10337A68BC
:104A90001146184600F078FD386B06F0D9FE00F09C
:104AA000BDFB0346002B7FF47CAF0C4B4FF08052D4
:104AB0001A60BFF34F8FBFF36F8F72E7386B06F04A
:104AC000C7FE00F0ABFB6CE7386B06F0C1FE00F0F0
:104AD000A5FB002318463837BD4680BD04ED00E035
:104AE00080B58CB000AFF860B9607A600023FB62DB
:104AF000FB68BB62BB6A002B0BD14FF0400383F312
:104B00001188BFF36F8FBFF34F8F3B6200BF00BFB1
:104B1000FDE7BB68002B03D1BB6A1B6C002B01D1E6
:104B2000012300E00023002B0BD14FF0400383F35F
:104B30001188BFF36F8FBFF34F8FFB6100BF00BFC2
:104B4000FDE700F003FF0346002B02D17B68002B3A
:104B500001D1012300E00023002B0BD14FF04003D3
:104B600083F31188BFF36F8FBFF34F8FBB6100BF1B
:104B700000BFFDE7FFF75AFDBB6A9B6B7B627B6A58
:104B8000002B1FD0B968B86A06F03CFE7B6A5A1E3B
:104B9000BB6A9A63BB6A1B69002B0FD0BB6A1033D8
:104BA000184600F043FD0346002B07D03C4B4FF066
:104BB00080521A60BFF34F8FBFF36F8FFFF768FD0E
:104BC000012369E07B68002B03D1FFF761FD00231F
:104BD00062E0FB6A002B06D107F11003184600F0D3
:104BE00089FD0123FB62FFF753FD00F009FBFFF78E
:104BF0001DFDBB6A93F844305BB2B3F1FF3F03D1B4
:104C0000BB6A002283F84420BB6A93F845305BB24C
:104C1000B3F1FF3F03D1BB6A002283F84520FFF7C1
:104C200037FD3A1D07F110031146184600F078FDD4
:104C30000346002B23D1B86A06F05CFE0346002B26
:104C400017D0BB6A24337A681146184600F09CFCE2
:104C5000B86A06F0FDFD00F0E1FA0346002B89D1A9
:104C60000F4B4FF080521A60BFF34F8FBFF36F8F1F
:104C700080E7B86A06F0ECFD00F0D0FA7AE7B86A8F
:104C800006F0E6FD00F0CAFAB86A06F033FE034605
:104C9000002B3FF46FAF002318463037BD4680BD70
:104CA00004ED00E080B58EB000AF7860396000237D
:104CB0007B637B68FB620023BB6200233B63FB6A70
:104CC000002B0BD14FF0400383F31188BFF36F8F9C
:104CD000BFF34F8FFB6100BF00BFFDE7FB6A1B6C9A
:104CE000002B0BD04FF0400383F31188BFF36F8F7D
:104CF000BFF34F8FBB6100BF00BFFDE700F026FE92
:104D00000346002B02D13B68002B01D1012300E0B8
:104D10000023002B0BD14FF0400383F31188BFF326
:104D20006F8FBFF34F8F7B6100BF00BFFDE7FFF7C1
:104D30007DFCFB6A9B6B7B627B6A002B24D07B6AC9
:104D40005A1EFB6A9A63FB6A1B68002B04D100F0B1
:104D5000A9FF0246FB6A9A60FB6A1B69002B0FD011
:104D6000FB6A1033184600F061FC0346002B07D0A5
:104D7000544B4FF080521A60BFF34F8FBFF36F8FC9
:104D8000FFF786FC012398E03B68002B12D13B6BB8
:104D9000002B0BD04FF0400383F31188BFF36F8FCC
:104DA000BFF34F8F3B6100BF00BFFDE7FFF770FC13
:104DB000002382E07B6B002B06D107F10803184625
:104DC00000F098FC01237B63FFF762FC00F018FA07
:104DD000FFF72CFCFB6A93F844305BB2B3F1FF3F62
:104DE00003D1FB6A002283F84420FB6A93F8453024
:104DF0005BB2B3F1FF3F03D1FB6A002283F8452089
:104E0000FFF746FC3A4607F108031146184600F042
:104E100087FC0346002B32D1F86A06F06BFD03468F
:104E2000002B26D0FB6A1B68002B09D1FFF7FEFB85
:104E3000FB6A9B68184600F0A7FD3863FFF728FC63
:104E4000FB6A24333A681146184600F09DFBF86A65
:104E500006F0FEFC00F0E2F90346002B7FF467AF9A
:104E6000184B4FF080521A60BFF34F8FBFF36F8F14
:104E70005DE7F86A06F0ECFC00F0D0F957E7F86A55
:104E800006F0E6FC00F0CAF9F86A06F033FD0346C6
:104E9000002B3FF44CAF3B6B002B0DD0FFF7C6FB54
:104EA000F86A06F02DFC3862FB6A9B68396A18467E
:104EB00000F068FEFFF7ECFB002318463837BD46CC
:104EC00080BD00BF04ED00E080B485B000AF786025
:104ED00039600023FB6014E00F4AFB6852F833305E
:104EE000002B0BD10C49FB683A6841F833200A4A81
:104EF000FB68DB0013447A685A6006E0FB68013304
:104F0000FB60FB68072BE7D900BF00BF1437BD4625
:104F10005DF8047B704700BFA039002080B582B0E7
:104F200000AF7860FFF782FB2C4B1B6801332B4AE4
:104F300013602B4B1B68002B09D1294A7B68136037
:104F4000264B1B68012B10D100F072FC0DE0254BA5
:104F50001B68002B09D1224B1B68DA6A7B68DB6A6D
:104F60009A4202D81E4A7B6813601F4B1B680133AC
:104F70001D4A13601C4B1A687B68DA647B68DB6A25
:104F800001229A40194B1B681343184A13607B682F
:104F9000DA6A13469B0013449B00154A1A447B6847
:104FA00004331946104606F06AF9FFF771FB0D4B02
:104FB0001B68002B0ED00A4B1B68DA6A7B68DB6A21
:104FC0009A4207D20B4B4FF080521A60BFF34F8FBB
:104FD000BFF36F8F00BF0837BD4680BDB83A0020D1
:104FE000E0390020C43A0020D43A0020C03A002022
:104FF000E439002004ED00E080B58AB000AF7860AD
:10500000396000237B627B68002B0BD14FF040039B
:1050100083F31188BFF36F8FBFF34F8F7B6100BFA6
:1050200000BFFDE73B68002B0BD14FF0400383F33B
:105030001188BFF36F8FBFF34F8F3B6100BF00BF7D
:10504000FDE72A4B1B68002B0BD04FF0400383F386
:105050001188BFF36F8FBFF34F8FFB6000BF00BF9E
:10506000FDE700F0CDF8224B1B683B627B681B68B4
:105070003A681344FB617B681B683A6A9A420BD218
:105080007B681B68FA699A4211D2FA693B6A9A42B4
:105090000DD901237B620AE07B681B68FA699A429A
:1050A00003D3FA693B6A9A4201D901237B627B6888
:1050B000FA691A607B6A002B06D0FA693B6AD31A38
:1050C0000021184600F002FE00F0A8F8B861BB69A4
:1050D000002B07D1074B4FF080521A60BFF34F8F60
:1050E000BFF36F8F00BF2837BD4680BDE03A002078
:1050F000BC3A002004ED00E080B584B000AF7860D9
:105100000023FB607B68002B18D0144B1B68002B1E
:105110000BD04FF0400383F31188BFF36F8FBFF3C1
:105120004F8FBB6000BF00BFFDE700F069F80021B2
:10513000786800F0CBFD00F071F8F860FB68002B98
:1051400007D1074B4FF080521A60BFF34F8FBFF368
:105150006F8F00BF1037BD4680BD00BFE03A002012
:1051600004ED00E080B586B002AF1F4B0193002331
:10517000009300235A221D491D4806F01DFCF860CB
:10518000FB68012B02D100F007FEF860FB68012BE1
:1051900016D14FF0400383F31188BFF36F8FBFF335
:1051A0004F8FBB6000BF134B4FF0FF321A60124BA2
:1051B00001221A60114B00221A60FFF793F90FE0E9
:1051C000FB68B3F1FF3F0BD14FF0400383F311882D
:1051D000BFF36F8FBFF34F8F7B6000BF00BFFDE752
:1051E00000BF1037BD4680BDDC3A002000CD000076
:1051F00001580000D83A0020C43A0020BC3A0020F0
:1052000080B400AF044B1B680133034A136000BF36
:10521000BD465DF8047B7047E03A002080B584B05D
:1052200000AF0023FB600023BB60424B1B68002BD8
:105230000BD14FF0400383F31188BFF36F8FBFF39F
:105240004F8F3B6000BF00BFFDE7FFF7EFF9394B21
:105250001B68013B374A1360364B1B68002B61D13A
:10526000354B1B68002B5DD02EE0344BDB68DB68D0
:10527000FB60FB681833184606F05EF8FB680433E1
:10528000184606F059F8FB68DB6A01229A402C4B5D
:105290001B6813432A4A1360FB68DA6A13469B00B3
:1052A00013449B00274A1A44FB68043319461046EE
:1052B00005F0E5FFFB68DA6A234B1B68DB6A9A425C
:1052C00002D3224B01221A601C4B1B68002BCCD14D
:1052D000FB68002B01D000F019FB1D4B1B687B60A5
:1052E0007B68002B10D000F047F80346002B02D05B
:1052F000164B01221A607B68013B7B607B68002BA8
:10530000F1D1134B00221A60104B1B68002B09D0FF
:105310000123BB600F4B4FF080521A60BFF34F8FD9
:10532000BFF36F8FFFF7B4F9BB6818461037BD465F
:1053300080BD00BFE03A0020B83A0020783A002053
:10534000C03A0020E4390020E0390020CC3A0020A7
:10535000C83A002004ED00E080B483B000AF054BF4
:105360001B687B607B6818460C37BD465DF8047B84
:10537000704700BFBC3A002080B586B000AF002364
:105380007B61484B1B68002B40F08180464B1B68BB
:1053900001333B61444A3B6913603B69002B21D1D7
:1053A000424B1B681B68002B0BD04FF0400383F36C
:1053B0001188BFF36F8FBFF34F8F3B6000BF00BFFB
:1053C000FDE73A4B1B68FB60394B1B68374A13609B
:1053D000374AFB681360374B1B680133354A13604B
:1053E00000F094FA344B1B683A699A4248D32F4B29
:1053F0001B681B68002B04D12F4B4FF0FF321A6043
:105400003EE02A4B1B68DB68DB68BB60BB685B68FF
:105410007B603A697B689A4203D2274A7B681360B3
:105420002EE0BB680433184605F086FFBB689B6A14
:10543000002B04D0BB681833184605F07DFFBB680D
:10544000DB6A01229A401D4B1B6813431B4A136001
:10545000BB68DA6A13469B0013449B00184A1A443F
:10546000BB6804331946104605F009FFBB68DA6AC9
:10547000144B1B68DB6A9A42B9D301237B61B6E700
:10548000114B1B68002B07D001237B6104E00F4BFD
:105490001B6801330D4A13607B6918461837BD46F7
:1054A00080BD00BFE03A0020BC3A0020703A0020E6
:1054B000743A0020D03A0020D83A0020C03A0020A8
:1054C000E4390020E0390020CC3A0020C83A00201E
:1054D00080B487B000AF274B1B68002B03D0264B4E
:1054E00001221A6040E0244B00221A60234B1B6803
:1054F000FB60FB68B3FA83F3FB72FB7AC3F11F0313
:105500007B611F497A6913469B0013449B000B443F
:105510001B68002B0BD14FF0400383F31188BFF3BE
:105520006F8FBFF34F8F7B6000BF00BFFDE77A69CD
:1055300013469B0013449B00114A13443B613B6993
:105540005B685A683B695A603B695A683B69083333
:105550009A4204D13B695B685A683B695A603B696F
:105560005B68DB68074A136000BF1C37BD465DF807
:10557000047B7047E03A0020CC3A0020C03A00207B
:10558000E4390020E039002080B584B000AF7860B5
:1055900039607B68002B0BD14FF0400383F31188F7
:1055A000BFF36F8FBFF34F8FFB6000BF00BFFDE7FE
:1055B000074B1B6818331946786805F084FE0121F3
:1055C000386800F083FB00BF1037BD4680BD00BFC8
:1055D000E039002080B586B000AFF860B9607A602D
:1055E000FB68002B0BD14FF0400383F31188BFF30E
:1055F0006F8FBFF34F8F7B6100BF00BFFDE70A4B8A
:105600001B6818331946F86805F039FE7B68002BD3
:1056100002D04FF0FF33BB607968B86800F056FBEA
:1056200000BF1837BD4680BDE039002080B586B088
:1056300000AF78607B68DB68DB683B613B69002B0F
:105640000BD14FF0400383F31188BFF36F8FBFF38B
:105650004F8FFB6000BF00BFFDE73B691833184662
:1056600005F06AFE1D4B1B68002B1CD13B690433FF
:10567000184605F061FE3B69DB6A01229A40184B2F
:105680001B681343164A13603B69DA6A13469B0092
:1056900013449B00134A1A443B69043319461046CD
:1056A00005F0EDFD05E03B69183319460E4805F09D
:1056B000E6FD3B69DA6A0D4B1B68DB6A9A4205D945
:1056C00001237B610A4B01221A6001E000237B6108
:1056D0007B6918461837BD4680BD00BFE03A002000
:1056E000C03A0020E4390020783A0020E039002058
:1056F000CC3A002080B483B000AF7860064B1A68C3
:105700007B681A60054B1A687B685A6000BF0C37CB
:10571000BD465DF8047B7047D03A0020BC3A0020BB
:1057200080B588B000AF786039607B68002B0BD102
:105730004FF0400383F31188BFF36F8FBFF34F8F98
:105740003B6100BF00BFFDE73B68002B0BD14FF072
:10575000400383F31188BFF36F8FBFF34F8FFB605C
:1057600000BF00BFFDE7FEF761FF1D4B1B68BB617B
:105770007B685B68BA69D31A7B613B681B68B3F1CD
:10578000FF3F02D10023FB6123E07B681A68154BC1
:105790001B689A4207D07B685B68BA699A4202D359
:1057A0000123FB6115E03B681B687A699A420BD2C2
:1057B0003B681A687B69D21A3B681A607868FFF701
:1057C00099FF0023FB6104E03B6800221A6001237B
:1057D000FB61FEF75DFFFB6918462037BD4680BDC3
:1057E000BC3A0020D03A002080B400AF034B012225
:1057F0001A6000BFBD465DF8047B7047CC3A0020BC
:1058000080B582B000AF786000F052F8064B1B689C
:10581000012BF9D9054B4FF080521A60BFF34F8F1F
:10582000BFF36F8FF0E700BFE439002004ED00E024
:1058300080B582B000AF00237B600CE07A6813462D
:105840009B0013449B00124A1344184605F0EAFCDF
:105850007B6801337B607B68042BEFD90D4805F032
:10586000E1FC0D4805F0DEFC0C4805F0DBFC0C48C3
:1058700005F0D8FC0B4805F0D5FC0B4B054A1A6027
:105880000A4B054A1A6000BF0837BD4680BD00BFFD
:10589000E4390020483A00205C3A0020783A0020A1
:1058A0008C3A0020A43A0020703A0020743A00207C
:1058B00080B582B000AF19E0FEF7B8FE104BDB6890
:1058C000DB687B607B680433184605F035FD0D4BC3
:1058D0001B68013B0B4A13600B4B1B68013B0A4AD8
:1058E0001360FEF7D5FE786806F04AF9064B1B6890
:1058F000002BE1D100BF00BF0837BD4680BD00BF0F
:105900008C3A0020B83A0020A03A002080B483B03E
:1059100000AF0C4B1B681B68002B04D10A4B4FF0E7
:10592000FF321A6008E0074B1B68DB68DB687B60AE
:105930007B685B68044A136000BF0C37BD465DF8A6
:10594000047B7047703A0020D83A002080B483B0BE
:1059500000AF0B4B1B68002B02D101237B6008E0DA
:10596000084B1B68002B02D102237B6001E000235F
:105970007B607B6818460C37BD465DF8047B70473A
:10598000C43A0020E03A002080B584B000AF7860CF
:105990007B68BB600023FB607B68002B5ED0BB682C
:1059A000DA6A314B1B68DB6A9A424ED2BB689B694C
:1059B000002B06DB2C4B1B68DB6AC3F10502BB68BE
:1059C0009A61BB685969BB68DA6A13469B00134445
:1059D0009B00264A134499422FD1BB6804331846D2
:1059E00005F0AAFC0346002B0AD1BB68DB6A012242
:1059F00002FA03F3DA431E4B1B6813401C4A136080
:105A0000194B1B68DA6ABB68DA62BB68DB6A012281
:105A10009A40174B1B681343154A1360BB68DA6A38
:105A200013469B0013449B00104A1A44BB6804337E
:105A30001946104605F023FC04E00B4B1B68DA6A9C
:105A4000BB68DA620123FB6008E0BB685A6D064B55
:105A50001B68DB6A9A4201D20123FB60FB6818468F
:105A60001037BD4680BD00BFE0390020E43900207A
:105A7000C03A002080B586B000AF78607B683B619B
:105A800000237B617B68002B70D03B4B1B683A691D
:105A90009A420BD04FF0400383F31188BFF36F8F0E
:105AA000BFF34F8FFB6000BF00BFFDE73B699B6DFD
:105AB000002B0BD14FF0400383F31188BFF36F8F9E
:105AC000BFF34F8FBB6000BF00BFFDE73B699B6D1D
:105AD0005A1E3B699A653B69DA6A3B695B6D9A427B
